{
  "address": "0x1ee4826E641701AAafEDc76D5ADC46CC9678c746",
  "abi": [
    {
      "inputs": [
        {
          "internalType": "address",
          "name": "_vault",
          "type": "address"
        },
        {
          "internalType": "address",
          "name": "_router",
          "type": "address"
        },
        {
          "internalType": "address",
          "name": "_weth",
          "type": "address"
        },
        {
          "internalType": "uint256",
          "name": "_depositFee",
          "type": "uint256"
        },
        {
          "internalType": "address",
          "name": "_orderBook",
          "type": "address"
        }
      ],
      "stateMutability": "nonpayable",
      "type": "constructor"
    },
    {
      "anonymous": false,
      "inputs": [
        {
          "indexed": false,
          "internalType": "address",
          "name": "account",
          "type": "address"
        },
        {
          "indexed": false,
          "internalType": "uint256",
          "name": "sizeDelta",
          "type": "uint256"
        },
        {
          "indexed": false,
          "internalType": "uint256",
          "name": "marginFeeBasisPoints",
          "type": "uint256"
        },
        {
          "indexed": false,
          "internalType": "bytes32",
          "name": "referralCode",
          "type": "bytes32"
        },
        {
          "indexed": false,
          "internalType": "address",
          "name": "referrer",
          "type": "address"
        }
      ],
      "name": "DecreasePositionReferral",
      "type": "event"
    },
    {
      "anonymous": false,
      "inputs": [
        {
          "indexed": false,
          "internalType": "address",
          "name": "account",
          "type": "address"
        },
        {
          "indexed": false,
          "internalType": "uint256",
          "name": "sizeDelta",
          "type": "uint256"
        },
        {
          "indexed": false,
          "internalType": "uint256",
          "name": "marginFeeBasisPoints",
          "type": "uint256"
        },
        {
          "indexed": false,
          "internalType": "bytes32",
          "name": "referralCode",
          "type": "bytes32"
        },
        {
          "indexed": false,
          "internalType": "address",
          "name": "referrer",
          "type": "address"
        }
      ],
      "name": "IncreasePositionReferral",
      "type": "event"
    },
    {
      "anonymous": false,
      "inputs": [
        {
          "indexed": false,
          "internalType": "address",
          "name": "admin",
          "type": "address"
        }
      ],
      "name": "SetAdmin",
      "type": "event"
    },
    {
      "anonymous": false,
      "inputs": [
        {
          "indexed": false,
          "internalType": "uint256",
          "name": "depositFee",
          "type": "uint256"
        }
      ],
      "name": "SetDepositFee",
      "type": "event"
    },
    {
      "anonymous": false,
      "inputs": [
        {
          "indexed": false,
          "internalType": "bool",
          "name": "inLegacyMode",
          "type": "bool"
        }
      ],
      "name": "SetInLegacyMode",
      "type": "event"
    },
    {
      "anonymous": false,
      "inputs": [
        {
          "indexed": false,
          "internalType": "uint256",
          "name": "increasePositionBufferBps",
          "type": "uint256"
        }
      ],
      "name": "SetIncreasePositionBufferBps",
      "type": "event"
    },
    {
      "anonymous": false,
      "inputs": [
        {
          "indexed": true,
          "internalType": "address",
          "name": "account",
          "type": "address"
        },
        {
          "indexed": false,
          "internalType": "bool",
          "name": "isActive",
          "type": "bool"
        }
      ],
      "name": "SetLiquidator",
      "type": "event"
    },
    {
      "anonymous": false,
      "inputs": [
        {
          "indexed": false,
          "internalType": "address[]",
          "name": "tokens",
          "type": "address[]"
        },
        {
          "indexed": false,
          "internalType": "uint256[]",
          "name": "longSizes",
          "type": "uint256[]"
        },
        {
          "indexed": false,
          "internalType": "uint256[]",
          "name": "shortSizes",
          "type": "uint256[]"
        }
      ],
      "name": "SetMaxGlobalSizes",
      "type": "event"
    },
    {
      "anonymous": false,
      "inputs": [
        {
          "indexed": true,
          "internalType": "address",
          "name": "account",
          "type": "address"
        },
        {
          "indexed": false,
          "internalType": "bool",
          "name": "isActive",
          "type": "bool"
        }
      ],
      "name": "SetOrderKeeper",
      "type": "event"
    },
    {
      "anonymous": false,
      "inputs": [
        {
          "indexed": false,
          "internalType": "address",
          "name": "account",
          "type": "address"
        },
        {
          "indexed": false,
          "internalType": "bool",
          "name": "isActive",
          "type": "bool"
        }
      ],
      "name": "SetPartner",
      "type": "event"
    },
    {
      "anonymous": false,
      "inputs": [
        {
          "indexed": false,
          "internalType": "address",
          "name": "referralStorage",
          "type": "address"
        }
      ],
      "name": "SetReferralStorage",
      "type": "event"
    },
    {
      "anonymous": false,
      "inputs": [
        {
          "indexed": false,
          "internalType": "bool",
          "name": "shouldValidateIncreaseOrder",
          "type": "bool"
        }
      ],
      "name": "SetShouldValidateIncreaseOrder",
      "type": "event"
    },
    {
      "anonymous": false,
      "inputs": [
        {
          "indexed": false,
          "internalType": "address",
          "name": "token",
          "type": "address"
        },
        {
          "indexed": false,
          "internalType": "address",
          "name": "receiver",
          "type": "address"
        },
        {
          "indexed": false,
          "internalType": "uint256",
          "name": "amount",
          "type": "uint256"
        }
      ],
      "name": "WithdrawFees",
      "type": "event"
    },
    {
      "inputs": [],
      "name": "BASIS_POINTS_DIVISOR",
      "outputs": [
        {
          "internalType": "uint256",
          "name": "",
          "type": "uint256"
        }
      ],
      "stateMutability": "view",
      "type": "function"
    },
    {
      "inputs": [],
      "name": "admin",
      "outputs": [
        {
          "internalType": "address",
          "name": "",
          "type": "address"
        }
      ],
      "stateMutability": "view",
      "type": "function"
    },
    {
      "inputs": [
        {
          "internalType": "address",
          "name": "_token",
          "type": "address"
        },
        {
          "internalType": "address",
          "name": "_spender",
          "type": "address"
        },
        {
          "internalType": "uint256",
          "name": "_amount",
          "type": "uint256"
        }
      ],
      "name": "approve",
      "outputs": [],
      "stateMutability": "nonpayable",
      "type": "function"
    },
    {
      "inputs": [
        {
          "internalType": "address",
          "name": "_collateralToken",
          "type": "address"
        },
        {
          "internalType": "address",
          "name": "_indexToken",
          "type": "address"
        },
        {
          "internalType": "uint256",
          "name": "_collateralDelta",
          "type": "uint256"
        },
        {
          "internalType": "uint256",
          "name": "_sizeDelta",
          "type": "uint256"
        },
        {
          "internalType": "bool",
          "name": "_isLong",
          "type": "bool"
        },
        {
          "internalType": "address",
          "name": "_receiver",
          "type": "address"
        },
        {
          "internalType": "uint256",
          "name": "_price",
          "type": "uint256"
        }
      ],
      "name": "decreasePosition",
      "outputs": [],
      "stateMutability": "nonpayable",
      "type": "function"
    },
    {
      "inputs": [
        {
          "internalType": "address[]",
          "name": "_path",
          "type": "address[]"
        },
        {
          "internalType": "address",
          "name": "_indexToken",
          "type": "address"
        },
        {
          "internalType": "uint256",
          "name": "_collateralDelta",
          "type": "uint256"
        },
        {
          "internalType": "uint256",
          "name": "_sizeDelta",
          "type": "uint256"
        },
        {
          "internalType": "bool",
          "name": "_isLong",
          "type": "bool"
        },
        {
          "internalType": "address",
          "name": "_receiver",
          "type": "address"
        },
        {
          "internalType": "uint256",
          "name": "_price",
          "type": "uint256"
        },
        {
          "internalType": "uint256",
          "name": "_minOut",
          "type": "uint256"
        }
      ],
      "name": "decreasePositionAndSwap",
      "outputs": [],
      "stateMutability": "nonpayable",
      "type": "function"
    },
    {
      "inputs": [
        {
          "internalType": "address[]",
          "name": "_path",
          "type": "address[]"
        },
        {
          "internalType": "address",
          "name": "_indexToken",
          "type": "address"
        },
        {
          "internalType": "uint256",
          "name": "_collateralDelta",
          "type": "uint256"
        },
        {
          "internalType": "uint256",
          "name": "_sizeDelta",
          "type": "uint256"
        },
        {
          "internalType": "bool",
          "name": "_isLong",
          "type": "bool"
        },
        {
          "internalType": "address payable",
          "name": "_receiver",
          "type": "address"
        },
        {
          "internalType": "uint256",
          "name": "_price",
          "type": "uint256"
        },
        {
          "internalType": "uint256",
          "name": "_minOut",
          "type": "uint256"
        }
      ],
      "name": "decreasePositionAndSwapETH",
      "outputs": [],
      "stateMutability": "nonpayable",
      "type": "function"
    },
    {
      "inputs": [
        {
          "internalType": "address",
          "name": "_collateralToken",
          "type": "address"
        },
        {
          "internalType": "address",
          "name": "_indexToken",
          "type": "address"
        },
        {
          "internalType": "uint256",
          "name": "_collateralDelta",
          "type": "uint256"
        },
        {
          "internalType": "uint256",
          "name": "_sizeDelta",
          "type": "uint256"
        },
        {
          "internalType": "bool",
          "name": "_isLong",
          "type": "bool"
        },
        {
          "internalType": "address payable",
          "name": "_receiver",
          "type": "address"
        },
        {
          "internalType": "uint256",
          "name": "_price",
          "type": "uint256"
        }
      ],
      "name": "decreasePositionETH",
      "outputs": [],
      "stateMutability": "nonpayable",
      "type": "function"
    },
    {
      "inputs": [],
      "name": "depositFee",
      "outputs": [
        {
          "internalType": "uint256",
          "name": "",
          "type": "uint256"
        }
      ],
      "stateMutability": "view",
      "type": "function"
    },
    {
      "inputs": [
        {
          "internalType": "address",
          "name": "_account",
          "type": "address"
        },
        {
          "internalType": "uint256",
          "name": "_orderIndex",
          "type": "uint256"
        },
        {
          "internalType": "address payable",
          "name": "_feeReceiver",
          "type": "address"
        }
      ],
      "name": "executeDecreaseOrder",
      "outputs": [],
      "stateMutability": "nonpayable",
      "type": "function"
    },
    {
      "inputs": [
        {
          "internalType": "address",
          "name": "_account",
          "type": "address"
        },
        {
          "internalType": "uint256",
          "name": "_orderIndex",
          "type": "uint256"
        },
        {
          "internalType": "address payable",
          "name": "_feeReceiver",
          "type": "address"
        }
      ],
      "name": "executeIncreaseOrder",
      "outputs": [],
      "stateMutability": "nonpayable",
      "type": "function"
    },
    {
      "inputs": [
        {
          "internalType": "address",
          "name": "_account",
          "type": "address"
        },
        {
          "internalType": "uint256",
          "name": "_orderIndex",
          "type": "uint256"
        },
        {
          "internalType": "address payable",
          "name": "_feeReceiver",
          "type": "address"
        }
      ],
      "name": "executeSwapOrder",
      "outputs": [],
      "stateMutability": "nonpayable",
      "type": "function"
    },
    {
      "inputs": [
        {
          "internalType": "address",
          "name": "",
          "type": "address"
        }
      ],
      "name": "feeReserves",
      "outputs": [
        {
          "internalType": "uint256",
          "name": "",
          "type": "uint256"
        }
      ],
      "stateMutability": "view",
      "type": "function"
    },
    {
      "inputs": [],
      "name": "gov",
      "outputs": [
        {
          "internalType": "address",
          "name": "",
          "type": "address"
        }
      ],
      "stateMutability": "view",
      "type": "function"
    },
    {
      "inputs": [],
      "name": "inLegacyMode",
      "outputs": [
        {
          "internalType": "bool",
          "name": "",
          "type": "bool"
        }
      ],
      "stateMutability": "view",
      "type": "function"
    },
    {
      "inputs": [
        {
          "internalType": "address[]",
          "name": "_path",
          "type": "address[]"
        },
        {
          "internalType": "address",
          "name": "_indexToken",
          "type": "address"
        },
        {
          "internalType": "uint256",
          "name": "_amountIn",
          "type": "uint256"
        },
        {
          "internalType": "uint256",
          "name": "_minOut",
          "type": "uint256"
        },
        {
          "internalType": "uint256",
          "name": "_sizeDelta",
          "type": "uint256"
        },
        {
          "internalType": "bool",
          "name": "_isLong",
          "type": "bool"
        },
        {
          "internalType": "uint256",
          "name": "_price",
          "type": "uint256"
        }
      ],
      "name": "increasePosition",
      "outputs": [],
      "stateMutability": "nonpayable",
      "type": "function"
    },
    {
      "inputs": [],
      "name": "increasePositionBufferBps",
      "outputs": [
        {
          "internalType": "uint256",
          "name": "",
          "type": "uint256"
        }
      ],
      "stateMutability": "view",
      "type": "function"
    },
    {
      "inputs": [
        {
          "internalType": "address[]",
          "name": "_path",
          "type": "address[]"
        },
        {
          "internalType": "address",
          "name": "_indexToken",
          "type": "address"
        },
        {
          "internalType": "uint256",
          "name": "_minOut",
          "type": "uint256"
        },
        {
          "internalType": "uint256",
          "name": "_sizeDelta",
          "type": "uint256"
        },
        {
          "internalType": "bool",
          "name": "_isLong",
          "type": "bool"
        },
        {
          "internalType": "uint256",
          "name": "_price",
          "type": "uint256"
        }
      ],
      "name": "increasePositionETH",
      "outputs": [],
      "stateMutability": "payable",
      "type": "function"
    },
    {
      "inputs": [
        {
          "internalType": "address",
          "name": "",
          "type": "address"
        }
      ],
      "name": "isLiquidator",
      "outputs": [
        {
          "internalType": "bool",
          "name": "",
          "type": "bool"
        }
      ],
      "stateMutability": "view",
      "type": "function"
    },
    {
      "inputs": [
        {
          "internalType": "address",
          "name": "",
          "type": "address"
        }
      ],
      "name": "isOrderKeeper",
      "outputs": [
        {
          "internalType": "bool",
          "name": "",
          "type": "bool"
        }
      ],
      "stateMutability": "view",
      "type": "function"
    },
    {
      "inputs": [
        {
          "internalType": "address",
          "name": "",
          "type": "address"
        }
      ],
      "name": "isPartner",
      "outputs": [
        {
          "internalType": "bool",
          "name": "",
          "type": "bool"
        }
      ],
      "stateMutability": "view",
      "type": "function"
    },
    {
      "inputs": [
        {
          "internalType": "address",
          "name": "_account",
          "type": "address"
        },
        {
          "internalType": "address",
          "name": "_collateralToken",
          "type": "address"
        },
        {
          "internalType": "address",
          "name": "_indexToken",
          "type": "address"
        },
        {
          "internalType": "bool",
          "name": "_isLong",
          "type": "bool"
        },
        {
          "internalType": "address",
          "name": "_feeReceiver",
          "type": "address"
        }
      ],
      "name": "liquidatePosition",
      "outputs": [],
      "stateMutability": "nonpayable",
      "type": "function"
    },
    {
      "inputs": [
        {
          "internalType": "address",
          "name": "",
          "type": "address"
        }
      ],
      "name": "maxGlobalLongSizes",
      "outputs": [
        {
          "internalType": "uint256",
          "name": "",
          "type": "uint256"
        }
      ],
      "stateMutability": "view",
      "type": "function"
    },
    {
      "inputs": [
        {
          "internalType": "address",
          "name": "",
          "type": "address"
        }
      ],
      "name": "maxGlobalShortSizes",
      "outputs": [
        {
          "internalType": "uint256",
          "name": "",
          "type": "uint256"
        }
      ],
      "stateMutability": "view",
      "type": "function"
    },
    {
      "inputs": [],
      "name": "orderBook",
      "outputs": [
        {
          "internalType": "address",
          "name": "",
          "type": "address"
        }
      ],
      "stateMutability": "view",
      "type": "function"
    },
    {
      "inputs": [],
      "name": "referralStorage",
      "outputs": [
        {
          "internalType": "address",
          "name": "",
          "type": "address"
        }
      ],
      "stateMutability": "view",
      "type": "function"
    },
    {
      "inputs": [],
      "name": "router",
      "outputs": [
        {
          "internalType": "address",
          "name": "",
          "type": "address"
        }
      ],
      "stateMutability": "view",
      "type": "function"
    },
    {
      "inputs": [
        {
          "internalType": "address payable",
          "name": "_receiver",
          "type": "address"
        },
        {
          "internalType": "uint256",
          "name": "_amount",
          "type": "uint256"
        }
      ],
      "name": "sendValue",
      "outputs": [],
      "stateMutability": "nonpayable",
      "type": "function"
    },
    {
      "inputs": [
        {
          "internalType": "address",
          "name": "_admin",
          "type": "address"
        }
      ],
      "name": "setAdmin",
      "outputs": [],
      "stateMutability": "nonpayable",
      "type": "function"
    },
    {
      "inputs": [
        {
          "internalType": "uint256",
          "name": "_depositFee",
          "type": "uint256"
        }
      ],
      "name": "setDepositFee",
      "outputs": [],
      "stateMutability": "nonpayable",
      "type": "function"
    },
    {
      "inputs": [
        {
          "internalType": "address",
          "name": "_gov",
          "type": "address"
        }
      ],
      "name": "setGov",
      "outputs": [],
      "stateMutability": "nonpayable",
      "type": "function"
    },
    {
      "inputs": [
        {
          "internalType": "bool",
          "name": "_inLegacyMode",
          "type": "bool"
        }
      ],
      "name": "setInLegacyMode",
      "outputs": [],
      "stateMutability": "nonpayable",
      "type": "function"
    },
    {
      "inputs": [
        {
          "internalType": "uint256",
          "name": "_increasePositionBufferBps",
          "type": "uint256"
        }
      ],
      "name": "setIncreasePositionBufferBps",
      "outputs": [],
      "stateMutability": "nonpayable",
      "type": "function"
    },
    {
      "inputs": [
        {
          "internalType": "address",
          "name": "_account",
          "type": "address"
        },
        {
          "internalType": "bool",
          "name": "_isActive",
          "type": "bool"
        }
      ],
      "name": "setLiquidator",
      "outputs": [],
      "stateMutability": "nonpayable",
      "type": "function"
    },
    {
      "inputs": [
        {
          "internalType": "address[]",
          "name": "_tokens",
          "type": "address[]"
        },
        {
          "internalType": "uint256[]",
          "name": "_longSizes",
          "type": "uint256[]"
        },
        {
          "internalType": "uint256[]",
          "name": "_shortSizes",
          "type": "uint256[]"
        }
      ],
      "name": "setMaxGlobalSizes",
      "outputs": [],
      "stateMutability": "nonpayable",
      "type": "function"
    },
    {
      "inputs": [
        {
          "internalType": "address",
          "name": "_account",
          "type": "address"
        },
        {
          "internalType": "bool",
          "name": "_isActive",
          "type": "bool"
        }
      ],
      "name": "setOrderKeeper",
      "outputs": [],
      "stateMutability": "nonpayable",
      "type": "function"
    },
    {
      "inputs": [
        {
          "internalType": "address",
          "name": "_account",
          "type": "address"
        },
        {
          "internalType": "bool",
          "name": "_isActive",
          "type": "bool"
        }
      ],
      "name": "setPartner",
      "outputs": [],
      "stateMutability": "nonpayable",
      "type": "function"
    },
    {
      "inputs": [
        {
          "internalType": "address",
          "name": "_referralStorage",
          "type": "address"
        }
      ],
      "name": "setReferralStorage",
      "outputs": [],
      "stateMutability": "nonpayable",
      "type": "function"
    },
    {
      "inputs": [
        {
          "internalType": "bool",
          "name": "_shouldValidateIncreaseOrder",
          "type": "bool"
        }
      ],
      "name": "setShouldValidateIncreaseOrder",
      "outputs": [],
      "stateMutability": "nonpayable",
      "type": "function"
    },
    {
      "inputs": [],
      "name": "shouldValidateIncreaseOrder",
      "outputs": [
        {
          "internalType": "bool",
          "name": "",
          "type": "bool"
        }
      ],
      "stateMutability": "view",
      "type": "function"
    },
    {
      "inputs": [],
      "name": "vault",
      "outputs": [
        {
          "internalType": "address",
          "name": "",
          "type": "address"
        }
      ],
      "stateMutability": "view",
      "type": "function"
    },
    {
      "inputs": [],
      "name": "weth",
      "outputs": [
        {
          "internalType": "address",
          "name": "",
          "type": "address"
        }
      ],
      "stateMutability": "view",
      "type": "function"
    },
    {
      "inputs": [
        {
          "internalType": "address",
          "name": "_token",
          "type": "address"
        },
        {
          "internalType": "address",
          "name": "_receiver",
          "type": "address"
        }
      ],
      "name": "withdrawFees",
      "outputs": [],
      "stateMutability": "nonpayable",
      "type": "function"
    },
    {
      "stateMutability": "payable",
      "type": "receive"
    }
  ],
  "transactionHash": "0x1aca0938ae20ce188b5a69df990d7b71a2adb55d7944d4eedb70c3ae6cf76475",
  "args": [
    "0x9679810001E7e33E8A4f49370BB72059E6D960EB",
    "0xf1f3d674Fe309BEAB53a99E6ccA40712b0F8E45C",
    "0xb767287a7143759f294cfb7b1adbca1140f3de71",
    50,
    "0x39d3B79BacfA1f0E6D2ceE87Edb4d80d2A275440"
  ],
  "numDeployments": 1,
  "solcInputHash": "38f125bf9344c296031e870b443ff3d2",
  "bytecode": "0x60806040526064600755600c805460ff60a81b1916600160a81b17905534801561002857600080fd5b50604051620048fb380380620048fb833981810160405260a081101561004d57600080fd5b5080516020820151604083015160608401516080909401516001600081905580546001600160a01b031990811633908117909255600380546001600160a01b03978816908316179055600480549587169582169590951790945560058054938616938516939093179092556006949094556002805483169091179055600c805492909316911617905561481580620000e66000396000f3fe6080604052600436106101f45760003560e01c806367a527931161010957806367a52793146107cf578063704b6c02146107e4578063776af5ba146108175780638c0f9aac1461082c57806390205d8c1461085f5780639698d25a146108be57806398d1e03a146108f15780639c95332f14610906578063ae4d7f9a14610932578063b32755de14610965578063b7ddc99214610a28578063cfad57a214610afe578063d38ab51914610b31578063d4ca83f914610b74578063de2ea94814610b89578063e1f21c6714610bde578063ef12c67e14610c21578063f255527814610dd3578063f851a44014610e0e578063f887ea4014610e23578063fbfa77cf14610e3857610244565b80626cc35e1461024957806307c7edc31461027a5780631045c74e146102bd57806311d9444a14610302578063126082cf1461034557806312d43a511461035a5780631b9043591461036f5780631ce9cb8f1461039b5780631e261538146103ce57806321acf65914610409578063233bfe3b1461044457806324a084df1461046e5780633039e37f146104a75780633833f5f5146105875780633fc8cef3146105ce578063430ed37c146105e35780634453a374146106425780634584bd4b1461067d578063490ae21014610692578063529a356f146106bc5780635fc8500e146106ef57610244565b36610244576005546001600160a01b031633146102425760405162461bcd60e51b81526004018080602001828103825260238152602001806147976023913960400191505060405180910390fd5b005b600080fd5b34801561025557600080fd5b5061025e610e4d565b604080516001600160a01b039092168252519081900360200190f35b34801561028657600080fd5b506102426004803603606081101561029d57600080fd5b506001600160a01b03813581169160208101359160409091013516610e5c565b3480156102c957600080fd5b506102f0600480360360208110156102e057600080fd5b50356001600160a01b0316610f28565b60408051918252519081900360200190f35b34801561030e57600080fd5b506102426004803603606081101561032557600080fd5b506001600160a01b03813581169160208101359160409091013516610f3a565b34801561035157600080fd5b506102f06111e1565b34801561036657600080fd5b5061025e6111e7565b34801561037b57600080fd5b506102426004803603602081101561039257600080fd5b503515156111f6565b3480156103a757600080fd5b506102f0600480360360208110156103be57600080fd5b50356001600160a01b0316611296565b3480156103da57600080fd5b50610242600480360360408110156103f157600080fd5b506001600160a01b03813516906020013515156112a8565b34801561041557600080fd5b506102426004803603604081101561042c57600080fd5b506001600160a01b0381351690602001351515611355565b34801561045057600080fd5b506102426004803603602081101561046757600080fd5b5035611406565b34801561047a57600080fd5b506102426004803603604081101561049157600080fd5b506001600160a01b03813516906020013561148e565b3480156104b357600080fd5b5061024260048036036101008110156104cb57600080fd5b810190602081018135600160201b8111156104e557600080fd5b8201836020820111156104f757600080fd5b803590602001918460208302840111600160201b8311171561051857600080fd5b919080806020026020016040519081016040528093929190818152602001838360200280828437600092019190915250929550505081356001600160a01b0390811693506020830135926040810135925060608101351515916080820135169060a08101359060c001356114f2565b34801561059357600080fd5b506105ba600480360360208110156105aa57600080fd5b50356001600160a01b03166116ff565b604080519115158252519081900360200190f35b3480156105da57600080fd5b5061025e611714565b3480156105ef57600080fd5b50610242600480360360e081101561060657600080fd5b506001600160a01b0381358116916020810135821691604082013591606081013591608082013515159160a08101359091169060c00135611723565b34801561064e57600080fd5b506102426004803603604081101561066557600080fd5b506001600160a01b038135169060200135151561184c565b34801561068957600080fd5b506105ba6118f9565b34801561069e57600080fd5b50610242600480360360208110156106b557600080fd5b5035611909565b3480156106c857600080fd5b506105ba600480360360208110156106df57600080fd5b50356001600160a01b0316611991565b3480156106fb57600080fd5b50610242600480360361010081101561071357600080fd5b810190602081018135600160201b81111561072d57600080fd5b82018360208201111561073f57600080fd5b803590602001918460208302840111600160201b8311171561076057600080fd5b919080806020026020016040519081016040528093929190818152602001838360200280828437600092019190915250929550505081356001600160a01b0390811693506020830135926040810135925060608101351515916080820135169060a08101359060c001356119a6565b3480156107db57600080fd5b506102f0611add565b3480156107f057600080fd5b506102426004803603602081101561080757600080fd5b50356001600160a01b0316611ae3565b34801561082357600080fd5b5061025e611b84565b34801561083857600080fd5b506105ba6004803603602081101561084f57600080fd5b50356001600160a01b0316611b93565b34801561086b57600080fd5b50610242600480360360e081101561088257600080fd5b506001600160a01b0381358116916020810135821691604082013591606081013591608082013515159160a08101359091169060c00135611ba8565b3480156108ca57600080fd5b506102f0600480360360208110156108e157600080fd5b50356001600160a01b0316611c68565b3480156108fd57600080fd5b506102f0611c7a565b34801561091257600080fd5b506102426004803603602081101561092957600080fd5b50351515611c80565b34801561093e57600080fd5b506102426004803603602081101561095557600080fd5b50356001600160a01b0316611d20565b610242600480360360c081101561097b57600080fd5b810190602081018135600160201b81111561099557600080fd5b8201836020820111156109a757600080fd5b803590602001918460208302840111600160201b831117156109c857600080fd5b919080806020026020016040519081016040528093929190818152602001838360200280828437600092019190915250929550506001600160a01b0383351693505050602081013590604081013590606081013515159060800135611dc1565b348015610a3457600080fd5b50610242600480360360e0811015610a4b57600080fd5b810190602081018135600160201b811115610a6557600080fd5b820183602082011115610a7757600080fd5b803590602001918460208302840111600160201b83111715610a9857600080fd5b919080806020026020016040519081016040528093929190818152602001838360200280828437600092019190915250929550506001600160a01b0383351693505050602081013590604081013590606081013590608081013515159060a00135611ff2565b348015610b0a57600080fd5b5061024260048036036020811015610b2157600080fd5b50356001600160a01b03166122d1565b348015610b3d57600080fd5b5061024260048036036060811015610b5457600080fd5b506001600160a01b03813581169160208101359160409091013516612340565b348015610b8057600080fd5b506105ba61256d565b348015610b9557600080fd5b50610242600480360360a0811015610bac57600080fd5b506001600160a01b0381358116916020810135821691604082013581169160608101351515916080909101351661257d565b348015610bea57600080fd5b5061024260048036036060811015610c0157600080fd5b506001600160a01b038135811691602081013590911690604001356127ed565b348015610c2d57600080fd5b5061024260048036036060811015610c4457600080fd5b810190602081018135600160201b811115610c5e57600080fd5b820183602082011115610c7057600080fd5b803590602001918460208302840111600160201b83111715610c9157600080fd5b9190808060200260200160405190810160405280939291908181526020018383602002808284376000920191909152509295949360208101935035915050600160201b811115610ce057600080fd5b820183602082011115610cf257600080fd5b803590602001918460208302840111600160201b83111715610d1357600080fd5b9190808060200260200160405190810160405280939291908181526020018383602002808284376000920191909152509295949360208101935035915050600160201b811115610d6257600080fd5b820183602082011115610d7457600080fd5b803590602001918460208302840111600160201b83111715610d9557600080fd5b9190808060200260200160405190810160405280939291908181526020018383602002808284376000920191909152509295506128c2945050505050565b348015610ddf57600080fd5b5061024260048036036040811015610df657600080fd5b506001600160a01b0381358116916020013516612ab1565b348015610e1a57600080fd5b5061025e612b95565b348015610e2f57600080fd5b5061025e612ba4565b348015610e4457600080fd5b5061025e612bb3565b6008546001600160a01b031681565b336000908152600d602052604090205460ff16610eae576040805162461bcd60e51b815260206004820152601a60248201526000805160206146fe833981519152604482015290519081900360640190fd5b600c54604080516307c7edc360e01b81526001600160a01b038681166004830152602482018690528481166044830152915191909216916307c7edc391606480830192600092919082900301818387803b158015610f0b57600080fd5b505af1158015610f1f573d6000803e3d6000fd5b50505050505050565b600a6020526000908152604090205481565b336000908152600d602052604090205460ff16610f8c576040805162461bcd60e51b815260206004820152601a60248201526000805160206146fe833981519152604482015290519081900360640190fd5b600354604080516312d43a5160e01b815290516001600160a01b039092169160009183916312d43a5191600480820192602092909190829003018186803b158015610fd657600080fd5b505afa158015610fea573d6000803e3d6000fd5b505050506040513d602081101561100057600080fd5b5051600c5460408051630130197760e11b81526001600160a01b038981166004830152602482018990529151939450600093919092169163026032ee91604480830192610100929190829003018186803b15801561105d57600080fd5b505afa158015611071573d6000803e3d6000fd5b505050506040513d61010081101561108857600080fd5b5060600151604080516306d63c1d60e41b81526001600160a01b038681166004830152915192935090841691636d63c1d09160248082019260009290919082900301818387803b1580156110db57600080fd5b505af11580156110ef573d6000803e3d6000fd5b5050600c54604080516308eca22560e11b81526001600160a01b038b81166004830152602482018b9052898116604483015291519190921693506311d9444a9250606480830192600092919082900301818387803b15801561115057600080fd5b505af1158015611164573d6000803e3d6000fd5b50505050816001600160a01b031663d3c87bbb846040518263ffffffff1660e01b815260040180826001600160a01b03168152602001915050600060405180830381600087803b1580156111b757600080fd5b505af11580156111cb573d6000803e3d6000fd5b505050506111d98682612bc2565b505050505050565b61271081565b6001546001600160a01b031681565b6002546001600160a01b03163314611243576040805162461bcd60e51b815260206004820152601e602482015260008051602061465d833981519152604482015290519081900360640190fd5b600c8054821515600160a81b810260ff60a81b199092169190911790915560408051918252517fa956222e37fe025ff51e5440ac729a9bd417ff91e485e14dcffa2c0ba8894f409181900360200190a150565b60096020526000908152604090205481565b6002546001600160a01b031633146112f5576040805162461bcd60e51b815260206004820152601e602482015260008051602061465d833981519152604482015290519081900360640190fd5b6001600160a01b0382166000818152600d6020908152604091829020805460ff1916851515908117909155825190815291517f1d5bc0255b943d6a5b5279e8a55d74d620baccbceecb25e87a3558f14c4c118e9281900390910190a25050565b6002546001600160a01b031633146113a2576040805162461bcd60e51b815260206004820152601e602482015260008051602061465d833981519152604482015290519081900360640190fd5b6001600160a01b0382166000818152600e6020908152604091829020805460ff191685151590811790915582519384529083015280517fa4e46c70ff429a91de7d1716d736e877c7cca1c22ac850b23d242530dd95e4749281900390910190a15050565b6002546001600160a01b03163314611453576040805162461bcd60e51b815260206004820152601e602482015260008051602061465d833981519152604482015290519081900360640190fd5b60078190556040805182815290517f21167d0d4661af93817ebce920f18986eed3d75d5e1c03f2aed05efcbafbc4529181900360200190a150565b6001546001600160a01b031633146114db576040805162461bcd60e51b81526020600482015260156024820152600080516020614582833981519152604482015290519081900360640190fd5b6114ee6001600160a01b03831682612d4b565b5050565b60026000541415611538576040805162461bcd60e51b815260206004820152601f6024820152600080516020614562833981519152604482015290519081900360640190fd5b60026000908155338152600e602052604090205460ff16806115635750600c54600160a01b900460ff165b6115a2576040805162461bcd60e51b815260206004820152601a60248201526000805160206146fe833981519152604482015290519081900360640190fd5b87516002146115e25760405162461bcd60e51b81526004018080602001828103825260258152602001806147e46025913960400191505060405180910390fd5b60055488516001600160a01b03909116908990600019810190811061160357fe5b60200260200101516001600160a01b031614611666576040805162461bcd60e51b815260206004820152601e60248201527f506f736974696f6e4d616e616765723a20696e76616c6964205f706174680000604482015290519081900360640190fd5b600061168c338a60008151811061167957fe5b60200260200101518a8a8a8a308a612e35565b90506116d5600360009054906101000a90046001600160a01b0316828b6000815181106116b557fe5b60200260200101516001600160a01b03166131e89092919063ffffffff16565b60006116e28a843061323a565b90506116ee81866132bf565b505060016000555050505050505050565b600d6020526000908152604090205460ff1681565b6005546001600160a01b031681565b60026000541415611769576040805162461bcd60e51b815260206004820152601f6024820152600080516020614562833981519152604482015290519081900360640190fd5b60026000908155338152600e602052604090205460ff16806117945750600c54600160a01b900460ff165b6117d3576040805162461bcd60e51b815260206004820152601a60248201526000805160206146fe833981519152604482015290519081900360640190fd5b6005546001600160a01b0388811691161461181f5760405162461bcd60e51b815260040180806020018281038252602981526020018061476e6029913960400191505060405180910390fd5b60006118313389898989893089612e35565b905061183d81846132bf565b50506001600055505050505050565b6002546001600160a01b03163314611899576040805162461bcd60e51b815260206004820152601e602482015260008051602061465d833981519152604482015290519081900360640190fd5b6001600160a01b0382166000818152600f6020908152604091829020805460ff1916851515908117909155825190815291517f8c0d56805c3b43d441481229dc64bee168253ffe4305f37ab7cfe63b1c4268c69281900390910190a25050565b600c54600160a81b900460ff1681565b6002546001600160a01b03163314611956576040805162461bcd60e51b815260206004820152601e602482015260008051602061465d833981519152604482015290519081900360640190fd5b60068190556040805182815290517f974fd3c1fcb4653dfc4fb740c4c692cd212d55c28f163f310128cb64d83006759181900360200190a150565b600f6020526000908152604090205460ff1681565b600260005414156119ec576040805162461bcd60e51b815260206004820152601f6024820152600080516020614562833981519152604482015290519081900360640190fd5b60026000908155338152600e602052604090205460ff1680611a175750600c54600160a01b900460ff165b611a56576040805162461bcd60e51b815260206004820152601a60248201526000805160206146fe833981519152604482015290519081900360640190fd5b8751600214611a965760405162461bcd60e51b81526004018080602001828103825260258152602001806147e46025913960400191505060405180910390fd5b6000611aa9338a60008151811061167957fe5b9050611ad2600360009054906101000a90046001600160a01b0316828b6000815181106116b557fe5b6116ee89838661323a565b60065481565b6001546001600160a01b03163314611b30576040805162461bcd60e51b81526020600482015260156024820152600080516020614582833981519152604482015290519081900360640190fd5b600280546001600160a01b0383166001600160a01b0319909116811790915560408051918252517f5a272403b402d892977df56625f4164ccaf70ca3863991c43ecfe76a6905b0a19181900360200190a150565b600c546001600160a01b031681565b600e6020526000908152604090205460ff1681565b60026000541415611bee576040805162461bcd60e51b815260206004820152601f6024820152600080516020614562833981519152604482015290519081900360640190fd5b60026000908155338152600e602052604090205460ff1680611c195750600c54600160a01b900460ff165b611c58576040805162461bcd60e51b815260206004820152601a60248201526000805160206146fe833981519152604482015290519081900360640190fd5b61183d3388888888888888612e35565b600b6020526000908152604090205481565b60075481565b6002546001600160a01b03163314611ccd576040805162461bcd60e51b815260206004820152601e602482015260008051602061465d833981519152604482015290519081900360640190fd5b600c8054821515600160a01b810260ff60a01b199092169190911790915560408051918252517feac6b3611e79ff0d8ea5daa8439f6b1ab7eea4ebf95f1dd360417f712c3fc3049181900360200190a150565b6002546001600160a01b03163314611d6d576040805162461bcd60e51b815260206004820152601e602482015260008051602061465d833981519152604482015290519081900360640190fd5b600880546001600160a01b0383166001600160a01b0319909116811790915560408051918252517f828abcccea18192c21d645e575652c49e20b986dab777906fc473d056b01b6a89181900360200190a150565b60026000541415611e07576040805162461bcd60e51b815260206004820152601f6024820152600080516020614562833981519152604482015290519081900360640190fd5b60026000908155338152600e602052604090205460ff1680611e325750600c54600160a01b900460ff165b611e71576040805162461bcd60e51b815260206004820152601a60248201526000805160206146fe833981519152604482015290519081900360640190fd5b855160011480611e82575085516002145b611ebd5760405162461bcd60e51b81526004018080602001828103825260258152602001806147e46025913960400191505060405180910390fd5b60055486516001600160a01b03909116908790600090611ed957fe5b60200260200101516001600160a01b031614611f3c576040805162461bcd60e51b815260206004820152601e60248201527f506f736974696f6e4d616e616765723a20696e76616c6964205f706174680000604482015290519081900360640190fd5b3415611fc057611f4a613338565b8551349060011015611f8157600354600554611f73916001600160a01b039182169116346131e8565b611f7e87863061323a565b90505b6000611f913389848a888a6133a4565b9050611fbd600360009054906101000a90046001600160a01b0316828a60018c5103815181106116b557fe5b50505b611fe53387600189510381518110611fd457fe5b602002602001015187868686613483565b5050600160005550505050565b60026000541415612038576040805162461bcd60e51b815260206004820152601f6024820152600080516020614562833981519152604482015290519081900360640190fd5b60026000908155338152600e602052604090205460ff16806120635750600c54600160a01b900460ff165b6120a2576040805162461bcd60e51b815260206004820152601a60248201526000805160206146fe833981519152604482015290519081900360640190fd5b8651600114806120b3575086516002145b6120ee5760405162461bcd60e51b81526004018080602001828103825260258152602001806147e46025913960400191505060405180910390fd5b841561229e578651600114156121ae5760045487516001600160a01b0390911690631b82787890899060009061212057fe5b60200260200101513330896040518563ffffffff1660e01b815260040180856001600160a01b03168152602001846001600160a01b03168152602001836001600160a01b03168152602001828152602001945050505050600060405180830381600087803b15801561219157600080fd5b505af11580156121a5573d6000803e3d6000fd5b50505050612260565b60045487516001600160a01b0390911690631b8278789089906000906121d057fe5b6020908102919091010151600354604080516001600160e01b031960e086901b1681526001600160a01b0393841660048201523360248201529290911660448301526064820189905251608480830192600092919082900301818387803b15801561223a57600080fd5b505af115801561224e573d6000803e3d6000fd5b5050505061225d87853061323a565b94505b60006122703389888a87896133a4565b905061229c600360009054906101000a90046001600160a01b0316828a60018c5103815181106116b557fe5b505b6122c3338860018a5103815181106122b257fe5b602002602001015188868686613483565b505060016000555050505050565b6001546001600160a01b0316331461231e576040805162461bcd60e51b81526020600482015260156024820152600080516020614582833981519152604482015290519081900360640190fd5b600180546001600160a01b0319166001600160a01b0392909216919091179055565b336000908152600d602052604090205460ff16612392576040805162461bcd60e51b815260206004820152601a60248201526000805160206146fe833981519152604482015290519081900360640190fd5b600061239e848461397f565b90506000600360009054906101000a90046001600160a01b031690506000816001600160a01b03166312d43a516040518163ffffffff1660e01b815260040160206040518083038186803b1580156123f557600080fd5b505afa158015612409573d6000803e3d6000fd5b505050506040513d602081101561241f57600080fd5b5051604080516306d63c1d60e41b81526001600160a01b038581166004830152915192935090831691636d63c1d09160248082019260009290919082900301818387803b15801561246f57600080fd5b505af1158015612483573d6000803e3d6000fd5b5050600c546040805163d38ab51960e01b81526001600160a01b038b81166004830152602482018b90528981166044830152915191909216935063d38ab5199250606480830192600092919082900301818387803b1580156124e457600080fd5b505af11580156124f8573d6000803e3d6000fd5b50505050806001600160a01b031663d3c87bbb836040518263ffffffff1660e01b815260040180826001600160a01b03168152602001915050600060405180830381600087803b15801561254b57600080fd5b505af115801561255f573d6000803e3d6000fd5b505050506111d98684613cbc565b600c54600160a01b900460ff1681565b600260005414156125c3576040805162461bcd60e51b815260206004820152601f6024820152600080516020614562833981519152604482015290519081900360640190fd5b60026000908155338152600f602052604090205460ff16612619576040805162461bcd60e51b815260206004820152601a60248201526000805160206146fe833981519152604482015290519081900360640190fd5b600354604080516312d43a5160e01b815290516001600160a01b039092169160009183916312d43a5191600480820192602092909190829003018186803b15801561266357600080fd5b505afa158015612677573d6000803e3d6000fd5b505050506040513d602081101561268d57600080fd5b5051604080516306d63c1d60e41b81526001600160a01b038581166004830152915192935090831691636d63c1d09160248082019260009290919082900301818387803b1580156126dd57600080fd5b505af11580156126f1573d6000803e3d6000fd5b505060408051631bc5d52960e31b81526001600160a01b038b811660048301528a811660248301528981166044830152881515606483015287811660848301529151918616935063de2ea948925060a48082019260009290919082900301818387803b15801561276057600080fd5b505af1158015612774573d6000803e3d6000fd5b50505050806001600160a01b031663d3c87bbb836040518263ffffffff1660e01b815260040180826001600160a01b03168152602001915050600060405180830381600087803b1580156127c757600080fd5b505af11580156127db573d6000803e3d6000fd5b50506001600055505050505050505050565b6001546001600160a01b0316331461283a576040805162461bcd60e51b81526020600482015260156024820152600080516020614582833981519152604482015290519081900360640190fd5b826001600160a01b031663095ea7b383836040518363ffffffff1660e01b815260040180836001600160a01b0316815260200182815260200192505050602060405180830381600087803b15801561289157600080fd5b505af11580156128a5573d6000803e3d6000fd5b505050506040513d60208110156128bb57600080fd5b5050505050565b6002546001600160a01b0316331461290f576040805162461bcd60e51b815260206004820152601e602482015260008051602061465d833981519152604482015290519081900360640190fd5b60005b83518110156129aa57600084828151811061292957fe5b6020026020010151905083828151811061293f57fe5b6020026020010151600a6000836001600160a01b03166001600160a01b031681526020019081526020016000208190555082828151811061297c57fe5b6020908102919091018101516001600160a01b039092166000908152600b9091526040902055600101612912565b507fae32d569b058895b9620d6552b09aaffedc9a6f396be4d595a224ad09f8b213983838360405180806020018060200180602001848103845287818151815260200191508051906020019060200280838360005b83811015612a175781810151838201526020016129ff565b50505050905001848103835286818151815260200191508051906020019060200280838360005b83811015612a56578181015183820152602001612a3e565b50505050905001848103825285818151815260200191508051906020019060200280838360005b83811015612a95578181015183820152602001612a7d565b50505050905001965050505050505060405180910390a1505050565b6002546001600160a01b03163314612afe576040805162461bcd60e51b815260206004820152601e602482015260008051602061465d833981519152604482015290519081900360640190fd5b6001600160a01b03821660009081526009602052604090205480612b2257506114ee565b6001600160a01b038316600081815260096020526040812055612b469083836131e8565b604080516001600160a01b0380861682528416602082015280820183905290517f4f1b51dd7a2fcb861aa2670f668be66835c4ee12b4bbbf037e4d0018f39819e49181900360600190a1505050565b6002546001600160a01b031681565b6004546001600160a01b031681565b6003546001600160a01b031681565b6008546001600160a01b031680612bd957506114ee565b600080826001600160a01b031663534ef883866040518263ffffffff1660e01b815260040180826001600160a01b03168152602001915050604080518083038186803b158015612c2857600080fd5b505afa158015612c3c573d6000803e3d6000fd5b505050506040513d6040811015612c5257600080fd5b508051602090910151909250905081612c6d575050506114ee565b7f474c763ff84bf2c2039a6d9fea955ecd0f724030e3c365b91169c6a16fe751b78585600360009054906101000a90046001600160a01b03166001600160a01b031663318bc6896040518163ffffffff1660e01b815260040160206040518083038186803b158015612cde57600080fd5b505afa158015612cf2573d6000803e3d6000fd5b505050506040513d6020811015612d0857600080fd5b5051604080516001600160a01b03948516815260208101939093528281019190915260608201869052918416608082015290519081900360a00190a15050505050565b80471015612da0576040805162461bcd60e51b815260206004820152601d60248201527f416464726573733a20696e73756666696369656e742062616c616e6365000000604482015290519081900360640190fd5b6040516000906001600160a01b0384169083908381818185875af1925050503d8060008114612deb576040519150601f19603f3d011682016040523d82523d6000602084013e612df0565b606091505b5050905080612e305760405162461bcd60e51b815260040180806020018281038252603a8152602001806145cd603a913960400191505060405180910390fd5b505050565b6003546000906001600160a01b03168415612f065782816001600160a01b03166381a612d68a6040518263ffffffff1660e01b815260040180826001600160a01b0316815260200191505060206040518083038186803b158015612e9857600080fd5b505afa158015612eac573d6000803e3d6000fd5b505050506040513d6020811015612ec257600080fd5b50511015612f015760405162461bcd60e51b815260040180806020018281038252603081526020018061462d6030913960400191505060405180910390fd5b612fbd565b82816001600160a01b031663e124e6d28a6040518263ffffffff1660e01b815260040180826001600160a01b0316815260200191505060206040518083038186803b158015612f5457600080fd5b505afa158015612f68573d6000803e3d6000fd5b505050506040513d6020811015612f7e57600080fd5b50511115612fbd5760405162461bcd60e51b81526004018080602001828103825260318152602001806146cd6031913960400191505060405180910390fd5b6000816001600160a01b03166312d43a516040518163ffffffff1660e01b815260040160206040518083038186803b158015612ff857600080fd5b505afa15801561300c573d6000803e3d6000fd5b505050506040513d602081101561302257600080fd5b5051604080516306d63c1d60e41b81526001600160a01b038581166004830152915192935090831691636d63c1d09160248082019260009290919082900301818387803b15801561307257600080fd5b505af1158015613086573d6000803e3d6000fd5b505050506000600460009054906101000a90046001600160a01b03166001600160a01b0316632662166b8d8d8d8d8d8d8d6040518863ffffffff1660e01b815260040180886001600160a01b03168152602001876001600160a01b03168152602001866001600160a01b031681526020018581526020018481526020018315158152602001826001600160a01b03168152602001975050505050505050602060405180830381600087803b15801561313d57600080fd5b505af1158015613151573d6000803e3d6000fd5b505050506040513d602081101561316757600080fd5b50516040805163d3c87bbb60e01b81526001600160a01b03868116600483015291519293509084169163d3c87bbb9160248082019260009290919082900301818387803b1580156131b757600080fd5b505af11580156131cb573d6000803e3d6000fd5b505050506131d98c89612bc2565b9b9a5050505050505050505050565b604080516001600160a01b038416602482015260448082018490528251808303909101815260649091019091526020810180516001600160e01b031663a9059cbb60e01b179052612e30908490613dc2565b60008351600214156132815761327a8460008151811061325657fe5b60200260200101518560018151811061326b57fe5b60200260200101518585613e73565b90506132b8565b60405162461bcd60e51b81526004018080602001828103825260298152602001806147456029913960400191505060405180910390fd5b9392505050565b60055460408051632e1a7d4d60e01b81526004810185905290516001600160a01b0390921691632e1a7d4d9160248082019260009290919082900301818387803b15801561330c57600080fd5b505af1158015613320573d6000803e3d6000fd5b506114ee925050506001600160a01b03821683612d4b565b34156133a257600560009054906101000a90046001600160a01b03166001600160a01b031663d0e30db0346040518263ffffffff1660e01b81526004016000604051808303818588803b15801561338e57600080fd5b505af11580156128bb573d6000803e3d6000fd5b565b6000806133b5888888888888613f49565b905080156134745760006133ec6127106133e66133df60065461271061412690919063ffffffff16565b8a90614168565b906141c1565b905060006133fa8883614126565b905060008960018b51038151811061340e57fe5b602002602001015190506134508260096000846001600160a01b03166001600160a01b031681526020019081526020016000205461420090919063ffffffff16565b6001600160a01b039091166000908152600960205260409020555091506134799050565b859150505b9695505050505050565b6003546001600160a01b031682156135515781816001600160a01b031663e124e6d2876040518263ffffffff1660e01b815260040180826001600160a01b0316815260200191505060206040518083038186803b1580156134e357600080fd5b505afa1580156134f7573d6000803e3d6000fd5b505050506040513d602081101561350d57600080fd5b5051111561354c5760405162461bcd60e51b81526004018080602001828103825260318152602001806146cd6031913960400191505060405180910390fd5b613608565b81816001600160a01b03166381a612d6876040518263ffffffff1660e01b815260040180826001600160a01b0316815260200191505060206040518083038186803b15801561359f57600080fd5b505afa1580156135b3573d6000803e3d6000fd5b505050506040513d60208110156135c957600080fd5b505110156136085760405162461bcd60e51b815260040180806020018281038252603081526020018061462d6030913960400191505060405180910390fd5b82156136f9576001600160a01b0385166000908152600a602052604090205480158015906136b75750806136b586846001600160a01b031663f07456ce8a6040518263ffffffff1660e01b815260040180826001600160a01b0316815260200191505060206040518083038186803b15801561368357600080fd5b505afa158015613697573d6000803e3d6000fd5b505050506040513d60208110156136ad57600080fd5b505190614200565b115b156136f35760405162461bcd60e51b815260040180806020018281038252602e815260200180614534602e913960400191505060405180910390fd5b506137ae565b6001600160a01b0385166000908152600b6020526040902054801580159061377057508061376e86846001600160a01b0316638a78daa88a6040518263ffffffff1660e01b815260040180826001600160a01b0316815260200191505060206040518083038186803b15801561368357600080fd5b115b156137ac5760405162461bcd60e51b815260040180806020018281038252602f81526020018061467d602f913960400191505060405180910390fd5b505b6000816001600160a01b03166312d43a516040518163ffffffff1660e01b815260040160206040518083038186803b1580156137e957600080fd5b505afa1580156137fd573d6000803e3d6000fd5b505050506040513d602081101561381357600080fd5b5051604080516306d63c1d60e41b81526001600160a01b038581166004830152915192935090831691636d63c1d09160248082019260009290919082900301818387803b15801561386357600080fd5b505af1158015613877573d6000803e3d6000fd5b50506004805460408051630f8ee8bb60e11b81526001600160a01b038e8116948201949094528c841660248201528b84166044820152606481018b905289151560848201529051929091169350631f1dd176925060a48082019260009290919082900301818387803b1580156138ec57600080fd5b505af1158015613900573d6000803e3d6000fd5b50505050806001600160a01b031663d3c87bbb836040518263ffffffff1660e01b815260040180826001600160a01b03168152602001915050600060405180830381600087803b15801561395357600080fd5b505af1158015613967573d6000803e3d6000fd5b505050506139758886613cbc565b5050505050505050565b6000806000806000806000600c60009054906101000a90046001600160a01b03166001600160a01b031663d3bab1d18a8a6040518363ffffffff1660e01b815260040180836001600160a01b03168152602001828152602001925050506101206040518083038186803b1580156139f557600080fd5b505afa158015613a09573d6000803e3d6000fd5b505050506040513d610120811015613a2057600080fd5b508051602082015160408301516060840151608085015160a090950151600c54949b509299509097509550919350909150600160a81b900460ff16613a6c57509450613cb69350505050565b80613a7e57509450613cb69350505050565b60008211613ad3576040805162461bcd60e51b815260206004820152601d60248201527f506f736974696f6e4d616e616765723a206c6f6e67206465706f736974000000604482015290519081900360640190fd5b60035460408051634a3f088d60e01b81526001600160a01b038c811660048301528781166024830152868116604483015284151560648301529151919092169160009182918491634a3f088d9160848082019261010092909190829003018186803b158015613b4157600080fd5b505afa158015613b55573d6000803e3d6000fd5b505050506040513d610100811015613b6c57600080fd5b508051602090910151909250905081613b9057849950505050505050505050613cb6565b6000613b9c8387614200565b90506000846001600160a01b0316630a48d5a98c8c6040518363ffffffff1660e01b815260040180836001600160a01b031681526020018281526020019250505060206040518083038186803b158015613bf557600080fd5b505afa158015613c09573d6000803e3d6000fd5b505050506040513d6020811015613c1f57600080fd5b505190506000613c2f8483614200565b90506000613c43856133e688612710614168565b90506000613c64836133e6600754612710018861416890919063ffffffff16565b905081811015613ca55760405162461bcd60e51b815260040180806020018281038252602781526020018061471e6027913960400191505060405180910390fd5b50979c505050505050505050505050505b92915050565b6008546001600160a01b031680613cd357506114ee565b600080826001600160a01b031663534ef883866040518263ffffffff1660e01b815260040180826001600160a01b03168152602001915050604080518083038186803b158015613d2257600080fd5b505afa158015613d36573d6000803e3d6000fd5b505050506040513d6040811015613d4c57600080fd5b5080516020918201516003546040805163318bc68960e01b815290519396509194507fc2414023ce7002ee98557d1e7be21e5559073336f2217ee5f9b2e50fd85f71ee93899389936001600160a01b039093169263318bc689926004808301939192829003018186803b158015612cde57600080fd5b6060613e17826040518060400160405280602081526020017f5361666545524332303a206c6f772d6c6576656c2063616c6c206661696c6564815250856001600160a01b03166142589092919063ffffffff16565b805190915015612e3057808060200190516020811015613e3657600080fd5b5051612e305760405162461bcd60e51b815260040180806020018281038252602a8152602001806147ba602a913960400191505060405180910390fd5b60035460408051634998b10960e11b81526001600160a01b03878116600483015286811660248301528481166044830152915160009384931691639331621291606480830192602092919082900301818787803b158015613ed357600080fd5b505af1158015613ee7573d6000803e3d6000fd5b505050506040513d6020811015613efd57600080fd5b5051905083811015613f405760405162461bcd60e51b815260040180806020018281038252602b8152602001806145a2602b913960400191505060405180910390fd5b95945050505050565b600082613f5857506000613479565b81613f6557506001613479565b600086600188510381518110613f7757fe5b602090810291909101015160035460408051634a3f088d60e01b81526001600160a01b038c81166004830152808516602483015289811660448301528815156064830152915193945091169160009182918491634a3f088d91608480830192610100929190829003018186803b158015613ff057600080fd5b505afa158015614004573d6000803e3d6000fd5b505050506040513d61010081101561401b57600080fd5b50805160209091015190925090508161403b576000945050505050613479565b60006140478388614200565b90506000846001600160a01b0316630a48d5a9878d6040518363ffffffff1660e01b815260040180836001600160a01b031681526020018281526020019250505060206040518083038186803b1580156140a057600080fd5b505afa1580156140b4573d6000803e3d6000fd5b505050506040513d60208110156140ca57600080fd5b5051905060006140da8483614200565b905060006140ee856133e688612710614168565b9050600061410f836133e6600754612710018861416890919063ffffffff16565b919091109f9e505050505050505050505050505050565b60006132b883836040518060400160405280601e81526020017f536166654d6174683a207375627472616374696f6e206f766572666c6f77000081525061426f565b60008261417757506000613cb6565b8282028284828161418457fe5b04146132b85760405162461bcd60e51b81526004018080602001828103825260218152602001806146ac6021913960400191505060405180910390fd5b60006132b883836040518060400160405280601a815260200179536166654d6174683a206469766973696f6e206279207a65726f60301b815250614306565b6000828201838110156132b8576040805162461bcd60e51b815260206004820152601b60248201527a536166654d6174683a206164646974696f6e206f766572666c6f7760281b604482015290519081900360640190fd5b6060614267848460008561436b565b949350505050565b600081848411156142fe5760405162461bcd60e51b81526004018080602001828103825283818151815260200191508051906020019080838360005b838110156142c35781810151838201526020016142ab565b50505050905090810190601f1680156142f05780820380516001836020036101000a031916815260200191505b509250505060405180910390fd5b505050900390565b600081836143555760405162461bcd60e51b81526020600482018181528351602484015283519092839260449091019190850190808383600083156142c35781810151838201526020016142ab565b50600083858161436157fe5b0495945050505050565b6060824710156143ac5760405162461bcd60e51b81526004018080602001828103825260268152602001806146076026913960400191505060405180910390fd5b6143b5856144c7565b614406576040805162461bcd60e51b815260206004820152601d60248201527f416464726573733a2063616c6c20746f206e6f6e2d636f6e7472616374000000604482015290519081900360640190fd5b60006060866001600160a01b031685876040518082805190602001908083835b602083106144455780518252601f199092019160209182019101614426565b6001836020036101000a03801982511681845116808217855250505050505090500191505060006040518083038185875af1925050503d80600081146144a7576040519150601f19603f3d011682016040523d82523d6000602084013e6144ac565b606091505b50915091506144bc8282866144cd565b979650505050505050565b3b151590565b606083156144dc5750816132b8565b8251156144ec5782518084602001fd5b60405162461bcd60e51b81526020600482018181528451602484015284518593919283926044019190850190808383600083156142c35781810151838201526020016142ab56fe42617365506f736974696f6e4d616e616765723a206d617820676c6f62616c206c6f6e67732065786365656465645265656e7472616e637947756172643a207265656e7472616e742063616c6c00476f7665726e61626c653a20666f7262696464656e000000000000000000000042617365506f736974696f6e4d616e616765723a20696e73756666696369656e7420616d6f756e744f7574416464726573733a20756e61626c6520746f2073656e642076616c75652c20726563697069656e74206d61792068617665207265766572746564416464726573733a20696e73756666696369656e742062616c616e636520666f722063616c6c42617365506f736974696f6e4d616e616765723a206d61726b207072696365206c6f776572207468616e206c696d697442617365506f736974696f6e4d616e616765723a20666f7262696464656e000042617365506f736974696f6e4d616e616765723a206d617820676c6f62616c2073686f727473206578636565646564536166654d6174683a206d756c7469706c69636174696f6e206f766572666c6f7742617365506f736974696f6e4d616e616765723a206d61726b20707269636520686967686572207468616e206c696d6974506f736974696f6e4d616e616765723a20666f7262696464656e000000000000506f736974696f6e4d616e616765723a206c6f6e67206c6576657261676520646563726561736542617365506f736974696f6e4d616e616765723a20696e76616c6964205f706174682e6c656e677468506f736974696f6e4d616e616765723a20696e76616c6964205f636f6c6c61746572616c546f6b656e42617365506f736974696f6e4d616e616765723a20696e76616c69642073656e6465725361666545524332303a204552433230206f7065726174696f6e20646964206e6f742073756363656564506f736974696f6e4d616e616765723a20696e76616c6964205f706174682e6c656e677468a164736f6c634300060c000a",
  "devdoc": {
    "kind": "dev",
    "methods": {},
    "version": 1
  },
  "userdoc": {
    "kind": "user",
    "methods": {},
    "version": 1
  },
  "storageLayout": {
    "storage": [
      {
        "astId": 23313,
        "contract": "contracts/core/PositionManager.sol:PositionManager",
        "label": "_status",
        "offset": 0,
        "slot": "0",
        "type": "t_uint256"
      },
      {
        "astId": 3,
        "contract": "contracts/core/PositionManager.sol:PositionManager",
        "label": "gov",
        "offset": 0,
        "slot": "1",
        "type": "t_address"
      },
      {
        "astId": 1547,
        "contract": "contracts/core/PositionManager.sol:PositionManager",
        "label": "admin",
        "offset": 0,
        "slot": "2",
        "type": "t_address"
      },
      {
        "astId": 1549,
        "contract": "contracts/core/PositionManager.sol:PositionManager",
        "label": "vault",
        "offset": 0,
        "slot": "3",
        "type": "t_address"
      },
      {
        "astId": 1551,
        "contract": "contracts/core/PositionManager.sol:PositionManager",
        "label": "router",
        "offset": 0,
        "slot": "4",
        "type": "t_address"
      },
      {
        "astId": 1553,
        "contract": "contracts/core/PositionManager.sol:PositionManager",
        "label": "weth",
        "offset": 0,
        "slot": "5",
        "type": "t_address"
      },
      {
        "astId": 1555,
        "contract": "contracts/core/PositionManager.sol:PositionManager",
        "label": "depositFee",
        "offset": 0,
        "slot": "6",
        "type": "t_uint256"
      },
      {
        "astId": 1558,
        "contract": "contracts/core/PositionManager.sol:PositionManager",
        "label": "increasePositionBufferBps",
        "offset": 0,
        "slot": "7",
        "type": "t_uint256"
      },
      {
        "astId": 1560,
        "contract": "contracts/core/PositionManager.sol:PositionManager",
        "label": "referralStorage",
        "offset": 0,
        "slot": "8",
        "type": "t_address"
      },
      {
        "astId": 1564,
        "contract": "contracts/core/PositionManager.sol:PositionManager",
        "label": "feeReserves",
        "offset": 0,
        "slot": "9",
        "type": "t_mapping(t_address,t_uint256)"
      },
      {
        "astId": 1569,
        "contract": "contracts/core/PositionManager.sol:PositionManager",
        "label": "maxGlobalLongSizes",
        "offset": 0,
        "slot": "10",
        "type": "t_mapping(t_address,t_uint256)"
      },
      {
        "astId": 1574,
        "contract": "contracts/core/PositionManager.sol:PositionManager",
        "label": "maxGlobalShortSizes",
        "offset": 0,
        "slot": "11",
        "type": "t_mapping(t_address,t_uint256)"
      },
      {
        "astId": 5508,
        "contract": "contracts/core/PositionManager.sol:PositionManager",
        "label": "orderBook",
        "offset": 0,
        "slot": "12",
        "type": "t_address"
      },
      {
        "astId": 5510,
        "contract": "contracts/core/PositionManager.sol:PositionManager",
        "label": "inLegacyMode",
        "offset": 20,
        "slot": "12",
        "type": "t_bool"
      },
      {
        "astId": 5513,
        "contract": "contracts/core/PositionManager.sol:PositionManager",
        "label": "shouldValidateIncreaseOrder",
        "offset": 21,
        "slot": "12",
        "type": "t_bool"
      },
      {
        "astId": 5517,
        "contract": "contracts/core/PositionManager.sol:PositionManager",
        "label": "isOrderKeeper",
        "offset": 0,
        "slot": "13",
        "type": "t_mapping(t_address,t_bool)"
      },
      {
        "astId": 5521,
        "contract": "contracts/core/PositionManager.sol:PositionManager",
        "label": "isPartner",
        "offset": 0,
        "slot": "14",
        "type": "t_mapping(t_address,t_bool)"
      },
      {
        "astId": 5525,
        "contract": "contracts/core/PositionManager.sol:PositionManager",
        "label": "isLiquidator",
        "offset": 0,
        "slot": "15",
        "type": "t_mapping(t_address,t_bool)"
      }
    ],
    "types": {
      "t_address": {
        "encoding": "inplace",
        "label": "address",
        "numberOfBytes": "20"
      },
      "t_bool": {
        "encoding": "inplace",
        "label": "bool",
        "numberOfBytes": "1"
      },
      "t_mapping(t_address,t_bool)": {
        "encoding": "mapping",
        "key": "t_address",
        "label": "mapping(address => bool)",
        "numberOfBytes": "32",
        "value": "t_bool"
      },
      "t_mapping(t_address,t_uint256)": {
        "encoding": "mapping",
        "key": "t_address",
        "label": "mapping(address => uint256)",
        "numberOfBytes": "32",
        "value": "t_uint256"
      },
      "t_uint256": {
        "encoding": "inplace",
        "label": "uint256",
        "numberOfBytes": "32"
      }
    }
  }
}