{
  "address": "0x30a1635A3AE08BA8714117693Aa0cEb17ED542C6",
  "abi": [
    {
      "inputs": [
        {
          "internalType": "contract IReferralStorage",
          "name": "_referralStorage",
          "type": "address"
        },
        {
          "internalType": "bytes32[]",
          "name": "_codes",
          "type": "bytes32[]"
        }
      ],
      "name": "getCodeOwners",
      "outputs": [
        {
          "internalType": "address[]",
          "name": "",
          "type": "address[]"
        }
      ],
      "stateMutability": "view",
      "type": "function"
    }
  ],
  "transactionHash": "0xf6b7b8f9793843446a2aca45b2780a146215b71d2c71a8267026daf75ca9288c",
  "args": [],
  "numDeployments": 1,
  "solcInputHash": "38f125bf9344c296031e870b443ff3d2",
  "bytecode": "0x608060405234801561001057600080fd5b50610251806100206000396000f3fe608060405234801561001057600080fd5b506004361061002b5760003560e01c80630f6803c014610030575b600080fd5b6100e16004803603604081101561004657600080fd5b6001600160a01b038235169190810190604081016020820135600160201b81111561007057600080fd5b82018360208201111561008257600080fd5b803590602001918460208302840111600160201b831117156100a357600080fd5b919080806020026020016040519081016040528093929190818152602001838360200280828437600092019190915250929550610131945050505050565b60408051602080825283518183015283519192839290830191858101910280838360005b8381101561011d578181015183820152602001610105565b505050509050019250505060405180910390f35b606080825167ffffffffffffffff8111801561014c57600080fd5b50604051908082528060200260200182016040528015610176578160200160208202803683370190505b50905060005b835181101561023c57600084828151811061019357fe5b60200260200101519050856001600160a01b031663c8b3c460826040518263ffffffff1660e01b81526004018082815260200191505060206040518083038186803b1580156101e157600080fd5b505afa1580156101f5573d6000803e3d6000fd5b505050506040513d602081101561020b57600080fd5b5051835184908490811061021b57fe5b6001600160a01b03909216602092830291909101909101525060010161017c565b50939250505056fea164736f6c634300060c000a",
  "devdoc": {
    "kind": "dev",
    "methods": {},
    "version": 1
  },
  "userdoc": {
    "kind": "user",
    "methods": {},
    "version": 1
  },
  "storageLayout": {
    "storage": [],
    "types": null
  }
}