{
  "address": "0xd2134C52dD1ca07233770B28af5bBa94ceb7640b",
  "abi": [
    {
      "anonymous": false,
      "inputs": [
        {
          "indexed": false,
          "internalType": "address",
          "name": "account",
          "type": "address"
        },
        {
          "indexed": false,
          "internalType": "uint256",
          "name": "amount",
          "type": "uint256"
        }
      ],
      "name": "StakeXdx",
      "type": "event"
    },
    {
      "anonymous": false,
      "inputs": [
        {
          "indexed": false,
          "internalType": "address",
          "name": "account",
          "type": "address"
        },
        {
          "indexed": false,
          "internalType": "uint256",
          "name": "amount",
          "type": "uint256"
        }
      ],
      "name": "StakeXlx",
      "type": "event"
    },
    {
      "anonymous": false,
      "inputs": [
        {
          "indexed": false,
          "internalType": "address",
          "name": "account",
          "type": "address"
        },
        {
          "indexed": false,
          "internalType": "uint256",
          "name": "amount",
          "type": "uint256"
        }
      ],
      "name": "UnstakeXdx",
      "type": "event"
    },
    {
      "anonymous": false,
      "inputs": [
        {
          "indexed": false,
          "internalType": "address",
          "name": "account",
          "type": "address"
        },
        {
          "indexed": false,
          "internalType": "uint256",
          "name": "amount",
          "type": "uint256"
        }
      ],
      "name": "UnstakeXlx",
      "type": "event"
    },
    {
      "inputs": [
        {
          "internalType": "address[]",
          "name": "_accounts",
          "type": "address[]"
        }
      ],
      "name": "batchCompoundForAccounts",
      "outputs": [],
      "stateMutability": "nonpayable",
      "type": "function"
    },
    {
      "inputs": [
        {
          "internalType": "address[]",
          "name": "_accounts",
          "type": "address[]"
        },
        {
          "internalType": "uint256[]",
          "name": "_amounts",
          "type": "uint256[]"
        }
      ],
      "name": "batchStakeXdxForAccount",
      "outputs": [],
      "stateMutability": "nonpayable",
      "type": "function"
    },
    {
      "inputs": [],
      "name": "bnXdx",
      "outputs": [
        {
          "internalType": "address",
          "name": "",
          "type": "address"
        }
      ],
      "stateMutability": "view",
      "type": "function"
    },
    {
      "inputs": [],
      "name": "bonusXdxTracker",
      "outputs": [
        {
          "internalType": "address",
          "name": "",
          "type": "address"
        }
      ],
      "stateMutability": "view",
      "type": "function"
    },
    {
      "inputs": [],
      "name": "claim",
      "outputs": [],
      "stateMutability": "nonpayable",
      "type": "function"
    },
    {
      "inputs": [],
      "name": "claimEsXdx",
      "outputs": [],
      "stateMutability": "nonpayable",
      "type": "function"
    },
    {
      "inputs": [],
      "name": "claimFees",
      "outputs": [],
      "stateMutability": "nonpayable",
      "type": "function"
    },
    {
      "inputs": [],
      "name": "compound",
      "outputs": [],
      "stateMutability": "nonpayable",
      "type": "function"
    },
    {
      "inputs": [
        {
          "internalType": "address",
          "name": "_account",
          "type": "address"
        }
      ],
      "name": "compoundForAccount",
      "outputs": [],
      "stateMutability": "nonpayable",
      "type": "function"
    },
    {
      "inputs": [],
      "name": "esXdx",
      "outputs": [
        {
          "internalType": "address",
          "name": "",
          "type": "address"
        }
      ],
      "stateMutability": "view",
      "type": "function"
    },
    {
      "inputs": [],
      "name": "feeXdxTracker",
      "outputs": [
        {
          "internalType": "address",
          "name": "",
          "type": "address"
        }
      ],
      "stateMutability": "view",
      "type": "function"
    },
    {
      "inputs": [],
      "name": "feeXlxTracker",
      "outputs": [
        {
          "internalType": "address",
          "name": "",
          "type": "address"
        }
      ],
      "stateMutability": "view",
      "type": "function"
    },
    {
      "inputs": [],
      "name": "gov",
      "outputs": [
        {
          "internalType": "address",
          "name": "",
          "type": "address"
        }
      ],
      "stateMutability": "view",
      "type": "function"
    },
    {
      "inputs": [
        {
          "internalType": "address",
          "name": "_weth",
          "type": "address"
        },
        {
          "internalType": "address",
          "name": "_xdx",
          "type": "address"
        },
        {
          "internalType": "address",
          "name": "_esXdx",
          "type": "address"
        },
        {
          "internalType": "address",
          "name": "_bnXdx",
          "type": "address"
        },
        {
          "internalType": "address",
          "name": "_xlx",
          "type": "address"
        },
        {
          "internalType": "address",
          "name": "_stakedXdxTracker",
          "type": "address"
        },
        {
          "internalType": "address",
          "name": "_bonusXdxTracker",
          "type": "address"
        },
        {
          "internalType": "address",
          "name": "_feeXdxTracker",
          "type": "address"
        },
        {
          "internalType": "address",
          "name": "_feeXlxTracker",
          "type": "address"
        },
        {
          "internalType": "address",
          "name": "_stakedXlxTracker",
          "type": "address"
        },
        {
          "internalType": "address",
          "name": "_xlxManager",
          "type": "address"
        }
      ],
      "name": "initialize",
      "outputs": [],
      "stateMutability": "nonpayable",
      "type": "function"
    },
    {
      "inputs": [],
      "name": "isInitialized",
      "outputs": [
        {
          "internalType": "bool",
          "name": "",
          "type": "bool"
        }
      ],
      "stateMutability": "view",
      "type": "function"
    },
    {
      "inputs": [
        {
          "internalType": "address",
          "name": "_token",
          "type": "address"
        },
        {
          "internalType": "uint256",
          "name": "_amount",
          "type": "uint256"
        },
        {
          "internalType": "uint256",
          "name": "_minUsdg",
          "type": "uint256"
        },
        {
          "internalType": "uint256",
          "name": "_minXlx",
          "type": "uint256"
        }
      ],
      "name": "mintAndStakeXlx",
      "outputs": [
        {
          "internalType": "uint256",
          "name": "",
          "type": "uint256"
        }
      ],
      "stateMutability": "nonpayable",
      "type": "function"
    },
    {
      "inputs": [
        {
          "internalType": "uint256",
          "name": "_minUsdg",
          "type": "uint256"
        },
        {
          "internalType": "uint256",
          "name": "_minXlx",
          "type": "uint256"
        }
      ],
      "name": "mintAndStakeXlxETH",
      "outputs": [
        {
          "internalType": "uint256",
          "name": "",
          "type": "uint256"
        }
      ],
      "stateMutability": "payable",
      "type": "function"
    },
    {
      "inputs": [
        {
          "internalType": "address",
          "name": "_gov",
          "type": "address"
        }
      ],
      "name": "setGov",
      "outputs": [],
      "stateMutability": "nonpayable",
      "type": "function"
    },
    {
      "inputs": [
        {
          "internalType": "uint256",
          "name": "_amount",
          "type": "uint256"
        }
      ],
      "name": "stakeEsXdx",
      "outputs": [],
      "stateMutability": "nonpayable",
      "type": "function"
    },
    {
      "inputs": [
        {
          "internalType": "uint256",
          "name": "_amount",
          "type": "uint256"
        }
      ],
      "name": "stakeXdx",
      "outputs": [],
      "stateMutability": "nonpayable",
      "type": "function"
    },
    {
      "inputs": [
        {
          "internalType": "address",
          "name": "_account",
          "type": "address"
        },
        {
          "internalType": "uint256",
          "name": "_amount",
          "type": "uint256"
        }
      ],
      "name": "stakeXdxForAccount",
      "outputs": [],
      "stateMutability": "nonpayable",
      "type": "function"
    },
    {
      "inputs": [],
      "name": "stakedXdxTracker",
      "outputs": [
        {
          "internalType": "address",
          "name": "",
          "type": "address"
        }
      ],
      "stateMutability": "view",
      "type": "function"
    },
    {
      "inputs": [],
      "name": "stakedXlxTracker",
      "outputs": [
        {
          "internalType": "address",
          "name": "",
          "type": "address"
        }
      ],
      "stateMutability": "view",
      "type": "function"
    },
    {
      "inputs": [
        {
          "internalType": "address",
          "name": "_tokenOut",
          "type": "address"
        },
        {
          "internalType": "uint256",
          "name": "_xlxAmount",
          "type": "uint256"
        },
        {
          "internalType": "uint256",
          "name": "_minOut",
          "type": "uint256"
        },
        {
          "internalType": "address",
          "name": "_receiver",
          "type": "address"
        }
      ],
      "name": "unstakeAndRedeemXlx",
      "outputs": [
        {
          "internalType": "uint256",
          "name": "",
          "type": "uint256"
        }
      ],
      "stateMutability": "nonpayable",
      "type": "function"
    },
    {
      "inputs": [
        {
          "internalType": "uint256",
          "name": "_xlxAmount",
          "type": "uint256"
        },
        {
          "internalType": "uint256",
          "name": "_minOut",
          "type": "uint256"
        },
        {
          "internalType": "address payable",
          "name": "_receiver",
          "type": "address"
        }
      ],
      "name": "unstakeAndRedeemXlxETH",
      "outputs": [
        {
          "internalType": "uint256",
          "name": "",
          "type": "uint256"
        }
      ],
      "stateMutability": "nonpayable",
      "type": "function"
    },
    {
      "inputs": [
        {
          "internalType": "uint256",
          "name": "_amount",
          "type": "uint256"
        }
      ],
      "name": "unstakeEsXdx",
      "outputs": [],
      "stateMutability": "nonpayable",
      "type": "function"
    },
    {
      "inputs": [
        {
          "internalType": "uint256",
          "name": "_amount",
          "type": "uint256"
        }
      ],
      "name": "unstakeXdx",
      "outputs": [],
      "stateMutability": "nonpayable",
      "type": "function"
    },
    {
      "inputs": [],
      "name": "weth",
      "outputs": [
        {
          "internalType": "address",
          "name": "",
          "type": "address"
        }
      ],
      "stateMutability": "view",
      "type": "function"
    },
    {
      "inputs": [
        {
          "internalType": "address",
          "name": "_token",
          "type": "address"
        },
        {
          "internalType": "address",
          "name": "_account",
          "type": "address"
        },
        {
          "internalType": "uint256",
          "name": "_amount",
          "type": "uint256"
        }
      ],
      "name": "withdrawToken",
      "outputs": [],
      "stateMutability": "nonpayable",
      "type": "function"
    },
    {
      "inputs": [],
      "name": "xdx",
      "outputs": [
        {
          "internalType": "address",
          "name": "",
          "type": "address"
        }
      ],
      "stateMutability": "view",
      "type": "function"
    },
    {
      "inputs": [],
      "name": "xlx",
      "outputs": [
        {
          "internalType": "address",
          "name": "",
          "type": "address"
        }
      ],
      "stateMutability": "view",
      "type": "function"
    },
    {
      "inputs": [],
      "name": "xlxManager",
      "outputs": [
        {
          "internalType": "address",
          "name": "",
          "type": "address"
        }
      ],
      "stateMutability": "view",
      "type": "function"
    },
    {
      "stateMutability": "payable",
      "type": "receive"
    }
  ],
  "transactionHash": "0xc53214416603762a8bbda382eb4a33edb8d8afb005988735f4b1f540c619ce61",
  "args": [],
  "numDeployments": 1,
  "solcInputHash": "38f125bf9344c296031e870b443ff3d2",
  "bytecode": "0x608060405234801561001057600080fd5b506001600081905580546001600160a01b0319163317905561302f806100376000396000f3fe6080604052600436106101775760003560e01c806301e33667146101db5780630ed3a6261461021e5780630eecca331461024857806312d43a5114610279578063185c55601461028e5780631af276a6146102a35780631ede42551461035157806327d4d8c8146103a857806329484924146103e75780632a9f4083146103fc5780632bbc4c4e1461042f5780633288086014610444578063392e53cd1461046e5780633fc8cef3146104975780634e71d92d146104ac5780634ed87f6f146104c1578063540f3668146104fa57806363efdf381461050f578063650645d6146105245780636b6297db1461054757806376902b831461058e5780637e8daa2314610617578063cc47f04e1461062c578063cfad57a214610641578063d00f1e2114610674578063d294f0931461069e578063e90a3fbd146106b3578063e9e273bf146106c8578063f69e2046146106f2578063f91c9e9f14610707578063fbc3e6f21461071c578063fec2aeba14610731576101d6565b366101d6576002546001600160a01b031633146101d4576040805162461bcd60e51b81526020600482015260166024820152752937baba32b91d1034b73b30b634b21039b2b73232b960511b604482015290519081900360640190fd5b005b600080fd5b3480156101e757600080fd5b506101d4600480360360608110156101fe57600080fd5b506001600160a01b03813581169160208101359091169060400135610861565b34801561022a57600080fd5b506101d46004803603602081101561024157600080fd5b50356108c7565b34801561025457600080fd5b5061025d610934565b604080516001600160a01b039092168252519081900360200190f35b34801561028557600080fd5b5061025d610943565b34801561029a57600080fd5b5061025d610952565b3480156102af57600080fd5b506101d4600480360360208110156102c657600080fd5b810190602081018135600160201b8111156102e057600080fd5b8201836020820111156102f257600080fd5b803590602001918460208302840111600160201b8311171561031357600080fd5b919080806020026020016040519081016040528093929190818152602001838360200280828437600092019190915250929550610961945050505050565b34801561035d57600080fd5b506103966004803603608081101561037457600080fd5b506001600160a01b038135169060208101359060408101359060600135610a32565b60408051918252519081900360200190f35b3480156103b457600080fd5b50610396600480360360608110156103cb57600080fd5b50803590602081013590604001356001600160a01b0316610cb2565b3480156103f357600080fd5b5061025d610fbf565b34801561040857600080fd5b506101d46004803603602081101561041f57600080fd5b50356001600160a01b0316610fce565b34801561043b57600080fd5b5061025d61106f565b34801561045057600080fd5b506101d46004803603602081101561046757600080fd5b503561107e565b34801561047a57600080fd5b506104836110e1565b604080519115158252519081900360200190f35b3480156104a357600080fd5b5061025d6110f1565b3480156104b857600080fd5b506101d4611100565b3480156104cd57600080fd5b506101d4600480360360408110156104e457600080fd5b506001600160a01b03813516906020013561135f565b34801561050657600080fd5b5061025d611411565b34801561051b57600080fd5b5061025d611420565b6103966004803603604081101561053a57600080fd5b508035906020013561142f565b34801561055357600080fd5b506103966004803603608081101561056a57600080fd5b506001600160a01b03813581169160208101359160408201359160600135166117ac565b34801561059a57600080fd5b506101d460048036036101608110156105b257600080fd5b506001600160a01b038135811691602081013582169160408201358116916060810135821691608082013581169160a081013582169160c082013581169160e08101358216916101008201358116916101208101358216916101409091013516611a40565b34801561062357600080fd5b5061025d611ba7565b34801561063857600080fd5b506101d4611bb6565b34801561064d57600080fd5b506101d46004803603602081101561066457600080fd5b50356001600160a01b0316611c5b565b34801561068057600080fd5b506101d46004803603602081101561069757600080fd5b5035611cca565b3480156106aa57600080fd5b506101d4611d2d565b3480156106bf57600080fd5b5061025d611e54565b3480156106d457600080fd5b506101d4600480360360208110156106eb57600080fd5b5035611e63565b3480156106fe57600080fd5b506101d4611ec8565b34801561071357600080fd5b5061025d611f23565b34801561072857600080fd5b5061025d611f32565b34801561073d57600080fd5b506101d46004803603604081101561075457600080fd5b810190602081018135600160201b81111561076e57600080fd5b82018360208201111561078057600080fd5b803590602001918460208302840111600160201b831117156107a157600080fd5b9190808060200260200160405190810160405280939291908181526020018383602002808284376000920191909152509295949360208101935035915050600160201b8111156107f057600080fd5b82018360208201111561080257600080fd5b803590602001918460208302840111600160201b8311171561082357600080fd5b919080806020026020016040519081016040528093929190818152602001838360200280828437600092019190915250929550611f41945050505050565b6001546001600160a01b031633146108ae576040805162461bcd60e51b81526020600482015260156024820152600080516020612f17833981519152604482015290519081900360640190fd5b6108c26001600160a01b0384168383612036565b505050565b6002600054141561090d576040805162461bcd60e51b815260206004820152601f6024820152600080516020612ef7833981519152604482015290519081900360640190fd5b600260005560035461092c90339081906001600160a01b031684612088565b506001600055565b6007546001600160a01b031681565b6001546001600160a01b031681565b6008546001600160a01b031681565b600260005414156109a7576040805162461bcd60e51b815260206004820152601f6024820152600080516020612ef7833981519152604482015290519081900360640190fd5b60026000556001546001600160a01b031633146109f9576040805162461bcd60e51b81526020600482015260156024820152600080516020612f17833981519152604482015290519081900360640190fd5b60005b8151811015610a2957610a21828281518110610a1457fe5b6020026020010151612290565b6001016109fc565b50506001600055565b600060026000541415610a7a576040805162461bcd60e51b815260206004820152601f6024820152600080516020612ef7833981519152604482015290519081900360640190fd5b600260005583610abf576040805162461bcd60e51b815260206004820152601d6024820152600080516020613003833981519152604482015290519081900360640190fd5b600c54604080516317eb2a1560e01b81523360048201819052602482018190526001600160a01b038981166044840152606483018990526084830188905260a483018790529251909360009316916317eb2a159160c480830192602092919082900301818787803b158015610b3357600080fd5b505af1158015610b47573d6000803e3d6000fd5b505050506040513d6020811015610b5d57600080fd5b5051600b5460065460408051631e42d69b60e21b81526001600160a01b03878116600483018190526024830152928316604482015260648101859052905193945091169163790b5a6c9160848082019260009290919082900301818387803b158015610bc857600080fd5b505af1158015610bdc573d6000803e3d6000fd5b5050600a54600b5460408051631e42d69b60e21b81526001600160a01b03888116600483018190526024830152928316604482015260648101879052905191909216935063790b5a6c9250608480830192600092919082900301818387803b158015610c4757600080fd5b505af1158015610c5b573d6000803e3d6000fd5b5050604080516001600160a01b03861681526020810185905281517fd8f3e143689a1b4195fb846c5906f56aa1465c0d22a69794f7a99d566cf1346c9450908190039091019150a160016000559695505050505050565b600060026000541415610cfa576040805162461bcd60e51b815260206004820152601f6024820152600080516020612ef7833981519152604482015290519081900360640190fd5b600260005583610d51576040805162461bcd60e51b815260206004820181905260248201527f526577617264526f757465723a20696e76616c6964205f786c78416d6f756e74604482015290519081900360640190fd5b600a54600b546040805163098bf59d60e01b815233600482018190526001600160a01b039384166024830152604482018990526064820181905291519193929092169163098bf59d91608480830192600092919082900301818387803b158015610dba57600080fd5b505af1158015610dce573d6000803e3d6000fd5b5050600b546006546040805163098bf59d60e01b81526001600160a01b03878116600483018190529381166024830152604482018c90526064820193909352905191909216935063098bf59d9250608480830192600092919082900301818387803b158015610e3c57600080fd5b505af1158015610e50573d6000803e3d6000fd5b5050600c54600254604080516371d597ad60e01b81526001600160a01b0387811660048301529283166024820152604481018b9052606481018a90523060848201529051600095509190921692506371d597ad9160a48082019260209290919082900301818787803b158015610ec557600080fd5b505af1158015610ed9573d6000803e3d6000fd5b505050506040513d6020811015610eef57600080fd5b505160025460408051632e1a7d4d60e01b81526004810184905290519293506001600160a01b0390911691632e1a7d4d9160248082019260009290919082900301818387803b158015610f4157600080fd5b505af1158015610f55573d6000803e3d6000fd5b50610f6d925050506001600160a01b038516826122a5565b604080516001600160a01b03841681526020810188905281517faa721ab5b96547b4199b18eccab91aeb7b42a5f21f49cef99d88bf66c67acc48929181900390910190a1600160005595945050505050565b6004546001600160a01b031681565b60026000541415611014576040805162461bcd60e51b815260206004820152601f6024820152600080516020612ef7833981519152604482015290519081900360640190fd5b60026000556001546001600160a01b03163314611066576040805162461bcd60e51b81526020600482015260156024820152600080516020612f17833981519152604482015290519081900360640190fd5b61092c81612290565b6005546001600160a01b031681565b600260005414156110c4576040805162461bcd60e51b815260206004820152601f6024820152600080516020612ef7833981519152604482015290519081900360640190fd5b600260005560045461092c9033906001600160a01b03168361238a565b600154600160a01b900460ff1681565b6002546001600160a01b031681565b60026000541415611146576040805162461bcd60e51b815260206004820152601f6024820152600080516020612ef7833981519152604482015290519081900360640190fd5b60026000908155600954604080516309f4173d60e11b8152336004820181905260248201819052915191936001600160a01b03909316926313e82e7a926044808401936020939083900390910190829087803b1580156111a557600080fd5b505af11580156111b9573d6000803e3d6000fd5b505050506040513d60208110156111cf57600080fd5b5050600b54604080516309f4173d60e11b81526001600160a01b03848116600483018190526024830152915191909216916313e82e7a9160448083019260209291908290030181600087803b15801561122757600080fd5b505af115801561123b573d6000803e3d6000fd5b505050506040513d602081101561125157600080fd5b5050600754604080516309f4173d60e11b81526001600160a01b03848116600483018190526024830152915191909216916313e82e7a9160448083019260209291908290030181600087803b1580156112a957600080fd5b505af11580156112bd573d6000803e3d6000fd5b505050506040513d60208110156112d357600080fd5b5050600a54604080516309f4173d60e11b81526001600160a01b03848116600483018190526024830152915191909216916313e82e7a9160448083019260209291908290030181600087803b15801561132b57600080fd5b505af115801561133f573d6000803e3d6000fd5b505050506040513d602081101561135557600080fd5b5050600160005550565b600260005414156113a5576040805162461bcd60e51b815260206004820152601f6024820152600080516020612ef7833981519152604482015290519081900360640190fd5b60026000556001546001600160a01b031633146113f7576040805162461bcd60e51b81526020600482015260156024820152600080516020612f17833981519152604482015290519081900360640190fd5b600354610a2990339084906001600160a01b031684612088565b600c546001600160a01b031681565b6006546001600160a01b031681565b600060026000541415611477576040805162461bcd60e51b815260206004820152601f6024820152600080516020612ef7833981519152604482015290519081900360640190fd5b6002600055346114ce576040805162461bcd60e51b815260206004820152601f60248201527f526577617264526f757465723a20696e76616c6964206d73672e76616c756500604482015290519081900360640190fd5b600260009054906101000a90046001600160a01b03166001600160a01b031663d0e30db0346040518263ffffffff1660e01b81526004016000604051808303818588803b15801561151e57600080fd5b505af1158015611532573d6000803e3d6000fd5b5050600254600c546040805163095ea7b360e01b81526001600160a01b039283166004820152346024820152905191909216945063095ea7b39350604480830193506020928290030181600087803b15801561158d57600080fd5b505af11580156115a1573d6000803e3d6000fd5b505050506040513d60208110156115b757600080fd5b5050600c54600254604080516317eb2a1560e01b815230600482015233602482018190526001600160a01b0393841660448301523460648301526084820188905260a482018790529151919360009316916317eb2a159160c48082019260209290919082900301818787803b15801561162f57600080fd5b505af1158015611643573d6000803e3d6000fd5b505050506040513d602081101561165957600080fd5b5051600b5460065460408051631e42d69b60e21b81526001600160a01b03878116600483018190526024830152928316604482015260648101859052905193945091169163790b5a6c9160848082019260009290919082900301818387803b1580156116c457600080fd5b505af11580156116d8573d6000803e3d6000fd5b5050600a54600b5460408051631e42d69b60e21b81526001600160a01b03888116600483018190526024830152928316604482015260648101879052905191909216935063790b5a6c9250608480830192600092919082900301818387803b15801561174357600080fd5b505af1158015611757573d6000803e3d6000fd5b5050604080516001600160a01b03861681526020810185905281517fd8f3e143689a1b4195fb846c5906f56aa1465c0d22a69794f7a99d566cf1346c9450908190039091019150a16001600055949350505050565b6000600260005414156117f4576040805162461bcd60e51b815260206004820152601f6024820152600080516020612ef7833981519152604482015290519081900360640190fd5b60026000558361184b576040805162461bcd60e51b815260206004820181905260248201527f526577617264526f757465723a20696e76616c6964205f786c78416d6f756e74604482015290519081900360640190fd5b600a54600b546040805163098bf59d60e01b815233600482018190526001600160a01b039384166024830152604482018990526064820181905291519193929092169163098bf59d91608480830192600092919082900301818387803b1580156118b457600080fd5b505af11580156118c8573d6000803e3d6000fd5b5050600b546006546040805163098bf59d60e01b81526001600160a01b03878116600483018190529381166024830152604482018c90526064820193909352905191909216935063098bf59d9250608480830192600092919082900301818387803b15801561193657600080fd5b505af115801561194a573d6000803e3d6000fd5b5050600c54604080516371d597ad60e01b81526001600160a01b0386811660048301528b81166024830152604482018b9052606482018a905288811660848301529151600095509190921692506371d597ad9160a48082019260209290919082900301818787803b1580156119be57600080fd5b505af11580156119d2573d6000803e3d6000fd5b505050506040513d60208110156119e857600080fd5b5051604080516001600160a01b03851681526020810189905281519293507faa721ab5b96547b4199b18eccab91aeb7b42a5f21f49cef99d88bf66c67acc48929081900390910190a160016000559695505050505050565b6001546001600160a01b03163314611a8d576040805162461bcd60e51b81526020600482015260156024820152600080516020612f17833981519152604482015290519081900360640190fd5b600154600160a01b900460ff1615611ad65760405162461bcd60e51b8152600401808060200182810382526021815260200180612f716021913960400191505060405180910390fd5b60018054600160a01b60ff60a01b19909116179055600280546001600160a01b03199081166001600160a01b039d8e16179091556003805482169b8d169b909b17909a55600480548b16998c1699909917909855600580548a16978b1697909717909655600680548916958a169590951790945560078054881693891693909317909255600880548716918816919091179055600980548616918716919091179055600b80548516918616919091179055600a80548416918516919091179055600c80549092169216919091179055565b600a546001600160a01b031681565b60026000541415611bfc576040805162461bcd60e51b815260206004820152601f6024820152600080516020612ef7833981519152604482015290519081900360640190fd5b60026000908155600754604080516309f4173d60e11b8152336004820181905260248201819052915191936001600160a01b03909316926313e82e7a926044808401936020939083900390910190829087803b1580156112a957600080fd5b6001546001600160a01b03163314611ca8576040805162461bcd60e51b81526020600482015260156024820152600080516020612f17833981519152604482015290519081900360640190fd5b600180546001600160a01b0319166001600160a01b0392909216919091179055565b60026000541415611d10576040805162461bcd60e51b815260206004820152601f6024820152600080516020612ef7833981519152604482015290519081900360640190fd5b600260005560035461092c9033906001600160a01b03168361238a565b60026000541415611d73576040805162461bcd60e51b815260206004820152601f6024820152600080516020612ef7833981519152604482015290519081900360640190fd5b60026000908155600954604080516309f4173d60e11b8152336004820181905260248201819052915191936001600160a01b03909316926313e82e7a926044808401936020939083900390910190829087803b158015611dd257600080fd5b505af1158015611de6573d6000803e3d6000fd5b505050506040513d6020811015611dfc57600080fd5b5050600b54604080516309f4173d60e11b81526001600160a01b03848116600483018190526024830152915191909216916313e82e7a9160448083019260209291908290030181600087803b15801561132b57600080fd5b6009546001600160a01b031681565b60026000541415611ea9576040805162461bcd60e51b815260206004820152601f6024820152600080516020612ef7833981519152604482015290519081900360640190fd5b600260005560045461092c90339081906001600160a01b031684612088565b60026000541415611f0e576040805162461bcd60e51b815260206004820152601f6024820152600080516020612ef7833981519152604482015290519081900360640190fd5b6002600055611f1c33612290565b6001600055565b600b546001600160a01b031681565b6003546001600160a01b031681565b60026000541415611f87576040805162461bcd60e51b815260206004820152601f6024820152600080516020612ef7833981519152604482015290519081900360640190fd5b60026000556001546001600160a01b03163314611fd9576040805162461bcd60e51b81526020600482015260156024820152600080516020612f17833981519152604482015290519081900360640190fd5b6003546001600160a01b031660005b835181101561202b576120233385838151811061200157fe5b60200260200101518486858151811061201657fe5b6020026020010151612088565b600101611fe8565b505060016000555050565b604080516001600160a01b038416602482015260448082018490528251808303909101815260649091019091526020810180516001600160e01b031663a9059cbb60e01b1790526108c29084906128be565b600081116120cb576040805162461bcd60e51b815260206004820152601d6024820152600080516020613003833981519152604482015290519081900360640190fd5b60075460408051631e42d69b60e21b81526001600160a01b03878116600483015286811660248301528581166044830152606482018590529151919092169163790b5a6c91608480830192600092919082900301818387803b15801561213057600080fd5b505af1158015612144573d6000803e3d6000fd5b505060085460075460408051631e42d69b60e21b81526001600160a01b03898116600483018190526024830152928316604482015260648101879052905191909216935063790b5a6c9250608480830192600092919082900301818387803b1580156121af57600080fd5b505af11580156121c3573d6000803e3d6000fd5b505060095460085460408051631e42d69b60e21b81526001600160a01b03898116600483018190526024830152928316604482015260648101879052905191909216935063790b5a6c9250608480830192600092919082900301818387803b15801561222e57600080fd5b505af1158015612242573d6000803e3d6000fd5b5050604080516001600160a01b03871681526020810185905281517f2a665a4bd195bd2585f5bf3b5acff0112cb48eb7597ec0d06ecb522dcaa92c3e9450908190039091019150a150505050565b6122998161296f565b6122a281612b27565b50565b804710156122fa576040805162461bcd60e51b815260206004820152601d60248201527f416464726573733a20696e73756666696369656e742062616c616e6365000000604482015290519081900360640190fd5b6040516000906001600160a01b0384169083908381818185875af1925050503d8060008114612345576040519150601f19603f3d011682016040523d82523d6000602084013e61234a565b606091505b50509050806108c25760405162461bcd60e51b815260040180806020018281038252603a815260200180612f37603a913960400191505060405180910390fd5b600081116123cd576040805162461bcd60e51b815260206004820152601d6024820152600080516020613003833981519152604482015290519081900360640190fd5b600754604080516310c1c10360e01b81526001600160a01b038681166004830152915160009392909216916310c1c10391602480820192602092909190829003018186803b15801561241e57600080fd5b505afa158015612432573d6000803e3d6000fd5b505050506040513d602081101561244857600080fd5b50516009546008546040805163098bf59d60e01b81526001600160a01b03898116600483018190529381166024830152604482018890526064820193909352905193945091169163098bf59d9160848082019260009290919082900301818387803b1580156124b657600080fd5b505af11580156124ca573d6000803e3d6000fd5b50506008546007546040805163098bf59d60e01b81526001600160a01b038a8116600483018190529381166024830152604482018990526064820193909352905191909216935063098bf59d9250608480830192600092919082900301818387803b15801561253857600080fd5b505af115801561254c573d6000803e3d6000fd5b50506007546040805163098bf59d60e01b81526001600160a01b03898116600483018190528982166024840152604483018990526064830152915191909216935063098bf59d9250608480830192600092919082900301818387803b1580156125b457600080fd5b505af11580156125c8573d6000803e3d6000fd5b5050600854604080516309f4173d60e11b81526001600160a01b038981166004830181905260248301529151600095509190921692506313e82e7a9160448082019260209290919082900301818787803b15801561262557600080fd5b505af1158015612639573d6000803e3d6000fd5b505050506040513d602081101561264f57600080fd5b5051905080156126d95760095460055460408051631e42d69b60e21b81526001600160a01b038981166004830181905260248301529283166044820152606481018590529051919092169163790b5a6c91608480830192600092919082900301818387803b1580156126c057600080fd5b505af11580156126d4573d6000803e3d6000fd5b505050505b60095460055460408051637aeceb1f60e11b81526001600160a01b03898116600483015292831660248201529051600093929092169163f5d9d63e91604480820192602092909190829003018186803b15801561273557600080fd5b505afa158015612749573d6000803e3d6000fd5b505050506040513d602081101561275f57600080fd5b50519050801561287257600061277f846127798488612bd2565b90612c34565b6009546005546040805163098bf59d60e01b81526001600160a01b038c8116600483018190529381166024830152604482018690526064820193909352905193945091169163098bf59d9160848082019260009290919082900301818387803b1580156127eb57600080fd5b505af11580156127ff573d6000803e3d6000fd5b505060055460408051632770a7eb60e21b81526001600160a01b038c81166004830152602482018790529151919092169350639dc29fac9250604480830192600092919082900301818387803b15801561285857600080fd5b505af115801561286c573d6000803e3d6000fd5b50505050505b604080516001600160a01b03881681526020810186905281517f6f3ab3f22d72ab493312db8fd9c4f80c42993f240d84158d34a33ac65c06af31929181900390910190a1505050505050565b6060612913826040518060400160405280602081526020017f5361666545524332303a206c6f772d6c6576656c2063616c6c206661696c6564815250856001600160a01b0316612c739092919063ffffffff16565b8051909150156108c25780806020019051602081101561293257600080fd5b50516108c25760405162461bcd60e51b815260040180806020018281038252602a815260200180612fd9602a913960400191505060405180910390fd5b600754604080516309f4173d60e11b81526001600160a01b03848116600483018190526024830152915160009392909216916313e82e7a9160448082019260209290919082900301818787803b1580156129c857600080fd5b505af11580156129dc573d6000803e3d6000fd5b505050506040513d60208110156129f257600080fd5b505190508015612a1657600454612a1690839081906001600160a01b031684612088565b600854604080516309f4173d60e11b81526001600160a01b03858116600483018190526024830152915160009392909216916313e82e7a9160448082019260209290919082900301818787803b158015612a6f57600080fd5b505af1158015612a83573d6000803e3d6000fd5b505050506040513d6020811015612a9957600080fd5b5051905080156108c25760095460055460408051631e42d69b60e21b81526001600160a01b038781166004830181905260248301529283166044820152606481018590529051919092169163790b5a6c91608480830192600092919082900301818387803b158015612b0a57600080fd5b505af1158015612b1e573d6000803e3d6000fd5b50505050505050565b600a54604080516309f4173d60e11b81526001600160a01b03848116600483018190526024830152915160009392909216916313e82e7a9160448082019260209290919082900301818787803b158015612b8057600080fd5b505af1158015612b94573d6000803e3d6000fd5b505050506040513d6020811015612baa57600080fd5b505190508015612bce57600454612bce90839081906001600160a01b031684612088565b5050565b600082612be157506000612c2e565b82820282848281612bee57fe5b0414612c2b5760405162461bcd60e51b8152600401808060200182810382526021815260200180612fb86021913960400191505060405180910390fd5b90505b92915050565b6000612c2b83836040518060400160405280601a815260200179536166654d6174683a206469766973696f6e206279207a65726f60301b815250612c8c565b6060612c828484600085612d2e565b90505b9392505050565b60008183612d185760405162461bcd60e51b81526004018080602001828103825283818151815260200191508051906020019080838360005b83811015612cdd578181015183820152602001612cc5565b50505050905090810190601f168015612d0a5780820380516001836020036101000a031916815260200191505b509250505060405180910390fd5b506000838581612d2457fe5b0495945050505050565b606082471015612d6f5760405162461bcd60e51b8152600401808060200182810382526026815260200180612f926026913960400191505060405180910390fd5b612d7885612e8a565b612dc9576040805162461bcd60e51b815260206004820152601d60248201527f416464726573733a2063616c6c20746f206e6f6e2d636f6e7472616374000000604482015290519081900360640190fd5b60006060866001600160a01b031685876040518082805190602001908083835b60208310612e085780518252601f199092019160209182019101612de9565b6001836020036101000a03801982511681845116808217855250505050505090500191505060006040518083038185875af1925050503d8060008114612e6a576040519150601f19603f3d011682016040523d82523d6000602084013e612e6f565b606091505b5091509150612e7f828286612e90565b979650505050505050565b3b151590565b60608315612e9f575081612c85565b825115612eaf5782518084602001fd5b60405162461bcd60e51b8152602060048201818152845160248401528451859391928392604401919085019080838360008315612cdd578181015183820152602001612cc556fe5265656e7472616e637947756172643a207265656e7472616e742063616c6c00476f7665726e61626c653a20666f7262696464656e0000000000000000000000416464726573733a20756e61626c6520746f2073656e642076616c75652c20726563697069656e74206d61792068617665207265766572746564526577617264526f757465723a20616c726561647920696e697469616c697a6564416464726573733a20696e73756666696369656e742062616c616e636520666f722063616c6c536166654d6174683a206d756c7469706c69636174696f6e206f766572666c6f775361666545524332303a204552433230206f7065726174696f6e20646964206e6f742073756363656564526577617264526f757465723a20696e76616c6964205f616d6f756e74000000a164736f6c634300060c000a",
  "devdoc": {
    "kind": "dev",
    "methods": {},
    "version": 1
  },
  "userdoc": {
    "kind": "user",
    "methods": {},
    "version": 1
  },
  "storageLayout": {
    "storage": [
      {
        "astId": 23313,
        "contract": "contracts/staking/RewardRouter.sol:RewardRouter",
        "label": "_status",
        "offset": 0,
        "slot": "0",
        "type": "t_uint256"
      },
      {
        "astId": 3,
        "contract": "contracts/staking/RewardRouter.sol:RewardRouter",
        "label": "gov",
        "offset": 0,
        "slot": "1",
        "type": "t_address"
      },
      {
        "astId": 36452,
        "contract": "contracts/staking/RewardRouter.sol:RewardRouter",
        "label": "isInitialized",
        "offset": 20,
        "slot": "1",
        "type": "t_bool"
      },
      {
        "astId": 36454,
        "contract": "contracts/staking/RewardRouter.sol:RewardRouter",
        "label": "weth",
        "offset": 0,
        "slot": "2",
        "type": "t_address"
      },
      {
        "astId": 36456,
        "contract": "contracts/staking/RewardRouter.sol:RewardRouter",
        "label": "xdx",
        "offset": 0,
        "slot": "3",
        "type": "t_address"
      },
      {
        "astId": 36458,
        "contract": "contracts/staking/RewardRouter.sol:RewardRouter",
        "label": "esXdx",
        "offset": 0,
        "slot": "4",
        "type": "t_address"
      },
      {
        "astId": 36460,
        "contract": "contracts/staking/RewardRouter.sol:RewardRouter",
        "label": "bnXdx",
        "offset": 0,
        "slot": "5",
        "type": "t_address"
      },
      {
        "astId": 36462,
        "contract": "contracts/staking/RewardRouter.sol:RewardRouter",
        "label": "xlx",
        "offset": 0,
        "slot": "6",
        "type": "t_address"
      },
      {
        "astId": 36464,
        "contract": "contracts/staking/RewardRouter.sol:RewardRouter",
        "label": "stakedXdxTracker",
        "offset": 0,
        "slot": "7",
        "type": "t_address"
      },
      {
        "astId": 36466,
        "contract": "contracts/staking/RewardRouter.sol:RewardRouter",
        "label": "bonusXdxTracker",
        "offset": 0,
        "slot": "8",
        "type": "t_address"
      },
      {
        "astId": 36468,
        "contract": "contracts/staking/RewardRouter.sol:RewardRouter",
        "label": "feeXdxTracker",
        "offset": 0,
        "slot": "9",
        "type": "t_address"
      },
      {
        "astId": 36470,
        "contract": "contracts/staking/RewardRouter.sol:RewardRouter",
        "label": "stakedXlxTracker",
        "offset": 0,
        "slot": "10",
        "type": "t_address"
      },
      {
        "astId": 36472,
        "contract": "contracts/staking/RewardRouter.sol:RewardRouter",
        "label": "feeXlxTracker",
        "offset": 0,
        "slot": "11",
        "type": "t_address"
      },
      {
        "astId": 36474,
        "contract": "contracts/staking/RewardRouter.sol:RewardRouter",
        "label": "xlxManager",
        "offset": 0,
        "slot": "12",
        "type": "t_address"
      }
    ],
    "types": {
      "t_address": {
        "encoding": "inplace",
        "label": "address",
        "numberOfBytes": "20"
      },
      "t_bool": {
        "encoding": "inplace",
        "label": "bool",
        "numberOfBytes": "1"
      },
      "t_uint256": {
        "encoding": "inplace",
        "label": "uint256",
        "numberOfBytes": "32"
      }
    }
  }
}