{
  "address": "0xd520098b57ceD16A0Dc4622984F5C84e4772D6CE",
  "abi": [
    {
      "inputs": [
        {
          "internalType": "address",
          "name": "_vault",
          "type": "address"
        },
        {
          "internalType": "address",
          "name": "_usdg",
          "type": "address"
        },
        {
          "internalType": "address",
          "name": "_xlx",
          "type": "address"
        },
        {
          "internalType": "uint256",
          "name": "_cooldownDuration",
          "type": "uint256"
        }
      ],
      "stateMutability": "nonpayable",
      "type": "constructor"
    },
    {
      "anonymous": false,
      "inputs": [
        {
          "indexed": false,
          "internalType": "address",
          "name": "account",
          "type": "address"
        },
        {
          "indexed": false,
          "internalType": "address",
          "name": "token",
          "type": "address"
        },
        {
          "indexed": false,
          "internalType": "uint256",
          "name": "amount",
          "type": "uint256"
        },
        {
          "indexed": false,
          "internalType": "uint256",
          "name": "aumInUsdg",
          "type": "uint256"
        },
        {
          "indexed": false,
          "internalType": "uint256",
          "name": "xlxSupply",
          "type": "uint256"
        },
        {
          "indexed": false,
          "internalType": "uint256",
          "name": "usdgAmount",
          "type": "uint256"
        },
        {
          "indexed": false,
          "internalType": "uint256",
          "name": "mintAmount",
          "type": "uint256"
        }
      ],
      "name": "AddLiquidity",
      "type": "event"
    },
    {
      "anonymous": false,
      "inputs": [
        {
          "indexed": false,
          "internalType": "address",
          "name": "account",
          "type": "address"
        },
        {
          "indexed": false,
          "internalType": "address",
          "name": "token",
          "type": "address"
        },
        {
          "indexed": false,
          "internalType": "uint256",
          "name": "xlxAmount",
          "type": "uint256"
        },
        {
          "indexed": false,
          "internalType": "uint256",
          "name": "aumInUsdg",
          "type": "uint256"
        },
        {
          "indexed": false,
          "internalType": "uint256",
          "name": "xlxSupply",
          "type": "uint256"
        },
        {
          "indexed": false,
          "internalType": "uint256",
          "name": "usdgAmount",
          "type": "uint256"
        },
        {
          "indexed": false,
          "internalType": "uint256",
          "name": "amountOut",
          "type": "uint256"
        }
      ],
      "name": "RemoveLiquidity",
      "type": "event"
    },
    {
      "inputs": [],
      "name": "MAX_COOLDOWN_DURATION",
      "outputs": [
        {
          "internalType": "uint256",
          "name": "",
          "type": "uint256"
        }
      ],
      "stateMutability": "view",
      "type": "function"
    },
    {
      "inputs": [],
      "name": "PRICE_PRECISION",
      "outputs": [
        {
          "internalType": "uint256",
          "name": "",
          "type": "uint256"
        }
      ],
      "stateMutability": "view",
      "type": "function"
    },
    {
      "inputs": [],
      "name": "USDG_DECIMALS",
      "outputs": [
        {
          "internalType": "uint256",
          "name": "",
          "type": "uint256"
        }
      ],
      "stateMutability": "view",
      "type": "function"
    },
    {
      "inputs": [
        {
          "internalType": "address",
          "name": "_token",
          "type": "address"
        },
        {
          "internalType": "uint256",
          "name": "_amount",
          "type": "uint256"
        },
        {
          "internalType": "uint256",
          "name": "_minUsdg",
          "type": "uint256"
        },
        {
          "internalType": "uint256",
          "name": "_minXlx",
          "type": "uint256"
        }
      ],
      "name": "addLiquidity",
      "outputs": [
        {
          "internalType": "uint256",
          "name": "",
          "type": "uint256"
        }
      ],
      "stateMutability": "nonpayable",
      "type": "function"
    },
    {
      "inputs": [
        {
          "internalType": "address",
          "name": "_fundingAccount",
          "type": "address"
        },
        {
          "internalType": "address",
          "name": "_account",
          "type": "address"
        },
        {
          "internalType": "address",
          "name": "_token",
          "type": "address"
        },
        {
          "internalType": "uint256",
          "name": "_amount",
          "type": "uint256"
        },
        {
          "internalType": "uint256",
          "name": "_minUsdg",
          "type": "uint256"
        },
        {
          "internalType": "uint256",
          "name": "_minXlx",
          "type": "uint256"
        }
      ],
      "name": "addLiquidityForAccount",
      "outputs": [
        {
          "internalType": "uint256",
          "name": "",
          "type": "uint256"
        }
      ],
      "stateMutability": "nonpayable",
      "type": "function"
    },
    {
      "inputs": [],
      "name": "aumAddition",
      "outputs": [
        {
          "internalType": "uint256",
          "name": "",
          "type": "uint256"
        }
      ],
      "stateMutability": "view",
      "type": "function"
    },
    {
      "inputs": [],
      "name": "aumDeduction",
      "outputs": [
        {
          "internalType": "uint256",
          "name": "",
          "type": "uint256"
        }
      ],
      "stateMutability": "view",
      "type": "function"
    },
    {
      "inputs": [],
      "name": "cooldownDuration",
      "outputs": [
        {
          "internalType": "uint256",
          "name": "",
          "type": "uint256"
        }
      ],
      "stateMutability": "view",
      "type": "function"
    },
    {
      "inputs": [
        {
          "internalType": "bool",
          "name": "maximise",
          "type": "bool"
        }
      ],
      "name": "getAum",
      "outputs": [
        {
          "internalType": "uint256",
          "name": "",
          "type": "uint256"
        }
      ],
      "stateMutability": "view",
      "type": "function"
    },
    {
      "inputs": [
        {
          "internalType": "bool",
          "name": "maximise",
          "type": "bool"
        }
      ],
      "name": "getAumInUsdg",
      "outputs": [
        {
          "internalType": "uint256",
          "name": "",
          "type": "uint256"
        }
      ],
      "stateMutability": "view",
      "type": "function"
    },
    {
      "inputs": [],
      "name": "getAums",
      "outputs": [
        {
          "internalType": "uint256[]",
          "name": "",
          "type": "uint256[]"
        }
      ],
      "stateMutability": "view",
      "type": "function"
    },
    {
      "inputs": [],
      "name": "gov",
      "outputs": [
        {
          "internalType": "address",
          "name": "",
          "type": "address"
        }
      ],
      "stateMutability": "view",
      "type": "function"
    },
    {
      "inputs": [],
      "name": "inPrivateMode",
      "outputs": [
        {
          "internalType": "bool",
          "name": "",
          "type": "bool"
        }
      ],
      "stateMutability": "view",
      "type": "function"
    },
    {
      "inputs": [
        {
          "internalType": "address",
          "name": "",
          "type": "address"
        }
      ],
      "name": "isHandler",
      "outputs": [
        {
          "internalType": "bool",
          "name": "",
          "type": "bool"
        }
      ],
      "stateMutability": "view",
      "type": "function"
    },
    {
      "inputs": [
        {
          "internalType": "address",
          "name": "",
          "type": "address"
        }
      ],
      "name": "lastAddedAt",
      "outputs": [
        {
          "internalType": "uint256",
          "name": "",
          "type": "uint256"
        }
      ],
      "stateMutability": "view",
      "type": "function"
    },
    {
      "inputs": [
        {
          "internalType": "address",
          "name": "_tokenOut",
          "type": "address"
        },
        {
          "internalType": "uint256",
          "name": "_xlxAmount",
          "type": "uint256"
        },
        {
          "internalType": "uint256",
          "name": "_minOut",
          "type": "uint256"
        },
        {
          "internalType": "address",
          "name": "_receiver",
          "type": "address"
        }
      ],
      "name": "removeLiquidity",
      "outputs": [
        {
          "internalType": "uint256",
          "name": "",
          "type": "uint256"
        }
      ],
      "stateMutability": "nonpayable",
      "type": "function"
    },
    {
      "inputs": [
        {
          "internalType": "address",
          "name": "_account",
          "type": "address"
        },
        {
          "internalType": "address",
          "name": "_tokenOut",
          "type": "address"
        },
        {
          "internalType": "uint256",
          "name": "_xlxAmount",
          "type": "uint256"
        },
        {
          "internalType": "uint256",
          "name": "_minOut",
          "type": "uint256"
        },
        {
          "internalType": "address",
          "name": "_receiver",
          "type": "address"
        }
      ],
      "name": "removeLiquidityForAccount",
      "outputs": [
        {
          "internalType": "uint256",
          "name": "",
          "type": "uint256"
        }
      ],
      "stateMutability": "nonpayable",
      "type": "function"
    },
    {
      "inputs": [
        {
          "internalType": "uint256",
          "name": "_aumAddition",
          "type": "uint256"
        },
        {
          "internalType": "uint256",
          "name": "_aumDeduction",
          "type": "uint256"
        }
      ],
      "name": "setAumAdjustment",
      "outputs": [],
      "stateMutability": "nonpayable",
      "type": "function"
    },
    {
      "inputs": [
        {
          "internalType": "uint256",
          "name": "_cooldownDuration",
          "type": "uint256"
        }
      ],
      "name": "setCooldownDuration",
      "outputs": [],
      "stateMutability": "nonpayable",
      "type": "function"
    },
    {
      "inputs": [
        {
          "internalType": "address",
          "name": "_gov",
          "type": "address"
        }
      ],
      "name": "setGov",
      "outputs": [],
      "stateMutability": "nonpayable",
      "type": "function"
    },
    {
      "inputs": [
        {
          "internalType": "address",
          "name": "_handler",
          "type": "address"
        },
        {
          "internalType": "bool",
          "name": "_isActive",
          "type": "bool"
        }
      ],
      "name": "setHandler",
      "outputs": [],
      "stateMutability": "nonpayable",
      "type": "function"
    },
    {
      "inputs": [
        {
          "internalType": "bool",
          "name": "_inPrivateMode",
          "type": "bool"
        }
      ],
      "name": "setInPrivateMode",
      "outputs": [],
      "stateMutability": "nonpayable",
      "type": "function"
    },
    {
      "inputs": [],
      "name": "usdg",
      "outputs": [
        {
          "internalType": "address",
          "name": "",
          "type": "address"
        }
      ],
      "stateMutability": "view",
      "type": "function"
    },
    {
      "inputs": [],
      "name": "vault",
      "outputs": [
        {
          "internalType": "contract IVault",
          "name": "",
          "type": "address"
        }
      ],
      "stateMutability": "view",
      "type": "function"
    },
    {
      "inputs": [],
      "name": "xlx",
      "outputs": [
        {
          "internalType": "address",
          "name": "",
          "type": "address"
        }
      ],
      "stateMutability": "view",
      "type": "function"
    }
  ],
  "transactionHash": "0x0e2e7348661c1d1154325509daffca68df589fa5585085118d0f53bd1c43bbe0",
  "args": [
    "0x9679810001E7e33E8A4f49370BB72059E6D960EB",
    "0xC530871b470BCb25c3Ce2a9cE4e4AB9c62E4ce2a",
    "0xFB633d2B89a645A10d5f45cA956ad6b2B3cF6dA0",
    900
  ],
  "numDeployments": 1,
  "solcInputHash": "38f125bf9344c296031e870b443ff3d2",
  "bytecode": "0x608060405234801561001057600080fd5b5060405161209b38038061209b8339818101604052608081101561003357600080fd5b50805160208201516040830151606090930151600160008181558154336001600160a01b031991821681178216179092556002805483166001600160a01b0396871617905560038054831694861694909417909355600480549091169390941692909217909255600555611fee9081906100ad90396000f3fe608060405234801561001057600080fd5b50600436106101335760003560e01c80630339147614610138578063070eacee1461016957806312d43a511461018557806317eb2a15146101a9578063196b68cb146101f15780631e9049cf146101f95780631ece366a14610201578063352693151461023957806346ea87af1461024157806363efdf381461026757806368a0a3e01461026f5780636a86da191461028e57806371d597ad146102af578063870d917c146102f35780638b770e11146102fb5780638fed0b2c146103215780639116c4ae1461035b57806395082d251461037e578063966be075146103865780639cb7de4b146103a3578063b172bb0c146103d1578063cfad57a2146103d9578063ed0d1c04146103ff578063f5b91b7b14610457578063fbfa77cf1461045f575b600080fd5b6101576004803603602081101561014e57600080fd5b50351515610467565b60408051918252519081900360200190f35b610171610b88565b604080519115158252519081900360200190f35b61018d610b91565b604080516001600160a01b039092168252519081900360200190f35b610157600480360360c08110156101bf57600080fd5b506001600160a01b03813581169160208101358216916040820135169060608101359060808101359060a00135610ba0565b610157610c13565b610157610c19565b6101576004803603608081101561021757600080fd5b506001600160a01b038135169060208101359060408101359060600135610c20565b610157610ce1565b6101716004803603602081101561025757600080fd5b50356001600160a01b0316610ce7565b61018d610cfc565b6101576004803603602081101561028557600080fd5b50351515610d0b565b6102ad600480360360208110156102a457600080fd5b50351515610d42565b005b610157600480360360a08110156102c557600080fd5b506001600160a01b038135811691602081013582169160408201359160608101359160809091013516610da2565b610157610e13565b6101576004803603602081101561031157600080fd5b50356001600160a01b0316610e18565b6101576004803603608081101561033757600080fd5b506001600160a01b0381358116916020810135916040820135916060013516610e2a565b6102ad6004803603604081101561037157600080fd5b5080359060200135610edc565b610157610f34565b6102ad6004803603602081101561039c57600080fd5b5035610f44565b6102ad600480360360408110156103b957600080fd5b506001600160a01b0381351690602001351515610fd8565b610157611050565b6102ad600480360360208110156103ef57600080fd5b50356001600160a01b0316611056565b6104076110c5565b60408051602080825283518183015283519192839290830191858101910280838360005b8381101561044357818101518382015260200161042b565b505050509050019250505060405180910390f35b61018d611133565b61018d611142565b600080600260009054906101000a90046001600160a01b03166001600160a01b0316630842b0766040518163ffffffff1660e01b815260040160206040518083038186803b1580156104b857600080fd5b505afa1580156104cc573d6000803e3d6000fd5b505050506040513d60208110156104e257600080fd5b50516007549091506000805b83811015610b445760025460408051630e468baf60e41b81526004810184905290516000926001600160a01b03169163e468baf0916024808301926020929190829003018186803b15801561054257600080fd5b505afa158015610556573d6000803e3d6000fd5b505050506040513d602081101561056c57600080fd5b505160025460408051630daf9c2160e41b81526001600160a01b0380851660048301529151939450600093919092169163daf9c210916024808301926020929190829003018186803b1580156105c157600080fd5b505afa1580156105d5573d6000803e3d6000fd5b505050506040513d60208110156105eb57600080fd5b50519050806105fb575050610b3c565b60008861068057600254604080516340d3096b60e11b81526001600160a01b038681166004830152915191909216916381a612d6916024808301926020929190829003018186803b15801561064f57600080fd5b505afa158015610663573d6000803e3d6000fd5b505050506040513d602081101561067957600080fd5b50516106fa565b60025460408051637092736960e11b81526001600160a01b0386811660048301529151919092169163e124e6d2916024808301926020929190829003018186803b1580156106cd57600080fd5b505afa1580156106e1573d6000803e3d6000fd5b505050506040513d60208110156106f757600080fd5b50515b600254604080516352f55eed60e01b81526001600160a01b038781166004830152915193945060009391909216916352f55eed916024808301926020929190829003018186803b15801561074d57600080fd5b505afa158015610761573d6000803e3d6000fd5b505050506040513d602081101561077757600080fd5b5051600254604080516323b95ceb60e21b81526001600160a01b03888116600483015291519394506000939190921691638ee573ac916024808301926020929190829003018186803b1580156107cc57600080fd5b505afa1580156107e0573d6000803e3d6000fd5b505050506040513d60208110156107f657600080fd5b5051600254604080516342b60b0360e01b81526001600160a01b03898116600483015291519394509116916342b60b0391602480820192602092909190829003018186803b15801561084757600080fd5b505afa15801561085b573d6000803e3d6000fd5b505050506040513d602081101561087157600080fd5b5051156108a15761089a610893600a83900a61088d8587611151565b906111b3565b89906111f2565b9750610b36565b6002546040805163114f1b5560e31b81526001600160a01b03888116600483015291516000939290921691638a78daa891602480820192602092909190829003018186803b1580156108f257600080fd5b505afa158015610906573d6000803e3d6000fd5b505050506040513d602081101561091c57600080fd5b505190508015610a055760025460408051636274980360e01b81526001600160a01b03898116600483015291516000939290921691636274980391602480820192602092909190829003018186803b15801561097757600080fd5b505afa15801561098b573d6000803e3d6000fd5b505050506040513d60208110156109a157600080fd5b5051905060008582116109bd576109b8868361124a565b6109c7565b6109c7828761124a565b905060006109d98361088d8685611151565b9050828711156109f4576109ed8c826111f2565b9b50610a01565b6109fe8b826111f2565b9a505b5050505b6002546040805163783a2b6760e11b81526001600160a01b0389811660048301529151610a8a93929092169163f07456ce91602480820192602092909190829003018186803b158015610a5757600080fd5b505afa158015610a6b573d6000803e3d6000fd5b505050506040513d6020811015610a8157600080fd5b50518a906111f2565b6002546040805163c3c7b9e960e01b81526001600160a01b038a811660048301529151939c50600093919092169163c3c7b9e9916024808301926020929190829003018186803b158015610add57600080fd5b505afa158015610af1573d6000803e3d6000fd5b505050506040513d6020811015610b0757600080fd5b50519050610b31610b2a600a85900a61088d88610b24898761124a565b90611151565b8b906111f2565b995050505b50505050505b6001016104ee565b50818111610b5b57610b56828261124a565b610b5e565b60005b91508160085411610b7c57600854610b7790839061124a565b610b7f565b60005b95945050505050565b60095460ff1681565b6001546001600160a01b031681565b600060026000541415610be8576040805162461bcd60e51b815260206004820152601f6024820152600080516020611ec5833981519152604482015290519081900360640190fd5b6002600055610bf561128c565b610c038787878787876112ea565b6001600055979650505050505050565b60075481565b6202a30081565b600060026000541415610c68576040805162461bcd60e51b815260206004820152601f6024820152600080516020611ec5833981519152604482015290519081900360640190fd5b600260005560095460ff1615610cc5576040805162461bcd60e51b815260206004820152601e60248201527f586c784d616e616765723a20616374696f6e206e6f7420656e61626c65640000604482015290519081900360640190fd5b610cd33333878787876112ea565b600160005595945050505050565b60055481565b600a6020526000908152604090205460ff1681565b6004546001600160a01b031681565b600080610d1783610467565b9050610d3b68327cb2734119d3b7a9601e1b61088d83670de0b6b3a7640000611151565b9392505050565b6001546001600160a01b03163314610d8f576040805162461bcd60e51b81526020600482015260156024820152600080516020611ee5833981519152604482015290519081900360640190fd5b6009805460ff1916911515919091179055565b600060026000541415610dea576040805162461bcd60e51b815260206004820152601f6024820152600080516020611ec5833981519152604482015290519081900360640190fd5b6002600055610df761128c565b610e048686868686611607565b60016000559695505050505050565b601281565b60066020526000908152604090205481565b600060026000541415610e72576040805162461bcd60e51b815260206004820152601f6024820152600080516020611ec5833981519152604482015290519081900360640190fd5b600260005560095460ff1615610ecf576040805162461bcd60e51b815260206004820152601e60248201527f586c784d616e616765723a20616374696f6e206e6f7420656e61626c65640000604482015290519081900360640190fd5b610cd33386868686611607565b6001546001600160a01b03163314610f29576040805162461bcd60e51b81526020600482015260156024820152600080516020611ee5833981519152604482015290519081900360640190fd5b600791909155600855565b68327cb2734119d3b7a9601e1b81565b6001546001600160a01b03163314610f91576040805162461bcd60e51b81526020600482015260156024820152600080516020611ee5833981519152604482015290519081900360640190fd5b6202a300811115610fd35760405162461bcd60e51b8152600401808060200182810382526025815260200180611f056025913960400191505060405180910390fd5b600555565b6001546001600160a01b03163314611025576040805162461bcd60e51b81526020600482015260156024820152600080516020611ee5833981519152604482015290519081900360640190fd5b6001600160a01b03919091166000908152600a60205260409020805460ff1916911515919091179055565b60085481565b6001546001600160a01b031633146110a3576040805162461bcd60e51b81526020600482015260156024820152600080516020611ee5833981519152604482015290519081900360640190fd5b600180546001600160a01b0319166001600160a01b0392909216919091179055565b6040805160028082526060808301845292839291906020830190803683370190505090506110f36001610467565b8160008151811061110057fe5b6020026020010181815250506111166000610467565b8160018151811061112357fe5b6020908102919091010152905090565b6003546001600160a01b031681565b6002546001600160a01b031681565b600082611160575060006111ad565b8282028284828161116d57fe5b04146111aa5760405162461bcd60e51b8152600401808060200182810382526021815260200180611f736021913960400191505060405180910390fd5b90505b92915050565b60006111aa83836040518060400160405280601a815260200179536166654d6174683a206469766973696f6e206279207a65726f60301b815250611aa7565b6000828201838110156111aa576040805162461bcd60e51b815260206004820152601b60248201527a536166654d6174683a206164646974696f6e206f766572666c6f7760281b604482015290519081900360640190fd5b60006111aa83836040518060400160405280601e81526020017f536166654d6174683a207375627472616374696f6e206f766572666c6f770000815250611b49565b336000908152600a602052604090205460ff166112e8576040805162461bcd60e51b81526020600482015260156024820152742c363c26b0b730b3b2b91d103337b93134b23232b760591b604482015290519081900360640190fd5b565b600080841161133e576040805162461bcd60e51b815260206004820152601b60248201527a161b1e13585b9859d95c8e881a5b9d985b1a590817d85b5bdd5b9d602a1b604482015290519081900360640190fd5b600061134a6001610d0b565b90506000600460009054906101000a90046001600160a01b03166001600160a01b03166318160ddd6040518163ffffffff1660e01b815260040160206040518083038186803b15801561139c57600080fd5b505afa1580156113b0573d6000803e3d6000fd5b505050506040513d60208110156113c657600080fd5b50516002549091506113e7906001600160a01b03898116918c911689611ba3565b6002546040805163817bb85760e01b81526001600160a01b038a811660048301523060248301529151600093929092169163817bb8579160448082019260209290919082900301818787803b15801561143f57600080fd5b505af1158015611453573d6000803e3d6000fd5b505050506040513d602081101561146957600080fd5b50519050858110156114ac5760405162461bcd60e51b8152600401808060200182810382526024815260200180611f946024913960400191505060405180910390fd5b600083156114c7576114c28461088d8486611151565b6114c9565b815b90508581101561150a5760405162461bcd60e51b8152600401808060200182810382526023815260200180611f506023913960400191505060405180910390fd5b60048054604080516340c10f1960e01b81526001600160a01b038e81169482019490945260248101859052905192909116916340c10f199160448082019260009290919082900301818387803b15801561156357600080fd5b505af1158015611577573d6000803e3d6000fd5b5050506001600160a01b03808c166000818152600660209081526040918290204290558151928352928d16928201929092528082018b9052606081018790526080810186905260a0810185905260c0810184905290517f38dc38b96482be64113daffd8d464ebda93e856b70ccfc605e69ccf892ab981e92509081900360e00190a19a9950505050505050505050565b600080841161165d576040805162461bcd60e51b815260206004820152601e60248201527f586c784d616e616765723a20696e76616c6964205f786c78416d6f756e740000604482015290519081900360640190fd5b6005546001600160a01b038716600090815260066020526040902054429161168591906111f2565b11156116c25760405162461bcd60e51b815260040180806020018281038252602c815260200180611e99602c913960400191505060405180910390fd5b60006116ce6000610d0b565b90506000600460009054906101000a90046001600160a01b03166001600160a01b03166318160ddd6040518163ffffffff1660e01b815260040160206040518083038186803b15801561172057600080fd5b505afa158015611734573d6000803e3d6000fd5b505050506040513d602081101561174a57600080fd5b50519050600061175e8261088d8986611151565b600354604080516370a0823160e01b815230600482015290519293506000926001600160a01b03909216916370a0823191602480820192602092909190829003018186803b1580156117af57600080fd5b505afa1580156117c3573d6000803e3d6000fd5b505050506040513d60208110156117d957600080fd5b5051905080821115611860576003546001600160a01b03166340c10f1930611801858561124a565b6040518363ffffffff1660e01b815260040180836001600160a01b0316815260200182815260200192505050600060405180830381600087803b15801561184757600080fd5b505af115801561185b573d6000803e3d6000fd5b505050505b6004805460408051632770a7eb60e21b81526001600160a01b038e811694820194909452602481018c905290519290911691639dc29fac9160448082019260009290919082900301818387803b1580156118b957600080fd5b505af11580156118cd573d6000803e3d6000fd5b50506003546002546040805163a9059cbb60e01b81526001600160a01b03928316600482015260248101889052905191909216935063a9059cbb925060448083019260209291908290030181600087803b15801561192a57600080fd5b505af115801561193e573d6000803e3d6000fd5b505050506040513d602081101561195457600080fd5b505060025460408051630711e61960e41b81526001600160a01b038c8116600483015289811660248301529151600093929092169163711e61909160448082019260209290919082900301818787803b1580156119b057600080fd5b505af11580156119c4573d6000803e3d6000fd5b505050506040513d60208110156119da57600080fd5b5051905087811015611a33576040805162461bcd60e51b815260206004820152601f60248201527f586c784d616e616765723a20696e73756666696369656e74206f757470757400604482015290519081900360640190fd5b604080516001600160a01b03808e1682528c1660208201528082018b9052606081018790526080810186905260a0810185905260c0810183905290517f87b9679bb9a4944bafa98c267e7cd4a00ab29fed48afdefae25f0fca5da279409181900360e00190a19a9950505050505050505050565b60008183611b335760405162461bcd60e51b81526004018080602001828103825283818151815260200191508051906020019080838360005b83811015611af8578181015183820152602001611ae0565b50505050905090810190601f168015611b255780820380516001836020036101000a031916815260200191505b509250505060405180910390fd5b506000838581611b3f57fe5b0495945050505050565b60008184841115611b9b5760405162461bcd60e51b8152602060048201818152835160248401528351909283926044909101919085019080838360008315611af8578181015183820152602001611ae0565b505050900390565b604080516001600160a01b0380861660248301528416604482015260648082018490528251808303909101815260849091019091526020810180516001600160e01b03166323b872dd60e01b179052611bfd908590611c03565b50505050565b6060611c58826040518060400160405280602081526020017f5361666545524332303a206c6f772d6c6576656c2063616c6c206661696c6564815250856001600160a01b0316611cb99092919063ffffffff16565b805190915015611cb457808060200190516020811015611c7757600080fd5b5051611cb45760405162461bcd60e51b815260040180806020018281038252602a815260200180611fb8602a913960400191505060405180910390fd5b505050565b6060611cc88484600085611cd0565b949350505050565b606082471015611d115760405162461bcd60e51b8152600401808060200182810382526026815260200180611f2a6026913960400191505060405180910390fd5b611d1a85611e2c565b611d6b576040805162461bcd60e51b815260206004820152601d60248201527f416464726573733a2063616c6c20746f206e6f6e2d636f6e7472616374000000604482015290519081900360640190fd5b60006060866001600160a01b031685876040518082805190602001908083835b60208310611daa5780518252601f199092019160209182019101611d8b565b6001836020036101000a03801982511681845116808217855250505050505090500191505060006040518083038185875af1925050503d8060008114611e0c576040519150601f19603f3d011682016040523d82523d6000602084013e611e11565b606091505b5091509150611e21828286611e32565b979650505050505050565b3b151590565b60608315611e41575081610d3b565b825115611e515782518084602001fd5b60405162461bcd60e51b8152602060048201818152845160248401528451859391928392604401919085019080838360008315611af8578181015183820152602001611ae056fe586c784d616e616765723a20636f6f6c646f776e206475726174696f6e206e6f7420796574207061737365645265656e7472616e637947756172643a207265656e7472616e742063616c6c00476f7665726e61626c653a20666f7262696464656e0000000000000000000000586c784d616e616765723a20696e76616c6964205f636f6f6c646f776e4475726174696f6e416464726573733a20696e73756666696369656e742062616c616e636520666f722063616c6c586c784d616e616765723a20696e73756666696369656e7420584c58206f7574707574536166654d6174683a206d756c7469706c69636174696f6e206f766572666c6f77586c784d616e616765723a20696e73756666696369656e742055534447206f75747075745361666545524332303a204552433230206f7065726174696f6e20646964206e6f742073756363656564a164736f6c634300060c000a",
  "devdoc": {
    "kind": "dev",
    "methods": {},
    "version": 1
  },
  "userdoc": {
    "kind": "user",
    "methods": {},
    "version": 1
  },
  "storageLayout": {
    "storage": [
      {
        "astId": 23313,
        "contract": "contracts/core/XlxManager.sol:XlxManager",
        "label": "_status",
        "offset": 0,
        "slot": "0",
        "type": "t_uint256"
      },
      {
        "astId": 3,
        "contract": "contracts/core/XlxManager.sol:XlxManager",
        "label": "gov",
        "offset": 0,
        "slot": "1",
        "type": "t_address"
      },
      {
        "astId": 16647,
        "contract": "contracts/core/XlxManager.sol:XlxManager",
        "label": "vault",
        "offset": 0,
        "slot": "2",
        "type": "t_contract(IVault)18314"
      },
      {
        "astId": 16650,
        "contract": "contracts/core/XlxManager.sol:XlxManager",
        "label": "usdg",
        "offset": 0,
        "slot": "3",
        "type": "t_address"
      },
      {
        "astId": 16652,
        "contract": "contracts/core/XlxManager.sol:XlxManager",
        "label": "xlx",
        "offset": 0,
        "slot": "4",
        "type": "t_address"
      },
      {
        "astId": 16655,
        "contract": "contracts/core/XlxManager.sol:XlxManager",
        "label": "cooldownDuration",
        "offset": 0,
        "slot": "5",
        "type": "t_uint256"
      },
      {
        "astId": 16660,
        "contract": "contracts/core/XlxManager.sol:XlxManager",
        "label": "lastAddedAt",
        "offset": 0,
        "slot": "6",
        "type": "t_mapping(t_address,t_uint256)"
      },
      {
        "astId": 16662,
        "contract": "contracts/core/XlxManager.sol:XlxManager",
        "label": "aumAddition",
        "offset": 0,
        "slot": "7",
        "type": "t_uint256"
      },
      {
        "astId": 16664,
        "contract": "contracts/core/XlxManager.sol:XlxManager",
        "label": "aumDeduction",
        "offset": 0,
        "slot": "8",
        "type": "t_uint256"
      },
      {
        "astId": 16666,
        "contract": "contracts/core/XlxManager.sol:XlxManager",
        "label": "inPrivateMode",
        "offset": 0,
        "slot": "9",
        "type": "t_bool"
      },
      {
        "astId": 16670,
        "contract": "contracts/core/XlxManager.sol:XlxManager",
        "label": "isHandler",
        "offset": 0,
        "slot": "10",
        "type": "t_mapping(t_address,t_bool)"
      }
    ],
    "types": {
      "t_address": {
        "encoding": "inplace",
        "label": "address",
        "numberOfBytes": "20"
      },
      "t_bool": {
        "encoding": "inplace",
        "label": "bool",
        "numberOfBytes": "1"
      },
      "t_contract(IVault)18314": {
        "encoding": "inplace",
        "label": "contract IVault",
        "numberOfBytes": "20"
      },
      "t_mapping(t_address,t_bool)": {
        "encoding": "mapping",
        "key": "t_address",
        "label": "mapping(address => bool)",
        "numberOfBytes": "32",
        "value": "t_bool"
      },
      "t_mapping(t_address,t_uint256)": {
        "encoding": "mapping",
        "key": "t_address",
        "label": "mapping(address => uint256)",
        "numberOfBytes": "32",
        "value": "t_uint256"
      },
      "t_uint256": {
        "encoding": "inplace",
        "label": "uint256",
        "numberOfBytes": "32"
      }
    }
  }
}