{
  "address": "0x7131c92DB14c19Cf68758e79906b24b1E466B60e",
  "abi": [
    {
      "inputs": [
        {
          "internalType": "address",
          "name": "_esXdx",
          "type": "address"
        }
      ],
      "stateMutability": "nonpayable",
      "type": "constructor"
    },
    {
      "inputs": [],
      "name": "admin",
      "outputs": [
        {
          "internalType": "address",
          "name": "",
          "type": "address"
        }
      ],
      "stateMutability": "view",
      "type": "function"
    },
    {
      "inputs": [],
      "name": "esXdx",
      "outputs": [
        {
          "internalType": "address",
          "name": "",
          "type": "address"
        }
      ],
      "stateMutability": "view",
      "type": "function"
    },
    {
      "inputs": [
        {
          "internalType": "contract IVester",
          "name": "_vester",
          "type": "address"
        },
        {
          "internalType": "uint256",
          "name": "_minRatio",
          "type": "uint256"
        },
        {
          "internalType": "address[]",
          "name": "_accounts",
          "type": "address[]"
        },
        {
          "internalType": "uint256[]",
          "name": "_amounts",
          "type": "uint256[]"
        }
      ],
      "name": "send",
      "outputs": [],
      "stateMutability": "nonpayable",
      "type": "function"
    }
  ],
  "transactionHash": "0x74c1ca3c1aa5995526a38a426326eed4eda91725d6ed57df3018898ad359be40",
  "args": [
    "0x88e85DA84Acfe4113472255f0bE7b5bC385369FF"
  ],
  "numDeployments": 1,
  "solcInputHash": "a5c1ec6ed734a994a4a7c4ed9bed389b",
  "bytecode": "0x608060405234801561001057600080fd5b50604051610a13380380610a138339818101604052602081101561003357600080fd5b5051600080546001600160a01b03199081163317909155600180546001600160a01b03909316929091169190911790556109a1806100726000396000f3fe608060405234801561001057600080fd5b50600436106100415760003560e01c806329484924146100465780638b8f837b1461006a578063f851a440146101a4575b600080fd5b61004e6101ac565b604080516001600160a01b039092168252519081900360200190f35b6101a26004803603608081101561008057600080fd5b6001600160a01b0382351691602081013591810190606081016040820135600160201b8111156100af57600080fd5b8201836020820111156100c157600080fd5b803590602001918460208302840111600160201b831117156100e257600080fd5b9190808060200260200160405190810160405280939291908181526020018383602002808284376000920191909152509295949360208101935035915050600160201b81111561013157600080fd5b82018360208201111561014357600080fd5b803590602001918460208302840111600160201b8311171561016457600080fd5b9190808060200260200160405190810160405280939291908181526020018383602002808284376000920191909152509295506101bb945050505050565b005b61004e61072d565b6001546001600160a01b031681565b6000546001600160a01b03163314610218576040805162461bcd60e51b815260206004820152601b60248201527a22b9ac323c2130ba31b429b2b73232b91d103337b93134b23232b760291b604482015290519081900360640190fd5b6000846001600160a01b0316636bcb411a6040518163ffffffff1660e01b815260040160206040518083038186803b15801561025357600080fd5b505afa158015610267573d6000803e3d6000fd5b505050506040513d602081101561027d57600080fd5b5051905060005b83518110156107255760015484516001600160a01b03909116906323b872dd9033908790859081106102b257fe5b60200260200101518685815181106102c657fe5b60200260200101516040518463ffffffff1660e01b815260040180846001600160a01b03168152602001836001600160a01b031681526020018281526020019350505050602060405180830381600087803b15801561032457600080fd5b505af1158015610338573d6000803e3d6000fd5b505050506040513d602081101561034e57600080fd5b505082516000906103ff9085908490811061036557fe5b6020026020010151886001600160a01b031663b71bce2a88868151811061038857fe5b60200260200101516040518263ffffffff1660e01b815260040180826001600160a01b0316815260200191505060206040518083038186803b1580156103cd57600080fd5b505afa1580156103e1573d6000803e3d6000fd5b505050506040513d60208110156103f757600080fd5b50519061073c565b9050866001600160a01b031663d0b038b786848151811061041c57fe5b6020026020010151836040518363ffffffff1660e01b815260040180836001600160a01b0316815260200182815260200192505050600060405180830381600087803b15801561046b57600080fd5b505af115801561047f573d6000803e3d6000fd5b505050506000836001600160a01b0316633792def38785815181106104a057fe5b60200260200101516040518263ffffffff1660e01b815260040180826001600160a01b0316815260200191505060206040518083038186803b1580156104e557600080fd5b505afa1580156104f9573d6000803e3d6000fd5b505050506040513d602081101561050f57600080fd5b50519050600061051f828461073c565b90506000896001600160a01b03166345f01ee689878151811061053e57fe5b60200260200101516040518263ffffffff1660e01b815260040180826001600160a01b0316815260200191505060206040518083038186803b15801561058357600080fd5b505afa158015610597573d6000803e3d6000fd5b505050506040513d60208110156105ad57600080fd5b505190506105bb828a61079d565b8111156105cb575050505061071d565b60006105d78a8461079d565b905061068361067c84610676878b6001600160a01b031663a31802178f8d815181106105ff57fe5b60200260200101516040518263ffffffff1660e01b815260040180826001600160a01b0316815260200191505060206040518083038186803b15801561064457600080fd5b505afa158015610658573d6000803e3d6000fd5b505050506040513d602081101561066e57600080fd5b50519061079d565b906107f6565b8290610835565b905061069385610676838661079d565b90508a6001600160a01b031663e3ecc4b28a88815181106106b057fe5b6020026020010151836040518363ffffffff1660e01b815260040180836001600160a01b0316815260200182815260200192505050600060405180830381600087803b1580156106ff57600080fd5b505af1158015610713573d6000803e3d6000fd5b5050505050505050505b600101610284565b505050505050565b6000546001600160a01b031681565b600082820183811015610794576040805162461bcd60e51b815260206004820152601b60248201527a536166654d6174683a206164646974696f6e206f766572666c6f7760281b604482015290519081900360640190fd5b90505b92915050565b6000826107ac57506000610797565b828202828482816107b957fe5b04146107945760405162461bcd60e51b81526004018080602001828103825260218152602001806109746021913960400191505060405180910390fd5b600061079483836040518060400160405280601a815260200179536166654d6174683a206469766973696f6e206279207a65726f60301b815250610877565b600061079483836040518060400160405280601e81526020017f536166654d6174683a207375627472616374696f6e206f766572666c6f770000815250610919565b600081836109035760405162461bcd60e51b81526004018080602001828103825283818151815260200191508051906020019080838360005b838110156108c85781810151838201526020016108b0565b50505050905090810190601f1680156108f55780820380516001836020036101000a031916815260200191505b509250505060405180910390fd5b50600083858161090f57fe5b0495945050505050565b6000818484111561096b5760405162461bcd60e51b81526020600482018181528351602484015283519092839260449091019190850190808383600083156108c85781810151838201526020016108b0565b50505090039056fe536166654d6174683a206d756c7469706c69636174696f6e206f766572666c6f77a164736f6c634300060c000a",
  "devdoc": {
    "kind": "dev",
    "methods": {},
    "version": 1
  },
  "userdoc": {
    "kind": "user",
    "methods": {},
    "version": 1
  },
  "storageLayout": {
    "storage": [
      {
        "astId": 25907,
        "contract": "contracts/peripherals/EsXdxBatchSender.sol:EsXdxBatchSender",
        "label": "admin",
        "offset": 0,
        "slot": "0",
        "type": "t_address"
      },
      {
        "astId": 25909,
        "contract": "contracts/peripherals/EsXdxBatchSender.sol:EsXdxBatchSender",
        "label": "esXdx",
        "offset": 0,
        "slot": "1",
        "type": "t_address"
      }
    ],
    "types": {
      "t_address": {
        "encoding": "inplace",
        "label": "address",
        "numberOfBytes": "20"
      }
    }
  }
}