{
  "address": "0xE597b33311C419726Ba78594d1B69De043FaEb81",
  "abi": [
    {
      "inputs": [],
      "stateMutability": "nonpayable",
      "type": "constructor"
    },
    {
      "anonymous": false,
      "inputs": [
        {
          "indexed": true,
          "internalType": "address",
          "name": "account",
          "type": "address"
        },
        {
          "indexed": false,
          "internalType": "uint256",
          "name": "orderIndex",
          "type": "uint256"
        },
        {
          "indexed": false,
          "internalType": "address",
          "name": "collateralToken",
          "type": "address"
        },
        {
          "indexed": false,
          "internalType": "uint256",
          "name": "collateralDelta",
          "type": "uint256"
        },
        {
          "indexed": false,
          "internalType": "address",
          "name": "indexToken",
          "type": "address"
        },
        {
          "indexed": false,
          "internalType": "uint256",
          "name": "sizeDelta",
          "type": "uint256"
        },
        {
          "indexed": false,
          "internalType": "bool",
          "name": "isLong",
          "type": "bool"
        },
        {
          "indexed": false,
          "internalType": "uint256",
          "name": "triggerPrice",
          "type": "uint256"
        },
        {
          "indexed": false,
          "internalType": "bool",
          "name": "triggerAboveThreshold",
          "type": "bool"
        },
        {
          "indexed": false,
          "internalType": "uint256",
          "name": "executionFee",
          "type": "uint256"
        }
      ],
      "name": "CancelDecreaseOrder",
      "type": "event"
    },
    {
      "anonymous": false,
      "inputs": [
        {
          "indexed": true,
          "internalType": "address",
          "name": "account",
          "type": "address"
        },
        {
          "indexed": false,
          "internalType": "uint256",
          "name": "orderIndex",
          "type": "uint256"
        },
        {
          "indexed": false,
          "internalType": "address",
          "name": "purchaseToken",
          "type": "address"
        },
        {
          "indexed": false,
          "internalType": "uint256",
          "name": "purchaseTokenAmount",
          "type": "uint256"
        },
        {
          "indexed": false,
          "internalType": "address",
          "name": "collateralToken",
          "type": "address"
        },
        {
          "indexed": false,
          "internalType": "address",
          "name": "indexToken",
          "type": "address"
        },
        {
          "indexed": false,
          "internalType": "uint256",
          "name": "sizeDelta",
          "type": "uint256"
        },
        {
          "indexed": false,
          "internalType": "bool",
          "name": "isLong",
          "type": "bool"
        },
        {
          "indexed": false,
          "internalType": "uint256",
          "name": "triggerPrice",
          "type": "uint256"
        },
        {
          "indexed": false,
          "internalType": "bool",
          "name": "triggerAboveThreshold",
          "type": "bool"
        },
        {
          "indexed": false,
          "internalType": "uint256",
          "name": "executionFee",
          "type": "uint256"
        }
      ],
      "name": "CancelIncreaseOrder",
      "type": "event"
    },
    {
      "anonymous": false,
      "inputs": [
        {
          "indexed": true,
          "internalType": "address",
          "name": "account",
          "type": "address"
        },
        {
          "indexed": false,
          "internalType": "uint256",
          "name": "orderIndex",
          "type": "uint256"
        },
        {
          "indexed": false,
          "internalType": "address[]",
          "name": "path",
          "type": "address[]"
        },
        {
          "indexed": false,
          "internalType": "uint256",
          "name": "amountIn",
          "type": "uint256"
        },
        {
          "indexed": false,
          "internalType": "uint256",
          "name": "minOut",
          "type": "uint256"
        },
        {
          "indexed": false,
          "internalType": "uint256",
          "name": "triggerRatio",
          "type": "uint256"
        },
        {
          "indexed": false,
          "internalType": "bool",
          "name": "triggerAboveThreshold",
          "type": "bool"
        },
        {
          "indexed": false,
          "internalType": "bool",
          "name": "shouldUnwrap",
          "type": "bool"
        },
        {
          "indexed": false,
          "internalType": "uint256",
          "name": "executionFee",
          "type": "uint256"
        }
      ],
      "name": "CancelSwapOrder",
      "type": "event"
    },
    {
      "anonymous": false,
      "inputs": [
        {
          "indexed": true,
          "internalType": "address",
          "name": "account",
          "type": "address"
        },
        {
          "indexed": false,
          "internalType": "uint256",
          "name": "orderIndex",
          "type": "uint256"
        },
        {
          "indexed": false,
          "internalType": "address",
          "name": "collateralToken",
          "type": "address"
        },
        {
          "indexed": false,
          "internalType": "uint256",
          "name": "collateralDelta",
          "type": "uint256"
        },
        {
          "indexed": false,
          "internalType": "address",
          "name": "indexToken",
          "type": "address"
        },
        {
          "indexed": false,
          "internalType": "uint256",
          "name": "sizeDelta",
          "type": "uint256"
        },
        {
          "indexed": false,
          "internalType": "bool",
          "name": "isLong",
          "type": "bool"
        },
        {
          "indexed": false,
          "internalType": "uint256",
          "name": "triggerPrice",
          "type": "uint256"
        },
        {
          "indexed": false,
          "internalType": "bool",
          "name": "triggerAboveThreshold",
          "type": "bool"
        },
        {
          "indexed": false,
          "internalType": "uint256",
          "name": "executionFee",
          "type": "uint256"
        }
      ],
      "name": "CreateDecreaseOrder",
      "type": "event"
    },
    {
      "anonymous": false,
      "inputs": [
        {
          "indexed": true,
          "internalType": "address",
          "name": "account",
          "type": "address"
        },
        {
          "indexed": false,
          "internalType": "uint256",
          "name": "orderIndex",
          "type": "uint256"
        },
        {
          "indexed": false,
          "internalType": "address",
          "name": "purchaseToken",
          "type": "address"
        },
        {
          "indexed": false,
          "internalType": "uint256",
          "name": "purchaseTokenAmount",
          "type": "uint256"
        },
        {
          "indexed": false,
          "internalType": "address",
          "name": "collateralToken",
          "type": "address"
        },
        {
          "indexed": false,
          "internalType": "address",
          "name": "indexToken",
          "type": "address"
        },
        {
          "indexed": false,
          "internalType": "uint256",
          "name": "sizeDelta",
          "type": "uint256"
        },
        {
          "indexed": false,
          "internalType": "bool",
          "name": "isLong",
          "type": "bool"
        },
        {
          "indexed": false,
          "internalType": "uint256",
          "name": "triggerPrice",
          "type": "uint256"
        },
        {
          "indexed": false,
          "internalType": "bool",
          "name": "triggerAboveThreshold",
          "type": "bool"
        },
        {
          "indexed": false,
          "internalType": "uint256",
          "name": "executionFee",
          "type": "uint256"
        }
      ],
      "name": "CreateIncreaseOrder",
      "type": "event"
    },
    {
      "anonymous": false,
      "inputs": [
        {
          "indexed": true,
          "internalType": "address",
          "name": "account",
          "type": "address"
        },
        {
          "indexed": false,
          "internalType": "uint256",
          "name": "orderIndex",
          "type": "uint256"
        },
        {
          "indexed": false,
          "internalType": "address[]",
          "name": "path",
          "type": "address[]"
        },
        {
          "indexed": false,
          "internalType": "uint256",
          "name": "amountIn",
          "type": "uint256"
        },
        {
          "indexed": false,
          "internalType": "uint256",
          "name": "minOut",
          "type": "uint256"
        },
        {
          "indexed": false,
          "internalType": "uint256",
          "name": "triggerRatio",
          "type": "uint256"
        },
        {
          "indexed": false,
          "internalType": "bool",
          "name": "triggerAboveThreshold",
          "type": "bool"
        },
        {
          "indexed": false,
          "internalType": "bool",
          "name": "shouldUnwrap",
          "type": "bool"
        },
        {
          "indexed": false,
          "internalType": "uint256",
          "name": "executionFee",
          "type": "uint256"
        }
      ],
      "name": "CreateSwapOrder",
      "type": "event"
    },
    {
      "anonymous": false,
      "inputs": [
        {
          "indexed": true,
          "internalType": "address",
          "name": "account",
          "type": "address"
        },
        {
          "indexed": false,
          "internalType": "uint256",
          "name": "orderIndex",
          "type": "uint256"
        },
        {
          "indexed": false,
          "internalType": "address",
          "name": "collateralToken",
          "type": "address"
        },
        {
          "indexed": false,
          "internalType": "uint256",
          "name": "collateralDelta",
          "type": "uint256"
        },
        {
          "indexed": false,
          "internalType": "address",
          "name": "indexToken",
          "type": "address"
        },
        {
          "indexed": false,
          "internalType": "uint256",
          "name": "sizeDelta",
          "type": "uint256"
        },
        {
          "indexed": false,
          "internalType": "bool",
          "name": "isLong",
          "type": "bool"
        },
        {
          "indexed": false,
          "internalType": "uint256",
          "name": "triggerPrice",
          "type": "uint256"
        },
        {
          "indexed": false,
          "internalType": "bool",
          "name": "triggerAboveThreshold",
          "type": "bool"
        },
        {
          "indexed": false,
          "internalType": "uint256",
          "name": "executionFee",
          "type": "uint256"
        },
        {
          "indexed": false,
          "internalType": "uint256",
          "name": "executionPrice",
          "type": "uint256"
        }
      ],
      "name": "ExecuteDecreaseOrder",
      "type": "event"
    },
    {
      "anonymous": false,
      "inputs": [
        {
          "indexed": true,
          "internalType": "address",
          "name": "account",
          "type": "address"
        },
        {
          "indexed": false,
          "internalType": "uint256",
          "name": "orderIndex",
          "type": "uint256"
        },
        {
          "indexed": false,
          "internalType": "address",
          "name": "purchaseToken",
          "type": "address"
        },
        {
          "indexed": false,
          "internalType": "uint256",
          "name": "purchaseTokenAmount",
          "type": "uint256"
        },
        {
          "indexed": false,
          "internalType": "address",
          "name": "collateralToken",
          "type": "address"
        },
        {
          "indexed": false,
          "internalType": "address",
          "name": "indexToken",
          "type": "address"
        },
        {
          "indexed": false,
          "internalType": "uint256",
          "name": "sizeDelta",
          "type": "uint256"
        },
        {
          "indexed": false,
          "internalType": "bool",
          "name": "isLong",
          "type": "bool"
        },
        {
          "indexed": false,
          "internalType": "uint256",
          "name": "triggerPrice",
          "type": "uint256"
        },
        {
          "indexed": false,
          "internalType": "bool",
          "name": "triggerAboveThreshold",
          "type": "bool"
        },
        {
          "indexed": false,
          "internalType": "uint256",
          "name": "executionFee",
          "type": "uint256"
        },
        {
          "indexed": false,
          "internalType": "uint256",
          "name": "executionPrice",
          "type": "uint256"
        }
      ],
      "name": "ExecuteIncreaseOrder",
      "type": "event"
    },
    {
      "anonymous": false,
      "inputs": [
        {
          "indexed": true,
          "internalType": "address",
          "name": "account",
          "type": "address"
        },
        {
          "indexed": false,
          "internalType": "uint256",
          "name": "orderIndex",
          "type": "uint256"
        },
        {
          "indexed": false,
          "internalType": "address[]",
          "name": "path",
          "type": "address[]"
        },
        {
          "indexed": false,
          "internalType": "uint256",
          "name": "amountIn",
          "type": "uint256"
        },
        {
          "indexed": false,
          "internalType": "uint256",
          "name": "minOut",
          "type": "uint256"
        },
        {
          "indexed": false,
          "internalType": "uint256",
          "name": "amountOut",
          "type": "uint256"
        },
        {
          "indexed": false,
          "internalType": "uint256",
          "name": "triggerRatio",
          "type": "uint256"
        },
        {
          "indexed": false,
          "internalType": "bool",
          "name": "triggerAboveThreshold",
          "type": "bool"
        },
        {
          "indexed": false,
          "internalType": "bool",
          "name": "shouldUnwrap",
          "type": "bool"
        },
        {
          "indexed": false,
          "internalType": "uint256",
          "name": "executionFee",
          "type": "uint256"
        }
      ],
      "name": "ExecuteSwapOrder",
      "type": "event"
    },
    {
      "anonymous": false,
      "inputs": [
        {
          "indexed": false,
          "internalType": "address",
          "name": "router",
          "type": "address"
        },
        {
          "indexed": false,
          "internalType": "address",
          "name": "vault",
          "type": "address"
        },
        {
          "indexed": false,
          "internalType": "address",
          "name": "weth",
          "type": "address"
        },
        {
          "indexed": false,
          "internalType": "address",
          "name": "usdg",
          "type": "address"
        },
        {
          "indexed": false,
          "internalType": "uint256",
          "name": "minExecutionFee",
          "type": "uint256"
        },
        {
          "indexed": false,
          "internalType": "uint256",
          "name": "minPurchaseTokenAmountUsd",
          "type": "uint256"
        }
      ],
      "name": "Initialize",
      "type": "event"
    },
    {
      "anonymous": false,
      "inputs": [
        {
          "indexed": true,
          "internalType": "address",
          "name": "account",
          "type": "address"
        },
        {
          "indexed": false,
          "internalType": "uint256",
          "name": "orderIndex",
          "type": "uint256"
        },
        {
          "indexed": false,
          "internalType": "address",
          "name": "collateralToken",
          "type": "address"
        },
        {
          "indexed": false,
          "internalType": "uint256",
          "name": "collateralDelta",
          "type": "uint256"
        },
        {
          "indexed": false,
          "internalType": "address",
          "name": "indexToken",
          "type": "address"
        },
        {
          "indexed": false,
          "internalType": "uint256",
          "name": "sizeDelta",
          "type": "uint256"
        },
        {
          "indexed": false,
          "internalType": "bool",
          "name": "isLong",
          "type": "bool"
        },
        {
          "indexed": false,
          "internalType": "uint256",
          "name": "triggerPrice",
          "type": "uint256"
        },
        {
          "indexed": false,
          "internalType": "bool",
          "name": "triggerAboveThreshold",
          "type": "bool"
        }
      ],
      "name": "UpdateDecreaseOrder",
      "type": "event"
    },
    {
      "anonymous": false,
      "inputs": [
        {
          "indexed": false,
          "internalType": "address",
          "name": "gov",
          "type": "address"
        }
      ],
      "name": "UpdateGov",
      "type": "event"
    },
    {
      "anonymous": false,
      "inputs": [
        {
          "indexed": true,
          "internalType": "address",
          "name": "account",
          "type": "address"
        },
        {
          "indexed": false,
          "internalType": "uint256",
          "name": "orderIndex",
          "type": "uint256"
        },
        {
          "indexed": false,
          "internalType": "address",
          "name": "collateralToken",
          "type": "address"
        },
        {
          "indexed": false,
          "internalType": "address",
          "name": "indexToken",
          "type": "address"
        },
        {
          "indexed": false,
          "internalType": "bool",
          "name": "isLong",
          "type": "bool"
        },
        {
          "indexed": false,
          "internalType": "uint256",
          "name": "sizeDelta",
          "type": "uint256"
        },
        {
          "indexed": false,
          "internalType": "uint256",
          "name": "triggerPrice",
          "type": "uint256"
        },
        {
          "indexed": false,
          "internalType": "bool",
          "name": "triggerAboveThreshold",
          "type": "bool"
        }
      ],
      "name": "UpdateIncreaseOrder",
      "type": "event"
    },
    {
      "anonymous": false,
      "inputs": [
        {
          "indexed": false,
          "internalType": "uint256",
          "name": "minExecutionFee",
          "type": "uint256"
        }
      ],
      "name": "UpdateMinExecutionFee",
      "type": "event"
    },
    {
      "anonymous": false,
      "inputs": [
        {
          "indexed": false,
          "internalType": "uint256",
          "name": "minPurchaseTokenAmountUsd",
          "type": "uint256"
        }
      ],
      "name": "UpdateMinPurchaseTokenAmountUsd",
      "type": "event"
    },
    {
      "anonymous": false,
      "inputs": [
        {
          "indexed": true,
          "internalType": "address",
          "name": "account",
          "type": "address"
        },
        {
          "indexed": false,
          "internalType": "uint256",
          "name": "ordexIndex",
          "type": "uint256"
        },
        {
          "indexed": false,
          "internalType": "address[]",
          "name": "path",
          "type": "address[]"
        },
        {
          "indexed": false,
          "internalType": "uint256",
          "name": "amountIn",
          "type": "uint256"
        },
        {
          "indexed": false,
          "internalType": "uint256",
          "name": "minOut",
          "type": "uint256"
        },
        {
          "indexed": false,
          "internalType": "uint256",
          "name": "triggerRatio",
          "type": "uint256"
        },
        {
          "indexed": false,
          "internalType": "bool",
          "name": "triggerAboveThreshold",
          "type": "bool"
        },
        {
          "indexed": false,
          "internalType": "bool",
          "name": "shouldUnwrap",
          "type": "bool"
        },
        {
          "indexed": false,
          "internalType": "uint256",
          "name": "executionFee",
          "type": "uint256"
        }
      ],
      "name": "UpdateSwapOrder",
      "type": "event"
    },
    {
      "inputs": [],
      "name": "PRICE_PRECISION",
      "outputs": [
        {
          "internalType": "uint256",
          "name": "",
          "type": "uint256"
        }
      ],
      "stateMutability": "view",
      "type": "function"
    },
    {
      "inputs": [],
      "name": "USDG_PRECISION",
      "outputs": [
        {
          "internalType": "uint256",
          "name": "",
          "type": "uint256"
        }
      ],
      "stateMutability": "view",
      "type": "function"
    },
    {
      "inputs": [
        {
          "internalType": "uint256",
          "name": "_orderIndex",
          "type": "uint256"
        }
      ],
      "name": "cancelDecreaseOrder",
      "outputs": [],
      "stateMutability": "nonpayable",
      "type": "function"
    },
    {
      "inputs": [
        {
          "internalType": "uint256",
          "name": "_orderIndex",
          "type": "uint256"
        }
      ],
      "name": "cancelIncreaseOrder",
      "outputs": [],
      "stateMutability": "nonpayable",
      "type": "function"
    },
    {
      "inputs": [
        {
          "internalType": "uint256[]",
          "name": "_swapOrderIndexes",
          "type": "uint256[]"
        },
        {
          "internalType": "uint256[]",
          "name": "_increaseOrderIndexes",
          "type": "uint256[]"
        },
        {
          "internalType": "uint256[]",
          "name": "_decreaseOrderIndexes",
          "type": "uint256[]"
        }
      ],
      "name": "cancelMultiple",
      "outputs": [],
      "stateMutability": "nonpayable",
      "type": "function"
    },
    {
      "inputs": [
        {
          "internalType": "uint256",
          "name": "_orderIndex",
          "type": "uint256"
        }
      ],
      "name": "cancelSwapOrder",
      "outputs": [],
      "stateMutability": "nonpayable",
      "type": "function"
    },
    {
      "inputs": [
        {
          "internalType": "address",
          "name": "_indexToken",
          "type": "address"
        },
        {
          "internalType": "uint256",
          "name": "_sizeDelta",
          "type": "uint256"
        },
        {
          "internalType": "address",
          "name": "_collateralToken",
          "type": "address"
        },
        {
          "internalType": "uint256",
          "name": "_collateralDelta",
          "type": "uint256"
        },
        {
          "internalType": "bool",
          "name": "_isLong",
          "type": "bool"
        },
        {
          "internalType": "uint256",
          "name": "_triggerPrice",
          "type": "uint256"
        },
        {
          "internalType": "bool",
          "name": "_triggerAboveThreshold",
          "type": "bool"
        }
      ],
      "name": "createDecreaseOrder",
      "outputs": [],
      "stateMutability": "payable",
      "type": "function"
    },
    {
      "inputs": [
        {
          "internalType": "address[]",
          "name": "_path",
          "type": "address[]"
        },
        {
          "internalType": "uint256",
          "name": "_amountIn",
          "type": "uint256"
        },
        {
          "internalType": "address",
          "name": "_indexToken",
          "type": "address"
        },
        {
          "internalType": "uint256",
          "name": "_minOut",
          "type": "uint256"
        },
        {
          "internalType": "uint256",
          "name": "_sizeDelta",
          "type": "uint256"
        },
        {
          "internalType": "address",
          "name": "_collateralToken",
          "type": "address"
        },
        {
          "internalType": "bool",
          "name": "_isLong",
          "type": "bool"
        },
        {
          "internalType": "uint256",
          "name": "_triggerPrice",
          "type": "uint256"
        },
        {
          "internalType": "bool",
          "name": "_triggerAboveThreshold",
          "type": "bool"
        },
        {
          "internalType": "uint256",
          "name": "_executionFee",
          "type": "uint256"
        },
        {
          "internalType": "bool",
          "name": "_shouldWrap",
          "type": "bool"
        }
      ],
      "name": "createIncreaseOrder",
      "outputs": [],
      "stateMutability": "payable",
      "type": "function"
    },
    {
      "inputs": [
        {
          "internalType": "address[]",
          "name": "_path",
          "type": "address[]"
        },
        {
          "internalType": "uint256",
          "name": "_amountIn",
          "type": "uint256"
        },
        {
          "internalType": "uint256",
          "name": "_minOut",
          "type": "uint256"
        },
        {
          "internalType": "uint256",
          "name": "_triggerRatio",
          "type": "uint256"
        },
        {
          "internalType": "bool",
          "name": "_triggerAboveThreshold",
          "type": "bool"
        },
        {
          "internalType": "uint256",
          "name": "_executionFee",
          "type": "uint256"
        },
        {
          "internalType": "bool",
          "name": "_shouldWrap",
          "type": "bool"
        },
        {
          "internalType": "bool",
          "name": "_shouldUnwrap",
          "type": "bool"
        }
      ],
      "name": "createSwapOrder",
      "outputs": [],
      "stateMutability": "payable",
      "type": "function"
    },
    {
      "inputs": [
        {
          "internalType": "address",
          "name": "",
          "type": "address"
        },
        {
          "internalType": "uint256",
          "name": "",
          "type": "uint256"
        }
      ],
      "name": "decreaseOrders",
      "outputs": [
        {
          "internalType": "address",
          "name": "account",
          "type": "address"
        },
        {
          "internalType": "address",
          "name": "collateralToken",
          "type": "address"
        },
        {
          "internalType": "uint256",
          "name": "collateralDelta",
          "type": "uint256"
        },
        {
          "internalType": "address",
          "name": "indexToken",
          "type": "address"
        },
        {
          "internalType": "uint256",
          "name": "sizeDelta",
          "type": "uint256"
        },
        {
          "internalType": "bool",
          "name": "isLong",
          "type": "bool"
        },
        {
          "internalType": "uint256",
          "name": "triggerPrice",
          "type": "uint256"
        },
        {
          "internalType": "bool",
          "name": "triggerAboveThreshold",
          "type": "bool"
        },
        {
          "internalType": "uint256",
          "name": "executionFee",
          "type": "uint256"
        }
      ],
      "stateMutability": "view",
      "type": "function"
    },
    {
      "inputs": [
        {
          "internalType": "address",
          "name": "",
          "type": "address"
        }
      ],
      "name": "decreaseOrdersIndex",
      "outputs": [
        {
          "internalType": "uint256",
          "name": "",
          "type": "uint256"
        }
      ],
      "stateMutability": "view",
      "type": "function"
    },
    {
      "inputs": [
        {
          "internalType": "address",
          "name": "_address",
          "type": "address"
        },
        {
          "internalType": "uint256",
          "name": "_orderIndex",
          "type": "uint256"
        },
        {
          "internalType": "address payable",
          "name": "_feeReceiver",
          "type": "address"
        }
      ],
      "name": "executeDecreaseOrder",
      "outputs": [],
      "stateMutability": "nonpayable",
      "type": "function"
    },
    {
      "inputs": [
        {
          "internalType": "address",
          "name": "_address",
          "type": "address"
        },
        {
          "internalType": "uint256",
          "name": "_orderIndex",
          "type": "uint256"
        },
        {
          "internalType": "address payable",
          "name": "_feeReceiver",
          "type": "address"
        }
      ],
      "name": "executeIncreaseOrder",
      "outputs": [],
      "stateMutability": "nonpayable",
      "type": "function"
    },
    {
      "inputs": [
        {
          "internalType": "address",
          "name": "_account",
          "type": "address"
        },
        {
          "internalType": "uint256",
          "name": "_orderIndex",
          "type": "uint256"
        },
        {
          "internalType": "address payable",
          "name": "_feeReceiver",
          "type": "address"
        }
      ],
      "name": "executeSwapOrder",
      "outputs": [],
      "stateMutability": "nonpayable",
      "type": "function"
    },
    {
      "inputs": [
        {
          "internalType": "address",
          "name": "_account",
          "type": "address"
        },
        {
          "internalType": "uint256",
          "name": "_orderIndex",
          "type": "uint256"
        }
      ],
      "name": "getDecreaseOrder",
      "outputs": [
        {
          "internalType": "address",
          "name": "collateralToken",
          "type": "address"
        },
        {
          "internalType": "uint256",
          "name": "collateralDelta",
          "type": "uint256"
        },
        {
          "internalType": "address",
          "name": "indexToken",
          "type": "address"
        },
        {
          "internalType": "uint256",
          "name": "sizeDelta",
          "type": "uint256"
        },
        {
          "internalType": "bool",
          "name": "isLong",
          "type": "bool"
        },
        {
          "internalType": "uint256",
          "name": "triggerPrice",
          "type": "uint256"
        },
        {
          "internalType": "bool",
          "name": "triggerAboveThreshold",
          "type": "bool"
        },
        {
          "internalType": "uint256",
          "name": "executionFee",
          "type": "uint256"
        }
      ],
      "stateMutability": "view",
      "type": "function"
    },
    {
      "inputs": [
        {
          "internalType": "address",
          "name": "_account",
          "type": "address"
        },
        {
          "internalType": "uint256",
          "name": "_orderIndex",
          "type": "uint256"
        }
      ],
      "name": "getIncreaseOrder",
      "outputs": [
        {
          "internalType": "address",
          "name": "purchaseToken",
          "type": "address"
        },
        {
          "internalType": "uint256",
          "name": "purchaseTokenAmount",
          "type": "uint256"
        },
        {
          "internalType": "address",
          "name": "collateralToken",
          "type": "address"
        },
        {
          "internalType": "address",
          "name": "indexToken",
          "type": "address"
        },
        {
          "internalType": "uint256",
          "name": "sizeDelta",
          "type": "uint256"
        },
        {
          "internalType": "bool",
          "name": "isLong",
          "type": "bool"
        },
        {
          "internalType": "uint256",
          "name": "triggerPrice",
          "type": "uint256"
        },
        {
          "internalType": "bool",
          "name": "triggerAboveThreshold",
          "type": "bool"
        },
        {
          "internalType": "uint256",
          "name": "executionFee",
          "type": "uint256"
        }
      ],
      "stateMutability": "view",
      "type": "function"
    },
    {
      "inputs": [
        {
          "internalType": "address",
          "name": "_account",
          "type": "address"
        },
        {
          "internalType": "uint256",
          "name": "_orderIndex",
          "type": "uint256"
        }
      ],
      "name": "getSwapOrder",
      "outputs": [
        {
          "internalType": "address",
          "name": "path0",
          "type": "address"
        },
        {
          "internalType": "address",
          "name": "path1",
          "type": "address"
        },
        {
          "internalType": "address",
          "name": "path2",
          "type": "address"
        },
        {
          "internalType": "uint256",
          "name": "amountIn",
          "type": "uint256"
        },
        {
          "internalType": "uint256",
          "name": "minOut",
          "type": "uint256"
        },
        {
          "internalType": "uint256",
          "name": "triggerRatio",
          "type": "uint256"
        },
        {
          "internalType": "bool",
          "name": "triggerAboveThreshold",
          "type": "bool"
        },
        {
          "internalType": "bool",
          "name": "shouldUnwrap",
          "type": "bool"
        },
        {
          "internalType": "uint256",
          "name": "executionFee",
          "type": "uint256"
        }
      ],
      "stateMutability": "view",
      "type": "function"
    },
    {
      "inputs": [
        {
          "internalType": "address",
          "name": "_otherToken",
          "type": "address"
        }
      ],
      "name": "getUsdgMinPrice",
      "outputs": [
        {
          "internalType": "uint256",
          "name": "",
          "type": "uint256"
        }
      ],
      "stateMutability": "view",
      "type": "function"
    },
    {
      "inputs": [],
      "name": "gov",
      "outputs": [
        {
          "internalType": "address",
          "name": "",
          "type": "address"
        }
      ],
      "stateMutability": "view",
      "type": "function"
    },
    {
      "inputs": [
        {
          "internalType": "address",
          "name": "",
          "type": "address"
        },
        {
          "internalType": "uint256",
          "name": "",
          "type": "uint256"
        }
      ],
      "name": "increaseOrders",
      "outputs": [
        {
          "internalType": "address",
          "name": "account",
          "type": "address"
        },
        {
          "internalType": "address",
          "name": "purchaseToken",
          "type": "address"
        },
        {
          "internalType": "uint256",
          "name": "purchaseTokenAmount",
          "type": "uint256"
        },
        {
          "internalType": "address",
          "name": "collateralToken",
          "type": "address"
        },
        {
          "internalType": "address",
          "name": "indexToken",
          "type": "address"
        },
        {
          "internalType": "uint256",
          "name": "sizeDelta",
          "type": "uint256"
        },
        {
          "internalType": "bool",
          "name": "isLong",
          "type": "bool"
        },
        {
          "internalType": "uint256",
          "name": "triggerPrice",
          "type": "uint256"
        },
        {
          "internalType": "bool",
          "name": "triggerAboveThreshold",
          "type": "bool"
        },
        {
          "internalType": "uint256",
          "name": "executionFee",
          "type": "uint256"
        }
      ],
      "stateMutability": "view",
      "type": "function"
    },
    {
      "inputs": [
        {
          "internalType": "address",
          "name": "",
          "type": "address"
        }
      ],
      "name": "increaseOrdersIndex",
      "outputs": [
        {
          "internalType": "uint256",
          "name": "",
          "type": "uint256"
        }
      ],
      "stateMutability": "view",
      "type": "function"
    },
    {
      "inputs": [
        {
          "internalType": "address",
          "name": "_router",
          "type": "address"
        },
        {
          "internalType": "address",
          "name": "_vault",
          "type": "address"
        },
        {
          "internalType": "address",
          "name": "_weth",
          "type": "address"
        },
        {
          "internalType": "address",
          "name": "_usdg",
          "type": "address"
        },
        {
          "internalType": "uint256",
          "name": "_minExecutionFee",
          "type": "uint256"
        },
        {
          "internalType": "uint256",
          "name": "_minPurchaseTokenAmountUsd",
          "type": "uint256"
        }
      ],
      "name": "initialize",
      "outputs": [],
      "stateMutability": "nonpayable",
      "type": "function"
    },
    {
      "inputs": [],
      "name": "isInitialized",
      "outputs": [
        {
          "internalType": "bool",
          "name": "",
          "type": "bool"
        }
      ],
      "stateMutability": "view",
      "type": "function"
    },
    {
      "inputs": [],
      "name": "minExecutionFee",
      "outputs": [
        {
          "internalType": "uint256",
          "name": "",
          "type": "uint256"
        }
      ],
      "stateMutability": "view",
      "type": "function"
    },
    {
      "inputs": [],
      "name": "minPurchaseTokenAmountUsd",
      "outputs": [
        {
          "internalType": "uint256",
          "name": "",
          "type": "uint256"
        }
      ],
      "stateMutability": "view",
      "type": "function"
    },
    {
      "inputs": [],
      "name": "router",
      "outputs": [
        {
          "internalType": "address",
          "name": "",
          "type": "address"
        }
      ],
      "stateMutability": "view",
      "type": "function"
    },
    {
      "inputs": [
        {
          "internalType": "address",
          "name": "_gov",
          "type": "address"
        }
      ],
      "name": "setGov",
      "outputs": [],
      "stateMutability": "nonpayable",
      "type": "function"
    },
    {
      "inputs": [
        {
          "internalType": "uint256",
          "name": "_minExecutionFee",
          "type": "uint256"
        }
      ],
      "name": "setMinExecutionFee",
      "outputs": [],
      "stateMutability": "nonpayable",
      "type": "function"
    },
    {
      "inputs": [
        {
          "internalType": "uint256",
          "name": "_minPurchaseTokenAmountUsd",
          "type": "uint256"
        }
      ],
      "name": "setMinPurchaseTokenAmountUsd",
      "outputs": [],
      "stateMutability": "nonpayable",
      "type": "function"
    },
    {
      "inputs": [
        {
          "internalType": "address",
          "name": "",
          "type": "address"
        },
        {
          "internalType": "uint256",
          "name": "",
          "type": "uint256"
        }
      ],
      "name": "swapOrders",
      "outputs": [
        {
          "internalType": "address",
          "name": "account",
          "type": "address"
        },
        {
          "internalType": "uint256",
          "name": "amountIn",
          "type": "uint256"
        },
        {
          "internalType": "uint256",
          "name": "minOut",
          "type": "uint256"
        },
        {
          "internalType": "uint256",
          "name": "triggerRatio",
          "type": "uint256"
        },
        {
          "internalType": "bool",
          "name": "triggerAboveThreshold",
          "type": "bool"
        },
        {
          "internalType": "bool",
          "name": "shouldUnwrap",
          "type": "bool"
        },
        {
          "internalType": "uint256",
          "name": "executionFee",
          "type": "uint256"
        }
      ],
      "stateMutability": "view",
      "type": "function"
    },
    {
      "inputs": [
        {
          "internalType": "address",
          "name": "",
          "type": "address"
        }
      ],
      "name": "swapOrdersIndex",
      "outputs": [
        {
          "internalType": "uint256",
          "name": "",
          "type": "uint256"
        }
      ],
      "stateMutability": "view",
      "type": "function"
    },
    {
      "inputs": [
        {
          "internalType": "uint256",
          "name": "_orderIndex",
          "type": "uint256"
        },
        {
          "internalType": "uint256",
          "name": "_collateralDelta",
          "type": "uint256"
        },
        {
          "internalType": "uint256",
          "name": "_sizeDelta",
          "type": "uint256"
        },
        {
          "internalType": "uint256",
          "name": "_triggerPrice",
          "type": "uint256"
        },
        {
          "internalType": "bool",
          "name": "_triggerAboveThreshold",
          "type": "bool"
        }
      ],
      "name": "updateDecreaseOrder",
      "outputs": [],
      "stateMutability": "nonpayable",
      "type": "function"
    },
    {
      "inputs": [
        {
          "internalType": "uint256",
          "name": "_orderIndex",
          "type": "uint256"
        },
        {
          "internalType": "uint256",
          "name": "_sizeDelta",
          "type": "uint256"
        },
        {
          "internalType": "uint256",
          "name": "_triggerPrice",
          "type": "uint256"
        },
        {
          "internalType": "bool",
          "name": "_triggerAboveThreshold",
          "type": "bool"
        }
      ],
      "name": "updateIncreaseOrder",
      "outputs": [],
      "stateMutability": "nonpayable",
      "type": "function"
    },
    {
      "inputs": [
        {
          "internalType": "uint256",
          "name": "_orderIndex",
          "type": "uint256"
        },
        {
          "internalType": "uint256",
          "name": "_minOut",
          "type": "uint256"
        },
        {
          "internalType": "uint256",
          "name": "_triggerRatio",
          "type": "uint256"
        },
        {
          "internalType": "bool",
          "name": "_triggerAboveThreshold",
          "type": "bool"
        }
      ],
      "name": "updateSwapOrder",
      "outputs": [],
      "stateMutability": "nonpayable",
      "type": "function"
    },
    {
      "inputs": [],
      "name": "usdg",
      "outputs": [
        {
          "internalType": "address",
          "name": "",
          "type": "address"
        }
      ],
      "stateMutability": "view",
      "type": "function"
    },
    {
      "inputs": [
        {
          "internalType": "bool",
          "name": "_triggerAboveThreshold",
          "type": "bool"
        },
        {
          "internalType": "uint256",
          "name": "_triggerPrice",
          "type": "uint256"
        },
        {
          "internalType": "address",
          "name": "_indexToken",
          "type": "address"
        },
        {
          "internalType": "bool",
          "name": "_maximizePrice",
          "type": "bool"
        },
        {
          "internalType": "bool",
          "name": "_raise",
          "type": "bool"
        }
      ],
      "name": "validatePositionOrderPrice",
      "outputs": [
        {
          "internalType": "uint256",
          "name": "",
          "type": "uint256"
        },
        {
          "internalType": "bool",
          "name": "",
          "type": "bool"
        }
      ],
      "stateMutability": "view",
      "type": "function"
    },
    {
      "inputs": [
        {
          "internalType": "address[]",
          "name": "_path",
          "type": "address[]"
        },
        {
          "internalType": "uint256",
          "name": "_triggerRatio",
          "type": "uint256"
        }
      ],
      "name": "validateSwapOrderPriceWithTriggerAboveThreshold",
      "outputs": [
        {
          "internalType": "bool",
          "name": "",
          "type": "bool"
        }
      ],
      "stateMutability": "view",
      "type": "function"
    },
    {
      "inputs": [],
      "name": "vault",
      "outputs": [
        {
          "internalType": "address",
          "name": "",
          "type": "address"
        }
      ],
      "stateMutability": "view",
      "type": "function"
    },
    {
      "inputs": [],
      "name": "weth",
      "outputs": [
        {
          "internalType": "address",
          "name": "",
          "type": "address"
        }
      ],
      "stateMutability": "view",
      "type": "function"
    },
    {
      "stateMutability": "payable",
      "type": "receive"
    }
  ],
  "transactionHash": "0x7c3e1a126d56d0b2e6c581e1e10e7f9005ec2a7e40974fe2323ad3838e323076",
  "args": [],
  "numDeployments": 1,
  "solcInputHash": "a5c1ec6ed734a994a4a7c4ed9bed389b",
  "bytecode": "0x6080604052600e805460ff1916905534801561001a57600080fd5b506001600055600780546001600160a01b031916331790556153ac806100416000396000f3fe6080604052600436106101d35760003560e01c80639e23de5c116100fe5780639e23de5c146108eb5780639e71b0f01461091e578063a397ea5414610948578063aec224551461098c578063b142a4b0146109bf578063c16cde8a14610aa9578063c4a1821b14610af9578063c86b0f7d14610ba9578063cfad57a214610be7578063d0d40cd614610c1a578063d38ab51914610cad578063d3bab1d114610cf0578063d566d0ca14610d84578063d7c41c7914610db7578063f2d2e01b14610e10578063f5b91b7b14610ea4578063f882ac0714610eb9578063f887ea4014610ee3578063fbfa77cf14610ef8578063fc2cee6214610f0d57610235565b8062cf066b1461023a578063026032ee1461027f57806307c7edc31461030a5780630d5cc9381461034d57806311d9444a1461037757806312d43a51146103ba578063269ae6c2146103eb5780632b7d6290146104b6578063392e53cd146105565780633fc8cef31461057f57806347e0bbd0146105945780634a686d67146105be5780634c54f0b0146105d357806363ae21031461063d57806379221fa214610652578063807c5600146106d15780638de10c2e1461088357806395082d25146108985780639983ee1b146108ad57610235565b36610235576008546001600160a01b03163314610233576040805162461bcd60e51b815260206004820152601960248201527827b93232b92137b7b59d1034b73b30b634b21039b2b73232b960391b604482015290519081900360640190fd5b005b600080fd5b34801561024657600080fd5b5061026d6004803603602081101561025d57600080fd5b50356001600160a01b0316610f37565b60408051918252519081900360200190f35b34801561028b57600080fd5b506102b8600480360360408110156102a257600080fd5b506001600160a01b038135169060200135610f49565b604080516001600160a01b03998a168152602081019890985295909716868601526060860193909352901515608085015260a0840152151560c083015260e08201929092529051908190036101000190f35b34801561031657600080fd5b506102336004803603606081101561032d57600080fd5b506001600160a01b0381358116916020810135916040909101351661101c565b34801561035957600080fd5b506102336004803603602081101561037057600080fd5b5035611427565b34801561038357600080fd5b506102336004803603606081101561039a57600080fd5b506001600160a01b038135811691602081013591604090910135166114b8565b3480156103c657600080fd5b506103cf611867565b604080516001600160a01b039092168252519081900360200190f35b610233600480360361010081101561040257600080fd5b810190602081018135600160201b81111561041c57600080fd5b82018360208201111561042e57600080fd5b803590602001918460208302840111600160201b8311171561044f57600080fd5b91908080602002602001604051908101604052809392919081815260200183836020028082843760009201919091525092955050823593505050602081013590604081013590606081013515159060808101359060a081013515159060c001351515611876565b3480156104c257600080fd5b506104ef600480360360408110156104d957600080fd5b506001600160a01b038135169060200135611bff565b604080516001600160a01b039b8c168152998b1660208b015289810198909852958916606089015293909716608087015260a0860191909152151560c085015260e08401949094529215156101008301526101208201929092529051908190036101400190f35b34801561056257600080fd5b5061056b611c71565b604080519115158252519081900360200190f35b34801561058b57600080fd5b506103cf611c7a565b3480156105a057600080fd5b50610233600480360360208110156105b757600080fd5b5035611c89565b3480156105ca57600080fd5b5061026d611f93565b3480156105df57600080fd5b50610624600480360360a08110156105f657600080fd5b5080351515906020810135906001600160a01b03604082013516906060810135151590608001351515611f9f565b6040805192835290151560208301528051918290030190f35b34801561064957600080fd5b5061026d612108565b34801561065e57600080fd5b5061068b6004803603604081101561067557600080fd5b506001600160a01b03813516906020013561210e565b604080516001600160a01b039098168852602088019690965286860194909452606086019290925215156080850152151560a084015260c0830152519081900360e00190f35b3480156106dd57600080fd5b50610233600480360360608110156106f457600080fd5b810190602081018135600160201b81111561070e57600080fd5b82018360208201111561072057600080fd5b803590602001918460208302840111600160201b8311171561074157600080fd5b9190808060200260200160405190810160405280939291908181526020018383602002808284376000920191909152509295949360208101935035915050600160201b81111561079057600080fd5b8201836020820111156107a257600080fd5b803590602001918460208302840111600160201b831117156107c357600080fd5b9190808060200260200160405190810160405280939291908181526020018383602002808284376000920191909152509295949360208101935035915050600160201b81111561081257600080fd5b82018360208201111561082457600080fd5b803590602001918460208302840111600160201b8311171561084557600080fd5b919080806020026020016040519081016040528093929190818152602001838360200280828437600092019190915250929550612162945050505050565b34801561088f57600080fd5b5061026d6121fa565b3480156108a457600080fd5b5061026d612200565b3480156108b957600080fd5b50610233600480360360808110156108d057600080fd5b50803590602081013590604081013590606001351515612210565b3480156108f757600080fd5b5061026d6004803603602081101561090e57600080fd5b50356001600160a01b0316612368565b34801561092a57600080fd5b506102336004803603602081101561094157600080fd5b5035612512565b34801561095457600080fd5b50610233600480360360a081101561096b57600080fd5b50803590602081013590604081013590606081013590608001351515612784565b34801561099857600080fd5b5061026d600480360360208110156109af57600080fd5b50356001600160a01b03166128ec565b61023360048036036101608110156109d657600080fd5b810190602081018135600160201b8111156109f057600080fd5b820183602082011115610a0257600080fd5b803590602001918460208302840111600160201b83111715610a2357600080fd5b9190808060200260200160405190810160405280939291908181526020018383602002808284376000920191909152509295505082359350506001600160a01b036020830135811692604081013592506060810135916080820135169060a081013515159060c08101359060e081013515159061010081013590610120013515156128fe565b610233600480360360e0811015610abf57600080fd5b506001600160a01b03813581169160208101359160408201351690606081013590608081013515159060a08101359060c001351515612d00565b348015610b0557600080fd5b5061056b60048036036040811015610b1c57600080fd5b810190602081018135600160201b811115610b3657600080fd5b820183602082011115610b4857600080fd5b803590602001918460208302840111600160201b83111715610b6957600080fd5b9190808060200260200160405190810160405280939291908181526020018383602002808284376000920191909152509295505091359250612db2915050565b348015610bb557600080fd5b5061023360048036036080811015610bcc57600080fd5b50803590602081013590604081013590606001351515612fc9565b348015610bf357600080fd5b5061023360048036036020811015610c0a57600080fd5b50356001600160a01b0316613192565b348015610c2657600080fd5b50610c5360048036036040811015610c3d57600080fd5b506001600160a01b03813516906020013561323c565b604080516001600160a01b039a8b168152988a1660208a015296909816878701526060870194909452608086019290925260a0850152151560c0840152151560e08301526101008201929092529051908190036101200190f35b348015610cb957600080fd5b5061023360048036036060811015610cd057600080fd5b506001600160a01b038135811691602081013591604090910135166133f9565b348015610cfc57600080fd5b50610d2960048036036040811015610d1357600080fd5b506001600160a01b038135169060200135613862565b604080516001600160a01b039a8b1681526020810199909952968916888801529490971660608701526080860192909252151560a085015260c084015292151560e08301526101008201929092529051908190036101200190f35b348015610d9057600080fd5b5061026d60048036036020811015610da757600080fd5b50356001600160a01b0316613948565b348015610dc357600080fd5b50610233600480360360c0811015610dda57600080fd5b506001600160a01b0381358116916020810135821691604082013581169160608101359091169060808101359060a0013561395a565b348015610e1c57600080fd5b50610e4960048036036040811015610e3357600080fd5b506001600160a01b038135169060200135613ac9565b604080516001600160a01b039a8b168152988a1660208a0152888101979097529490971660608701526080860192909252151560a085015260c084015292151560e08301526101008201929092529051908190036101200190f35b348015610eb057600080fd5b506103cf613b33565b348015610ec557600080fd5b5061023360048036036020811015610edc57600080fd5b5035613b42565b348015610eef57600080fd5b506103cf613e7f565b348015610f0457600080fd5b506103cf613e8e565b348015610f1957600080fd5b5061023360048036036020811015610f3057600080fd5b5035613e9d565b60066020526000908152604090205481565b600080600080600080600080610f5d614fe1565b505050506001600160a01b03968716600090815260036020818152604080842099845298815291889020885161012081018a5281548b16815260018201548b1693810184905260028201549981018a9052918101549099166060820181905260048a01546080830181905260058b015460ff908116151560a0850181905260068d015460c0860181905260078e0154909216151560e086018190526008909d0154610100909501859052949c9a9b929a91995093975092955093509150565b60026000541415611062576040805162461bcd60e51b815260206004820152601f60248201526000805160206151ae833981519152604482015290519081900360640190fd5b600260005561106f61502d565b6001600160a01b038085166000908152600560209081526040808320878452825291829020825161010081018452815490941684526001810180548451818502810185019095528085529193858401939092908301828280156110fb57602002820191906000526020600020905b81546001600160a01b031681526001909101906020018083116110dd575b5050509183525050600282015460208201526003820154604082015260048201546060820152600582015460ff8082161515608084015261010090910416151560a082015260069091015460c09091015280519091506001600160a01b0316611199576040805162461bcd60e51b815260206004820152601d602482015260008051602061518e833981519152604482015290519081900360640190fd5b8060a00151156111f0576111b581602001518260800151612db2565b6111f05760405162461bcd60e51b81526004018080602001828103825260268152602001806153026026913960400191505060405180910390fd5b6001600160a01b0384166000908152600560209081526040808320868452909152812080546001600160a01b03191681559061122f600183018261507f565b50600060028201819055600382018190556004820181905560058201805461ffff191690556006909101819055600b546040830151602084015180516112a2946001600160a01b03909416939061128257fe5b60200260200101516001600160a01b0316613f2e9092919063ffffffff16565b600854602082015180516000926001600160a01b0316919060001981019081106112c857fe5b60200260200101516001600160a01b03161480156112e757508160c001515b15611314576112ff8260200151836060015130613f85565b905061130f8183600001516140b4565b61132e565b61132b826020015183606001518460000151613f85565b90505b61133c8260e00151846140b4565b846001600160a01b03167f7e1fe496989eea92b738a562dbf9c0ae6aa6fcf3f1ef09e95ee4f7603721706b858460200151856040015186606001518688608001518960a001518a60c001518b60e00151604051808a8152602001806020018981526020018881526020018781526020018681526020018515158152602001841515815260200183815260200182810382528a818151815260200191508051906020019060200280838360005b838110156114005781810151838201526020016113e8565b505050509050019a505050505050505050505060405180910390a250506001600055505050565b6007546001600160a01b0316331461147d576040805162461bcd60e51b815260206004820152601460248201527327b93232b92137b7b59d103337b93134b23232b760611b604482015290519081900360640190fd5b600d8190556040805182815290517fe46d9daf6d25f7615efa1d0183b90ac6759d85014b598e409aadf0fd918d59a69181900360200190a150565b600260005414156114fe576040805162461bcd60e51b815260206004820152601f60248201526000805160206151ae833981519152604482015290519081900360640190fd5b600260005561150b614fe1565b506001600160a01b03808416600090815260036020818152604080842087855282529283902083516101208101855281548616808252600183015487169382019390935260028201549481019490945291820154909316606083015260048101546080830152600581015460ff908116151560a0840152600682015460c0840152600782015416151560e083015260080154610100820152906115e3576040805162461bcd60e51b815260206004820152601d602482015260008051602061518e833981519152604482015290519081900360640190fd5b60006116048260e001518360c0015184606001518560a00151156001611f9f565b506001600160a01b0380871660009081526003602081815260408084208a8552825280842080546001600160a01b0319908116825560018201805482169055600282018690559381018054909416909355600480840185905560058401805460ff199081169091556006850186905560078501805490911690556008909301849055600a5488518984015160608b01518b85015160808d015160a08e01518751632662166b60e01b8152958c1699860199909952928a16602485015290891660448401526064830152608482015293151560a48501523060c4850152905195965092949290931692632662166b9260e48084019382900301818787803b15801561170d57600080fd5b505af1158015611721573d6000803e3d6000fd5b505050506040513d602081101561173757600080fd5b505160085460208501519192506001600160a01b039182169116141561176a576117658184600001516140b4565b611787565b82516020840151611787916001600160a01b039091169083613f2e565b611796836101000151856140b4565b82600001516001600160a01b03167f9a382661d6573da86db000471303be6f0b2b1bb66089b08e3c16a85d7b6e94f88685602001518660400151876060015188608001518960a001518a60c001518b60e001518c61010001518c604051808b81526020018a6001600160a01b03168152602001898152602001886001600160a01b03168152602001878152602001861515815260200185815260200184151581526020018381526020018281526020019a505050505050505050505060405180910390a25050600160005550505050565b6007546001600160a01b031681565b600260005414156118bc576040805162461bcd60e51b815260206004820152601f60248201526000805160206151ae833981519152604482015290519081900360640190fd5b60026000819055885114806118d2575087516003145b611911576040805162461bcd60e51b815260206004820152601f6024820152600080516020615328833981519152604482015290519081900360640190fd5b8760018951038151811061192157fe5b60200260200101516001600160a01b03168860008151811061193f57fe5b60200260200101516001600160a01b0316141561199e576040805162461bcd60e51b815260206004820152601860248201527709ee4c8cae484deded67440d2dcecc2d8d2c840bee0c2e8d60431b604482015290519081900360640190fd5b600087116119f2576040805162461bcd60e51b815260206004820152601c60248201527b27b93232b92137b7b59d1034b73b30b634b2102fb0b6b7bab73a24b760211b604482015290519081900360640190fd5b600c54831015611a335760405162461bcd60e51b81526004018080602001828103825260258152602001806152966025913960400191505060405180910390fd5b611a3b614131565b8115611af65760085488516001600160a01b03909116908990600090611a5d57fe5b60200260200101516001600160a01b031614611aaa5760405162461bcd60e51b81526004018080602001828103825260258152602001806152716025913960400191505060405180910390fd5b611ab483886141a3565b3414611af15760405162461bcd60e51b81526004018080602001828103825260268152602001806152dc6026913960400191505060405180910390fd5b611be0565b823414611b345760405162461bcd60e51b815260040180806020018281038252602e815260200180615372602e913960400191505060405180910390fd5b600a5488516001600160a01b0390911690631b827878908a90600090611b5657fe5b602002602001015133308b6040518563ffffffff1660e01b815260040180856001600160a01b03168152602001846001600160a01b03168152602001836001600160a01b03168152602001828152602001945050505050600060405180830381600087803b158015611bc757600080fd5b505af1158015611bdb573d6000803e3d6000fd5b505050505b611bf0338989898989878a6141fb565b50506001600055505050505050565b6001602081815260009384526040808520909152918352912080549181015460028201546003830154600484015460058501546006860154600787015460088801546009909801546001600160a01b03998a1699978816989697958616969490951694929360ff92831693919216908a565b600e5460ff1681565b6008546001600160a01b031681565b60026000541415611ccf576040805162461bcd60e51b815260206004820152601f60248201526000805160206151ae833981519152604482015290519081900360640190fd5b6002600055611cdc6150a0565b5033600090815260016020818152604080842085855282529283902083516101408101855281546001600160a01b039081168083529483015481169382019390935260028201549481019490945260038101548216606085015260048101549091166080840152600581015460a0840152600681015460ff908116151560c0850152600782015460e0850152600882015416151561010084015260090154610120830152611dbf576040805162461bcd60e51b815260206004820152601d602482015260008051602061518e833981519152604482015290519081900360640190fd5b3360009081526001602081815260408084208685528252832080546001600160a01b0319908116825592810180548416905560028101849055600381018054841690556004810180549093169092556005820183905560068201805460ff19908116909155600783018490556008808401805490921690915560099092019290925554908201516001600160a01b0390811691161415611e8357611e7e611e7882604001518361012001516141a390919063ffffffff16565b336140b4565b611eb8565b611ea933826040015183602001516001600160a01b0316613f2e9092919063ffffffff16565b611eb8816101200151336140b4565b80600001516001600160a01b03167fd500f34e0ec655b7614ae42e1d9c666d5e4dde909a1297829f8c5ecf00805d328383602001518460400151856060015186608001518760a001518860c001518960e001518a61010001518b6101200151604051808b81526020018a6001600160a01b03168152602001898152602001886001600160a01b03168152602001876001600160a01b03168152602001868152602001851515815260200184815260200183151581526020018281526020019a505050505050505050505060405180910390a250506001600055565b670de0b6b3a764000081565b60008060008461202757600b54604080516340d3096b60e11b81526001600160a01b038981166004830152915191909216916381a612d6916024808301926020929190829003018186803b158015611ff657600080fd5b505afa15801561200a573d6000803e3d6000fd5b505050506040513d602081101561202057600080fd5b50516120a1565b600b5460408051637092736960e11b81526001600160a01b0389811660048301529151919092169163e124e6d2916024808301926020929190829003018186803b15801561207457600080fd5b505afa158015612088573d6000803e3d6000fd5b505050506040513d602081101561209e57600080fd5b50515b90506000886120b2578782106120b6565b8782115b905084156120fa57806120fa5760405162461bcd60e51b81526004018080602001828103825260268152602001806153026026913960400191505060405180910390fd5b909890975095505050505050565b600c5481565b600560208181526000938452604080852090915291835291208054600282015460038301546004840154948401546006909401546001600160a01b03909316949193909260ff808316926101009004169087565b60005b83518110156121925761218a84828151811061217d57fe5b6020026020010151613b42565b600101612165565b5060005b82518110156121c3576121bb8382815181106121ae57fe5b6020026020010151611c89565b600101612196565b5060005b81518110156121f4576121ec8282815181106121df57fe5b6020026020010151612512565b6001016121c7565b50505050565b600d5481565b68327cb2734119d3b7a9601e1b81565b60026000541415612256576040805162461bcd60e51b815260206004820152601f60248201526000805160206151ae833981519152604482015290519081900360640190fd5b60026000908155338152600160209081526040808320878452909152902080546001600160a01b03166122be576040805162461bcd60e51b815260206004820152601d602482015260008051602061518e833981519152604482015290519081900360640190fd5b6007810183905560088101805483151560ff19909116811790915560058201859055600382015460048301546006840154604080518a81526001600160a01b039485166020820152929093168284015260ff16151560608201526080810187905260a0810186905260c08101929092525133917f0a0360dd5c354235bbf8d386ba3b24ef8134088e0785677de1504df219d9149a919081900360e00190a250506001600055505050565b600b5460408051632c668ec160e01b81526001600160a01b038481166004830152670de0b6b3a76400006024830152915160009384931691632c668ec1916044808301926020929190829003018186803b1580156123c557600080fd5b505afa1580156123d9573d6000803e3d6000fd5b505050506040513d60208110156123ef57600080fd5b5051600b54604080516340d3096b60e11b81526001600160a01b038781166004830152915193945060009391909216916381a612d6916024808301926020929190829003018186803b15801561244457600080fd5b505afa158015612458573d6000803e3d6000fd5b505050506040513d602081101561246e57600080fd5b5051600b54604080516323b95ceb60e21b81526001600160a01b03888116600483015291519394506000939190921691638ee573ac916024808301926020929190829003018186803b1580156124c357600080fd5b505afa1580156124d7573d6000803e3d6000fd5b505050506040513d60208110156124ed57600080fd5b50519050612509600a82900a612503858561440a565b90614463565b95945050505050565b60026000541415612558576040805162461bcd60e51b815260206004820152601f60248201526000805160206151ae833981519152604482015290519081900360640190fd5b6002600055612565614fe1565b5033600090815260036020818152604080842085855282529283902083516101208101855281546001600160a01b03908116808352600184015482169483019490945260028301549582019590955292810154909316606083015260048301546080830152600583015460ff908116151560a0840152600684015460c0840152600784015416151560e08301526008909201546101008201529061263e576040805162461bcd60e51b815260206004820152601d602482015260008051602061518e833981519152604482015290519081900360640190fd5b336000818152600360208181526040808420878552909152822080546001600160a01b03199081168255600182018054821690556002820184905591810180549092169091556004810182905560058101805460ff19908116909155600682018390556007820180549091169055600801556101008201516126bf916140b4565b80600001516001600160a01b03167f1154174c82984656b028c8021671988f60a346497e56fe02554761184f82a0758383602001518460400151856060015186608001518760a001518860c001518960e001518a6101000151604051808a8152602001896001600160a01b03168152602001888152602001876001600160a01b0316815260200186815260200185151581526020018481526020018315158152602001828152602001995050505050505050505060405180910390a250506001600055565b600260005414156127ca576040805162461bcd60e51b815260206004820152601f60248201526000805160206151ae833981519152604482015290519081900360640190fd5b60026000908155338152600360209081526040808320888452909152902080546001600160a01b0316612832576040805162461bcd60e51b815260206004820152601d602482015260008051602061518e833981519152604482015290519081900360640190fd5b6006810183905560078101805483151560ff1990911681179091556004820185905560028201869055600182015460038301546005840154604080518b81526001600160a01b0394851660208201528082018b90529290931660608301526080820188905260ff16151560a082015260c0810186905260e08101929092525133917f75781255bc71c83f89f29e5a2599f2c174a562d2cd8f2e818a47f132e728049891908190036101000190a25050600160005550505050565b60026020526000908152604090205481565b60026000541415612944576040805162461bcd60e51b815260206004820152601f60248201526000805160206151ae833981519152604482015290519081900360640190fd5b6002600055612951614131565b600c548210156129925760405162461bcd60e51b81526004018080602001828103825260258152602001806152966025913960400191505060405180910390fd5b8015612a4d576008548b516001600160a01b03909116908c906000906129b457fe5b60200260200101516001600160a01b031614612a015760405162461bcd60e51b81526004018080602001828103825260258152602001806152716025913960400191505060405180910390fd5b612a0b828b6141a3565b3414612a485760405162461bcd60e51b81526004018080602001828103825260268152602001806152dc6026913960400191505060405180910390fd5b612b37565b813414612a8b5760405162461bcd60e51b815260040180806020018281038252602e815260200180615372602e913960400191505060405180910390fd5b600a548b516001600160a01b0390911690631b827878908d90600090612aad57fe5b602002602001015133308e6040518563ffffffff1660e01b815260040180856001600160a01b03168152602001846001600160a01b03168152602001836001600160a01b03168152602001828152602001945050505050600060405180830381600087803b158015612b1e57600080fd5b505af1158015612b32573d6000803e3d6000fd5b505050505b60008b60018d510381518110612b4957fe5b60200260200101519050600060018d511115612c0e57816001600160a01b03168d600081518110612b7657fe5b60200260200101516001600160a01b03161415612bd5576040805162461bcd60e51b815260206004820152601860248201527709ee4c8cae484deded67440d2dcecc2d8d2c840bee0c2e8d60431b604482015290519081900360640190fd5b612bfc600b60009054906101000a90046001600160a01b03168d8f60008151811061128257fe5b612c078d8b30613f85565b9050612c11565b508a5b600b5460408051630a48d5a960e01b81526001600160a01b0385811660048301526024820185905291516000939290921691630a48d5a991604480820192602092909190829003018186803b158015612c6957600080fd5b505afa158015612c7d573d6000803e3d6000fd5b505050506040513d6020811015612c9357600080fd5b5051600d54909150811015612cd95760405162461bcd60e51b81526004018080602001828103825260228152602001806151ce6022913960400191505060405180910390fd5b50612cec3383838b8f8e8d8d8d8d6144a2565b505060016000555050505050505050505050565b60026000541415612d46576040805162461bcd60e51b815260206004820152601f60248201526000805160206151ae833981519152604482015290519081900360640190fd5b6002600055612d53614131565b600c54341015612d945760405162461bcd60e51b81526004018080602001828103825260258152602001806152966025913960400191505060405180910390fd5b612da43386868a8a888888614775565b505060016000555050505050565b6000825160021480612dc5575082516003145b612e04576040805162461bcd60e51b815260206004820152601f6024820152600080516020615328833981519152604482015290519081900360640190fd5b600083600081518110612e1357fe5b60200260200101519050600084600186510381518110612e2f57fe5b602090810291909101015160095490915060009081906001600160a01b0385811691161415612e7c57612e7587600181518110612e6857fe5b6020026020010151612368565b9150612ef8565b600b54604080516340d3096b60e11b81526001600160a01b038781166004830152915191909216916381a612d6916024808301926020929190829003018186803b158015612ec957600080fd5b505afa158015612edd573d6000803e3d6000fd5b505050506040513d6020811015612ef357600080fd5b505191505b6009546001600160a01b0384811691161415612f21575068327cb2734119d3b7a9601e1b612f9d565b600b5460408051637092736960e11b81526001600160a01b0386811660048301529151919092169163e124e6d2916024808301926020929190829003018186803b158015612f6e57600080fd5b505afa158015612f82573d6000803e3d6000fd5b505050506040513d6020811015612f9857600080fd5b505190505b6000612fb9836125038468327cb2734119d3b7a9601e1b61440a565b8710955050505050505b92915050565b6002600054141561300f576040805162461bcd60e51b815260206004820152601f60248201526000805160206151ae833981519152604482015290519081900360640190fd5b60026000908155338152600560209081526040808320878452909152902080546001600160a01b0316613077576040805162461bcd60e51b815260206004820152601d602482015260008051602061518e833981519152604482015290519081900360640190fd5b838160030181905550828160040181905550818160050160006101000a81548160ff021916908315150217905550336001600160a01b03167fa7f9f4a25eb76f5ec01b1a429d95d6a00833f0f137c88827c58799a1c1ff0dfe868360010184600201548888888860050160019054906101000a900460ff168960060154604051808981526020018060200188815260200187815260200186815260200185151581526020018415158152602001838152602001828103825289818154815260200191508054801561317157602002820191906000526020600020905b81546001600160a01b03168152600190910190602001808311613153575b5050995050505050505050505060405180910390a250506001600055505050565b6007546001600160a01b031633146131e8576040805162461bcd60e51b815260206004820152601460248201527327b93232b92137b7b59d103337b93134b23232b760611b604482015290519081900360640190fd5b600780546001600160a01b0383166001600160a01b0319909116811790915560408051918252517fe24c39186e9137521953beaa8446e71f55b8f12296984f9d4273ceb1af728d909181900360200190a150565b600080600080600080600080600061325261502d565b6001600160a01b03808d1660009081526005602090815260408083208f8452825291829020825161010081018452815490941684526001810180548451818502810185019095528085529193858401939092908301828280156132de57602002820191906000526020600020905b81546001600160a01b031681526001909101906020018083116132c0575b505050918352505060028201546020808301919091526003830154604083015260048301546060830152600583015460ff8082161515608085015261010090910416151560a083015260069092015460c0909101528101515190915061334557600061335f565b806020015160008151811061335657fe5b60200260200101515b60018260200151511161337357600061338d565b816020015160018151811061338457fe5b60200260200101515b6002836020015151116133a15760006133bb565b82602001516002815181106133b257fe5b60200260200101515b8360400151846060015185608001518660a001518760c001518860e00151995099509950995099509950995099509950509295985092959850929598565b6002600054141561343f576040805162461bcd60e51b815260206004820152601f60248201526000805160206151ae833981519152604482015290519081900360640190fd5b600260005561344c6150a0565b506001600160a01b038084166000908152600160208181526040808420878552825292839020835161014081018552815486168082529382015486169281019290925260028101549382019390935260038301548416606082015260048301549093166080840152600582015460a0840152600682015460ff908116151560c0850152600783015460e08501526008830154161515610100840152600990910154610120830152613532576040805162461bcd60e51b815260206004820152601d602482015260008051602061518e833981519152604482015290519081900360640190fd5b60006135538261010001518360e0015184608001518560c001516001611f9f565b506001600160a01b0380871660009081526001602081815260408084208a8552825280842080546001600160a01b0319908116825593810180548516905560028101859055600381018054851690556004810180549094169093556005830184905560068301805460ff19908116909155600784018590556008840180549091169055600990920192909255600b5490860151918601519394506135fb938316921690613f2e565b81606001516001600160a01b031682602001516001600160a01b0316146136d357604080516002808252606080830184529260208301908036833701905050905082602001518160008151811061364e57fe5b60200260200101906001600160a01b031690816001600160a01b03168152505082606001518160018151811061368057fe5b60200260200101906001600160a01b031690816001600160a01b03168152505060006136ae82600030613f85565b600b5460608601519192506136d0916001600160a01b03908116911683613f2e565b50505b600a5482516060840151608085015160a086015160c087015160408051630f8ee8bb60e11b81526001600160a01b03968716600482015294861660248601529285166044850152606484019190915215156084830152519190921691631f1dd1769160a480830192600092919082900301818387803b15801561375557600080fd5b505af1158015613769573d6000803e3d6000fd5b5050505061377c826101200151846140b4565b81600001516001600160a01b03167f7fb1c74d1ea6aa1c9c585e17ce8274c8ff98745e85e7459b73f87d784494f58e8584602001518560400151866060015187608001518860a001518960c001518a60e001518b61010001518c61012001518c604051808c81526020018b6001600160a01b031681526020018a8152602001896001600160a01b03168152602001886001600160a01b03168152602001878152602001861515815260200185815260200184151581526020018381526020018281526020019b50505050505050505050505060405180910390a250506001600055505050565b60008060008060008060008060006138786150a0565b505050506001600160a01b0397881660009081526001602081815260408084209a845299815291899020895161014081018b5281548c168152918101548b1692820183905260028101549982018a905260038101548b16606083018190526004820154909b1660808301819052600582015460a08401819052600683015460ff908116151560c08601819052600785015460e08701819052600886015490921615156101008701819052600990950154610120909601869052959e9c9d9c929b5090995093975092955093509150565b60046020526000908152604090205481565b6007546001600160a01b031633146139b0576040805162461bcd60e51b815260206004820152601460248201527327b93232b92137b7b59d103337b93134b23232b760611b604482015290519081900360640190fd5b600e5460ff1615613a08576040805162461bcd60e51b815260206004820152601e60248201527f4f72646572426f6f6b3a20616c726561647920696e697469616c697a65640000604482015290519081900360640190fd5b600e805460ff19166001179055600a80546001600160a01b038089166001600160a01b03199283168117909355600b8054898316908416811790915560088054898416908516811790915560098054938916939094168317909355600c869055600d8590556040805194855260208501919091528381019290925260608301526080820184905260a08201839052517fcfb7ef8749fafc8da2af1ba3d025479ffc4e58f7dc420113e112512a3bda59639181900360c00190a1505050505050565b600360208181526000938452604080852090915291835291208054600182015460028301549383015460048401546005850154600686015460078701546008909701546001600160a01b039687169895871697959690941694929360ff9283169391929091169089565b6009546001600160a01b031681565b60026000541415613b88576040805162461bcd60e51b815260206004820152601f60248201526000805160206151ae833981519152604482015290519081900360640190fd5b6002600055613b9561502d565b33600090815260056020908152604080832085845282529182902082516101008101845281546001600160a01b0316815260018201805485518186028101860190965280865291949293858101939290830182828015613c1e57602002820191906000526020600020905b81546001600160a01b03168152600190910190602001808311613c00575b5050509183525050600282015460208201526003820154604082015260048201546060820152600582015460ff8082161515608084015261010090910416151560a082015260069091015460c09091015280519091506001600160a01b0316613cbc576040805162461bcd60e51b815260206004820152601d602482015260008051602061518e833981519152604482015290519081900360640190fd5b336000908152600560209081526040808320858452909152812080546001600160a01b031916815590613cf2600183018261507f565b50600060028201819055600382018190556004820181905560058201805461ffff191690556006909101819055600854602083015180516001600160a01b03909216929091613d3d57fe5b60200260200101516001600160a01b03161415613d7757613d72611e7882604001518360e001516141a390919063ffffffff16565b613d9f565b613d91338260400151836020015160008151811061128257fe5b613d9f8160e00151336140b4565b336001600160a01b03167fefd66d4f9c2f880c70aedeb5b26a44fb474cea07e5d6c533f2d27c303d5d94538383602001518460400151856060015186608001518760a001518860c001518960e00151604051808981526020018060200188815260200187815260200186815260200185151581526020018415158152602001838152602001828103825289818151815260200191508051906020019060200280838360005b83811015613e5c578181015183820152602001613e44565b50505050905001995050505050505050505060405180910390a250506001600055565b600a546001600160a01b031681565b600b546001600160a01b031681565b6007546001600160a01b03163314613ef3576040805162461bcd60e51b815260206004820152601460248201527327b93232b92137b7b59d103337b93134b23232b760611b604482015290519081900360640190fd5b600c8190556040805182815290517fbde5eafdc37b81830d70124cddccaaa6d034e71dda3c8fc18a959ca76a7cbcfc9181900360200190a150565b604080516001600160a01b038416602482015260448082018490528251808303909101815260649091019091526020810180516001600160e01b031663a9059cbb60e01b179052613f809084906149eb565b505050565b6000835160021415613fcc57613fc584600081518110613fa157fe5b602002602001015185600181518110613fb657fe5b60200260200101518585614a9c565b90506140ad565b83516003141561407257600061400d85600081518110613fe857fe5b602002602001015186600181518110613ffd57fe5b6020026020010151600030614a9c565b9050614036600b60009054906101000a90046001600160a01b0316828760018151811061128257fe5b61406a8560018151811061404657fe5b60200260200101518660028151811061405b57fe5b60200260200101518686614a9c565b9150506140ad565b6040805162461bcd60e51b815260206004820152601f6024820152600080516020615328833981519152604482015290519081900360640190fd5b9392505050565b60085460408051632e1a7d4d60e01b81526004810185905290516001600160a01b0390921691632e1a7d4d9160248082019260009290919082900301818387803b15801561410157600080fd5b505af1158015614115573d6000803e3d6000fd5b5061412d925050506001600160a01b03821683614c7b565b5050565b34156141a157600860009054906101000a90046001600160a01b03166001600160a01b031663d0e30db0346040518263ffffffff1660e01b81526004016000604051808303818588803b15801561418757600080fd5b505af115801561419b573d6000803e3d6000fd5b50505050505b565b6000828201838110156140ad576040805162461bcd60e51b815260206004820152601b60248201527a536166654d6174683a206164646974696f6e206f766572666c6f7760281b604482015290519081900360640190fd5b6001600160a01b03881660009081526006602052604090205461421c61502d565b6040518061010001604052808b6001600160a01b031681526020018a8152602001898152602001888152602001878152602001861515815260200185151581526020018481525090506142796001836141a390919063ffffffff16565b6001600160a01b038b8116600090815260066020908152604080832094909455600581528382208683528152929020835181546001600160a01b031916921691909117815582820151805184936142d79260018501929101906150f4565b5060408201518160020155606082015181600301556080820151816004015560a08201518160050160006101000a81548160ff02191690831515021790555060c08201518160050160016101000a81548160ff02191690831515021790555060e08201518160060155905050896001600160a01b03167fdf06bb56ffc4029dc0b62b68bb5bbadea93a38b530cefc9b81afb742a6555d88838b8b8b8b8b8b8b604051808981526020018060200188815260200187815260200186815260200185151581526020018415158152602001838152602001828103825289818151815260200191508051906020019060200280838360005b838110156143e45781810151838201526020016143cc565b50505050905001995050505050505050505060405180910390a250505050505050505050565b60008261441957506000612fc3565b8282028284828161442657fe5b04146140ad5760405162461bcd60e51b81526004018080602001828103825260218152602001806152bb6021913960400191505060405180910390fd5b60006140ad83836040518060400160405280601a815260200179536166654d6174683a206469766973696f6e206279207a65726f60301b815250614d60565b336000908152600260205260409020546144ba6150a0565b6040518061014001604052808d6001600160a01b031681526020018c6001600160a01b031681526020018b81526020018a6001600160a01b03168152602001896001600160a01b031681526020018881526020018715158152602001868152602001851515815260200184815250905061453e6001836141a390919063ffffffff16565b600260008e6001600160a01b03166001600160a01b031681526020019081526020016000208190555080600160008e6001600160a01b03166001600160a01b03168152602001908152602001600020600084815260200190815260200160002060008201518160000160006101000a8154816001600160a01b0302191690836001600160a01b0316021790555060208201518160010160006101000a8154816001600160a01b0302191690836001600160a01b031602179055506040820151816002015560608201518160030160006101000a8154816001600160a01b0302191690836001600160a01b0316021790555060808201518160040160006101000a8154816001600160a01b0302191690836001600160a01b0316021790555060a0820151816005015560c08201518160060160006101000a81548160ff02191690831515021790555060e082015181600701556101008201518160080160006101000a81548160ff02191690831515021790555061012082015181600901559050508b6001600160a01b03167fb27b9afe3043b93788c40cfc3cc73f5d928a2e40f3ba01820b246426de8fa1b9838d8d8d8d8d8d8d8d8d604051808b81526020018a6001600160a01b03168152602001898152602001886001600160a01b03168152602001876001600160a01b03168152602001868152602001851515815260200184815260200183151581526020018281526020019a505050505050505050505060405180910390a2505050505050505050505050565b6001600160a01b038816600090815260046020526040902054614796614fe1565b5060408051610120810182526001600160a01b03808c1682528a8116602083015291810189905290871660608201526080810186905284151560a082015260c0810184905282151560e0820152346101008201526147f58260016141a3565b600460008c6001600160a01b03166001600160a01b031681526020019081526020016000208190555080600360008c6001600160a01b03166001600160a01b03168152602001908152602001600020600084815260200190815260200160002060008201518160000160006101000a8154816001600160a01b0302191690836001600160a01b0316021790555060208201518160010160006101000a8154816001600160a01b0302191690836001600160a01b031602179055506040820151816002015560608201518160030160006101000a8154816001600160a01b0302191690836001600160a01b031602179055506080820151816004015560a08201518160050160006101000a81548160ff02191690831515021790555060c0820151816006015560e08201518160070160006101000a81548160ff0219169083151502179055506101008201518160080155905050896001600160a01b03167f48ee333d2a65cc45fdb83bc012920d89181c3377390cd239d2b63f2bef67a02d838b8b8b8b8b8b8b34604051808a8152602001896001600160a01b03168152602001888152602001876001600160a01b0316815260200186815260200185151581526020018481526020018315158152602001828152602001995050505050505050505060405180910390a250505050505050505050565b6060614a40826040518060400160405280602081526020017f5361666545524332303a206c6f772d6c6576656c2063616c6c206661696c6564815250856001600160a01b0316614e029092919063ffffffff16565b805190915015613f8057808060200190516020811015614a5f57600080fd5b5051613f805760405162461bcd60e51b815260040180806020018281038252602a815260200180615348602a913960400191505060405180910390fd5b60095460009081906001600160a01b0386811691161415614b4157600b546040805163817bb85760e01b81526001600160a01b03898116600483015286811660248301529151919092169163817bb8579160448083019260209291908290030181600087803b158015614b0e57600080fd5b505af1158015614b22573d6000803e3d6000fd5b505050506040513d6020811015614b3857600080fd5b50519050614c3c565b6009546001600160a01b0387811691161415614bae57600b5460408051630711e61960e41b81526001600160a01b03888116600483015286811660248301529151919092169163711e61909160448083019260209291908290030181600087803b158015614b0e57600080fd5b600b5460408051634998b10960e11b81526001600160a01b038981166004830152888116602483015286811660448301529151919092169163933162129160648083019260209291908290030181600087803b158015614c0d57600080fd5b505af1158015614c21573d6000803e3d6000fd5b505050506040513d6020811015614c3757600080fd5b505190505b838110156125095760405162461bcd60e51b81526004018080602001828103825260218152602001806152506021913960400191505060405180910390fd5b80471015614cd0576040805162461bcd60e51b815260206004820152601d60248201527f416464726573733a20696e73756666696369656e742062616c616e6365000000604482015290519081900360640190fd5b6040516000906001600160a01b0384169083908381818185875af1925050503d8060008114614d1b576040519150601f19603f3d011682016040523d82523d6000602084013e614d20565b606091505b5050905080613f805760405162461bcd60e51b815260040180806020018281038252603a8152602001806151f0603a913960400191505060405180910390fd5b60008183614dec5760405162461bcd60e51b81526004018080602001828103825283818151815260200191508051906020019080838360005b83811015614db1578181015183820152602001614d99565b50505050905090810190601f168015614dde5780820380516001836020036101000a031916815260200191505b509250505060405180910390fd5b506000838581614df857fe5b0495945050505050565b6060614e118484600085614e19565b949350505050565b606082471015614e5a5760405162461bcd60e51b815260040180806020018281038252602681526020018061522a6026913960400191505060405180910390fd5b614e6385614f75565b614eb4576040805162461bcd60e51b815260206004820152601d60248201527f416464726573733a2063616c6c20746f206e6f6e2d636f6e7472616374000000604482015290519081900360640190fd5b60006060866001600160a01b031685876040518082805190602001908083835b60208310614ef35780518252601f199092019160209182019101614ed4565b6001836020036101000a03801982511681845116808217855250505050505090500191505060006040518083038185875af1925050503d8060008114614f55576040519150601f19603f3d011682016040523d82523d6000602084013e614f5a565b606091505b5091509150614f6a828286614f7b565b979650505050505050565b3b151590565b60608315614f8a5750816140ad565b825115614f9a5782518084602001fd5b60405162461bcd60e51b8152602060048201818152845160248401528451859391928392604401919085019080838360008315614db1578181015183820152602001614d99565b6040805161012081018252600080825260208201819052918101829052606081018290526080810182905260a0810182905260c0810182905260e0810182905261010081019190915290565b60405180610100016040528060006001600160a01b0316815260200160608152602001600081526020016000815260200160008152602001600015158152602001600015158152602001600081525090565b508054600082559060005260206000209081019061509d9190615159565b50565b6040805161014081018252600080825260208201819052918101829052606081018290526080810182905260a0810182905260c0810182905260e08101829052610100810182905261012081019190915290565b828054828255906000526020600020908101928215615149579160200282015b8281111561514957825182546001600160a01b0319166001600160a01b03909116178255602090920191600190910190615114565b5061515592915061516e565b5090565b5b80821115615155576000815560010161515a565b5b808211156151555780546001600160a01b031916815560010161516f56fe4f72646572426f6f6b3a206e6f6e2d6578697374656e74206f726465720000005265656e7472616e637947756172643a207265656e7472616e742063616c6c004f72646572426f6f6b3a20696e73756666696369656e7420636f6c6c61746572616c416464726573733a20756e61626c6520746f2073656e642076616c75652c20726563697069656e74206d61792068617665207265766572746564416464726573733a20696e73756666696369656e742062616c616e636520666f722063616c6c4f72646572426f6f6b3a20696e73756666696369656e7420616d6f756e744f75744f72646572426f6f6b3a206f6e6c79207765746820636f756c6420626520777261707065644f72646572426f6f6b3a20696e73756666696369656e7420657865637574696f6e20666565536166654d6174683a206d756c7469706c69636174696f6e206f766572666c6f774f72646572426f6f6b3a20696e636f72726563742076616c7565207472616e736665727265644f72646572426f6f6b3a20696e76616c696420707269636520666f7220657865637574696f6e4f72646572426f6f6b3a20696e76616c6964205f706174682e6c656e677468005361666545524332303a204552433230206f7065726174696f6e20646964206e6f7420737563636565644f72646572426f6f6b3a20696e636f727265637420657865637574696f6e20666565207472616e73666572726564a164736f6c634300060c000a",
  "devdoc": {
    "kind": "dev",
    "methods": {},
    "version": 1
  },
  "userdoc": {
    "kind": "user",
    "methods": {},
    "version": 1
  },
  "storageLayout": {
    "storage": [
      {
        "astId": 23515,
        "contract": "contracts/core/OrderBook.sol:OrderBook",
        "label": "_status",
        "offset": 0,
        "slot": "0",
        "type": "t_uint256"
      },
      {
        "astId": 2692,
        "contract": "contracts/core/OrderBook.sol:OrderBook",
        "label": "increaseOrders",
        "offset": 0,
        "slot": "1",
        "type": "t_mapping(t_address,t_mapping(t_uint256,t_struct(IncreaseOrder)2649_storage))"
      },
      {
        "astId": 2696,
        "contract": "contracts/core/OrderBook.sol:OrderBook",
        "label": "increaseOrdersIndex",
        "offset": 0,
        "slot": "2",
        "type": "t_mapping(t_address,t_uint256)"
      },
      {
        "astId": 2702,
        "contract": "contracts/core/OrderBook.sol:OrderBook",
        "label": "decreaseOrders",
        "offset": 0,
        "slot": "3",
        "type": "t_mapping(t_address,t_mapping(t_uint256,t_struct(DecreaseOrder)2668_storage))"
      },
      {
        "astId": 2706,
        "contract": "contracts/core/OrderBook.sol:OrderBook",
        "label": "decreaseOrdersIndex",
        "offset": 0,
        "slot": "4",
        "type": "t_mapping(t_address,t_uint256)"
      },
      {
        "astId": 2712,
        "contract": "contracts/core/OrderBook.sol:OrderBook",
        "label": "swapOrders",
        "offset": 0,
        "slot": "5",
        "type": "t_mapping(t_address,t_mapping(t_uint256,t_struct(SwapOrder)2686_storage))"
      },
      {
        "astId": 2716,
        "contract": "contracts/core/OrderBook.sol:OrderBook",
        "label": "swapOrdersIndex",
        "offset": 0,
        "slot": "6",
        "type": "t_mapping(t_address,t_uint256)"
      },
      {
        "astId": 2718,
        "contract": "contracts/core/OrderBook.sol:OrderBook",
        "label": "gov",
        "offset": 0,
        "slot": "7",
        "type": "t_address"
      },
      {
        "astId": 2720,
        "contract": "contracts/core/OrderBook.sol:OrderBook",
        "label": "weth",
        "offset": 0,
        "slot": "8",
        "type": "t_address"
      },
      {
        "astId": 2722,
        "contract": "contracts/core/OrderBook.sol:OrderBook",
        "label": "usdg",
        "offset": 0,
        "slot": "9",
        "type": "t_address"
      },
      {
        "astId": 2724,
        "contract": "contracts/core/OrderBook.sol:OrderBook",
        "label": "router",
        "offset": 0,
        "slot": "10",
        "type": "t_address"
      },
      {
        "astId": 2726,
        "contract": "contracts/core/OrderBook.sol:OrderBook",
        "label": "vault",
        "offset": 0,
        "slot": "11",
        "type": "t_address"
      },
      {
        "astId": 2728,
        "contract": "contracts/core/OrderBook.sol:OrderBook",
        "label": "minExecutionFee",
        "offset": 0,
        "slot": "12",
        "type": "t_uint256"
      },
      {
        "astId": 2730,
        "contract": "contracts/core/OrderBook.sol:OrderBook",
        "label": "minPurchaseTokenAmountUsd",
        "offset": 0,
        "slot": "13",
        "type": "t_uint256"
      },
      {
        "astId": 2733,
        "contract": "contracts/core/OrderBook.sol:OrderBook",
        "label": "isInitialized",
        "offset": 0,
        "slot": "14",
        "type": "t_bool"
      }
    ],
    "types": {
      "t_address": {
        "encoding": "inplace",
        "label": "address",
        "numberOfBytes": "20"
      },
      "t_array(t_address)dyn_storage": {
        "base": "t_address",
        "encoding": "dynamic_array",
        "label": "address[]",
        "numberOfBytes": "32"
      },
      "t_bool": {
        "encoding": "inplace",
        "label": "bool",
        "numberOfBytes": "1"
      },
      "t_mapping(t_address,t_mapping(t_uint256,t_struct(DecreaseOrder)2668_storage))": {
        "encoding": "mapping",
        "key": "t_address",
        "label": "mapping(address => mapping(uint256 => struct OrderBook.DecreaseOrder))",
        "numberOfBytes": "32",
        "value": "t_mapping(t_uint256,t_struct(DecreaseOrder)2668_storage)"
      },
      "t_mapping(t_address,t_mapping(t_uint256,t_struct(IncreaseOrder)2649_storage))": {
        "encoding": "mapping",
        "key": "t_address",
        "label": "mapping(address => mapping(uint256 => struct OrderBook.IncreaseOrder))",
        "numberOfBytes": "32",
        "value": "t_mapping(t_uint256,t_struct(IncreaseOrder)2649_storage)"
      },
      "t_mapping(t_address,t_mapping(t_uint256,t_struct(SwapOrder)2686_storage))": {
        "encoding": "mapping",
        "key": "t_address",
        "label": "mapping(address => mapping(uint256 => struct OrderBook.SwapOrder))",
        "numberOfBytes": "32",
        "value": "t_mapping(t_uint256,t_struct(SwapOrder)2686_storage)"
      },
      "t_mapping(t_address,t_uint256)": {
        "encoding": "mapping",
        "key": "t_address",
        "label": "mapping(address => uint256)",
        "numberOfBytes": "32",
        "value": "t_uint256"
      },
      "t_mapping(t_uint256,t_struct(DecreaseOrder)2668_storage)": {
        "encoding": "mapping",
        "key": "t_uint256",
        "label": "mapping(uint256 => struct OrderBook.DecreaseOrder)",
        "numberOfBytes": "32",
        "value": "t_struct(DecreaseOrder)2668_storage"
      },
      "t_mapping(t_uint256,t_struct(IncreaseOrder)2649_storage)": {
        "encoding": "mapping",
        "key": "t_uint256",
        "label": "mapping(uint256 => struct OrderBook.IncreaseOrder)",
        "numberOfBytes": "32",
        "value": "t_struct(IncreaseOrder)2649_storage"
      },
      "t_mapping(t_uint256,t_struct(SwapOrder)2686_storage)": {
        "encoding": "mapping",
        "key": "t_uint256",
        "label": "mapping(uint256 => struct OrderBook.SwapOrder)",
        "numberOfBytes": "32",
        "value": "t_struct(SwapOrder)2686_storage"
      },
      "t_struct(DecreaseOrder)2668_storage": {
        "encoding": "inplace",
        "label": "struct OrderBook.DecreaseOrder",
        "members": [
          {
            "astId": 2651,
            "contract": "contracts/core/OrderBook.sol:OrderBook",
            "label": "account",
            "offset": 0,
            "slot": "0",
            "type": "t_address"
          },
          {
            "astId": 2653,
            "contract": "contracts/core/OrderBook.sol:OrderBook",
            "label": "collateralToken",
            "offset": 0,
            "slot": "1",
            "type": "t_address"
          },
          {
            "astId": 2655,
            "contract": "contracts/core/OrderBook.sol:OrderBook",
            "label": "collateralDelta",
            "offset": 0,
            "slot": "2",
            "type": "t_uint256"
          },
          {
            "astId": 2657,
            "contract": "contracts/core/OrderBook.sol:OrderBook",
            "label": "indexToken",
            "offset": 0,
            "slot": "3",
            "type": "t_address"
          },
          {
            "astId": 2659,
            "contract": "contracts/core/OrderBook.sol:OrderBook",
            "label": "sizeDelta",
            "offset": 0,
            "slot": "4",
            "type": "t_uint256"
          },
          {
            "astId": 2661,
            "contract": "contracts/core/OrderBook.sol:OrderBook",
            "label": "isLong",
            "offset": 0,
            "slot": "5",
            "type": "t_bool"
          },
          {
            "astId": 2663,
            "contract": "contracts/core/OrderBook.sol:OrderBook",
            "label": "triggerPrice",
            "offset": 0,
            "slot": "6",
            "type": "t_uint256"
          },
          {
            "astId": 2665,
            "contract": "contracts/core/OrderBook.sol:OrderBook",
            "label": "triggerAboveThreshold",
            "offset": 0,
            "slot": "7",
            "type": "t_bool"
          },
          {
            "astId": 2667,
            "contract": "contracts/core/OrderBook.sol:OrderBook",
            "label": "executionFee",
            "offset": 0,
            "slot": "8",
            "type": "t_uint256"
          }
        ],
        "numberOfBytes": "288"
      },
      "t_struct(IncreaseOrder)2649_storage": {
        "encoding": "inplace",
        "label": "struct OrderBook.IncreaseOrder",
        "members": [
          {
            "astId": 2630,
            "contract": "contracts/core/OrderBook.sol:OrderBook",
            "label": "account",
            "offset": 0,
            "slot": "0",
            "type": "t_address"
          },
          {
            "astId": 2632,
            "contract": "contracts/core/OrderBook.sol:OrderBook",
            "label": "purchaseToken",
            "offset": 0,
            "slot": "1",
            "type": "t_address"
          },
          {
            "astId": 2634,
            "contract": "contracts/core/OrderBook.sol:OrderBook",
            "label": "purchaseTokenAmount",
            "offset": 0,
            "slot": "2",
            "type": "t_uint256"
          },
          {
            "astId": 2636,
            "contract": "contracts/core/OrderBook.sol:OrderBook",
            "label": "collateralToken",
            "offset": 0,
            "slot": "3",
            "type": "t_address"
          },
          {
            "astId": 2638,
            "contract": "contracts/core/OrderBook.sol:OrderBook",
            "label": "indexToken",
            "offset": 0,
            "slot": "4",
            "type": "t_address"
          },
          {
            "astId": 2640,
            "contract": "contracts/core/OrderBook.sol:OrderBook",
            "label": "sizeDelta",
            "offset": 0,
            "slot": "5",
            "type": "t_uint256"
          },
          {
            "astId": 2642,
            "contract": "contracts/core/OrderBook.sol:OrderBook",
            "label": "isLong",
            "offset": 0,
            "slot": "6",
            "type": "t_bool"
          },
          {
            "astId": 2644,
            "contract": "contracts/core/OrderBook.sol:OrderBook",
            "label": "triggerPrice",
            "offset": 0,
            "slot": "7",
            "type": "t_uint256"
          },
          {
            "astId": 2646,
            "contract": "contracts/core/OrderBook.sol:OrderBook",
            "label": "triggerAboveThreshold",
            "offset": 0,
            "slot": "8",
            "type": "t_bool"
          },
          {
            "astId": 2648,
            "contract": "contracts/core/OrderBook.sol:OrderBook",
            "label": "executionFee",
            "offset": 0,
            "slot": "9",
            "type": "t_uint256"
          }
        ],
        "numberOfBytes": "320"
      },
      "t_struct(SwapOrder)2686_storage": {
        "encoding": "inplace",
        "label": "struct OrderBook.SwapOrder",
        "members": [
          {
            "astId": 2670,
            "contract": "contracts/core/OrderBook.sol:OrderBook",
            "label": "account",
            "offset": 0,
            "slot": "0",
            "type": "t_address"
          },
          {
            "astId": 2673,
            "contract": "contracts/core/OrderBook.sol:OrderBook",
            "label": "path",
            "offset": 0,
            "slot": "1",
            "type": "t_array(t_address)dyn_storage"
          },
          {
            "astId": 2675,
            "contract": "contracts/core/OrderBook.sol:OrderBook",
            "label": "amountIn",
            "offset": 0,
            "slot": "2",
            "type": "t_uint256"
          },
          {
            "astId": 2677,
            "contract": "contracts/core/OrderBook.sol:OrderBook",
            "label": "minOut",
            "offset": 0,
            "slot": "3",
            "type": "t_uint256"
          },
          {
            "astId": 2679,
            "contract": "contracts/core/OrderBook.sol:OrderBook",
            "label": "triggerRatio",
            "offset": 0,
            "slot": "4",
            "type": "t_uint256"
          },
          {
            "astId": 2681,
            "contract": "contracts/core/OrderBook.sol:OrderBook",
            "label": "triggerAboveThreshold",
            "offset": 0,
            "slot": "5",
            "type": "t_bool"
          },
          {
            "astId": 2683,
            "contract": "contracts/core/OrderBook.sol:OrderBook",
            "label": "shouldUnwrap",
            "offset": 1,
            "slot": "5",
            "type": "t_bool"
          },
          {
            "astId": 2685,
            "contract": "contracts/core/OrderBook.sol:OrderBook",
            "label": "executionFee",
            "offset": 0,
            "slot": "6",
            "type": "t_uint256"
          }
        ],
        "numberOfBytes": "224"
      },
      "t_uint256": {
        "encoding": "inplace",
        "label": "uint256",
        "numberOfBytes": "32"
      }
    }
  }
}