{
  "address": "0x2Cb2A5e72c2ec00114373708F496f8A90D9C59d8",
  "abi": [
    {
      "inputs": [
        {
          "internalType": "address",
          "name": "_admin",
          "type": "address"
        },
        {
          "internalType": "uint256",
          "name": "_buffer",
          "type": "uint256"
        },
        {
          "internalType": "address",
          "name": "_tokenManager",
          "type": "address"
        }
      ],
      "stateMutability": "nonpayable",
      "type": "constructor"
    },
    {
      "anonymous": false,
      "inputs": [
        {
          "indexed": false,
          "internalType": "bytes32",
          "name": "action",
          "type": "bytes32"
        }
      ],
      "name": "ClearAction",
      "type": "event"
    },
    {
      "anonymous": false,
      "inputs": [
        {
          "indexed": false,
          "internalType": "address",
          "name": "token",
          "type": "address"
        },
        {
          "indexed": false,
          "internalType": "address",
          "name": "spender",
          "type": "address"
        },
        {
          "indexed": false,
          "internalType": "uint256",
          "name": "amount",
          "type": "uint256"
        },
        {
          "indexed": false,
          "internalType": "bytes32",
          "name": "action",
          "type": "bytes32"
        }
      ],
      "name": "SignalApprove",
      "type": "event"
    },
    {
      "anonymous": false,
      "inputs": [
        {
          "indexed": false,
          "internalType": "bytes32",
          "name": "action",
          "type": "bytes32"
        }
      ],
      "name": "SignalPendingAction",
      "type": "event"
    },
    {
      "anonymous": false,
      "inputs": [
        {
          "indexed": false,
          "internalType": "address",
          "name": "vaultPriceFeed",
          "type": "address"
        },
        {
          "indexed": false,
          "internalType": "address",
          "name": "token",
          "type": "address"
        },
        {
          "indexed": false,
          "internalType": "address",
          "name": "priceFeed",
          "type": "address"
        },
        {
          "indexed": false,
          "internalType": "uint256",
          "name": "priceDecimals",
          "type": "uint256"
        },
        {
          "indexed": false,
          "internalType": "bool",
          "name": "isStrictStable",
          "type": "bool"
        }
      ],
      "name": "SignalPriceFeedSetTokenConfig",
      "type": "event"
    },
    {
      "anonymous": false,
      "inputs": [
        {
          "indexed": false,
          "internalType": "address",
          "name": "target",
          "type": "address"
        },
        {
          "indexed": false,
          "internalType": "address",
          "name": "gov",
          "type": "address"
        },
        {
          "indexed": false,
          "internalType": "bytes32",
          "name": "action",
          "type": "bytes32"
        }
      ],
      "name": "SignalSetGov",
      "type": "event"
    },
    {
      "anonymous": false,
      "inputs": [
        {
          "indexed": false,
          "internalType": "address",
          "name": "fastPriceFeed",
          "type": "address"
        },
        {
          "indexed": false,
          "internalType": "address",
          "name": "account",
          "type": "address"
        },
        {
          "indexed": false,
          "internalType": "bool",
          "name": "isActive",
          "type": "bool"
        }
      ],
      "name": "SignalSetPriceFeedWatcher",
      "type": "event"
    },
    {
      "anonymous": false,
      "inputs": [
        {
          "indexed": false,
          "internalType": "address",
          "name": "target",
          "type": "address"
        },
        {
          "indexed": false,
          "internalType": "address",
          "name": "token",
          "type": "address"
        },
        {
          "indexed": false,
          "internalType": "address",
          "name": "receiver",
          "type": "address"
        },
        {
          "indexed": false,
          "internalType": "uint256",
          "name": "amount",
          "type": "uint256"
        },
        {
          "indexed": false,
          "internalType": "bytes32",
          "name": "action",
          "type": "bytes32"
        }
      ],
      "name": "SignalWithdrawToken",
      "type": "event"
    },
    {
      "inputs": [],
      "name": "MAX_BUFFER",
      "outputs": [
        {
          "internalType": "uint256",
          "name": "",
          "type": "uint256"
        }
      ],
      "stateMutability": "view",
      "type": "function"
    },
    {
      "inputs": [],
      "name": "admin",
      "outputs": [
        {
          "internalType": "address",
          "name": "",
          "type": "address"
        }
      ],
      "stateMutability": "view",
      "type": "function"
    },
    {
      "inputs": [
        {
          "internalType": "address",
          "name": "_token",
          "type": "address"
        },
        {
          "internalType": "address",
          "name": "_spender",
          "type": "address"
        },
        {
          "internalType": "uint256",
          "name": "_amount",
          "type": "uint256"
        }
      ],
      "name": "approve",
      "outputs": [],
      "stateMutability": "nonpayable",
      "type": "function"
    },
    {
      "inputs": [],
      "name": "buffer",
      "outputs": [
        {
          "internalType": "uint256",
          "name": "",
          "type": "uint256"
        }
      ],
      "stateMutability": "view",
      "type": "function"
    },
    {
      "inputs": [
        {
          "internalType": "bytes32",
          "name": "_action",
          "type": "bytes32"
        }
      ],
      "name": "cancelAction",
      "outputs": [],
      "stateMutability": "nonpayable",
      "type": "function"
    },
    {
      "inputs": [
        {
          "internalType": "address",
          "name": "",
          "type": "address"
        }
      ],
      "name": "isHandler",
      "outputs": [
        {
          "internalType": "bool",
          "name": "",
          "type": "bool"
        }
      ],
      "stateMutability": "view",
      "type": "function"
    },
    {
      "inputs": [
        {
          "internalType": "address",
          "name": "",
          "type": "address"
        }
      ],
      "name": "isKeeper",
      "outputs": [
        {
          "internalType": "bool",
          "name": "",
          "type": "bool"
        }
      ],
      "stateMutability": "view",
      "type": "function"
    },
    {
      "inputs": [
        {
          "internalType": "bytes32",
          "name": "",
          "type": "bytes32"
        }
      ],
      "name": "pendingActions",
      "outputs": [
        {
          "internalType": "uint256",
          "name": "",
          "type": "uint256"
        }
      ],
      "stateMutability": "view",
      "type": "function"
    },
    {
      "inputs": [
        {
          "internalType": "address",
          "name": "_vaultPriceFeed",
          "type": "address"
        },
        {
          "internalType": "address",
          "name": "_token",
          "type": "address"
        },
        {
          "internalType": "address",
          "name": "_priceFeed",
          "type": "address"
        },
        {
          "internalType": "uint256",
          "name": "_priceDecimals",
          "type": "uint256"
        },
        {
          "internalType": "bool",
          "name": "_isStrictStable",
          "type": "bool"
        }
      ],
      "name": "priceFeedSetTokenConfig",
      "outputs": [],
      "stateMutability": "nonpayable",
      "type": "function"
    },
    {
      "inputs": [
        {
          "internalType": "address",
          "name": "_priceFeed",
          "type": "address"
        },
        {
          "internalType": "address",
          "name": "_token",
          "type": "address"
        },
        {
          "internalType": "bool",
          "name": "_isAdditive",
          "type": "bool"
        },
        {
          "internalType": "uint256",
          "name": "_adjustmentBps",
          "type": "uint256"
        }
      ],
      "name": "setAdjustment",
      "outputs": [],
      "stateMutability": "nonpayable",
      "type": "function"
    },
    {
      "inputs": [
        {
          "internalType": "address",
          "name": "_admin",
          "type": "address"
        }
      ],
      "name": "setAdmin",
      "outputs": [],
      "stateMutability": "nonpayable",
      "type": "function"
    },
    {
      "inputs": [
        {
          "internalType": "uint256",
          "name": "_buffer",
          "type": "uint256"
        }
      ],
      "name": "setBuffer",
      "outputs": [],
      "stateMutability": "nonpayable",
      "type": "function"
    },
    {
      "inputs": [
        {
          "internalType": "address",
          "name": "_handler",
          "type": "address"
        },
        {
          "internalType": "bool",
          "name": "_isActive",
          "type": "bool"
        }
      ],
      "name": "setContractHandler",
      "outputs": [],
      "stateMutability": "nonpayable",
      "type": "function"
    },
    {
      "inputs": [
        {
          "internalType": "address",
          "name": "_target",
          "type": "address"
        },
        {
          "internalType": "address",
          "name": "_admin",
          "type": "address"
        }
      ],
      "name": "setExternalAdmin",
      "outputs": [],
      "stateMutability": "nonpayable",
      "type": "function"
    },
    {
      "inputs": [
        {
          "internalType": "address",
          "name": "_target",
          "type": "address"
        },
        {
          "internalType": "address",
          "name": "_gov",
          "type": "address"
        }
      ],
      "name": "setGov",
      "outputs": [],
      "stateMutability": "nonpayable",
      "type": "function"
    },
    {
      "inputs": [
        {
          "internalType": "address",
          "name": "_priceFeed",
          "type": "address"
        },
        {
          "internalType": "bool",
          "name": "_isEnabled",
          "type": "bool"
        }
      ],
      "name": "setIsAmmEnabled",
      "outputs": [],
      "stateMutability": "nonpayable",
      "type": "function"
    },
    {
      "inputs": [
        {
          "internalType": "address",
          "name": "_priceFeed",
          "type": "address"
        },
        {
          "internalType": "bool",
          "name": "_isEnabled",
          "type": "bool"
        }
      ],
      "name": "setIsSecondaryPriceEnabled",
      "outputs": [],
      "stateMutability": "nonpayable",
      "type": "function"
    },
    {
      "inputs": [
        {
          "internalType": "address",
          "name": "_fastPriceFeed",
          "type": "address"
        },
        {
          "internalType": "bool",
          "name": "_isSpreadEnabled",
          "type": "bool"
        }
      ],
      "name": "setIsSpreadEnabled",
      "outputs": [],
      "stateMutability": "nonpayable",
      "type": "function"
    },
    {
      "inputs": [
        {
          "internalType": "address",
          "name": "_keeper",
          "type": "address"
        },
        {
          "internalType": "bool",
          "name": "_isActive",
          "type": "bool"
        }
      ],
      "name": "setKeeper",
      "outputs": [],
      "stateMutability": "nonpayable",
      "type": "function"
    },
    {
      "inputs": [
        {
          "internalType": "address",
          "name": "_fastPriceFeed",
          "type": "address"
        },
        {
          "internalType": "uint256",
          "name": "_maxPriceUpdateDelay",
          "type": "uint256"
        }
      ],
      "name": "setMaxPriceUpdateDelay",
      "outputs": [],
      "stateMutability": "nonpayable",
      "type": "function"
    },
    {
      "inputs": [
        {
          "internalType": "address",
          "name": "_priceFeed",
          "type": "address"
        },
        {
          "internalType": "uint256",
          "name": "_maxStrictPriceDeviation",
          "type": "uint256"
        }
      ],
      "name": "setMaxStrictPriceDeviation",
      "outputs": [],
      "stateMutability": "nonpayable",
      "type": "function"
    },
    {
      "inputs": [
        {
          "internalType": "address",
          "name": "_fastPriceFeed",
          "type": "address"
        },
        {
          "internalType": "uint256",
          "name": "_minBlockInterval",
          "type": "uint256"
        }
      ],
      "name": "setMinBlockInterval",
      "outputs": [],
      "stateMutability": "nonpayable",
      "type": "function"
    },
    {
      "inputs": [
        {
          "internalType": "address",
          "name": "_fastPriceFeed",
          "type": "address"
        },
        {
          "internalType": "uint256",
          "name": "_priceDuration",
          "type": "uint256"
        }
      ],
      "name": "setPriceDuration",
      "outputs": [],
      "stateMutability": "nonpayable",
      "type": "function"
    },
    {
      "inputs": [
        {
          "internalType": "address",
          "name": "_fastPriceFeed",
          "type": "address"
        },
        {
          "internalType": "address",
          "name": "_account",
          "type": "address"
        },
        {
          "internalType": "bool",
          "name": "_isActive",
          "type": "bool"
        }
      ],
      "name": "setPriceFeedUpdater",
      "outputs": [],
      "stateMutability": "nonpayable",
      "type": "function"
    },
    {
      "inputs": [
        {
          "internalType": "address",
          "name": "_fastPriceFeed",
          "type": "address"
        },
        {
          "internalType": "address",
          "name": "_account",
          "type": "address"
        },
        {
          "internalType": "bool",
          "name": "_isActive",
          "type": "bool"
        }
      ],
      "name": "setPriceFeedWatcher",
      "outputs": [],
      "stateMutability": "nonpayable",
      "type": "function"
    },
    {
      "inputs": [
        {
          "internalType": "address",
          "name": "_priceFeed",
          "type": "address"
        },
        {
          "internalType": "uint256",
          "name": "_priceSampleSpace",
          "type": "uint256"
        }
      ],
      "name": "setPriceSampleSpace",
      "outputs": [],
      "stateMutability": "nonpayable",
      "type": "function"
    },
    {
      "inputs": [
        {
          "internalType": "address",
          "name": "_priceFeed",
          "type": "address"
        },
        {
          "internalType": "address",
          "name": "_token",
          "type": "address"
        },
        {
          "internalType": "uint256",
          "name": "_spreadBasisPoints",
          "type": "uint256"
        }
      ],
      "name": "setSpreadBasisPoints",
      "outputs": [],
      "stateMutability": "nonpayable",
      "type": "function"
    },
    {
      "inputs": [
        {
          "internalType": "address",
          "name": "_fastPriceFeed",
          "type": "address"
        },
        {
          "internalType": "uint256",
          "name": "_spreadBasisPointsIfChainError",
          "type": "uint256"
        }
      ],
      "name": "setSpreadBasisPointsIfChainError",
      "outputs": [],
      "stateMutability": "nonpayable",
      "type": "function"
    },
    {
      "inputs": [
        {
          "internalType": "address",
          "name": "_fastPriceFeed",
          "type": "address"
        },
        {
          "internalType": "uint256",
          "name": "_spreadBasisPointsIfInactive",
          "type": "uint256"
        }
      ],
      "name": "setSpreadBasisPointsIfInactive",
      "outputs": [],
      "stateMutability": "nonpayable",
      "type": "function"
    },
    {
      "inputs": [
        {
          "internalType": "address",
          "name": "_priceFeed",
          "type": "address"
        },
        {
          "internalType": "bool",
          "name": "_useV2Pricing",
          "type": "bool"
        }
      ],
      "name": "setUseV2Pricing",
      "outputs": [],
      "stateMutability": "nonpayable",
      "type": "function"
    },
    {
      "inputs": [
        {
          "internalType": "address",
          "name": "_fastPriceFeed",
          "type": "address"
        },
        {
          "internalType": "address",
          "name": "_vaultPriceFeed",
          "type": "address"
        }
      ],
      "name": "setVaultPriceFeed",
      "outputs": [],
      "stateMutability": "nonpayable",
      "type": "function"
    },
    {
      "inputs": [
        {
          "internalType": "address",
          "name": "_token",
          "type": "address"
        },
        {
          "internalType": "address",
          "name": "_spender",
          "type": "address"
        },
        {
          "internalType": "uint256",
          "name": "_amount",
          "type": "uint256"
        }
      ],
      "name": "signalApprove",
      "outputs": [],
      "stateMutability": "nonpayable",
      "type": "function"
    },
    {
      "inputs": [
        {
          "internalType": "address",
          "name": "_vaultPriceFeed",
          "type": "address"
        },
        {
          "internalType": "address",
          "name": "_token",
          "type": "address"
        },
        {
          "internalType": "address",
          "name": "_priceFeed",
          "type": "address"
        },
        {
          "internalType": "uint256",
          "name": "_priceDecimals",
          "type": "uint256"
        },
        {
          "internalType": "bool",
          "name": "_isStrictStable",
          "type": "bool"
        }
      ],
      "name": "signalPriceFeedSetTokenConfig",
      "outputs": [],
      "stateMutability": "nonpayable",
      "type": "function"
    },
    {
      "inputs": [
        {
          "internalType": "address",
          "name": "_target",
          "type": "address"
        },
        {
          "internalType": "address",
          "name": "_gov",
          "type": "address"
        }
      ],
      "name": "signalSetGov",
      "outputs": [],
      "stateMutability": "nonpayable",
      "type": "function"
    },
    {
      "inputs": [
        {
          "internalType": "address",
          "name": "_fastPriceFeed",
          "type": "address"
        },
        {
          "internalType": "address",
          "name": "_account",
          "type": "address"
        },
        {
          "internalType": "bool",
          "name": "_isActive",
          "type": "bool"
        }
      ],
      "name": "signalSetPriceFeedUpdater",
      "outputs": [],
      "stateMutability": "nonpayable",
      "type": "function"
    },
    {
      "inputs": [
        {
          "internalType": "address",
          "name": "_fastPriceFeed",
          "type": "address"
        },
        {
          "internalType": "address",
          "name": "_account",
          "type": "address"
        },
        {
          "internalType": "bool",
          "name": "_isActive",
          "type": "bool"
        }
      ],
      "name": "signalSetPriceFeedWatcher",
      "outputs": [],
      "stateMutability": "nonpayable",
      "type": "function"
    },
    {
      "inputs": [
        {
          "internalType": "address",
          "name": "_target",
          "type": "address"
        },
        {
          "internalType": "address",
          "name": "_token",
          "type": "address"
        },
        {
          "internalType": "address",
          "name": "_receiver",
          "type": "address"
        },
        {
          "internalType": "uint256",
          "name": "_amount",
          "type": "uint256"
        }
      ],
      "name": "signalWithdrawToken",
      "outputs": [],
      "stateMutability": "nonpayable",
      "type": "function"
    },
    {
      "inputs": [],
      "name": "tokenManager",
      "outputs": [
        {
          "internalType": "address",
          "name": "",
          "type": "address"
        }
      ],
      "stateMutability": "view",
      "type": "function"
    },
    {
      "inputs": [
        {
          "internalType": "address",
          "name": "_sender",
          "type": "address"
        },
        {
          "internalType": "address",
          "name": "_token",
          "type": "address"
        },
        {
          "internalType": "uint256",
          "name": "_amount",
          "type": "uint256"
        }
      ],
      "name": "transferIn",
      "outputs": [],
      "stateMutability": "nonpayable",
      "type": "function"
    },
    {
      "inputs": [
        {
          "internalType": "address",
          "name": "_target",
          "type": "address"
        },
        {
          "internalType": "address",
          "name": "_token",
          "type": "address"
        },
        {
          "internalType": "address",
          "name": "_receiver",
          "type": "address"
        },
        {
          "internalType": "uint256",
          "name": "_amount",
          "type": "uint256"
        }
      ],
      "name": "withdrawToken",
      "outputs": [],
      "stateMutability": "nonpayable",
      "type": "function"
    }
  ],
  "transactionHash": "0xfecd10666d1e73390a9dcb43f8b7059c42a87d34ee55ee4253103daef824c4ff",
  "args": [
    "0xf5CA36c9873d61Bc28C117BD470981Ef6647A685",
    86400,
    "0x5d118F0B8dEF4AE4EB30d470539234b83563FBd4"
  ],
  "numDeployments": 1,
  "solcInputHash": "a5c1ec6ed734a994a4a7c4ed9bed389b",
  "bytecode": "0x608060405234801561001057600080fd5b506040516127f33803806127f38339818101604052606081101561003357600080fd5b50805160208201516040909201519091906206978082111561009c576040805162461bcd60e51b815260206004820152601960248201527f54696d656c6f636b3a20696e76616c6964205f62756666657200000000000000604482015290519081900360640190fd5b600180546001600160a01b039485166001600160a01b03199182161790915560009290925560028054919093169116179055612716806100dd6000396000f3fe608060405234801561001057600080fd5b50600436106101e85760003560e01c80635b6348ac1161010b5780635b6348ac146105fb57806361d07569146106275780636ba42aaa14610641578063704b6c0214610667578063781cc3d31461068d578063996a7a1e146106aa578063a0a316a2146106d8578063adc7ea3714610704578063b74517ba14610721578063bd0f1c451461074d578063be03af5814610779578063d1b9e853146107a5578063db5c875f146107d3578063dce6e18d1461080b578063e1f21c6714610841578063e30569e514610877578063e4652f4914610894578063e7b0a3a1146108ca578063edaafe2014610900578063f851a44014610908576101e8565b8063185051c1146101ed57806321754d9e1461021d5780632877f4c3146102595780632965c8c714610285578063296b07e5146102b35780632a709b14146102f15780632a72e8ba146103155780632cfe82e81461034d5780633335e38a1461037b5780633799c618146103bf578063384cae73146103f7578063395bc7941461043b57806343ec661914610467578063454ffa461461049557806346ea87af146104c35780634cd23f3b146104fd57806350e32d1d1461053957806351a6de0d1461057157806355ef13951461059f5780635843752f146105cd575b600080fd5b61021b6004803603604081101561020357600080fd5b506001600160a01b0381351690602001351515610910565b005b61021b6004803603608081101561023357600080fd5b506001600160a01b03813581169160208101358216916040820135169060600135610988565b61021b6004803603604081101561026f57600080fd5b506001600160a01b038135169060200135610ad3565b61021b6004803603604081101561029b57600080fd5b506001600160a01b0381351690602001351515610bee565b61021b600480360360808110156102c957600080fd5b506001600160a01b038135811691602081013590911690604081013515159060600135610c83565b6102f9610d83565b604080516001600160a01b039092168252519081900360200190f35b61021b6004803603606081101561032b57600080fd5b506001600160a01b038135811691602081013590911690604001351515610d92565b61021b6004803603604081101561036357600080fd5b506001600160a01b0381358116916020013516610eae565b61021b600480360360a081101561039157600080fd5b506001600160a01b038135811691602081013582169160408201351690606081013590608001351515610f4a565b61021b600480360360608110156103d557600080fd5b506001600160a01b0381358116916020810135909116906040013515156110a4565b61021b600480360360a081101561040d57600080fd5b506001600160a01b0381358116916020810135821691604082013516906060810135906080013515156111af565b61021b6004803603604081101561045157600080fd5b506001600160a01b0381351690602001356112e0565b61021b6004803603604081101561047d57600080fd5b506001600160a01b0381351690602001351515611373565b61021b600480360360408110156104ab57600080fd5b506001600160a01b0381351690602001351515611408565b6104e9600480360360208110156104d957600080fd5b50356001600160a01b031661149d565b604080519115158252519081900360200190f35b61021b6004803603608081101561051357600080fd5b506001600160a01b038135811691602081013582169160408201351690606001356114b2565b61021b6004803603606081101561054f57600080fd5b506001600160a01b0381358116916020810135909116906040013515156115cd565b61021b6004803603604081101561058757600080fd5b506001600160a01b03813581169160200135166116e9565b61021b600480360360408110156105b557600080fd5b506001600160a01b0381358116916020013516611800565b61021b600480360360408110156105e357600080fd5b506001600160a01b03813516906020013515156118f6565b61021b6004803603604081101561061157600080fd5b506001600160a01b03813516906020013561198b565b61062f611a38565b60408051918252519081900360200190f35b6104e96004803603602081101561065757600080fd5b50356001600160a01b0316611a3f565b61021b6004803603602081101561067d57600080fd5b50356001600160a01b0316611a54565b61021b600480360360208110156106a357600080fd5b5035611ac3565b61021b600480360360408110156106c057600080fd5b506001600160a01b0381358116916020013516611b1c565b61021b600480360360408110156106ee57600080fd5b506001600160a01b038135169060200135611c0d565b61021b6004803603602081101561071a57600080fd5b5035611ca0565b61021b6004803603604081101561073757600080fd5b506001600160a01b038135169060200135611d86565b61021b6004803603604081101561076357600080fd5b506001600160a01b038135169060200135611e33565b61021b6004803603604081101561078f57600080fd5b506001600160a01b038135169060200135611ec6565b61021b600480360360408110156107bb57600080fd5b506001600160a01b0381351690602001351515611f59565b61021b600480360360608110156107e957600080fd5b506001600160a01b038135811691602081013590911690604001351515611fd1565b61021b6004803603606081101561082157600080fd5b506001600160a01b0381358116916020810135909116906040013561208b565b61021b6004803603606081101561085757600080fd5b506001600160a01b0381358116916020810135909116906040013561218d565b61062f6004803603602081101561088d57600080fd5b50356122c2565b61021b600480360360608110156108aa57600080fd5b506001600160a01b038135811691602081013590911690604001356122d4565b61021b600480360360608110156108e057600080fd5b506001600160a01b038135811691602081013590911690604001356123ab565b61062f612483565b6102f9612489565b6001546001600160a01b0316331461095d576040805162461bcd60e51b815260206004820152601360248201526000805160206126ea833981519152604482015290519081900360640190fd5b6001600160a01b03919091166000908152600460205260409020805460ff1916911515919091179055565b6001546001600160a01b031633146109d5576040805162461bcd60e51b815260206004820152601360248201526000805160206126ea833981519152604482015290519081900360640190fd5b604080516c3bb4ba34323930bbaa37b5b2b760991b6020808301919091526001600160601b0319606088811b8216602d85015287811b8216604185015286901b16605583015260698083018590528351808403909101815260899092019092528051910120610a4381612498565b610a4c81612544565b846001600160a01b03166301e336678585856040518463ffffffff1660e01b815260040180846001600160a01b03168152602001836001600160a01b031681526020018281526020019350505050600060405180830381600087803b158015610ab457600080fd5b505af1158015610ac8573d6000803e3d6000fd5b505050505050505050565b6001546001600160a01b0316331480610afb57503360009081526004602052604090205460ff165b610b3a576040805162461bcd60e51b815260206004820152601360248201526000805160206126ea833981519152604482015290519081900360640190fd5b6005811115610b8c576040805162461bcd60e51b8152602060048201526019602482015278496e76616c6964205f707269636553616d706c65537061636560381b604482015290519081900360640190fd5b816001600160a01b0316632fa03b8f826040518263ffffffff1660e01b815260040180828152602001915050600060405180830381600087803b158015610bd257600080fd5b505af1158015610be6573d6000803e3d6000fd5b505050505050565b6001546001600160a01b03163314610c3b576040805162461bcd60e51b815260206004820152601360248201526000805160206126ea833981519152604482015290519081900360640190fd5b816001600160a01b031663eb1c92a9826040518263ffffffff1660e01b8152600401808215158152602001915050600060405180830381600087803b158015610bd257600080fd5b6001546001600160a01b0316331480610cab57503360009081526004602052604090205460ff165b80610cc557503360009081526005602052604090205460ff165b610d04576040805162461bcd60e51b815260206004820152601360248201526000805160206126ea833981519152604482015290519081900360640190fd5b836001600160a01b031663d694376c8484846040518463ffffffff1660e01b815260040180846001600160a01b0316815260200183151581526020018281526020019350505050600060405180830381600087803b158015610d6557600080fd5b505af1158015610d79573d6000803e3d6000fd5b5050505050505050565b6002546001600160a01b031681565b6001546001600160a01b03163314610ddf576040805162461bcd60e51b815260206004820152601360248201526000805160206126ea833981519152604482015290519081900360640190fd5b604080517239b2ba283934b1b2a332b2b22bb0ba31b432b960691b6020808301919091526001600160601b0319606087811b8216603385015286901b16604783015283151560f81b605b8301528251603c818403018152605c9092019092528051910120610e4c81612498565b610e5581612544565b836001600160a01b03166331cb610584846040518363ffffffff1660e01b815260040180836001600160a01b03168152602001821515815260200192505050600060405180830381600087803b158015610d6557600080fd5b6001546001600160a01b03163314610efb576040805162461bcd60e51b815260206004820152601360248201526000805160206126ea833981519152604482015290519081900360640190fd5b816001600160a01b031663238aafb7826040518263ffffffff1660e01b815260040180826001600160a01b03168152602001915050600060405180830381600087803b158015610bd257600080fd5b6001546001600160a01b03163314610f97576040805162461bcd60e51b815260206004820152601360248201526000805160206126ea833981519152604482015290519081900360640190fd5b6040805176707269636546656564536574546f6b656e436f6e66696760481b6020808301919091526001600160601b0319606089811b8216603785015288811b8216604b85015287901b16605f8301526073820185905283151560f81b6093830152825160748184030181526094909201909252805191012061101981612498565b61102281612544565b60408051634b9ade4760e01b81526001600160a01b0387811660048301528681166024830152604482018690528415156064830152915191881691634b9ade479160848082019260009290919082900301818387803b15801561108457600080fd5b505af1158015611098573d6000803e3d6000fd5b50505050505050505050565b6001546001600160a01b031633146110f1576040805162461bcd60e51b815260206004820152601360248201526000805160206126ea833981519152604482015290519081900360640190fd5b604080517239b2ba283934b1b2a332b2b22bb0ba31b432b960691b6020808301919091526001600160601b0319606087811b8216603385015286901b16604783015283151560f81b605b8301528251603c818403018152605c909201909252805191012061115e816125e9565b604080516001600160a01b038087168252851660208201528315158183015290517f6ab3018654d3055eae2cb61d3dffe4cbb30f257d54ec966059b4d00b325a36699181900360600190a150505050565b6001546001600160a01b031633146111fc576040805162461bcd60e51b815260206004820152601360248201526000805160206126ea833981519152604482015290519081900360640190fd5b6040805176707269636546656564536574546f6b656e436f6e66696760481b6020808301919091526001600160601b0319606089811b8216603785015288811b8216604b85015287901b16605f8301526073820185905283151560f81b6093830152825160748184030181526094909201909252805191012061127e816125e9565b604080516001600160a01b038089168252808816602083015286168183015260608101859052831515608082015290517f1b2ddf357ae016d8c127dcd3a73c34744fdeaeeb4b7ef1e04490cebf7f4816fe9181900360a00190a1505050505050565b6001546001600160a01b0316331461132d576040805162461bcd60e51b815260206004820152601360248201526000805160206126ea833981519152604482015290519081900360640190fd5b816001600160a01b031663b70c7b70826040518263ffffffff1660e01b815260040180828152602001915050600060405180830381600087803b158015610bd257600080fd5b6001546001600160a01b031633146113c0576040805162461bcd60e51b815260206004820152601360248201526000805160206126ea833981519152604482015290519081900360640190fd5b816001600160a01b031663ce98dfa8826040518263ffffffff1660e01b8152600401808215158152602001915050600060405180830381600087803b158015610bd257600080fd5b6001546001600160a01b03163314611455576040805162461bcd60e51b815260206004820152601360248201526000805160206126ea833981519152604482015290519081900360640190fd5b816001600160a01b031663fd34ec40826040518263ffffffff1660e01b8152600401808215158152602001915050600060405180830381600087803b158015610bd257600080fd5b60046020526000908152604090205460ff1681565b6001546001600160a01b031633146114ff576040805162461bcd60e51b815260206004820152601360248201526000805160206126ea833981519152604482015290519081900360640190fd5b604080516c3bb4ba34323930bbaa37b5b2b760991b6020808301919091526001600160601b0319606088811b8216602d85015287811b8216604185015286901b1660558301526069808301859052835180840390910181526089909201909252805191012061156d816125e9565b604080516001600160a01b0380881682528087166020830152851681830152606081018490526080810183905290517f9ed7b0f07a9eed51079fab67f6d0f141f167f5b17fdb5a23282280e15fcafed39181900360a00190a15050505050565b6001546001600160a01b0316331461161a576040805162461bcd60e51b815260206004820152601360248201526000805160206126ea833981519152604482015290519081900360640190fd5b604080517239b2ba283934b1b2a332b2b22ab83230ba32b960691b6020808301919091526001600160601b0319606087811b8216603385015286901b16604783015283151560f81b605b8301528251603c818403018152605c909201909252805191012061168781612498565b61169081612544565b836001600160a01b0316631a15339184846040518363ffffffff1660e01b815260040180836001600160a01b03168152602001821515815260200192505050600060405180830381600087803b158015610d6557600080fd5b6001546001600160a01b03163314611736576040805162461bcd60e51b815260206004820152601360248201526000805160206126ea833981519152604482015290519081900360640190fd5b604080516539b2ba23b7bb60d11b6020808301919091526001600160601b0319606086811b8216602685015285901b16603a8301528251602e818403018152604e909201909252805191012061178b81612498565b61179481612544565b826001600160a01b031663cfad57a2836040518263ffffffff1660e01b815260040180826001600160a01b03168152602001915050600060405180830381600087803b1580156117e357600080fd5b505af11580156117f7573d6000803e3d6000fd5b50505050505050565b6001546001600160a01b0316331461184d576040805162461bcd60e51b815260206004820152601360248201526000805160206126ea833981519152604482015290519081900360640190fd5b6001600160a01b0382163014156118a7576040805162461bcd60e51b8152602060048201526019602482015278151a5b595b1bd8dace881a5b9d985b1a590817dd185c99d95d603a1b604482015290519081900360640190fd5b816001600160a01b031663704b6c02826040518263ffffffff1660e01b815260040180826001600160a01b03168152602001915050600060405180830381600087803b158015610bd257600080fd5b6001546001600160a01b03163314611943576040805162461bcd60e51b815260206004820152601360248201526000805160206126ea833981519152604482015290519081900360640190fd5b816001600160a01b0316639917dc74826040518263ffffffff1660e01b8152600401808215158152602001915050600060405180830381600087803b158015610bd257600080fd5b6001546001600160a01b03163314806119b357503360009081526004602052604090205460ff165b6119f2576040805162461bcd60e51b815260206004820152601360248201526000805160206126ea833981519152604482015290519081900360640190fd5b816001600160a01b0316638b7677f4826040518263ffffffff1660e01b815260040180828152602001915050600060405180830381600087803b158015610bd257600080fd5b6206978081565b60056020526000908152604090205460ff1681565b6002546001600160a01b03163314611aa1576040805162461bcd60e51b815260206004820152601360248201526000805160206126ea833981519152604482015290519081900360640190fd5b600180546001600160a01b0319166001600160a01b0392909216919091179055565b6001546001600160a01b03163314611b10576040805162461bcd60e51b815260206004820152601360248201526000805160206126ea833981519152604482015290519081900360640190fd5b611b1981612544565b50565b6001546001600160a01b03163314611b69576040805162461bcd60e51b815260206004820152601360248201526000805160206126ea833981519152604482015290519081900360640190fd5b604080516539b2ba23b7bb60d11b6020808301919091526001600160601b0319606086811b8216602685015285901b16603a8301528251602e818403018152604e9092019092528051910120611bbe816125e9565b604080516001600160a01b0380861682528416602082015280820183905290517f2701a94fd55a560e291f3c54d36580040670d6fde558a77a75d619e38139f7139181900360600190a1505050565b6001546001600160a01b03163314611c5a576040805162461bcd60e51b815260206004820152601360248201526000805160206126ea833981519152604482015290519081900360640190fd5b816001600160a01b0316632fbfe3d3826040518263ffffffff1660e01b815260040180828152602001915050600060405180830381600087803b158015610bd257600080fd5b6001546001600160a01b03163314611ced576040805162461bcd60e51b815260206004820152601360248201526000805160206126ea833981519152604482015290519081900360640190fd5b62069780811115611d41576040805162461bcd60e51b81526020600482015260196024820152782a34b6b2b637b1b59d1034b73b30b634b2102fb13ab33332b960391b604482015290519081900360640190fd5b6000548111611d815760405162461bcd60e51b81526004018080602001828103825260248152602001806126c66024913960400191505060405180910390fd5b600055565b6001546001600160a01b0316331480611dae57503360009081526004602052604090205460ff165b611ded576040805162461bcd60e51b815260206004820152601360248201526000805160206126ea833981519152604482015290519081900360640190fd5b816001600160a01b03166344c23193826040518263ffffffff1660e01b815260040180828152602001915050600060405180830381600087803b158015610bd257600080fd5b6001546001600160a01b03163314611e80576040805162461bcd60e51b815260206004820152601360248201526000805160206126ea833981519152604482015290519081900360640190fd5b816001600160a01b031663de0d1b94826040518263ffffffff1660e01b815260040180828152602001915050600060405180830381600087803b158015610bd257600080fd5b6001546001600160a01b03163314611f13576040805162461bcd60e51b815260206004820152601360248201526000805160206126ea833981519152604482015290519081900360640190fd5b816001600160a01b031663d6a153f1826040518263ffffffff1660e01b815260040180828152602001915050600060405180830381600087803b158015610bd257600080fd5b6001546001600160a01b03163314611fa6576040805162461bcd60e51b815260206004820152601360248201526000805160206126ea833981519152604482015290519081900360640190fd5b6001600160a01b03919091166000908152600560205260409020805460ff1916911515919091179055565b6001546001600160a01b0316331461201e576040805162461bcd60e51b815260206004820152601360248201526000805160206126ea833981519152604482015290519081900360640190fd5b604080517239b2ba283934b1b2a332b2b22ab83230ba32b960691b6020808301919091526001600160601b0319606087811b8216603385015286901b16604783015283151560f81b605b8301528251603c818403018152605c909201909252805191012061115e816125e9565b6001546001600160a01b031633146120d8576040805162461bcd60e51b815260206004820152601360248201526000805160206126ea833981519152604482015290519081900360640190fd5b6040805166617070726f766560c81b6020808301919091526001600160601b0319606087811b8216602785015286901b16603b830152604f80830185905283518084039091018152606f9092019092528051910120612136816125e9565b604080516001600160a01b038087168252851660208201528082018490526060810183905290517f6af9d86ba7407a934e941ed8ae5f779369a88fe8ba2cd1c204185d6f8a8287fd9181900360800190a150505050565b6001546001600160a01b031633146121da576040805162461bcd60e51b815260206004820152601360248201526000805160206126ea833981519152604482015290519081900360640190fd5b6040805166617070726f766560c81b6020808301919091526001600160601b0319606087811b8216602785015286901b16603b830152604f80830185905283518084039091018152606f909201909252805191012061223881612498565b61224181612544565b836001600160a01b031663095ea7b384846040518363ffffffff1660e01b815260040180836001600160a01b0316815260200182815260200192505050602060405180830381600087803b15801561229857600080fd5b505af11580156122ac573d6000803e3d6000fd5b505050506040513d6020811015610be657600080fd5b60036020526000908152604090205481565b6001546001600160a01b03163314612321576040805162461bcd60e51b815260206004820152601360248201526000805160206126ea833981519152604482015290519081900360640190fd5b604080516323b872dd60e01b81526001600160a01b038581166004830152306024830152604482018490529151918416916323b872dd916064808201926020929091908290030181600087803b15801561237a57600080fd5b505af115801561238e573d6000803e3d6000fd5b505050506040513d60208110156123a457600080fd5b5050505050565b6001546001600160a01b03163314806123d357503360009081526004602052604090205460ff165b806123ed57503360009081526005602052604090205460ff165b61242c576040805162461bcd60e51b815260206004820152601360248201526000805160206126ea833981519152604482015290519081900360640190fd5b826001600160a01b0316639b88938083836040518363ffffffff1660e01b815260040180836001600160a01b0316815260200182815260200192505050600060405180830381600087803b1580156117e357600080fd5b60005481565b6001546001600160a01b031681565b6000818152600360205260409020546124f8576040805162461bcd60e51b815260206004820152601e60248201527f54696d656c6f636b3a20616374696f6e206e6f74207369676e616c6c65640000604482015290519081900360640190fd5b6000818152600360205260409020544211611b195760405162461bcd60e51b81526004018080602001828103825260248152602001806126a26024913960400191505060405180910390fd5b6000818152600360205260409020546125a0576040805162461bcd60e51b81526020600482015260196024820152782a34b6b2b637b1b59d1034b73b30b634b2102fb0b1ba34b7b760391b604482015290519081900360640190fd5b600081815260036020908152604080832092909255815183815291517f194ed6dd5e37e2acc44a19455c3f208c4831ee695fe362d9c4ef2d316bc53aec9281900390910190a150565b6000546125f7904290612642565b60008281526003602090815260409182902092909255805183815290517f5fb9c0ecf7b4a28c4c480212e868f9da7f373a2ed4d23498b0be6aadf35242fb929181900390910190a150565b60008282018381101561269a576040805162461bcd60e51b815260206004820152601b60248201527a536166654d6174683a206164646974696f6e206f766572666c6f7760281b604482015290519081900360640190fd5b939250505056fe54696d656c6f636b3a20616374696f6e2074696d65206e6f74207965742070617373656454696d656c6f636b3a206275666665722063616e6e6f742062652064656372656173656454696d656c6f636b3a20666f7262696464656e00000000000000000000000000a164736f6c634300060c000a",
  "devdoc": {
    "kind": "dev",
    "methods": {},
    "version": 1
  },
  "userdoc": {
    "kind": "user",
    "methods": {},
    "version": 1
  },
  "storageLayout": {
    "storage": [
      {
        "astId": 26800,
        "contract": "contracts/peripherals/PriceFeedTimelock.sol:PriceFeedTimelock",
        "label": "buffer",
        "offset": 0,
        "slot": "0",
        "type": "t_uint256"
      },
      {
        "astId": 26802,
        "contract": "contracts/peripherals/PriceFeedTimelock.sol:PriceFeedTimelock",
        "label": "admin",
        "offset": 0,
        "slot": "1",
        "type": "t_address"
      },
      {
        "astId": 26804,
        "contract": "contracts/peripherals/PriceFeedTimelock.sol:PriceFeedTimelock",
        "label": "tokenManager",
        "offset": 0,
        "slot": "2",
        "type": "t_address"
      },
      {
        "astId": 26808,
        "contract": "contracts/peripherals/PriceFeedTimelock.sol:PriceFeedTimelock",
        "label": "pendingActions",
        "offset": 0,
        "slot": "3",
        "type": "t_mapping(t_bytes32,t_uint256)"
      },
      {
        "astId": 26812,
        "contract": "contracts/peripherals/PriceFeedTimelock.sol:PriceFeedTimelock",
        "label": "isHandler",
        "offset": 0,
        "slot": "4",
        "type": "t_mapping(t_address,t_bool)"
      },
      {
        "astId": 26816,
        "contract": "contracts/peripherals/PriceFeedTimelock.sol:PriceFeedTimelock",
        "label": "isKeeper",
        "offset": 0,
        "slot": "5",
        "type": "t_mapping(t_address,t_bool)"
      }
    ],
    "types": {
      "t_address": {
        "encoding": "inplace",
        "label": "address",
        "numberOfBytes": "20"
      },
      "t_bool": {
        "encoding": "inplace",
        "label": "bool",
        "numberOfBytes": "1"
      },
      "t_bytes32": {
        "encoding": "inplace",
        "label": "bytes32",
        "numberOfBytes": "32"
      },
      "t_mapping(t_address,t_bool)": {
        "encoding": "mapping",
        "key": "t_address",
        "label": "mapping(address => bool)",
        "numberOfBytes": "32",
        "value": "t_bool"
      },
      "t_mapping(t_bytes32,t_uint256)": {
        "encoding": "mapping",
        "key": "t_bytes32",
        "label": "mapping(bytes32 => uint256)",
        "numberOfBytes": "32",
        "value": "t_uint256"
      },
      "t_uint256": {
        "encoding": "inplace",
        "label": "uint256",
        "numberOfBytes": "32"
      }
    }
  }
}