{
  "address": "0x0F4d3874C1B4C3C8aff1886290c06c3D580093fd",
  "abi": [
    {
      "inputs": [],
      "name": "gov",
      "outputs": [
        {
          "internalType": "address",
          "name": "",
          "type": "address"
        }
      ],
      "stateMutability": "view",
      "type": "function"
    },
    {
      "inputs": [
        {
          "internalType": "address",
          "name": "_gov",
          "type": "address"
        }
      ],
      "name": "setGov",
      "outputs": [],
      "stateMutability": "nonpayable",
      "type": "function"
    },
    {
      "inputs": [
        {
          "internalType": "address",
          "name": "_rewardTracker",
          "type": "address"
        },
        {
          "internalType": "address",
          "name": "_account",
          "type": "address"
        },
        {
          "internalType": "address",
          "name": "_token",
          "type": "address"
        },
        {
          "internalType": "uint256",
          "name": "_amount",
          "type": "uint256"
        }
      ],
      "name": "stakeForAccount",
      "outputs": [],
      "stateMutability": "nonpayable",
      "type": "function"
    }
  ],
  "transactionHash": "0x693323ac4045b4fbde48436f2a22e2b86e0a905d556f1cadc12b770faffe85ff",
  "args": [],
  "numDeployments": 1,
  "solcInputHash": "a5c1ec6ed734a994a4a7c4ed9bed389b",
  "bytecode": "0x608060405234801561001057600080fd5b50600080546001600160a01b03191633179055610239806100326000396000f3fe608060405234801561001057600080fd5b50600436106100415760003560e01c806312d43a5114610046578063790b5a6c1461006a578063cfad57a2146100a8575b600080fd5b61004e6100ce565b604080516001600160a01b039092168252519081900360200190f35b6100a66004803603608081101561008057600080fd5b506001600160a01b038135811691602081013582169160408201351690606001356100dd565b005b6100a6600480360360208110156100be57600080fd5b50356001600160a01b03166101b3565b6000546001600160a01b031681565b6000546001600160a01b03163314610134576040805162461bcd60e51b815260206004820152601560248201527423b7bb32b93730b136329d103337b93134b23232b760591b604482015290519081900360640190fd5b60408051631e42d69b60e21b81526001600160a01b0385811660048301819052602483015284811660448301526064820184905291519186169163790b5a6c9160848082019260009290919082900301818387803b15801561019557600080fd5b505af11580156101a9573d6000803e3d6000fd5b5050505050505050565b6000546001600160a01b0316331461020a576040805162461bcd60e51b815260206004820152601560248201527423b7bb32b93730b136329d103337b93134b23232b760591b604482015290519081900360640190fd5b600080546001600160a01b0319166001600160a01b039290921691909117905556fea164736f6c634300060c000a",
  "devdoc": {
    "kind": "dev",
    "methods": {},
    "version": 1
  },
  "userdoc": {
    "kind": "user",
    "methods": {},
    "version": 1
  },
  "storageLayout": {
    "storage": [
      {
        "astId": 3,
        "contract": "contracts/staking/StakeManager.sol:StakeManager",
        "label": "gov",
        "offset": 0,
        "slot": "0",
        "type": "t_address"
      }
    ],
    "types": {
      "t_address": {
        "encoding": "inplace",
        "label": "address",
        "numberOfBytes": "20"
      }
    }
  }
}