{
  "address": "0x82095CBe5635EbC32034D4bdF85215203f6DbFa7",
  "abi": [
    {
      "inputs": [
        {
          "internalType": "address",
          "name": "_xlx",
          "type": "address"
        },
        {
          "internalType": "contract IXlxManager",
          "name": "_xlxManager",
          "type": "address"
        },
        {
          "internalType": "address",
          "name": "_stakedXlxTracker",
          "type": "address"
        },
        {
          "internalType": "address",
          "name": "_feeXlxTracker",
          "type": "address"
        }
      ],
      "stateMutability": "nonpayable",
      "type": "constructor"
    },
    {
      "anonymous": false,
      "inputs": [
        {
          "indexed": true,
          "internalType": "address",
          "name": "owner",
          "type": "address"
        },
        {
          "indexed": true,
          "internalType": "address",
          "name": "spender",
          "type": "address"
        },
        {
          "indexed": false,
          "internalType": "uint256",
          "name": "value",
          "type": "uint256"
        }
      ],
      "name": "Approval",
      "type": "event"
    },
    {
      "inputs": [
        {
          "internalType": "address",
          "name": "_owner",
          "type": "address"
        },
        {
          "internalType": "address",
          "name": "_spender",
          "type": "address"
        }
      ],
      "name": "allowance",
      "outputs": [
        {
          "internalType": "uint256",
          "name": "",
          "type": "uint256"
        }
      ],
      "stateMutability": "view",
      "type": "function"
    },
    {
      "inputs": [
        {
          "internalType": "address",
          "name": "",
          "type": "address"
        },
        {
          "internalType": "address",
          "name": "",
          "type": "address"
        }
      ],
      "name": "allowances",
      "outputs": [
        {
          "internalType": "uint256",
          "name": "",
          "type": "uint256"
        }
      ],
      "stateMutability": "view",
      "type": "function"
    },
    {
      "inputs": [
        {
          "internalType": "address",
          "name": "_spender",
          "type": "address"
        },
        {
          "internalType": "uint256",
          "name": "_amount",
          "type": "uint256"
        }
      ],
      "name": "approve",
      "outputs": [
        {
          "internalType": "bool",
          "name": "",
          "type": "bool"
        }
      ],
      "stateMutability": "nonpayable",
      "type": "function"
    },
    {
      "inputs": [
        {
          "internalType": "address",
          "name": "_account",
          "type": "address"
        }
      ],
      "name": "balanceOf",
      "outputs": [
        {
          "internalType": "uint256",
          "name": "",
          "type": "uint256"
        }
      ],
      "stateMutability": "view",
      "type": "function"
    },
    {
      "inputs": [],
      "name": "decimals",
      "outputs": [
        {
          "internalType": "uint8",
          "name": "",
          "type": "uint8"
        }
      ],
      "stateMutability": "view",
      "type": "function"
    },
    {
      "inputs": [],
      "name": "feeXlxTracker",
      "outputs": [
        {
          "internalType": "address",
          "name": "",
          "type": "address"
        }
      ],
      "stateMutability": "view",
      "type": "function"
    },
    {
      "inputs": [],
      "name": "name",
      "outputs": [
        {
          "internalType": "string",
          "name": "",
          "type": "string"
        }
      ],
      "stateMutability": "view",
      "type": "function"
    },
    {
      "inputs": [],
      "name": "stakedXlxTracker",
      "outputs": [
        {
          "internalType": "address",
          "name": "",
          "type": "address"
        }
      ],
      "stateMutability": "view",
      "type": "function"
    },
    {
      "inputs": [],
      "name": "symbol",
      "outputs": [
        {
          "internalType": "string",
          "name": "",
          "type": "string"
        }
      ],
      "stateMutability": "view",
      "type": "function"
    },
    {
      "inputs": [],
      "name": "totalSupply",
      "outputs": [
        {
          "internalType": "uint256",
          "name": "",
          "type": "uint256"
        }
      ],
      "stateMutability": "view",
      "type": "function"
    },
    {
      "inputs": [
        {
          "internalType": "address",
          "name": "_recipient",
          "type": "address"
        },
        {
          "internalType": "uint256",
          "name": "_amount",
          "type": "uint256"
        }
      ],
      "name": "transfer",
      "outputs": [
        {
          "internalType": "bool",
          "name": "",
          "type": "bool"
        }
      ],
      "stateMutability": "nonpayable",
      "type": "function"
    },
    {
      "inputs": [
        {
          "internalType": "address",
          "name": "_sender",
          "type": "address"
        },
        {
          "internalType": "address",
          "name": "_recipient",
          "type": "address"
        },
        {
          "internalType": "uint256",
          "name": "_amount",
          "type": "uint256"
        }
      ],
      "name": "transferFrom",
      "outputs": [
        {
          "internalType": "bool",
          "name": "",
          "type": "bool"
        }
      ],
      "stateMutability": "nonpayable",
      "type": "function"
    },
    {
      "inputs": [],
      "name": "xlx",
      "outputs": [
        {
          "internalType": "address",
          "name": "",
          "type": "address"
        }
      ],
      "stateMutability": "view",
      "type": "function"
    },
    {
      "inputs": [],
      "name": "xlxManager",
      "outputs": [
        {
          "internalType": "contract IXlxManager",
          "name": "",
          "type": "address"
        }
      ],
      "stateMutability": "view",
      "type": "function"
    }
  ],
  "transactionHash": "0x75f2ed9452eb25662057ecf086fcf01b88490d658f1b4d9fc0522c9864a26aa0",
  "args": [
    "0xA288Fb6a088816Eb2E71E99C4c839d422f75297A",
    "0x20F9cabD6f4cda67A89ACD670778b1bC4A2E0513",
    "0x53c657723852b01ca9FD798A94Dc1749821b8553",
    "0xe00043B6C5DAE37aaf6Af1dbe531E57FEe5Da8A0"
  ],
  "numDeployments": 1,
  "solcInputHash": "a5c1ec6ed734a994a4a7c4ed9bed389b",
  "bytecode": "0x608060405234801561001057600080fd5b50604051610c8e380380610c8e8339818101604052608081101561003357600080fd5b50805160208201516040830151606090930151600080546001600160a01b039485166001600160a01b0319918216179091556001805493851693821693909317909255600280549484169483169490941790935560038054929093169116179055610beb806100a36000396000f3fe608060405234801561001057600080fd5b50600436106100ba5760003560e01c806306fdde03146100bf578063095ea7b31461013c57806318160ddd1461017c57806323b872dd14610196578063313ce567146101cc578063540f3668146101ea57806355b6ed5c1461020e57806363efdf381461023c57806370a08231146102445780637e8daa231461026a57806395d89b4114610272578063a9059cbb1461027a578063dd62ed3e146102a6578063f91c9e9f146102d4575b600080fd5b6100c76102dc565b6040805160208082528351818301528351919283929083019185019080838360005b838110156101015781810151838201526020016100e9565b50505050905090810190601f16801561012e5780820380516001836020036101000a031916815260200191505b509250505060405180910390f35b6101686004803603604081101561015257600080fd5b506001600160a01b038135169060200135610301565b604080519115158252519081900360200190f35b610184610317565b60408051918252519081900360200190f35b610168600480360360608110156101ac57600080fd5b506001600160a01b0381358116916020810135909116906040013561038d565b6101d46103fb565b6040805160ff9092168252519081900360200190f35b6101f2610400565b604080516001600160a01b039092168252519081900360200190f35b6101846004803603604081101561022457600080fd5b506001600160a01b038135811691602001351661040f565b6101f261042c565b6101846004803603602081101561025a57600080fd5b50356001600160a01b031661043b565b6101f26104c9565b6100c76104d8565b6101686004803603604081101561029057600080fd5b506001600160a01b0381351690602001356104f8565b610184600480360360408110156102bc57600080fd5b506001600160a01b0381358116916020013516610505565b6101f2610530565b604051806040016040528060098152602001680a6e8c2d6cac8b0d8f60bb1b81525081565b600061030e33848461053f565b50600192915050565b600254604080516318160ddd60e01b815290516000926001600160a01b0316916318160ddd916004808301926020929190829003018186803b15801561035c57600080fd5b505afa158015610370573d6000803e3d6000fd5b505050506040513d602081101561038657600080fd5b5051905090565b6000806103d8836040518060600160405280602c8152602001610aea602c91396001600160a01b0388166000908152600460209081526040808320338452909152902054919061062b565b90506103e585338361053f565b6103f08585856106c2565b506001949350505050565b601281565b6001546001600160a01b031681565b600460209081526000928352604080842090915290825290205481565b6000546001600160a01b031681565b6003546000805460408051637aeceb1f60e11b81526001600160a01b038681166004830152928316602482015290519293919091169163f5d9d63e91604480820192602092909190829003018186803b15801561049757600080fd5b505afa1580156104ab573d6000803e3d6000fd5b505050506040513d60208110156104c157600080fd5b505192915050565b6002546001600160a01b031681565b604051806040016040528060048152602001630e6b098b60e31b81525081565b600061030e3384846106c2565b6001600160a01b03918216600090815260046020908152604080832093909416825291909152205490565b6003546001600160a01b031681565b6001600160a01b0383166105845760405162461bcd60e51b8152600401808060200182810382526028815260200180610b676028913960400191505060405180910390fd5b6001600160a01b0382166105c95760405162461bcd60e51b8152600401808060200182810382526026815260200180610b416026913960400191505060405180910390fd5b6001600160a01b03808416600081815260046020908152604080832094871680845294825291829020859055815185815291517f8c5be1e5ebec7d5bd14f71427d1e84f3dd0314c0f7b2291e5b200ac8c7c3b9259281900390910190a3505050565b600081848411156106ba5760405162461bcd60e51b81526004018080602001828103825283818151815260200191508051906020019080838360005b8381101561067f578181015183820152602001610667565b50505050905090810190601f1680156106ac5780820380516001836020036101000a031916815260200191505b509250505060405180910390fd5b505050900390565b6001600160a01b0383166107075760405162461bcd60e51b8152600401808060200182810382526029815260200180610b8f6029913960400191505060405180910390fd5b6001600160a01b03821661074c5760405162461bcd60e51b8152600401808060200182810382526027815260200180610bb86027913960400191505060405180910390fd5b4261084d600160009054906101000a90046001600160a01b03166001600160a01b031663352693156040518163ffffffff1660e01b8152600401602060405180830381600087803b1580156107a057600080fd5b505af11580156107b4573d6000803e3d6000fd5b505050506040513d60208110156107ca57600080fd5b505160015460408051638b770e1160e01b81526001600160a01b03898116600483015291519190921691638b770e119160248083019260209291908290030181600087803b15801561081b57600080fd5b505af115801561082f573d6000803e3d6000fd5b505050506040513d602081101561084557600080fd5b505190610a8a565b111561088a5760405162461bcd60e51b815260040180806020018281038252602b815260200180610b16602b913960400191505060405180910390fd5b6002546003546040805163098bf59d60e01b81526001600160a01b038781166004830181905293811660248301526044820186905260648201939093529051919092169163098bf59d91608480830192600092919082900301818387803b1580156108f457600080fd5b505af1158015610908573d6000803e3d6000fd5b5050600354600080546040805163098bf59d60e01b81526001600160a01b038a8116600483018190529381166024830152604482018990526064820193909352905191909316945063098bf59d935060848084019382900301818387803b15801561097257600080fd5b505af1158015610986573d6000803e3d6000fd5b50506003546000805460408051631e42d69b60e21b81526001600160a01b038a811660048301528981166024830152928316604482015260648101889052905191909316945063790b5a6c935060848084019382900301818387803b1580156109ee57600080fd5b505af1158015610a02573d6000803e3d6000fd5b505060025460035460408051631e42d69b60e21b81526001600160a01b03888116600483018190526024830152928316604482015260648101879052905191909216935063790b5a6c9250608480830192600092919082900301818387803b158015610a6d57600080fd5b505af1158015610a81573d6000803e3d6000fd5b50505050505050565b600082820183811015610ae2576040805162461bcd60e51b815260206004820152601b60248201527a536166654d6174683a206164646974696f6e206f766572666c6f7760281b604482015290519081900360640190fd5b939250505056fe5374616b6564586c783a207472616e7366657220616d6f756e74206578636565647320616c6c6f77616e63655374616b6564586c783a20636f6f6c646f776e206475726174696f6e206e6f7420796574207061737365645374616b6564586c783a20617070726f766520746f20746865207a65726f20616464726573735374616b6564586c783a20617070726f76652066726f6d20746865207a65726f20616464726573735374616b6564586c783a207472616e736665722066726f6d20746865207a65726f20616464726573735374616b6564586c783a207472616e7366657220746f20746865207a65726f2061646472657373a164736f6c634300060c000a",
  "devdoc": {
    "kind": "dev",
    "methods": {},
    "version": 1
  },
  "userdoc": {
    "kind": "user",
    "methods": {},
    "version": 1
  },
  "storageLayout": {
    "storage": [
      {
        "astId": 41659,
        "contract": "contracts/staking/StakedXlx.sol:StakedXlx",
        "label": "xlx",
        "offset": 0,
        "slot": "0",
        "type": "t_address"
      },
      {
        "astId": 41661,
        "contract": "contracts/staking/StakedXlx.sol:StakedXlx",
        "label": "xlxManager",
        "offset": 0,
        "slot": "1",
        "type": "t_contract(IXlxManager)19844"
      },
      {
        "astId": 41663,
        "contract": "contracts/staking/StakedXlx.sol:StakedXlx",
        "label": "stakedXlxTracker",
        "offset": 0,
        "slot": "2",
        "type": "t_address"
      },
      {
        "astId": 41665,
        "contract": "contracts/staking/StakedXlx.sol:StakedXlx",
        "label": "feeXlxTracker",
        "offset": 0,
        "slot": "3",
        "type": "t_address"
      },
      {
        "astId": 41671,
        "contract": "contracts/staking/StakedXlx.sol:StakedXlx",
        "label": "allowances",
        "offset": 0,
        "slot": "4",
        "type": "t_mapping(t_address,t_mapping(t_address,t_uint256))"
      }
    ],
    "types": {
      "t_address": {
        "encoding": "inplace",
        "label": "address",
        "numberOfBytes": "20"
      },
      "t_contract(IXlxManager)19844": {
        "encoding": "inplace",
        "label": "contract IXlxManager",
        "numberOfBytes": "20"
      },
      "t_mapping(t_address,t_mapping(t_address,t_uint256))": {
        "encoding": "mapping",
        "key": "t_address",
        "label": "mapping(address => mapping(address => uint256))",
        "numberOfBytes": "32",
        "value": "t_mapping(t_address,t_uint256)"
      },
      "t_mapping(t_address,t_uint256)": {
        "encoding": "mapping",
        "key": "t_address",
        "label": "mapping(address => uint256)",
        "numberOfBytes": "32",
        "value": "t_uint256"
      },
      "t_uint256": {
        "encoding": "inplace",
        "label": "uint256",
        "numberOfBytes": "32"
      }
    }
  }
}