{
  "address": "0xe7e88D0d95156D047e44dd6a4a0C1685225b415D",
  "abi": [
    {
      "inputs": [
        {
          "internalType": "address",
          "name": "_admin",
          "type": "address"
        },
        {
          "internalType": "uint256",
          "name": "_buffer",
          "type": "uint256"
        },
        {
          "internalType": "address",
          "name": "_tokenManager",
          "type": "address"
        },
        {
          "internalType": "address",
          "name": "_mintReceiver",
          "type": "address"
        },
        {
          "internalType": "address",
          "name": "_xlxManager",
          "type": "address"
        },
        {
          "internalType": "address",
          "name": "_rewardRouter",
          "type": "address"
        },
        {
          "internalType": "uint256",
          "name": "_maxTokenSupply",
          "type": "uint256"
        },
        {
          "internalType": "uint256",
          "name": "_marginFeeBasisPoints",
          "type": "uint256"
        },
        {
          "internalType": "uint256",
          "name": "_maxMarginFeeBasisPoints",
          "type": "uint256"
        }
      ],
      "stateMutability": "nonpayable",
      "type": "constructor"
    },
    {
      "anonymous": false,
      "inputs": [
        {
          "indexed": false,
          "internalType": "bytes32",
          "name": "action",
          "type": "bytes32"
        }
      ],
      "name": "ClearAction",
      "type": "event"
    },
    {
      "anonymous": false,
      "inputs": [
        {
          "indexed": false,
          "internalType": "address",
          "name": "token",
          "type": "address"
        },
        {
          "indexed": false,
          "internalType": "address",
          "name": "spender",
          "type": "address"
        },
        {
          "indexed": false,
          "internalType": "uint256",
          "name": "amount",
          "type": "uint256"
        },
        {
          "indexed": false,
          "internalType": "bytes32",
          "name": "action",
          "type": "bytes32"
        }
      ],
      "name": "SignalApprove",
      "type": "event"
    },
    {
      "anonymous": false,
      "inputs": [
        {
          "indexed": false,
          "internalType": "address",
          "name": "token",
          "type": "address"
        },
        {
          "indexed": false,
          "internalType": "address",
          "name": "receiver",
          "type": "address"
        },
        {
          "indexed": false,
          "internalType": "uint256",
          "name": "amount",
          "type": "uint256"
        },
        {
          "indexed": false,
          "internalType": "bytes32",
          "name": "action",
          "type": "bytes32"
        }
      ],
      "name": "SignalMint",
      "type": "event"
    },
    {
      "anonymous": false,
      "inputs": [
        {
          "indexed": false,
          "internalType": "bytes32",
          "name": "action",
          "type": "bytes32"
        }
      ],
      "name": "SignalPendingAction",
      "type": "event"
    },
    {
      "anonymous": false,
      "inputs": [
        {
          "indexed": false,
          "internalType": "address",
          "name": "vault",
          "type": "address"
        },
        {
          "indexed": false,
          "internalType": "address",
          "name": "token",
          "type": "address"
        },
        {
          "indexed": false,
          "internalType": "uint256",
          "name": "amount",
          "type": "uint256"
        }
      ],
      "name": "SignalRedeemUsdg",
      "type": "event"
    },
    {
      "anonymous": false,
      "inputs": [
        {
          "indexed": false,
          "internalType": "address",
          "name": "target",
          "type": "address"
        },
        {
          "indexed": false,
          "internalType": "address",
          "name": "gov",
          "type": "address"
        },
        {
          "indexed": false,
          "internalType": "bytes32",
          "name": "action",
          "type": "bytes32"
        }
      ],
      "name": "SignalSetGov",
      "type": "event"
    },
    {
      "anonymous": false,
      "inputs": [
        {
          "indexed": false,
          "internalType": "address",
          "name": "target",
          "type": "address"
        },
        {
          "indexed": false,
          "internalType": "address",
          "name": "handler",
          "type": "address"
        },
        {
          "indexed": false,
          "internalType": "bool",
          "name": "isActive",
          "type": "bool"
        },
        {
          "indexed": false,
          "internalType": "bytes32",
          "name": "action",
          "type": "bytes32"
        }
      ],
      "name": "SignalSetHandler",
      "type": "event"
    },
    {
      "anonymous": false,
      "inputs": [
        {
          "indexed": false,
          "internalType": "address",
          "name": "vault",
          "type": "address"
        },
        {
          "indexed": false,
          "internalType": "address",
          "name": "priceFeed",
          "type": "address"
        },
        {
          "indexed": false,
          "internalType": "bytes32",
          "name": "action",
          "type": "bytes32"
        }
      ],
      "name": "SignalSetPriceFeed",
      "type": "event"
    },
    {
      "anonymous": false,
      "inputs": [
        {
          "indexed": false,
          "internalType": "address",
          "name": "vault",
          "type": "address"
        },
        {
          "indexed": false,
          "internalType": "address",
          "name": "token",
          "type": "address"
        },
        {
          "indexed": false,
          "internalType": "uint256",
          "name": "tokenDecimals",
          "type": "uint256"
        },
        {
          "indexed": false,
          "internalType": "uint256",
          "name": "tokenWeight",
          "type": "uint256"
        },
        {
          "indexed": false,
          "internalType": "uint256",
          "name": "minProfitBps",
          "type": "uint256"
        },
        {
          "indexed": false,
          "internalType": "uint256",
          "name": "maxUsdgAmount",
          "type": "uint256"
        },
        {
          "indexed": false,
          "internalType": "bool",
          "name": "isStable",
          "type": "bool"
        },
        {
          "indexed": false,
          "internalType": "bool",
          "name": "isShortable",
          "type": "bool"
        }
      ],
      "name": "SignalVaultSetTokenConfig",
      "type": "event"
    },
    {
      "anonymous": false,
      "inputs": [
        {
          "indexed": false,
          "internalType": "address",
          "name": "target",
          "type": "address"
        },
        {
          "indexed": false,
          "internalType": "address",
          "name": "token",
          "type": "address"
        },
        {
          "indexed": false,
          "internalType": "address",
          "name": "receiver",
          "type": "address"
        },
        {
          "indexed": false,
          "internalType": "uint256",
          "name": "amount",
          "type": "uint256"
        },
        {
          "indexed": false,
          "internalType": "bytes32",
          "name": "action",
          "type": "bytes32"
        }
      ],
      "name": "SignalWithdrawToken",
      "type": "event"
    },
    {
      "inputs": [],
      "name": "MAX_BUFFER",
      "outputs": [
        {
          "internalType": "uint256",
          "name": "",
          "type": "uint256"
        }
      ],
      "stateMutability": "view",
      "type": "function"
    },
    {
      "inputs": [],
      "name": "MAX_FUNDING_RATE_FACTOR",
      "outputs": [
        {
          "internalType": "uint256",
          "name": "",
          "type": "uint256"
        }
      ],
      "stateMutability": "view",
      "type": "function"
    },
    {
      "inputs": [],
      "name": "MAX_LEVERAGE_VALIDATION",
      "outputs": [
        {
          "internalType": "uint256",
          "name": "",
          "type": "uint256"
        }
      ],
      "stateMutability": "view",
      "type": "function"
    },
    {
      "inputs": [],
      "name": "PRICE_PRECISION",
      "outputs": [
        {
          "internalType": "uint256",
          "name": "",
          "type": "uint256"
        }
      ],
      "stateMutability": "view",
      "type": "function"
    },
    {
      "inputs": [],
      "name": "admin",
      "outputs": [
        {
          "internalType": "address",
          "name": "",
          "type": "address"
        }
      ],
      "stateMutability": "view",
      "type": "function"
    },
    {
      "inputs": [
        {
          "internalType": "address",
          "name": "_token",
          "type": "address"
        },
        {
          "internalType": "address",
          "name": "_spender",
          "type": "address"
        },
        {
          "internalType": "uint256",
          "name": "_amount",
          "type": "uint256"
        }
      ],
      "name": "approve",
      "outputs": [],
      "stateMutability": "nonpayable",
      "type": "function"
    },
    {
      "inputs": [
        {
          "internalType": "address",
          "name": "_vester",
          "type": "address"
        },
        {
          "internalType": "address[]",
          "name": "_accounts",
          "type": "address[]"
        },
        {
          "internalType": "uint256[]",
          "name": "_amounts",
          "type": "uint256[]"
        }
      ],
      "name": "batchSetBonusRewards",
      "outputs": [],
      "stateMutability": "nonpayable",
      "type": "function"
    },
    {
      "inputs": [
        {
          "internalType": "address",
          "name": "_vault",
          "type": "address"
        },
        {
          "internalType": "address[]",
          "name": "_tokens",
          "type": "address[]"
        }
      ],
      "name": "batchWithdrawFees",
      "outputs": [],
      "stateMutability": "nonpayable",
      "type": "function"
    },
    {
      "inputs": [],
      "name": "buffer",
      "outputs": [
        {
          "internalType": "uint256",
          "name": "",
          "type": "uint256"
        }
      ],
      "stateMutability": "view",
      "type": "function"
    },
    {
      "inputs": [
        {
          "internalType": "bytes32",
          "name": "_action",
          "type": "bytes32"
        }
      ],
      "name": "cancelAction",
      "outputs": [],
      "stateMutability": "nonpayable",
      "type": "function"
    },
    {
      "inputs": [
        {
          "internalType": "address",
          "name": "_vault",
          "type": "address"
        }
      ],
      "name": "disableLeverage",
      "outputs": [],
      "stateMutability": "nonpayable",
      "type": "function"
    },
    {
      "inputs": [
        {
          "internalType": "address",
          "name": "_vault",
          "type": "address"
        }
      ],
      "name": "enableLeverage",
      "outputs": [],
      "stateMutability": "nonpayable",
      "type": "function"
    },
    {
      "inputs": [
        {
          "internalType": "address",
          "name": "_referralStorage",
          "type": "address"
        },
        {
          "internalType": "bytes32",
          "name": "_code",
          "type": "bytes32"
        },
        {
          "internalType": "address",
          "name": "_newAccount",
          "type": "address"
        }
      ],
      "name": "govSetCodeOwner",
      "outputs": [],
      "stateMutability": "nonpayable",
      "type": "function"
    },
    {
      "inputs": [],
      "name": "initRewardRouter",
      "outputs": [],
      "stateMutability": "nonpayable",
      "type": "function"
    },
    {
      "inputs": [],
      "name": "initXlxManager",
      "outputs": [],
      "stateMutability": "nonpayable",
      "type": "function"
    },
    {
      "inputs": [
        {
          "internalType": "address",
          "name": "",
          "type": "address"
        }
      ],
      "name": "isHandler",
      "outputs": [
        {
          "internalType": "bool",
          "name": "",
          "type": "bool"
        }
      ],
      "stateMutability": "view",
      "type": "function"
    },
    {
      "inputs": [
        {
          "internalType": "address",
          "name": "",
          "type": "address"
        }
      ],
      "name": "isKeeper",
      "outputs": [
        {
          "internalType": "bool",
          "name": "",
          "type": "bool"
        }
      ],
      "stateMutability": "view",
      "type": "function"
    },
    {
      "inputs": [],
      "name": "marginFeeBasisPoints",
      "outputs": [
        {
          "internalType": "uint256",
          "name": "",
          "type": "uint256"
        }
      ],
      "stateMutability": "view",
      "type": "function"
    },
    {
      "inputs": [],
      "name": "maxMarginFeeBasisPoints",
      "outputs": [
        {
          "internalType": "uint256",
          "name": "",
          "type": "uint256"
        }
      ],
      "stateMutability": "view",
      "type": "function"
    },
    {
      "inputs": [],
      "name": "maxTokenSupply",
      "outputs": [
        {
          "internalType": "uint256",
          "name": "",
          "type": "uint256"
        }
      ],
      "stateMutability": "view",
      "type": "function"
    },
    {
      "inputs": [],
      "name": "mintReceiver",
      "outputs": [
        {
          "internalType": "address",
          "name": "",
          "type": "address"
        }
      ],
      "stateMutability": "view",
      "type": "function"
    },
    {
      "inputs": [
        {
          "internalType": "bytes32",
          "name": "",
          "type": "bytes32"
        }
      ],
      "name": "pendingActions",
      "outputs": [
        {
          "internalType": "uint256",
          "name": "",
          "type": "uint256"
        }
      ],
      "stateMutability": "view",
      "type": "function"
    },
    {
      "inputs": [
        {
          "internalType": "address",
          "name": "_token",
          "type": "address"
        },
        {
          "internalType": "address",
          "name": "_receiver",
          "type": "address"
        },
        {
          "internalType": "uint256",
          "name": "_amount",
          "type": "uint256"
        }
      ],
      "name": "processMint",
      "outputs": [],
      "stateMutability": "nonpayable",
      "type": "function"
    },
    {
      "inputs": [
        {
          "internalType": "address",
          "name": "_vault",
          "type": "address"
        },
        {
          "internalType": "address",
          "name": "_token",
          "type": "address"
        },
        {
          "internalType": "uint256",
          "name": "_amount",
          "type": "uint256"
        }
      ],
      "name": "redeemUsdg",
      "outputs": [],
      "stateMutability": "nonpayable",
      "type": "function"
    },
    {
      "inputs": [
        {
          "internalType": "address",
          "name": "_token",
          "type": "address"
        },
        {
          "internalType": "address",
          "name": "_account",
          "type": "address"
        }
      ],
      "name": "removeAdmin",
      "outputs": [],
      "stateMutability": "nonpayable",
      "type": "function"
    },
    {
      "inputs": [],
      "name": "rewardRouter",
      "outputs": [
        {
          "internalType": "address",
          "name": "",
          "type": "address"
        }
      ],
      "stateMutability": "view",
      "type": "function"
    },
    {
      "inputs": [
        {
          "internalType": "address",
          "name": "_admin",
          "type": "address"
        }
      ],
      "name": "setAdmin",
      "outputs": [],
      "stateMutability": "nonpayable",
      "type": "function"
    },
    {
      "inputs": [
        {
          "internalType": "uint256",
          "name": "_buffer",
          "type": "uint256"
        }
      ],
      "name": "setBuffer",
      "outputs": [],
      "stateMutability": "nonpayable",
      "type": "function"
    },
    {
      "inputs": [
        {
          "internalType": "address",
          "name": "_handler",
          "type": "address"
        },
        {
          "internalType": "bool",
          "name": "_isActive",
          "type": "bool"
        }
      ],
      "name": "setContractHandler",
      "outputs": [],
      "stateMutability": "nonpayable",
      "type": "function"
    },
    {
      "inputs": [
        {
          "internalType": "address",
          "name": "_target",
          "type": "address"
        },
        {
          "internalType": "address",
          "name": "_admin",
          "type": "address"
        }
      ],
      "name": "setExternalAdmin",
      "outputs": [],
      "stateMutability": "nonpayable",
      "type": "function"
    },
    {
      "inputs": [
        {
          "internalType": "address",
          "name": "_vault",
          "type": "address"
        },
        {
          "internalType": "uint256",
          "name": "_taxBasisPoints",
          "type": "uint256"
        },
        {
          "internalType": "uint256",
          "name": "_stableTaxBasisPoints",
          "type": "uint256"
        },
        {
          "internalType": "uint256",
          "name": "_mintBurnFeeBasisPoints",
          "type": "uint256"
        },
        {
          "internalType": "uint256",
          "name": "_swapFeeBasisPoints",
          "type": "uint256"
        },
        {
          "internalType": "uint256",
          "name": "_stableSwapFeeBasisPoints",
          "type": "uint256"
        },
        {
          "internalType": "uint256",
          "name": "_marginFeeBasisPoints",
          "type": "uint256"
        },
        {
          "internalType": "uint256",
          "name": "_liquidationFeeUsd",
          "type": "uint256"
        },
        {
          "internalType": "uint256",
          "name": "_minProfitTime",
          "type": "uint256"
        },
        {
          "internalType": "bool",
          "name": "_hasDynamicFees",
          "type": "bool"
        }
      ],
      "name": "setFees",
      "outputs": [],
      "stateMutability": "nonpayable",
      "type": "function"
    },
    {
      "inputs": [
        {
          "internalType": "address",
          "name": "_vault",
          "type": "address"
        },
        {
          "internalType": "uint256",
          "name": "_fundingInterval",
          "type": "uint256"
        },
        {
          "internalType": "uint256",
          "name": "_fundingRateFactor",
          "type": "uint256"
        },
        {
          "internalType": "uint256",
          "name": "_stableFundingRateFactor",
          "type": "uint256"
        }
      ],
      "name": "setFundingRate",
      "outputs": [],
      "stateMutability": "nonpayable",
      "type": "function"
    },
    {
      "inputs": [
        {
          "internalType": "address",
          "name": "_target",
          "type": "address"
        },
        {
          "internalType": "address",
          "name": "_gov",
          "type": "address"
        }
      ],
      "name": "setGov",
      "outputs": [],
      "stateMutability": "nonpayable",
      "type": "function"
    },
    {
      "inputs": [
        {
          "internalType": "address",
          "name": "_target",
          "type": "address"
        },
        {
          "internalType": "address",
          "name": "_handler",
          "type": "address"
        },
        {
          "internalType": "bool",
          "name": "_isActive",
          "type": "bool"
        }
      ],
      "name": "setHandler",
      "outputs": [],
      "stateMutability": "nonpayable",
      "type": "function"
    },
    {
      "inputs": [
        {
          "internalType": "address",
          "name": "_vault",
          "type": "address"
        },
        {
          "internalType": "bool",
          "name": "_inPrivateLiquidationMode",
          "type": "bool"
        }
      ],
      "name": "setInPrivateLiquidationMode",
      "outputs": [],
      "stateMutability": "nonpayable",
      "type": "function"
    },
    {
      "inputs": [
        {
          "internalType": "address",
          "name": "_token",
          "type": "address"
        },
        {
          "internalType": "bool",
          "name": "_inPrivateTransferMode",
          "type": "bool"
        }
      ],
      "name": "setInPrivateTransferMode",
      "outputs": [],
      "stateMutability": "nonpayable",
      "type": "function"
    },
    {
      "inputs": [
        {
          "internalType": "address",
          "name": "_vault",
          "type": "address"
        },
        {
          "internalType": "bool",
          "name": "_isLeverageEnabled",
          "type": "bool"
        }
      ],
      "name": "setIsLeverageEnabled",
      "outputs": [],
      "stateMutability": "nonpayable",
      "type": "function"
    },
    {
      "inputs": [
        {
          "internalType": "address",
          "name": "_vault",
          "type": "address"
        },
        {
          "internalType": "bool",
          "name": "_isSwapEnabled",
          "type": "bool"
        }
      ],
      "name": "setIsSwapEnabled",
      "outputs": [],
      "stateMutability": "nonpayable",
      "type": "function"
    },
    {
      "inputs": [
        {
          "internalType": "address",
          "name": "_keeper",
          "type": "address"
        },
        {
          "internalType": "bool",
          "name": "_isActive",
          "type": "bool"
        }
      ],
      "name": "setKeeper",
      "outputs": [],
      "stateMutability": "nonpayable",
      "type": "function"
    },
    {
      "inputs": [
        {
          "internalType": "address",
          "name": "_vault",
          "type": "address"
        },
        {
          "internalType": "address",
          "name": "_liquidator",
          "type": "address"
        },
        {
          "internalType": "bool",
          "name": "_isActive",
          "type": "bool"
        }
      ],
      "name": "setLiquidator",
      "outputs": [],
      "stateMutability": "nonpayable",
      "type": "function"
    },
    {
      "inputs": [
        {
          "internalType": "uint256",
          "name": "_marginFeeBasisPoints",
          "type": "uint256"
        },
        {
          "internalType": "uint256",
          "name": "_maxMarginFeeBasisPoints",
          "type": "uint256"
        }
      ],
      "name": "setMarginFeeBasisPoints",
      "outputs": [],
      "stateMutability": "nonpayable",
      "type": "function"
    },
    {
      "inputs": [
        {
          "internalType": "address",
          "name": "_vault",
          "type": "address"
        },
        {
          "internalType": "uint256",
          "name": "_maxGasPrice",
          "type": "uint256"
        }
      ],
      "name": "setMaxGasPrice",
      "outputs": [],
      "stateMutability": "nonpayable",
      "type": "function"
    },
    {
      "inputs": [
        {
          "internalType": "address",
          "name": "_vault",
          "type": "address"
        },
        {
          "internalType": "address",
          "name": "_token",
          "type": "address"
        },
        {
          "internalType": "uint256",
          "name": "_amount",
          "type": "uint256"
        }
      ],
      "name": "setMaxGlobalShortSize",
      "outputs": [],
      "stateMutability": "nonpayable",
      "type": "function"
    },
    {
      "inputs": [
        {
          "internalType": "address",
          "name": "_vault",
          "type": "address"
        },
        {
          "internalType": "uint256",
          "name": "_maxLeverage",
          "type": "uint256"
        }
      ],
      "name": "setMaxLeverage",
      "outputs": [],
      "stateMutability": "nonpayable",
      "type": "function"
    },
    {
      "inputs": [
        {
          "internalType": "address",
          "name": "_vault",
          "type": "address"
        },
        {
          "internalType": "address",
          "name": "_priceFeed",
          "type": "address"
        }
      ],
      "name": "setPriceFeed",
      "outputs": [],
      "stateMutability": "nonpayable",
      "type": "function"
    },
    {
      "inputs": [
        {
          "internalType": "address",
          "name": "_referralStorage",
          "type": "address"
        },
        {
          "internalType": "address",
          "name": "_referrer",
          "type": "address"
        },
        {
          "internalType": "uint256",
          "name": "_tierId",
          "type": "uint256"
        }
      ],
      "name": "setReferrerTier",
      "outputs": [],
      "stateMutability": "nonpayable",
      "type": "function"
    },
    {
      "inputs": [
        {
          "internalType": "uint256",
          "name": "_shortsTrackerAveragePriceWeight",
          "type": "uint256"
        }
      ],
      "name": "setShortsTrackerAveragePriceWeight",
      "outputs": [],
      "stateMutability": "nonpayable",
      "type": "function"
    },
    {
      "inputs": [
        {
          "internalType": "bool",
          "name": "_shouldToggleIsLeverageEnabled",
          "type": "bool"
        }
      ],
      "name": "setShouldToggleIsLeverageEnabled",
      "outputs": [],
      "stateMutability": "nonpayable",
      "type": "function"
    },
    {
      "inputs": [
        {
          "internalType": "address",
          "name": "_vault",
          "type": "address"
        },
        {
          "internalType": "uint256",
          "name": "_taxBasisPoints",
          "type": "uint256"
        },
        {
          "internalType": "uint256",
          "name": "_stableTaxBasisPoints",
          "type": "uint256"
        },
        {
          "internalType": "uint256",
          "name": "_mintBurnFeeBasisPoints",
          "type": "uint256"
        },
        {
          "internalType": "uint256",
          "name": "_swapFeeBasisPoints",
          "type": "uint256"
        },
        {
          "internalType": "uint256",
          "name": "_stableSwapFeeBasisPoints",
          "type": "uint256"
        }
      ],
      "name": "setSwapFees",
      "outputs": [],
      "stateMutability": "nonpayable",
      "type": "function"
    },
    {
      "inputs": [
        {
          "internalType": "address",
          "name": "_referralStorage",
          "type": "address"
        },
        {
          "internalType": "uint256",
          "name": "_tierId",
          "type": "uint256"
        },
        {
          "internalType": "uint256",
          "name": "_totalRebate",
          "type": "uint256"
        },
        {
          "internalType": "uint256",
          "name": "_discountShare",
          "type": "uint256"
        }
      ],
      "name": "setTier",
      "outputs": [],
      "stateMutability": "nonpayable",
      "type": "function"
    },
    {
      "inputs": [
        {
          "internalType": "address",
          "name": "_vault",
          "type": "address"
        },
        {
          "internalType": "address",
          "name": "_token",
          "type": "address"
        },
        {
          "internalType": "uint256",
          "name": "_tokenWeight",
          "type": "uint256"
        },
        {
          "internalType": "uint256",
          "name": "_minProfitBps",
          "type": "uint256"
        },
        {
          "internalType": "uint256",
          "name": "_maxUsdgAmount",
          "type": "uint256"
        },
        {
          "internalType": "uint256",
          "name": "_bufferAmount",
          "type": "uint256"
        },
        {
          "internalType": "uint256",
          "name": "_usdgAmount",
          "type": "uint256"
        }
      ],
      "name": "setTokenConfig",
      "outputs": [],
      "stateMutability": "nonpayable",
      "type": "function"
    },
    {
      "inputs": [
        {
          "internalType": "address",
          "name": "_vault",
          "type": "address"
        },
        {
          "internalType": "address[]",
          "name": "_tokens",
          "type": "address[]"
        },
        {
          "internalType": "uint256[]",
          "name": "_usdgAmounts",
          "type": "uint256[]"
        }
      ],
      "name": "setUsdgAmounts",
      "outputs": [],
      "stateMutability": "nonpayable",
      "type": "function"
    },
    {
      "inputs": [
        {
          "internalType": "address",
          "name": "_vault",
          "type": "address"
        },
        {
          "internalType": "contract IVaultUtils",
          "name": "_vaultUtils",
          "type": "address"
        }
      ],
      "name": "setVaultUtils",
      "outputs": [],
      "stateMutability": "nonpayable",
      "type": "function"
    },
    {
      "inputs": [
        {
          "internalType": "uint256",
          "name": "_cooldownDuration",
          "type": "uint256"
        }
      ],
      "name": "setXlxCooldownDuration",
      "outputs": [],
      "stateMutability": "nonpayable",
      "type": "function"
    },
    {
      "inputs": [],
      "name": "shouldToggleIsLeverageEnabled",
      "outputs": [
        {
          "internalType": "bool",
          "name": "",
          "type": "bool"
        }
      ],
      "stateMutability": "view",
      "type": "function"
    },
    {
      "inputs": [
        {
          "internalType": "address",
          "name": "_token",
          "type": "address"
        },
        {
          "internalType": "address",
          "name": "_spender",
          "type": "address"
        },
        {
          "internalType": "uint256",
          "name": "_amount",
          "type": "uint256"
        }
      ],
      "name": "signalApprove",
      "outputs": [],
      "stateMutability": "nonpayable",
      "type": "function"
    },
    {
      "inputs": [
        {
          "internalType": "address",
          "name": "_token",
          "type": "address"
        },
        {
          "internalType": "address",
          "name": "_receiver",
          "type": "address"
        },
        {
          "internalType": "uint256",
          "name": "_amount",
          "type": "uint256"
        }
      ],
      "name": "signalMint",
      "outputs": [],
      "stateMutability": "nonpayable",
      "type": "function"
    },
    {
      "inputs": [
        {
          "internalType": "address",
          "name": "_vault",
          "type": "address"
        },
        {
          "internalType": "address",
          "name": "_token",
          "type": "address"
        },
        {
          "internalType": "uint256",
          "name": "_amount",
          "type": "uint256"
        }
      ],
      "name": "signalRedeemUsdg",
      "outputs": [],
      "stateMutability": "nonpayable",
      "type": "function"
    },
    {
      "inputs": [
        {
          "internalType": "address",
          "name": "_target",
          "type": "address"
        },
        {
          "internalType": "address",
          "name": "_gov",
          "type": "address"
        }
      ],
      "name": "signalSetGov",
      "outputs": [],
      "stateMutability": "nonpayable",
      "type": "function"
    },
    {
      "inputs": [
        {
          "internalType": "address",
          "name": "_target",
          "type": "address"
        },
        {
          "internalType": "address",
          "name": "_handler",
          "type": "address"
        },
        {
          "internalType": "bool",
          "name": "_isActive",
          "type": "bool"
        }
      ],
      "name": "signalSetHandler",
      "outputs": [],
      "stateMutability": "nonpayable",
      "type": "function"
    },
    {
      "inputs": [
        {
          "internalType": "address",
          "name": "_vault",
          "type": "address"
        },
        {
          "internalType": "address",
          "name": "_priceFeed",
          "type": "address"
        }
      ],
      "name": "signalSetPriceFeed",
      "outputs": [],
      "stateMutability": "nonpayable",
      "type": "function"
    },
    {
      "inputs": [
        {
          "internalType": "address",
          "name": "_vault",
          "type": "address"
        },
        {
          "internalType": "address",
          "name": "_token",
          "type": "address"
        },
        {
          "internalType": "uint256",
          "name": "_tokenDecimals",
          "type": "uint256"
        },
        {
          "internalType": "uint256",
          "name": "_tokenWeight",
          "type": "uint256"
        },
        {
          "internalType": "uint256",
          "name": "_minProfitBps",
          "type": "uint256"
        },
        {
          "internalType": "uint256",
          "name": "_maxUsdgAmount",
          "type": "uint256"
        },
        {
          "internalType": "bool",
          "name": "_isStable",
          "type": "bool"
        },
        {
          "internalType": "bool",
          "name": "_isShortable",
          "type": "bool"
        }
      ],
      "name": "signalVaultSetTokenConfig",
      "outputs": [],
      "stateMutability": "nonpayable",
      "type": "function"
    },
    {
      "inputs": [
        {
          "internalType": "address",
          "name": "_target",
          "type": "address"
        },
        {
          "internalType": "address",
          "name": "_token",
          "type": "address"
        },
        {
          "internalType": "address",
          "name": "_receiver",
          "type": "address"
        },
        {
          "internalType": "uint256",
          "name": "_amount",
          "type": "uint256"
        }
      ],
      "name": "signalWithdrawToken",
      "outputs": [],
      "stateMutability": "nonpayable",
      "type": "function"
    },
    {
      "inputs": [],
      "name": "tokenManager",
      "outputs": [
        {
          "internalType": "address",
          "name": "",
          "type": "address"
        }
      ],
      "stateMutability": "view",
      "type": "function"
    },
    {
      "inputs": [
        {
          "internalType": "address",
          "name": "_sender",
          "type": "address"
        },
        {
          "internalType": "address",
          "name": "_token",
          "type": "address"
        },
        {
          "internalType": "uint256",
          "name": "_amount",
          "type": "uint256"
        }
      ],
      "name": "transferIn",
      "outputs": [],
      "stateMutability": "nonpayable",
      "type": "function"
    },
    {
      "inputs": [
        {
          "internalType": "uint256",
          "name": "usdgAmount",
          "type": "uint256"
        }
      ],
      "name": "updateUsdgSupply",
      "outputs": [],
      "stateMutability": "nonpayable",
      "type": "function"
    },
    {
      "inputs": [
        {
          "internalType": "address",
          "name": "_vault",
          "type": "address"
        },
        {
          "internalType": "address",
          "name": "_token",
          "type": "address"
        },
        {
          "internalType": "uint256",
          "name": "_tokenDecimals",
          "type": "uint256"
        },
        {
          "internalType": "uint256",
          "name": "_tokenWeight",
          "type": "uint256"
        },
        {
          "internalType": "uint256",
          "name": "_minProfitBps",
          "type": "uint256"
        },
        {
          "internalType": "uint256",
          "name": "_maxUsdgAmount",
          "type": "uint256"
        },
        {
          "internalType": "bool",
          "name": "_isStable",
          "type": "bool"
        },
        {
          "internalType": "bool",
          "name": "_isShortable",
          "type": "bool"
        }
      ],
      "name": "vaultSetTokenConfig",
      "outputs": [],
      "stateMutability": "nonpayable",
      "type": "function"
    },
    {
      "inputs": [
        {
          "internalType": "address",
          "name": "_vault",
          "type": "address"
        },
        {
          "internalType": "address",
          "name": "_token",
          "type": "address"
        },
        {
          "internalType": "address",
          "name": "_receiver",
          "type": "address"
        }
      ],
      "name": "withdrawFees",
      "outputs": [],
      "stateMutability": "nonpayable",
      "type": "function"
    },
    {
      "inputs": [
        {
          "internalType": "address",
          "name": "_target",
          "type": "address"
        },
        {
          "internalType": "address",
          "name": "_token",
          "type": "address"
        },
        {
          "internalType": "address",
          "name": "_receiver",
          "type": "address"
        },
        {
          "internalType": "uint256",
          "name": "_amount",
          "type": "uint256"
        }
      ],
      "name": "withdrawToken",
      "outputs": [],
      "stateMutability": "nonpayable",
      "type": "function"
    },
    {
      "inputs": [],
      "name": "xlxManager",
      "outputs": [
        {
          "internalType": "address",
          "name": "",
          "type": "address"
        }
      ],
      "stateMutability": "view",
      "type": "function"
    }
  ],
  "transactionHash": "0xbe005a0c394072c03c883b131755b716df76a23606587c509d062e16b30269c8",
  "args": [
    "0xf5CA36c9873d61Bc28C117BD470981Ef6647A685",
    86400,
    "0xF216D8e6b1Bce02C02913804d9683b6e8be188A9",
    "0xF216D8e6b1Bce02C02913804d9683b6e8be188A9",
    "0x20F9cabD6f4cda67A89ACD670778b1bC4A2E0513",
    "0x85F1D5E0d7b275e765e2D7Ed318DcC0DF40093c2",
    "13250000000000000000000000",
    10,
    500
  ],
  "numDeployments": 1,
  "solcInputHash": "a5c1ec6ed734a994a4a7c4ed9bed389b",
  "bytecode": "0x60806040523480156200001157600080fd5b5060405162005d5538038062005d5583398181016040526101208110156200003857600080fd5b508051602082015160408301516060840151608085015160a086015160c087015160e08801516101009098015196979596949593949293919290919062069780881115620000cd576040805162461bcd60e51b815260206004820152601960248201527f54696d656c6f636b3a20696e76616c6964205f62756666657200000000000000604482015290519081900360640190fd5b600180546001600160a01b03199081166001600160a01b039b8c16179091556000988955600280548216988b1698909817909755600380548816968a169690961790955560048054871694891694909417909355600580549095169190961617909255600693909355600755600891909155615c059081906200015090396000f3fe608060405234801561001057600080fd5b50600436106103515760003560e01c806376e11286116101c0578063c142940a11610100578063c142940a14610d6a578063c7bb26a014610da0578063cd2b123014610da8578063d1b9e85314610dd6578063d202a16e14610e04578063d3c87bbb14610e21578063da76231614610e47578063db1c844114610e8b578063dce6e18d14610ee4578063df3a66d914610f1a578063e1f21c6714610f50578063e21b459114610f86578063e30569e514610fa9578063e3cbeb0f14610fc6578063e4652f491461101f578063e8ae227114611055578063edaafe2014611106578063f851a4401461110e57610351565b806376e1128614610a2d578063781cc3d314610a5b5780637b6f775a14610a7857806380894d6214610aa457806381774b3d14610ad257806386803c7214610aef5780638a39735a14610b1d5780638bf22c4614610b255780638e34c98f14610b5157806395082d2514610b70578063996a7a1e14610b78578063996e2bc914610ba65780639b53ad2214610bae578063adc7ea3714610ce1578063afd14deb14610cfe578063bc476dfd14610d06578063bc8a8ab914610d3457610351565b8063318bc68911610296578063318bc689146107a957806334561c22146107b157806346ea87af146107b957806347de43e2146107df5780634cd23f3b146108175780634f5f6b5e1461085357806350f7c2041461087057806351a6de0d14610878578063540f3668146108a657806355818294146108ae57806355ef1395146108e65780635a3bb9891461091457806361d075691461091c5780636ba42aaa146109245780636d63c1d01461094a5780636e5227d414610970578063704b6c02146109d157806370ac0a93146109f757610351565b80629a698e146103565780630191c2371461048b57806309cc9a08146104c15780630e0dc426146104f75780630e9587f3146105455780631154e8081461057d578063117cf204146105b5578063185051c1146105e3578063204bbc541461061157806321754d9e1461064757806321bd059214610683578063227f03eb146106b157806323aaad12146106e957806324ccbe3014610705578063268959e51461073d5780632a709b141461076b5780632ba3725a1461078f575b600080fd5b6104896004803603606081101561036c57600080fd5b6001600160a01b038235169190810190604081016020820135600160201b81111561039657600080fd5b8201836020820111156103a857600080fd5b803590602001918460208302840111600160201b831117156103c957600080fd5b9190808060200260200160405190810160405280939291908181526020018383602002808284376000920191909152509295949360208101935035915050600160201b81111561041857600080fd5b82018360208201111561042a57600080fd5b803590602001918460208302840111600160201b8311171561044b57600080fd5b919080806020026020016040519081016040528093929190818152602001838360200280828437600092019190915250929550611116945050505050565b005b610489600480360360608110156104a157600080fd5b506001600160a01b03813581169160208101359091169060400135611372565b610489600480360360608110156104d757600080fd5b506001600160a01b03813581169160208101359091169060400135611470565b610489600480360360e081101561050d57600080fd5b506001600160a01b03813581169160208101359091169060408101359060608101359060808101359060a08101359060c0013561156f565b6104896004803603606081101561055b57600080fd5b506001600160a01b0381358116916020810135821691604090910135166119e8565b6104896004803603606081101561059357600080fd5b506001600160a01b038135811691602081013590911690604001351515611ac6565b610489600480360360408110156105cb57600080fd5b506001600160a01b0381351690602001351515611bf7565b610489600480360360408110156105f957600080fd5b506001600160a01b0381351690602001351515611cdc565b6104896004803603606081101561062757600080fd5b506001600160a01b03813581169160208101359160409091013516611d54565b6104896004803603608081101561065d57600080fd5b506001600160a01b03813581169160208101358216916040820135169060600135611e2c565b6104896004803603604081101561069957600080fd5b506001600160a01b0381351690602001351515611f77565b610489600480360360808110156106c757600080fd5b506001600160a01b03813516906020810135906040810135906060013561200c565b6106f1612161565b604080519115158252519081900360200190f35b6104896004803603606081101561071b57600080fd5b506001600160a01b03813581169160208101359091169060400135151561216a565b6104896004803603604081101561075357600080fd5b506001600160a01b0381358116916020013516612273565b61077361230f565b604080516001600160a01b039092168252519081900360200190f35b61079761231e565b60408051918252519081900360200190f35b610797612325565b61048961232b565b6106f1600480360360208110156107cf57600080fd5b50356001600160a01b03166125ef565b610489600480360360608110156107f557600080fd5b506001600160a01b038135811691602081013590911690604001351515612604565b6104896004803603608081101561082d57600080fd5b506001600160a01b038135811691602081013582169160408201351690606001356126aa565b6104896004803603602081101561086957600080fd5b50356127c5565b610797612871565b6104896004803603604081101561088e57600080fd5b506001600160a01b0381358116916020013516612877565b610773612971565b610489600480360360808110156108c457600080fd5b506001600160a01b038135169060208101359060408101359060600135612980565b610489600480360360408110156108fc57600080fd5b506001600160a01b0381358116916020013516612a57565b610773612b4d565b610797612b5c565b6106f16004803603602081101561093a57600080fd5b50356001600160a01b0316612b63565b6104896004803603602081101561096057600080fd5b50356001600160a01b0316612b78565b610489600480360361014081101561098757600080fd5b506001600160a01b038135169060208101359060408101359060608101359060808101359060a08101359060c08101359060e081013590610100810135906101200135151561302e565b610489600480360360208110156109e757600080fd5b50356001600160a01b031661315e565b61048960048036036060811015610a0d57600080fd5b506001600160a01b038135811691602081013590911690604001356131cd565b61048960048036036040811015610a4357600080fd5b506001600160a01b03813581169160200135166135cb565b61048960048036036020811015610a7157600080fd5b50356136ca565b61048960048036036040811015610a8e57600080fd5b506001600160a01b038135169060200135613723565b61048960048036036040811015610aba57600080fd5b506001600160a01b038135811691602001351661380d565b61048960048036036020811015610ae857600080fd5b5035613903565b61048960048036036040811015610b0557600080fd5b506001600160a01b0381351690602001351515613c34565b610797613cc9565b61048960048036036040811015610b3b57600080fd5b506001600160a01b038135169060200135613cce565b61048960048036036020811015610b6757600080fd5b50351515613db1565b610797613e2b565b61048960048036036040811015610b8e57600080fd5b506001600160a01b0381358116916020013516613e3b565b610797613f2c565b61048960048036036060811015610bc457600080fd5b6001600160a01b038235169190810190604081016020820135600160201b811115610bee57600080fd5b820183602082011115610c0057600080fd5b803590602001918460208302840111600160201b83111715610c2157600080fd5b9190808060200260200160405190810160405280939291908181526020018383602002808284376000920191909152509295949360208101935035915050600160201b811115610c7057600080fd5b820183602082011115610c8257600080fd5b803590602001918460208302840111600160201b83111715610ca357600080fd5b919080806020026020016040519081016040528093929190818152602001838360200280828437600092019190915250929550613f32945050505050565b61048960048036036020811015610cf757600080fd5b5035614066565b61048961414c565b61048960048036036040811015610d1c57600080fd5b506001600160a01b03813581169160200135166143a2565b61048960048036036060811015610d4a57600080fd5b506001600160a01b0381358116916020810135909116906040013561443e565b61048960048036036060811015610d8057600080fd5b506001600160a01b038135811691602081013590911690604001356144fa565b6107736145d2565b61048960048036036040811015610dbe57600080fd5b506001600160a01b03813516906020013515156145e1565b61048960048036036040811015610dec57600080fd5b506001600160a01b0381351690602001351515614690565b61048960048036036020811015610e1a57600080fd5b5035614708565b61048960048036036020811015610e3757600080fd5b50356001600160a01b03166147e0565b610489600480360360c0811015610e5d57600080fd5b506001600160a01b038135169060208101359060408101359060608101359060808101359060a00135614b1a565b6104896004803603610100811015610ea257600080fd5b506001600160a01b03813581169160208101359091169060408101359060608101359060808101359060a08101359060c081013515159060e001351515614d8b565b61048960048036036060811015610efa57600080fd5b506001600160a01b03813581169160208101359091169060400135614ee8565b61048960048036036060811015610f3057600080fd5b506001600160a01b03813581169160208101359091169060400135614fea565b61048960048036036060811015610f6657600080fd5b506001600160a01b0381358116916020810135909116906040013561508e565b61048960048036036040811015610f9c57600080fd5b50803590602001356151c3565b61079760048036036020811015610fbf57600080fd5b5035615235565b6104896004803603610100811015610fdd57600080fd5b506001600160a01b03813581169160208101359091169060408101359060608101359060808101359060a08101359060c081013515159060e001351515615247565b6104896004803603606081101561103557600080fd5b506001600160a01b038135811691602081013590911690604001356153cc565b6104896004803603604081101561106b57600080fd5b6001600160a01b038235169190810190604081016020820135600160201b81111561109557600080fd5b8201836020820111156110a757600080fd5b803590602001918460208302840111600160201b831117156110c857600080fd5b919080806020026020016040519081016040528093929190818152602001838360200280828437600092019190915250929550615472945050505050565b6107976155ae565b6107736155b4565b6001546001600160a01b031633148061113e5750336000908152600b602052604090205460ff165b806111585750336000908152600c602052604090205460ff165b611197576040805162461bcd60e51b81526020600482015260136024820152600080516020615b8e833981519152604482015290519081900360640190fd5b80518251146111e9576040805162461bcd60e51b815260206004820152601960248201527854696d656c6f636b3a20696e76616c6964206c656e6774687360381b604482015290519081900360640190fd5b60408051639cb7de4b60e01b81523060048201526001602482015290516001600160a01b03851691639cb7de4b91604480830192600092919082900301818387803b15801561123757600080fd5b505af115801561124b573d6000803e3d6000fd5b5050505060005b825181101561130857600083828151811061126957fe5b60200260200101519050600083838151811061128157fe5b60200260200101519050856001600160a01b03166341f2272483836040518363ffffffff1660e01b815260040180836001600160a01b0316815260200182815260200192505050600060405180830381600087803b1580156112e257600080fd5b505af11580156112f6573d6000803e3d6000fd5b50506001909401935061125292505050565b5060408051639cb7de4b60e01b815230600482015260006024820181905291516001600160a01b03861692639cb7de4b926044808201939182900301818387803b15801561135557600080fd5b505af1158015611369573d6000803e3d6000fd5b50505050505050565b6001546001600160a01b031633146113bf576040805162461bcd60e51b81526020600482015260136024820152600080516020615b8e833981519152604482015290519081900360640190fd5b604080516972656465656d5573646760b01b6020808301919091526001600160601b0319606087811b8216602a85015286901b16603e83015260528083018590528351808403909101815260729092019092528051910120611420816155c3565b604080516001600160a01b0380871682528516602082015280820184905290517fe6bd553b6ef21f3a22ebc877b3aaedc30fe15826b8156d4e8c8b373ebf11d78b9181900360600190a150505050565b6001546001600160a01b031633146114bd576040805162461bcd60e51b81526020600482015260136024820152600080516020615b8e833981519152604482015290519081900360640190fd5b60408051631b5a5b9d60e21b6020808301919091526001600160601b0319606087811b8216602485015286901b166038830152604c80830185905283518084039091018152606c9092019092528051910120611518816155c3565b604080516001600160a01b038087168252851660208201528082018490526060810183905290517f23d37bec99db82564427c9bbfe48ad7434bccf413a40fd357fb838c90a0d68289181900360800190a150505050565b6001546001600160a01b03163314806115975750336000908152600b602052604090205460ff165b806115b15750336000908152600c602052604090205460ff165b6115f0576040805162461bcd60e51b81526020600482015260136024820152600080516020615b8e833981519152604482015290519081900360640190fd5b6101f4841115611647576040805162461bcd60e51b815260206004820152601f60248201527f54696d656c6f636b3a20696e76616c6964205f6d696e50726f66697442707300604482015290519081900360640190fd5b60408051630daf9c2160e41b81526001600160a01b0388811660048301529151899283169163daf9c210916024808301926020929190829003018186803b15801561169157600080fd5b505afa1580156116a5573d6000803e3d6000fd5b505050506040513d60208110156116bb57600080fd5b50516116f85760405162461bcd60e51b8152600401808060200182810382526023815260200180615b236023913960400191505060405180910390fd5b6000816001600160a01b0316638ee573ac896040518263ffffffff1660e01b815260040180826001600160a01b0316815260200191505060206040518083038186803b15801561174757600080fd5b505afa15801561175b573d6000803e3d6000fd5b505050506040513d602081101561177157600080fd5b5051604080516342b60b0360e01b81526001600160a01b038b811660048301529151929350600092918516916342b60b0391602480820192602092909190829003018186803b1580156117c357600080fd5b505afa1580156117d7573d6000803e3d6000fd5b505050506040513d60208110156117ed57600080fd5b50516040805163db3555fb60e01b81526001600160a01b038c8116600483015291519293506000929186169163db3555fb91602480820192602092909190829003018186803b15801561183f57600080fd5b505afa158015611853573d6000803e3d6000fd5b505050506040513d602081101561186957600080fd5b505160408051633c5a6e3560e01b81526001600160a01b038d8116600483015260248201879052604482018d9052606482018c9052608482018b905285151560a483015283151560c48301529151929350908d1691633c5a6e359160e48082019260009290919082900301818387803b1580156118e557600080fd5b505af11580156118f9573d6000803e3d6000fd5b505050508a6001600160a01b0316638585f4d28b886040518363ffffffff1660e01b815260040180836001600160a01b0316815260200182815260200192505050600060405180830381600087803b15801561195457600080fd5b505af1158015611968573d6000803e3d6000fd5b505050508a6001600160a01b031663d66b000d8b876040518363ffffffff1660e01b815260040180836001600160a01b0316815260200182815260200192505050600060405180830381600087803b1580156119c357600080fd5b505af11580156119d7573d6000803e3d6000fd5b505050505050505050505050505050565b6001546001600160a01b03163314611a35576040805162461bcd60e51b81526020600482015260136024820152600080516020615b8e833981519152604482015290519081900360640190fd5b826001600160a01b031663f255527883836040518363ffffffff1660e01b815260040180836001600160a01b03168152602001826001600160a01b0316815260200192505050602060405180830381600087803b158015611a9557600080fd5b505af1158015611aa9573d6000803e3d6000fd5b505050506040513d6020811015611abf57600080fd5b5050505050565b6001546001600160a01b03163314611b13576040805162461bcd60e51b81526020600482015260136024820152600080516020615b8e833981519152604482015290519081900360640190fd5b604080516939b2ba2430b7323632b960b11b6020808301919091526001600160601b0319606087811b8216602a85015286901b16603e83015283151560f81b60528301528251603381840301815260539092019092528051910120611b7781615667565b611b8081615713565b836001600160a01b0316639cb7de4b84846040518363ffffffff1660e01b815260040180836001600160a01b03168152602001821515815260200192505050600060405180830381600087803b158015611bd957600080fd5b505af1158015611bed573d6000803e3d6000fd5b5050505050505050565b6001546001600160a01b0316331480611c1f5750336000908152600b602052604090205460ff165b80611c395750336000908152600c602052604090205460ff165b611c78576040805162461bcd60e51b81526020600482015260136024820152600080516020615b8e833981519152604482015290519081900360640190fd5b816001600160a01b03166330455ede826040518263ffffffff1660e01b8152600401808215158152602001915050600060405180830381600087803b158015611cc057600080fd5b505af1158015611cd4573d6000803e3d6000fd5b505050505050565b6001546001600160a01b03163314611d29576040805162461bcd60e51b81526020600482015260136024820152600080516020615b8e833981519152604482015290519081900360640190fd5b6001600160a01b03919091166000908152600b60205260409020805460ff1916911515919091179055565b6001546001600160a01b0316331480611d7c5750336000908152600b602052604090205460ff165b80611d965750336000908152600c602052604090205460ff165b611dd5576040805162461bcd60e51b81526020600482015260136024820152600080516020615b8e833981519152604482015290519081900360640190fd5b826001600160a01b031663dfcfa25083836040518363ffffffff1660e01b815260040180838152602001826001600160a01b0316815260200192505050600060405180830381600087803b15801561135557600080fd5b6001546001600160a01b03163314611e79576040805162461bcd60e51b81526020600482015260136024820152600080516020615b8e833981519152604482015290519081900360640190fd5b604080516c3bb4ba34323930bbaa37b5b2b760991b6020808301919091526001600160601b0319606088811b8216602d85015287811b8216604185015286901b16605583015260698083018590528351808403909101815260899092019092528051910120611ee781615667565b611ef081615713565b846001600160a01b03166301e336678585856040518463ffffffff1660e01b815260040180846001600160a01b03168152602001836001600160a01b031681526020018281526020019350505050600060405180830381600087803b158015611f5857600080fd5b505af1158015611f6c573d6000803e3d6000fd5b505050505050505050565b6001546001600160a01b03163314611fc4576040805162461bcd60e51b81526020600482015260136024820152600080516020615b8e833981519152604482015290519081900360640190fd5b816001600160a01b031663f07bbf77826040518263ffffffff1660e01b8152600401808215158152602001915050600060405180830381600087803b158015611cc057600080fd5b6001546001600160a01b03163314806120345750336000908152600b602052604090205460ff165b8061204e5750336000908152600c602052604090205460ff165b61208d576040805162461bcd60e51b81526020600482015260136024820152600080516020615b8e833981519152604482015290519081900360640190fd5b60c882106120cc5760405162461bcd60e51b8152600401808060200182810382526024815260200180615aba6024913960400191505060405180910390fd5b60c8811061210b5760405162461bcd60e51b815260040180806020018281038252602a815260200180615bcf602a913960400191505060405180910390fd5b836001600160a01b0316638a27d4688484846040518463ffffffff1660e01b8152600401808481526020018381526020018281526020019350505050600060405180830381600087803b158015611bd957600080fd5b60095460ff1681565b6001546001600160a01b031633146121b7576040805162461bcd60e51b81526020600482015260136024820152600080516020615b8e833981519152604482015290519081900360640190fd5b604080516939b2ba2430b7323632b960b11b6020808301919091526001600160601b0319606087811b8216602a85015286901b16603e83015283151560f81b6052830152825160338184030181526053909201909252805191012061221b816155c3565b604080516001600160a01b03808716825285166020820152831515818301526060810183905290517f1929c4e13b0dbbad7856b9ce1fc9dca98c7bf7cedd56e22c04dd60ad1d34fe4b9181900360800190a150505050565b6001546001600160a01b031633146122c0576040805162461bcd60e51b81526020600482015260136024820152600080516020615b8e833981519152604482015290519081900360640190fd5b816001600160a01b0316631785f53c826040518263ffffffff1660e01b815260040180826001600160a01b03168152602001915050600060405180830381600087803b158015611cc057600080fd5b6002546001600160a01b031681565b6207a12081565b60075481565b6001546001600160a01b03163314612378576040805162461bcd60e51b81526020600482015260136024820152600080516020615b8e833981519152604482015290519081900360640190fd5b6004805460408051630c7dfbe760e31b815290516001600160a01b039092169260009284926363efdf389281810192602092909190829003018186803b1580156123c157600080fd5b505afa1580156123d5573d6000803e3d6000fd5b505050506040513d60208110156123eb57600080fd5b5051600480546040805163cf456ae760e01b81526001600160a01b0392831693810193909352600160248401525192935083169163cf456ae79160448082019260009290919082900301818387803b15801561244657600080fd5b505af115801561245a573d6000803e3d6000fd5b505050506000826001600160a01b031663f5b91b7b6040518163ffffffff1660e01b815260040160206040518083038186803b15801561249957600080fd5b505afa1580156124ad573d6000803e3d6000fd5b505050506040513d60208110156124c357600080fd5b505160048054604080516312b5ad0160e11b81526001600160a01b03928316938101939093525192935083169163256b5a029160248082019260009290919082900301818387803b15801561251757600080fd5b505af115801561252b573d6000803e3d6000fd5b505050506000836001600160a01b031663fbfa77cf6040518163ffffffff1660e01b815260040160206040518083038186803b15801561256a57600080fd5b505afa15801561257e573d6000803e3d6000fd5b505050506040513d602081101561259457600080fd5b505160048054604080516352f4877760e11b81526001600160a01b0392831693810193909352600160248401525192935083169163a5e90eee9160448082019260009290919082900301818387803b158015611bd957600080fd5b600b6020526000908152604090205460ff1681565b6001546001600160a01b03163314612651576040805162461bcd60e51b81526020600482015260136024820152600080516020615b8e833981519152604482015290519081900360640190fd5b826001600160a01b0316634453a37483836040518363ffffffff1660e01b815260040180836001600160a01b03168152602001821515815260200192505050600060405180830381600087803b15801561135557600080fd5b6001546001600160a01b031633146126f7576040805162461bcd60e51b81526020600482015260136024820152600080516020615b8e833981519152604482015290519081900360640190fd5b604080516c3bb4ba34323930bbaa37b5b2b760991b6020808301919091526001600160601b0319606088811b8216602d85015287811b8216604185015286901b16605583015260698083018590528351808403909101815260899092019092528051910120612765816155c3565b604080516001600160a01b0380881682528087166020830152851681830152606081018490526080810183905290517f9ed7b0f07a9eed51079fab67f6d0f141f167f5b17fdb5a23282280e15fcafed39181900360a00190a15050505050565b6001546001600160a01b03163314612812576040805162461bcd60e51b81526020600482015260136024820152600080516020615b8e833981519152604482015290519081900360640190fd5b60048054604080516327afb5af60e11b8152928301849052516001600160a01b0390911691634f5f6b5e91602480830192600092919082900301818387803b15801561285d57600080fd5b505af1158015611abf573d6000803e3d6000fd5b60065481565b6001546001600160a01b031633146128c4576040805162461bcd60e51b81526020600482015260136024820152600080516020615b8e833981519152604482015290519081900360640190fd5b604080516539b2ba23b7bb60d11b6020808301919091526001600160601b0319606086811b8216602685015285901b16603a8301528251602e818403018152604e909201909252805191012061291981615667565b61292281615713565b826001600160a01b031663cfad57a2836040518263ffffffff1660e01b815260040180826001600160a01b03168152602001915050600060405180830381600087803b15801561135557600080fd5b6004546001600160a01b031681565b6001546001600160a01b03163314806129a85750336000908152600b602052604090205460ff165b806129c25750336000908152600c602052604090205460ff165b612a01576040805162461bcd60e51b81526020600482015260136024820152600080516020615b8e833981519152604482015290519081900360640190fd5b836001600160a01b031663836a01878484846040518463ffffffff1660e01b8152600401808481526020018381526020018281526020019350505050600060405180830381600087803b158015611bd957600080fd5b6001546001600160a01b03163314612aa4576040805162461bcd60e51b81526020600482015260136024820152600080516020615b8e833981519152604482015290519081900360640190fd5b6001600160a01b038216301415612afe576040805162461bcd60e51b8152602060048201526019602482015278151a5b595b1bd8dace881a5b9d985b1a590817dd185c99d95d603a1b604482015290519081900360640190fd5b816001600160a01b031663704b6c02826040518263ffffffff1660e01b815260040180826001600160a01b03168152602001915050600060405180830381600087803b158015611cc057600080fd5b6005546001600160a01b031681565b6206978081565b600c6020526000908152604090205460ff1681565b6001546001600160a01b0316331480612ba05750336000908152600b602052604090205460ff165b612bdf576040805162461bcd60e51b81526020600482015260136024820152600080516020615b8e833981519152604482015290519081900360640190fd5b600954819060ff1615612c4d5760408051637c2eb9f760e01b81526001600482015290516001600160a01b03831691637c2eb9f791602480830192600092919082900301818387803b158015612c3457600080fd5b505af1158015612c48573d6000803e3d6000fd5b505050505b806001600160a01b03166340eb3802826001600160a01b0316637a210a2b6040518163ffffffff1660e01b815260040160206040518083038186803b158015612c9557600080fd5b505afa158015612ca9573d6000803e3d6000fd5b505050506040513d6020811015612cbf57600080fd5b505160408051630875ab6160e11b815290516001600160a01b038616916310eb56c2916004808301926020929190829003018186803b158015612d0157600080fd5b505afa158015612d15573d6000803e3d6000fd5b505050506040513d6020811015612d2b57600080fd5b505160408051631351ecc160e21b815290516001600160a01b03871691634d47b304916004808301926020929190829003018186803b158015612d6d57600080fd5b505afa158015612d81573d6000803e3d6000fd5b505050506040513d6020811015612d9757600080fd5b50516040805163511791c960e11b815290516001600160a01b0388169163a22f2392916004808301926020929190829003018186803b158015612dd957600080fd5b505afa158015612ded573d6000803e3d6000fd5b505050506040513d6020811015612e0357600080fd5b50516040805163df73a26760e01b815290516001600160a01b0389169163df73a267916004808301926020929190829003018186803b158015612e4557600080fd5b505afa158015612e59573d6000803e3d6000fd5b505050506040513d6020811015612e6f57600080fd5b5051600754604080516305d349a560e21b815290516001600160a01b038b169163174d2694916004808301926020929190829003018186803b158015612eb457600080fd5b505afa158015612ec8573d6000803e3d6000fd5b505050506040513d6020811015612ede57600080fd5b50516040805163d9ac422560e01b815290516001600160a01b038c169163d9ac4225916004808301926020929190829003018186803b158015612f2057600080fd5b505afa158015612f34573d6000803e3d6000fd5b505050506040513d6020811015612f4a57600080fd5b505160408051639f392eb360e01b815290516001600160a01b038d1691639f392eb3916004808301926020929190829003018186803b158015612f8c57600080fd5b505afa158015612fa0573d6000803e3d6000fd5b505050506040513d6020811015612fb657600080fd5b5051604080516001600160e01b031960e08d901b168152600481019a909a5260248a019890985260448901969096526064880194909452608487019290925260a486015260c485015260e484015215156101048301525161012480830192600092919082900301818387803b158015611cc057600080fd5b6001546001600160a01b03163314806130565750336000908152600b602052604090205460ff165b806130705750336000908152600c602052604090205460ff165b6130af576040805162461bcd60e51b81526020600482015260136024820152600080516020615b8e833981519152604482015290519081900360640190fd5b6007849055600854604080516320759c0160e11b8152600481018c9052602481018b9052604481018a9052606481018990526084810188905260a481019290925260c4820185905260e48201849052821515610104830152516001600160a01b038c16916340eb38029161012480830192600092919082900301818387803b15801561313a57600080fd5b505af115801561314e573d6000803e3d6000fd5b5050505050505050505050505050565b6002546001600160a01b031633146131ab576040805162461bcd60e51b81526020600482015260136024820152600080516020615b8e833981519152604482015290519081900360640190fd5b600180546001600160a01b0319166001600160a01b0392909216919091179055565b6001546001600160a01b0316331461321a576040805162461bcd60e51b81526020600482015260136024820152600080516020615b8e833981519152604482015290519081900360640190fd5b604080516972656465656d5573646760b01b6020808301919091526001600160601b0319606087811b8216602a85015286901b16603e8301526052808301859052835180840390910181526072909201909252805191012061327b81615667565b61328481615713565b6000846001600160a01b031663f5b91b7b6040518163ffffffff1660e01b815260040160206040518083038186803b1580156132bf57600080fd5b505afa1580156132d3573d6000803e3d6000fd5b505050506040513d60208110156132e957600080fd5b5051604080516352f4877760e11b81523060048201526001602482015290519192506001600160a01b0387169163a5e90eee9160448082019260009290919082900301818387803b15801561333d57600080fd5b505af1158015613351573d6000803e3d6000fd5b5050604080516312b5ad0160e11b815230600482015290516001600160a01b038516935063256b5a029250602480830192600092919082900301818387803b15801561339c57600080fd5b505af11580156133b0573d6000803e3d6000fd5b5050604080516340c10f1960e01b81523060048201526024810187905290516001600160a01b03851693506340c10f199250604480830192600092919082900301818387803b15801561340257600080fd5b505af1158015613416573d6000803e3d6000fd5b50505050806001600160a01b031663a9059cbb86856040518363ffffffff1660e01b815260040180836001600160a01b0316815260200182815260200192505050602060405180830381600087803b15801561347157600080fd5b505af1158015613485573d6000803e3d6000fd5b505050506040513d602081101561349b57600080fd5b505060035460408051630711e61960e41b81526001600160a01b038781166004830152928316602482015290519187169163711e6190916044808201926020929091908290030181600087803b1580156134f457600080fd5b505af1158015613508573d6000803e3d6000fd5b505050506040513d602081101561351e57600080fd5b5050604080516352f4877760e11b815230600482015260006024820181905291516001600160a01b0388169263a5e90eee926044808201939182900301818387803b15801561356c57600080fd5b505af1158015613580573d6000803e3d6000fd5b50506040805163ceb68c2360e01b815230600482015290516001600160a01b038516935063ceb68c239250602480830192600092919082900301818387803b158015611f5857600080fd5b6001546001600160a01b03163314613618576040805162461bcd60e51b81526020600482015260136024820152600080516020615b8e833981519152604482015290519081900360640190fd5b604080516b1cd95d141c9a58d95199595960a21b6020808301919091526001600160601b0319606086811b8216602c85015285901b1682840152825160348184030181526054909201909252805191012061367281615667565b61367b81615713565b826001600160a01b031663724e78da836040518263ffffffff1660e01b815260040180826001600160a01b03168152602001915050600060405180830381600087803b15801561135557600080fd5b6001546001600160a01b03163314613717576040805162461bcd60e51b81526020600482015260136024820152600080516020615b8e833981519152604482015290519081900360640190fd5b61372081615713565b50565b6001546001600160a01b03163314613770576040805162461bcd60e51b81526020600482015260136024820152600080516020615b8e833981519152604482015290519081900360640190fd5b6207a12081116137c7576040805162461bcd60e51b815260206004820152601e60248201527f54696d656c6f636b3a20696e76616c6964205f6d61784c657665726167650000604482015290519081900360640190fd5b816001600160a01b031663d3127e63826040518263ffffffff1660e01b815260040180828152602001915050600060405180830381600087803b158015611cc057600080fd5b6001546001600160a01b0316331461385a576040805162461bcd60e51b81526020600482015260136024820152600080516020615b8e833981519152604482015290519081900360640190fd5b604080516b1cd95d141c9a58d95199595960a21b6020808301919091526001600160601b0319606086811b8216602c85015285901b168284015282516034818403018152605490920190925280519101206138b4816155c3565b604080516001600160a01b0380861682528416602082015280820183905290517fb878dd4b5762f4118ad54995be907dd2bcd915d942e4ac75580fba9b4ee4727f9181900360600190a1505050565b6001546001600160a01b031633148061392b5750336000908152600b602052604090205460ff165b806139455750336000908152600c602052604090205460ff165b613984576040805162461bcd60e51b81526020600482015260136024820152600080516020615b8e833981519152604482015290519081900360640190fd5b6000600460009054906101000a90046001600160a01b03166001600160a01b031663f5b91b7b6040518163ffffffff1660e01b815260040160206040518083038186803b1580156139d457600080fd5b505afa1580156139e8573d6000803e3d6000fd5b505050506040513d60208110156139fe57600080fd5b505160048054604080516370a0823160e01b81526001600160a01b039283169381019390935251929350600092908416916370a08231916024808301926020929190829003018186803b158015613a5457600080fd5b505afa158015613a68573d6000803e3d6000fd5b505050506040513d6020811015613a7e57600080fd5b5051604080516312b5ad0160e11b815230600482015290519192506001600160a01b0384169163256b5a029160248082019260009290919082900301818387803b158015613acb57600080fd5b505af1158015613adf573d6000803e3d6000fd5b5050505080831115613b6e576000613af784836157b8565b60048054604080516340c10f1960e01b81526001600160a01b039283169381019390935260248301849052519293508516916340c10f199160448082019260009290919082900301818387803b158015613b5057600080fd5b505af1158015613b64573d6000803e3d6000fd5b5050505050613bed565b6000613b7a82856157b8565b6004805460408051632770a7eb60e21b81526001600160a01b03928316938101939093526024830184905251929350851691639dc29fac9160448082019260009290919082900301818387803b158015613bd357600080fd5b505af1158015613be7573d6000803e3d6000fd5b50505050505b6040805163ceb68c2360e01b815230600482015290516001600160a01b0384169163ceb68c2391602480830192600092919082900301818387803b15801561135557600080fd5b6001546001600160a01b03163314613c81576040805162461bcd60e51b81526020600482015260136024820152600080516020615b8e833981519152604482015290519081900360640190fd5b816001600160a01b0316635a47a1a7826040518263ffffffff1660e01b8152600401808215158152602001915050600060405180830381600087803b158015611cc057600080fd5b60c881565b6001546001600160a01b03163314613d1b576040805162461bcd60e51b81526020600482015260136024820152600080516020615b8e833981519152604482015290519081900360640190fd5b64012a05f2008111613d6b576040805162461bcd60e51b8152602060048201526014602482015273496e76616c6964205f6d6178476173507269636560601b604482015290519081900360640190fd5b816001600160a01b031663d2fa635e826040518263ffffffff1660e01b815260040180828152602001915050600060405180830381600087803b158015611cc057600080fd5b6001546001600160a01b0316331480613dd95750336000908152600b602052604090205460ff165b613e18576040805162461bcd60e51b81526020600482015260136024820152600080516020615b8e833981519152604482015290519081900360640190fd5b6009805460ff1916911515919091179055565b68327cb2734119d3b7a9601e1b81565b6001546001600160a01b03163314613e88576040805162461bcd60e51b81526020600482015260136024820152600080516020615b8e833981519152604482015290519081900360640190fd5b604080516539b2ba23b7bb60d11b6020808301919091526001600160601b0319606086811b8216602685015285901b16603a8301528251602e818403018152604e9092019092528051910120613edd816155c3565b604080516001600160a01b0380861682528416602082015280820183905290517f2701a94fd55a560e291f3c54d36580040670d6fde558a77a75d619e38139f7139181900360600190a1505050565b60085481565b6001546001600160a01b0316331480613f5a5750336000908152600b602052604090205460ff165b80613f745750336000908152600c602052604090205460ff165b613fb3576040805162461bcd60e51b81526020600482015260136024820152600080516020615b8e833981519152604482015290519081900360640190fd5b60005b825181101561406057836001600160a01b031663d66b000d848381518110613fda57fe5b6020026020010151848481518110613fee57fe5b60200260200101516040518363ffffffff1660e01b815260040180836001600160a01b0316815260200182815260200192505050600060405180830381600087803b15801561403c57600080fd5b505af1158015614050573d6000803e3d6000fd5b505060019092019150613fb69050565b50505050565b6001546001600160a01b031633146140b3576040805162461bcd60e51b81526020600482015260136024820152600080516020615b8e833981519152604482015290519081900360640190fd5b62069780811115614107576040805162461bcd60e51b81526020600482015260196024820152782a34b6b2b637b1b59d1034b73b30b634b2102fb13ab33332b960391b604482015290519081900360640190fd5b60005481116141475760405162461bcd60e51b8152600401808060200182810382526024815260200180615b6a6024913960400191505060405180910390fd5b600055565b6001546001600160a01b03163314614199576040805162461bcd60e51b81526020600482015260136024820152600080516020615b8e833981519152604482015290519081900360640190fd5b6005546040805163f91c9e9f60e01b815290516001600160a01b0390921691829163f91c9e9f916004808301926020929190829003018186803b1580156141df57600080fd5b505afa1580156141f3573d6000803e3d6000fd5b505050506040513d602081101561420957600080fd5b505160055460408051639cb7de4b60e01b81526001600160a01b0392831660048201526001602482015290519190921691639cb7de4b91604480830192600092919082900301818387803b15801561426057600080fd5b505af1158015614274573d6000803e3d6000fd5b50505050806001600160a01b0316637e8daa236040518163ffffffff1660e01b815260040160206040518083038186803b1580156142b157600080fd5b505afa1580156142c5573d6000803e3d6000fd5b505050506040513d60208110156142db57600080fd5b505160055460408051639cb7de4b60e01b81526001600160a01b0392831660048201526001602482015290519190921691639cb7de4b91604480830192600092919082900301818387803b15801561433257600080fd5b505af1158015614346573d6000803e3d6000fd5b50506004805460055460408051639cb7de4b60e01b81526001600160a01b0392831694810194909452600160248501525191169350639cb7de4b9250604480830192600092919082900301818387803b15801561285d57600080fd5b6001546001600160a01b031633146143ef576040805162461bcd60e51b81526020600482015260136024820152600080516020615b8e833981519152604482015290519081900360640190fd5b816001600160a01b03166371089f4d826040518263ffffffff1660e01b815260040180826001600160a01b03168152602001915050600060405180830381600087803b158015611cc057600080fd5b6001546001600160a01b0316331461448b576040805162461bcd60e51b81526020600482015260136024820152600080516020615b8e833981519152604482015290519081900360640190fd5b60408051631b5a5b9d60e21b6020808301919091526001600160601b0319606087811b8216602485015286901b166038830152604c80830185905283518084039091018152606c90920190925280519101206144e681615667565b6144ef81615713565b614060848484615801565b6001546001600160a01b03163314806145225750336000908152600b602052604090205460ff165b8061453c5750336000908152600c602052604090205460ff165b61457b576040805162461bcd60e51b81526020600482015260136024820152600080516020615b8e833981519152604482015290519081900360640190fd5b826001600160a01b0316633fb8b32383836040518363ffffffff1660e01b815260040180836001600160a01b0316815260200182815260200192505050600060405180830381600087803b15801561135557600080fd5b6003546001600160a01b031681565b6001546001600160a01b03163314806146095750336000908152600b602052604090205460ff165b614648576040805162461bcd60e51b81526020600482015260136024820152600080516020615b8e833981519152604482015290519081900360640190fd5b816001600160a01b0316637c2eb9f7826040518263ffffffff1660e01b8152600401808215158152602001915050600060405180830381600087803b158015611cc057600080fd5b6001546001600160a01b031633146146dd576040805162461bcd60e51b81526020600482015260136024820152600080516020615b8e833981519152604482015290519081900360640190fd5b6001600160a01b03919091166000908152600c60205260409020805460ff1916911515919091179055565b6001546001600160a01b03163314614755576040805162461bcd60e51b81526020600482015260136024820152600080516020615b8e833981519152604482015290519081900360640190fd5b611c2081106147955760405162461bcd60e51b8152600401808060200182810382526023815260200180615ade6023913960400191505060405180910390fd5b600480546040805163966be07560e01b8152928301849052516001600160a01b039091169163966be07591602480830192600092919082900301818387803b15801561285d57600080fd5b6001546001600160a01b03163314806148085750336000908152600b602052604090205460ff165b614847576040805162461bcd60e51b81526020600482015260136024820152600080516020615b8e833981519152604482015290519081900360640190fd5b600954819060ff16156148b35760408051637c2eb9f760e01b815260006004820181905291516001600160a01b03841692637c2eb9f7926024808201939182900301818387803b15801561489a57600080fd5b505af11580156148ae573d6000803e3d6000fd5b505050505b806001600160a01b03166340eb3802826001600160a01b0316637a210a2b6040518163ffffffff1660e01b815260040160206040518083038186803b1580156148fb57600080fd5b505afa15801561490f573d6000803e3d6000fd5b505050506040513d602081101561492557600080fd5b505160408051630875ab6160e11b815290516001600160a01b038616916310eb56c2916004808301926020929190829003018186803b15801561496757600080fd5b505afa15801561497b573d6000803e3d6000fd5b505050506040513d602081101561499157600080fd5b505160408051631351ecc160e21b815290516001600160a01b03871691634d47b304916004808301926020929190829003018186803b1580156149d357600080fd5b505afa1580156149e7573d6000803e3d6000fd5b505050506040513d60208110156149fd57600080fd5b50516040805163511791c960e11b815290516001600160a01b0388169163a22f2392916004808301926020929190829003018186803b158015614a3f57600080fd5b505afa158015614a53573d6000803e3d6000fd5b505050506040513d6020811015614a6957600080fd5b50516040805163df73a26760e01b815290516001600160a01b0389169163df73a267916004808301926020929190829003018186803b158015614aab57600080fd5b505afa158015614abf573d6000803e3d6000fd5b505050506040513d6020811015614ad557600080fd5b5051600854604080516305d349a560e21b815290516001600160a01b038b169163174d2694916004808301926020929190829003018186803b158015612eb457600080fd5b6001546001600160a01b0316331480614b425750336000908152600b602052604090205460ff165b80614b5c5750336000908152600c602052604090205460ff165b614b9b576040805162461bcd60e51b81526020600482015260136024820152600080516020615b8e833981519152604482015290519081900360640190fd5b6000869050806001600160a01b03166340eb38028787878787600854886001600160a01b031663174d26946040518163ffffffff1660e01b815260040160206040518083038186803b158015614bf057600080fd5b505afa158015614c04573d6000803e3d6000fd5b505050506040513d6020811015614c1a57600080fd5b50516040805163d9ac422560e01b815290516001600160a01b038c169163d9ac4225916004808301926020929190829003018186803b158015614c5c57600080fd5b505afa158015614c70573d6000803e3d6000fd5b505050506040513d6020811015614c8657600080fd5b505160408051639f392eb360e01b815290516001600160a01b038d1691639f392eb3916004808301926020929190829003018186803b158015614cc857600080fd5b505afa158015614cdc573d6000803e3d6000fd5b505050506040513d6020811015614cf257600080fd5b5051604080516001600160e01b031960e08d901b168152600481019a909a5260248a019890985260448901969096526064880194909452608487019290925260a486015260c485015260e484015215156101048301525161012480830192600092919082900301818387803b158015614d6a57600080fd5b505af1158015614d7e573d6000803e3d6000fd5b5050505050505050505050565b6001546001600160a01b03163314614dd8576040805162461bcd60e51b81526020600482015260136024820152600080516020615b8e833981519152604482015290519081900360640190fd5b60408051727661756c74536574546f6b656e436f6e66696760681b6020808301919091526001600160601b031960608c811b821660338501528b901b166047830152605b8201899052607b8201889052609b820187905260bb820186905284151560f890811b60db840152841515901b60dc830152825160bd81840301815260dd9092019092528051910120614e6d816155c3565b604080516001600160a01b03808c1682528a166020820152808201899052606081018890526080810187905260a0810186905284151560c082015283151560e082015290517f3510e9d8245371c6c1061c33781ce16bd0eafa03cd3d0781865036520af4c743918190036101000190a1505050505050505050565b6001546001600160a01b03163314614f35576040805162461bcd60e51b81526020600482015260136024820152600080516020615b8e833981519152604482015290519081900360640190fd5b6040805166617070726f766560c81b6020808301919091526001600160601b0319606087811b8216602785015286901b16603b830152604f80830185905283518084039091018152606f9092019092528051910120614f93816155c3565b604080516001600160a01b038087168252851660208201528082018490526060810183905290517f6af9d86ba7407a934e941ed8ae5f779369a88fe8ba2cd1c204185d6f8a8287fd9181900360800190a150505050565b6001546001600160a01b03163314615037576040805162461bcd60e51b81526020600482015260136024820152600080516020615b8e833981519152604482015290519081900360640190fd5b826001600160a01b031663efa10a6e83836040518363ffffffff1660e01b815260040180836001600160a01b0316815260200182815260200192505050600060405180830381600087803b15801561135557600080fd5b6001546001600160a01b031633146150db576040805162461bcd60e51b81526020600482015260136024820152600080516020615b8e833981519152604482015290519081900360640190fd5b6040805166617070726f766560c81b6020808301919091526001600160601b0319606087811b8216602785015286901b16603b830152604f80830185905283518084039091018152606f909201909252805191012061513981615667565b61514281615713565b836001600160a01b031663095ea7b384846040518363ffffffff1660e01b815260040180836001600160a01b0316815260200182815260200192505050602060405180830381600087803b15801561519957600080fd5b505af11580156151ad573d6000803e3d6000fd5b505050506040513d6020811015611cd457600080fd5b6001546001600160a01b03163314806151eb5750336000908152600b602052604090205460ff165b61522a576040805162461bcd60e51b81526020600482015260136024820152600080516020615b8e833981519152604482015290519081900360640190fd5b600791909155600855565b600a6020526000908152604090205481565b6001546001600160a01b03163314615294576040805162461bcd60e51b81526020600482015260136024820152600080516020615b8e833981519152604482015290519081900360640190fd5b60408051727661756c74536574546f6b656e436f6e66696760681b6020808301919091526001600160601b031960608c811b821660338501528b901b166047830152605b8201899052607b8201889052609b820187905260bb820186905284151560f890811b60db840152841515901b60dc830152825160bd81840301815260dd909201909252805191012061532981615667565b61533281615713565b60408051633c5a6e3560e01b81526001600160a01b038a81166004830152602482018a905260448201899052606482018890526084820187905285151560a483015284151560c48301529151918b1691633c5a6e359160e48082019260009290919082900301818387803b1580156153a957600080fd5b505af11580156153bd573d6000803e3d6000fd5b50505050505050505050505050565b6001546001600160a01b03163314615419576040805162461bcd60e51b81526020600482015260136024820152600080516020615b8e833981519152604482015290519081900360640190fd5b604080516323b872dd60e01b81526001600160a01b038581166004830152306024830152604482018490529151918416916323b872dd916064808201926020929091908290030181600087803b158015611a9557600080fd5b6001546001600160a01b031633148061549a5750336000908152600b602052604090205460ff165b806154b45750336000908152600c602052604090205460ff165b6154f3576040805162461bcd60e51b81526020600482015260136024820152600080516020615b8e833981519152604482015290519081900360640190fd5b60005b81518110156155a957826001600160a01b031663f255527883838151811061551a57fe5b602090810291909101810151600154604080516001600160e01b031960e087901b1681526001600160a01b03938416600482015292909116602483015251604480830193928290030181600087803b15801561557557600080fd5b505af1158015615589573d6000803e3d6000fd5b505050506040513d602081101561559f57600080fd5b50506001016154f6565b505050565b60005481565b6001546001600160a01b031681565b6000818152600a60205260409020541561560e5760405162461bcd60e51b8152600401808060200182810382526022815260200180615b016022913960400191505060405180910390fd5b60005461561c9042906159ca565b6000828152600a602090815260409182902092909255805183815290517f5fb9c0ecf7b4a28c4c480212e868f9da7f373a2ed4d23498b0be6aadf35242fb929181900390910190a150565b6000818152600a60205260409020546156c7576040805162461bcd60e51b815260206004820152601e60248201527f54696d656c6f636b3a20616374696f6e206e6f74207369676e616c6c65640000604482015290519081900360640190fd5b6000818152600a602052604090205442116137205760405162461bcd60e51b8152600401808060200182810382526024815260200180615b466024913960400191505060405180910390fd5b6000818152600a602052604090205461576f576040805162461bcd60e51b81526020600482015260196024820152782a34b6b2b637b1b59d1034b73b30b634b2102fb0b1ba34b7b760391b604482015290519081900360640190fd5b6000818152600a6020908152604080832092909255815183815291517f194ed6dd5e37e2acc44a19455c3f208c4831ee695fe362d9c4ef2d316bc53aec9281900390910190a150565b60006157fa83836040518060400160405280601e81526020017f536166654d6174683a207375627472616374696f6e206f766572666c6f770000815250615a22565b9392505050565b6040805163cf456ae760e01b815230600482015260016024820152905184916001600160a01b0383169163cf456ae79160448082019260009290919082900301818387803b15801561585257600080fd5b505af1158015615866573d6000803e3d6000fd5b50505050806001600160a01b03166340c10f1984846040518363ffffffff1660e01b815260040180836001600160a01b0316815260200182815260200192505050600060405180830381600087803b1580156158c157600080fd5b505af11580156158d5573d6000803e3d6000fd5b50505050600654846001600160a01b03166318160ddd6040518163ffffffff1660e01b815260040160206040518083038186803b15801561591557600080fd5b505afa158015615929573d6000803e3d6000fd5b505050506040513d602081101561593f57600080fd5b5051111561597e5760405162461bcd60e51b8152600401808060200182810382526021815260200180615bae6021913960400191505060405180910390fd5b6040805163cf456ae760e01b815230600482015260006024820181905291516001600160a01b0384169263cf456ae7926044808201939182900301818387803b158015611bd957600080fd5b6000828201838110156157fa576040805162461bcd60e51b815260206004820152601b60248201527a536166654d6174683a206164646974696f6e206f766572666c6f7760281b604482015290519081900360640190fd5b60008184841115615ab15760405162461bcd60e51b81526004018080602001828103825283818151815260200191508051906020019080838360005b83811015615a76578181015183820152602001615a5e565b50505050905090810190601f168015615aa35780820380516001836020036101000a031916815260200191505b509250505060405180910390fd5b50505090039056fe54696d656c6f636b3a20696e76616c6964205f66756e64696e6752617465466163746f7254696d656c6f636b3a20696e76616c6964205f636f6f6c646f776e4475726174696f6e54696d656c6f636b3a20616374696f6e20616c7265616479207369676e616c6c656454696d656c6f636b3a20746f6b656e206e6f74207965742077686974656c697374656454696d656c6f636b3a20616374696f6e2074696d65206e6f74207965742070617373656454696d656c6f636b3a206275666665722063616e6e6f742062652064656372656173656454696d656c6f636b3a20666f7262696464656e0000000000000000000000000054696d656c6f636b3a206d6178546f6b656e537570706c7920657863656564656454696d656c6f636b3a20696e76616c6964205f737461626c6546756e64696e6752617465466163746f72a164736f6c634300060c000a",
  "devdoc": {
    "kind": "dev",
    "methods": {},
    "version": 1
  },
  "userdoc": {
    "kind": "user",
    "methods": {},
    "version": 1
  },
  "storageLayout": {
    "storage": [
      {
        "astId": 31592,
        "contract": "contracts/peripherals/Timelock.sol:Timelock",
        "label": "buffer",
        "offset": 0,
        "slot": "0",
        "type": "t_uint256"
      },
      {
        "astId": 31594,
        "contract": "contracts/peripherals/Timelock.sol:Timelock",
        "label": "admin",
        "offset": 0,
        "slot": "1",
        "type": "t_address"
      },
      {
        "astId": 31596,
        "contract": "contracts/peripherals/Timelock.sol:Timelock",
        "label": "tokenManager",
        "offset": 0,
        "slot": "2",
        "type": "t_address"
      },
      {
        "astId": 31598,
        "contract": "contracts/peripherals/Timelock.sol:Timelock",
        "label": "mintReceiver",
        "offset": 0,
        "slot": "3",
        "type": "t_address"
      },
      {
        "astId": 31600,
        "contract": "contracts/peripherals/Timelock.sol:Timelock",
        "label": "xlxManager",
        "offset": 0,
        "slot": "4",
        "type": "t_address"
      },
      {
        "astId": 31602,
        "contract": "contracts/peripherals/Timelock.sol:Timelock",
        "label": "rewardRouter",
        "offset": 0,
        "slot": "5",
        "type": "t_address"
      },
      {
        "astId": 31604,
        "contract": "contracts/peripherals/Timelock.sol:Timelock",
        "label": "maxTokenSupply",
        "offset": 0,
        "slot": "6",
        "type": "t_uint256"
      },
      {
        "astId": 31606,
        "contract": "contracts/peripherals/Timelock.sol:Timelock",
        "label": "marginFeeBasisPoints",
        "offset": 0,
        "slot": "7",
        "type": "t_uint256"
      },
      {
        "astId": 31608,
        "contract": "contracts/peripherals/Timelock.sol:Timelock",
        "label": "maxMarginFeeBasisPoints",
        "offset": 0,
        "slot": "8",
        "type": "t_uint256"
      },
      {
        "astId": 31610,
        "contract": "contracts/peripherals/Timelock.sol:Timelock",
        "label": "shouldToggleIsLeverageEnabled",
        "offset": 0,
        "slot": "9",
        "type": "t_bool"
      },
      {
        "astId": 31614,
        "contract": "contracts/peripherals/Timelock.sol:Timelock",
        "label": "pendingActions",
        "offset": 0,
        "slot": "10",
        "type": "t_mapping(t_bytes32,t_uint256)"
      },
      {
        "astId": 31618,
        "contract": "contracts/peripherals/Timelock.sol:Timelock",
        "label": "isHandler",
        "offset": 0,
        "slot": "11",
        "type": "t_mapping(t_address,t_bool)"
      },
      {
        "astId": 31622,
        "contract": "contracts/peripherals/Timelock.sol:Timelock",
        "label": "isKeeper",
        "offset": 0,
        "slot": "12",
        "type": "t_mapping(t_address,t_bool)"
      }
    ],
    "types": {
      "t_address": {
        "encoding": "inplace",
        "label": "address",
        "numberOfBytes": "20"
      },
      "t_bool": {
        "encoding": "inplace",
        "label": "bool",
        "numberOfBytes": "1"
      },
      "t_bytes32": {
        "encoding": "inplace",
        "label": "bytes32",
        "numberOfBytes": "32"
      },
      "t_mapping(t_address,t_bool)": {
        "encoding": "mapping",
        "key": "t_address",
        "label": "mapping(address => bool)",
        "numberOfBytes": "32",
        "value": "t_bool"
      },
      "t_mapping(t_bytes32,t_uint256)": {
        "encoding": "mapping",
        "key": "t_bytes32",
        "label": "mapping(bytes32 => uint256)",
        "numberOfBytes": "32",
        "value": "t_uint256"
      },
      "t_uint256": {
        "encoding": "inplace",
        "label": "uint256",
        "numberOfBytes": "32"
      }
    }
  }
}