{
  "address": "0x2D91f3755E286a1c9d9ddfE33a0974da61D10E2a",
  "abi": [
    {
      "inputs": [
        {
          "internalType": "address",
          "name": "_vault",
          "type": "address"
        }
      ],
      "stateMutability": "nonpayable",
      "type": "constructor"
    },
    {
      "anonymous": false,
      "inputs": [
        {
          "indexed": true,
          "internalType": "address",
          "name": "owner",
          "type": "address"
        },
        {
          "indexed": true,
          "internalType": "address",
          "name": "spender",
          "type": "address"
        },
        {
          "indexed": false,
          "internalType": "uint256",
          "name": "value",
          "type": "uint256"
        }
      ],
      "name": "Approval",
      "type": "event"
    },
    {
      "anonymous": false,
      "inputs": [
        {
          "indexed": true,
          "internalType": "address",
          "name": "from",
          "type": "address"
        },
        {
          "indexed": true,
          "internalType": "address",
          "name": "to",
          "type": "address"
        },
        {
          "indexed": false,
          "internalType": "uint256",
          "name": "value",
          "type": "uint256"
        }
      ],
      "name": "Transfer",
      "type": "event"
    },
    {
      "inputs": [
        {
          "internalType": "address",
          "name": "_account",
          "type": "address"
        }
      ],
      "name": "addAdmin",
      "outputs": [],
      "stateMutability": "nonpayable",
      "type": "function"
    },
    {
      "inputs": [
        {
          "internalType": "address",
          "name": "_account",
          "type": "address"
        }
      ],
      "name": "addNonStakingAccount",
      "outputs": [],
      "stateMutability": "nonpayable",
      "type": "function"
    },
    {
      "inputs": [
        {
          "internalType": "address",
          "name": "_vault",
          "type": "address"
        }
      ],
      "name": "addVault",
      "outputs": [],
      "stateMutability": "nonpayable",
      "type": "function"
    },
    {
      "inputs": [
        {
          "internalType": "address",
          "name": "",
          "type": "address"
        }
      ],
      "name": "admins",
      "outputs": [
        {
          "internalType": "bool",
          "name": "",
          "type": "bool"
        }
      ],
      "stateMutability": "view",
      "type": "function"
    },
    {
      "inputs": [
        {
          "internalType": "address",
          "name": "_owner",
          "type": "address"
        },
        {
          "internalType": "address",
          "name": "_spender",
          "type": "address"
        }
      ],
      "name": "allowance",
      "outputs": [
        {
          "internalType": "uint256",
          "name": "",
          "type": "uint256"
        }
      ],
      "stateMutability": "view",
      "type": "function"
    },
    {
      "inputs": [
        {
          "internalType": "address",
          "name": "",
          "type": "address"
        },
        {
          "internalType": "address",
          "name": "",
          "type": "address"
        }
      ],
      "name": "allowances",
      "outputs": [
        {
          "internalType": "uint256",
          "name": "",
          "type": "uint256"
        }
      ],
      "stateMutability": "view",
      "type": "function"
    },
    {
      "inputs": [
        {
          "internalType": "address",
          "name": "_spender",
          "type": "address"
        },
        {
          "internalType": "uint256",
          "name": "_amount",
          "type": "uint256"
        }
      ],
      "name": "approve",
      "outputs": [
        {
          "internalType": "bool",
          "name": "",
          "type": "bool"
        }
      ],
      "stateMutability": "nonpayable",
      "type": "function"
    },
    {
      "inputs": [
        {
          "internalType": "address",
          "name": "_account",
          "type": "address"
        }
      ],
      "name": "balanceOf",
      "outputs": [
        {
          "internalType": "uint256",
          "name": "",
          "type": "uint256"
        }
      ],
      "stateMutability": "view",
      "type": "function"
    },
    {
      "inputs": [
        {
          "internalType": "address",
          "name": "",
          "type": "address"
        }
      ],
      "name": "balances",
      "outputs": [
        {
          "internalType": "uint256",
          "name": "",
          "type": "uint256"
        }
      ],
      "stateMutability": "view",
      "type": "function"
    },
    {
      "inputs": [
        {
          "internalType": "address",
          "name": "_account",
          "type": "address"
        },
        {
          "internalType": "uint256",
          "name": "_amount",
          "type": "uint256"
        }
      ],
      "name": "burn",
      "outputs": [],
      "stateMutability": "nonpayable",
      "type": "function"
    },
    {
      "inputs": [
        {
          "internalType": "address",
          "name": "_receiver",
          "type": "address"
        }
      ],
      "name": "claim",
      "outputs": [],
      "stateMutability": "nonpayable",
      "type": "function"
    },
    {
      "inputs": [],
      "name": "decimals",
      "outputs": [
        {
          "internalType": "uint8",
          "name": "",
          "type": "uint8"
        }
      ],
      "stateMutability": "view",
      "type": "function"
    },
    {
      "inputs": [],
      "name": "gov",
      "outputs": [
        {
          "internalType": "address",
          "name": "",
          "type": "address"
        }
      ],
      "stateMutability": "view",
      "type": "function"
    },
    {
      "inputs": [],
      "name": "inWhitelistMode",
      "outputs": [
        {
          "internalType": "bool",
          "name": "",
          "type": "bool"
        }
      ],
      "stateMutability": "view",
      "type": "function"
    },
    {
      "inputs": [
        {
          "internalType": "address",
          "name": "_account",
          "type": "address"
        },
        {
          "internalType": "uint256",
          "name": "_amount",
          "type": "uint256"
        }
      ],
      "name": "mint",
      "outputs": [],
      "stateMutability": "nonpayable",
      "type": "function"
    },
    {
      "inputs": [],
      "name": "name",
      "outputs": [
        {
          "internalType": "string",
          "name": "",
          "type": "string"
        }
      ],
      "stateMutability": "view",
      "type": "function"
    },
    {
      "inputs": [
        {
          "internalType": "address",
          "name": "",
          "type": "address"
        }
      ],
      "name": "nonStakingAccounts",
      "outputs": [
        {
          "internalType": "bool",
          "name": "",
          "type": "bool"
        }
      ],
      "stateMutability": "view",
      "type": "function"
    },
    {
      "inputs": [],
      "name": "nonStakingSupply",
      "outputs": [
        {
          "internalType": "uint256",
          "name": "",
          "type": "uint256"
        }
      ],
      "stateMutability": "view",
      "type": "function"
    },
    {
      "inputs": [
        {
          "internalType": "address",
          "name": "_account",
          "type": "address"
        },
        {
          "internalType": "address",
          "name": "_receiver",
          "type": "address"
        }
      ],
      "name": "recoverClaim",
      "outputs": [],
      "stateMutability": "nonpayable",
      "type": "function"
    },
    {
      "inputs": [
        {
          "internalType": "address",
          "name": "_account",
          "type": "address"
        }
      ],
      "name": "removeAdmin",
      "outputs": [],
      "stateMutability": "nonpayable",
      "type": "function"
    },
    {
      "inputs": [
        {
          "internalType": "address",
          "name": "_account",
          "type": "address"
        }
      ],
      "name": "removeNonStakingAccount",
      "outputs": [],
      "stateMutability": "nonpayable",
      "type": "function"
    },
    {
      "inputs": [
        {
          "internalType": "address",
          "name": "_vault",
          "type": "address"
        }
      ],
      "name": "removeVault",
      "outputs": [],
      "stateMutability": "nonpayable",
      "type": "function"
    },
    {
      "inputs": [
        {
          "internalType": "address",
          "name": "_gov",
          "type": "address"
        }
      ],
      "name": "setGov",
      "outputs": [],
      "stateMutability": "nonpayable",
      "type": "function"
    },
    {
      "inputs": [
        {
          "internalType": "bool",
          "name": "_inWhitelistMode",
          "type": "bool"
        }
      ],
      "name": "setInWhitelistMode",
      "outputs": [],
      "stateMutability": "nonpayable",
      "type": "function"
    },
    {
      "inputs": [
        {
          "internalType": "string",
          "name": "_name",
          "type": "string"
        },
        {
          "internalType": "string",
          "name": "_symbol",
          "type": "string"
        }
      ],
      "name": "setInfo",
      "outputs": [],
      "stateMutability": "nonpayable",
      "type": "function"
    },
    {
      "inputs": [
        {
          "internalType": "address",
          "name": "_handler",
          "type": "address"
        },
        {
          "internalType": "bool",
          "name": "_isWhitelisted",
          "type": "bool"
        }
      ],
      "name": "setWhitelistedHandler",
      "outputs": [],
      "stateMutability": "nonpayable",
      "type": "function"
    },
    {
      "inputs": [
        {
          "internalType": "address[]",
          "name": "_yieldTrackers",
          "type": "address[]"
        }
      ],
      "name": "setYieldTrackers",
      "outputs": [],
      "stateMutability": "nonpayable",
      "type": "function"
    },
    {
      "inputs": [
        {
          "internalType": "address",
          "name": "_account",
          "type": "address"
        }
      ],
      "name": "stakedBalance",
      "outputs": [
        {
          "internalType": "uint256",
          "name": "",
          "type": "uint256"
        }
      ],
      "stateMutability": "view",
      "type": "function"
    },
    {
      "inputs": [],
      "name": "symbol",
      "outputs": [
        {
          "internalType": "string",
          "name": "",
          "type": "string"
        }
      ],
      "stateMutability": "view",
      "type": "function"
    },
    {
      "inputs": [],
      "name": "totalStaked",
      "outputs": [
        {
          "internalType": "uint256",
          "name": "",
          "type": "uint256"
        }
      ],
      "stateMutability": "view",
      "type": "function"
    },
    {
      "inputs": [],
      "name": "totalSupply",
      "outputs": [
        {
          "internalType": "uint256",
          "name": "",
          "type": "uint256"
        }
      ],
      "stateMutability": "view",
      "type": "function"
    },
    {
      "inputs": [
        {
          "internalType": "address",
          "name": "_recipient",
          "type": "address"
        },
        {
          "internalType": "uint256",
          "name": "_amount",
          "type": "uint256"
        }
      ],
      "name": "transfer",
      "outputs": [
        {
          "internalType": "bool",
          "name": "",
          "type": "bool"
        }
      ],
      "stateMutability": "nonpayable",
      "type": "function"
    },
    {
      "inputs": [
        {
          "internalType": "address",
          "name": "_sender",
          "type": "address"
        },
        {
          "internalType": "address",
          "name": "_recipient",
          "type": "address"
        },
        {
          "internalType": "uint256",
          "name": "_amount",
          "type": "uint256"
        }
      ],
      "name": "transferFrom",
      "outputs": [
        {
          "internalType": "bool",
          "name": "",
          "type": "bool"
        }
      ],
      "stateMutability": "nonpayable",
      "type": "function"
    },
    {
      "inputs": [
        {
          "internalType": "address",
          "name": "",
          "type": "address"
        }
      ],
      "name": "vaults",
      "outputs": [
        {
          "internalType": "bool",
          "name": "",
          "type": "bool"
        }
      ],
      "stateMutability": "view",
      "type": "function"
    },
    {
      "inputs": [
        {
          "internalType": "address",
          "name": "",
          "type": "address"
        }
      ],
      "name": "whitelistedHandlers",
      "outputs": [
        {
          "internalType": "bool",
          "name": "",
          "type": "bool"
        }
      ],
      "stateMutability": "view",
      "type": "function"
    },
    {
      "inputs": [
        {
          "internalType": "address",
          "name": "_token",
          "type": "address"
        },
        {
          "internalType": "address",
          "name": "_account",
          "type": "address"
        },
        {
          "internalType": "uint256",
          "name": "_amount",
          "type": "uint256"
        }
      ],
      "name": "withdrawToken",
      "outputs": [],
      "stateMutability": "nonpayable",
      "type": "function"
    },
    {
      "inputs": [
        {
          "internalType": "uint256",
          "name": "",
          "type": "uint256"
        }
      ],
      "name": "yieldTrackers",
      "outputs": [
        {
          "internalType": "address",
          "name": "",
          "type": "address"
        }
      ],
      "stateMutability": "view",
      "type": "function"
    }
  ],
  "transactionHash": "0x9d905b6ae0829b4e39dfedca9a223f7f75b2a120781ca9fa64c4bdf445456c9c",
  "args": [
    "0x67B200de87Dc9B67310417c8B23BeE034F69ba41"
  ],
  "numDeployments": 1,
  "solcInputHash": "a5c1ec6ed734a994a4a7c4ed9bed389b",
  "bytecode": "0x60806040523480156200001157600080fd5b50604051620025c0380380620025c0833981810160405260208110156200003757600080fd5b5051604080518082018252600a8152691554d10811d85b589a5d60b21b6020828101918252835180850190945260048452635553444760e01b9084015281519192916000916200008a918391906200033d565b508151620000a09060019060208501906200033d565b50600480546001600160a01b031916339081179091556000818152600960205260409020805460ff19166001179055620000db908262000106565b5050506001600160a01b03166000908152600c60205260409020805460ff19166001179055620003d9565b6001600160a01b0382166200014d5760405162461bcd60e51b81526004018080602001828103825260248152602001806200259c6024913960400191505060405180910390fd5b62000158826200023c565b6200017481600254620002db60201b620014991790919060201c565b6002556001600160a01b038216600090815260056020908152604090912054620001a991839062001499620002db821b17901c565b6001600160a01b03831660009081526005602090815260408083209390935560089052205460ff1615620001f757620001f381600354620002db60201b620014991790919060201c565b6003555b6040805182815290516001600160a01b038416916000917fddf252ad1be2c89b69c2b068fc378daa952ba7f163c4a11628f55a4df523b3ef9181900360200190a35050565b60005b600754811015620002d7576000600782815481106200025a57fe5b600091825260208220015460408051635fd6196560e01b81526001600160a01b03878116600483015291519190921693508392635fd61965926024808201939182900301818387803b158015620002b057600080fd5b505af1158015620002c5573d6000803e3d6000fd5b5050600190930192506200023f915050565b5050565b60008282018381101562000336576040805162461bcd60e51b815260206004820152601b60248201527f536166654d6174683a206164646974696f6e206f766572666c6f770000000000604482015290519081900360640190fd5b9392505050565b828054600181600116156101000203166002900490600052602060002090601f016020900481019282601f106200038057805160ff1916838001178555620003b0565b82800160010185558215620003b0579182015b82811115620003b057825182559160200191906001019062000393565b50620003be929150620003c2565b5090565b5b80821115620003be5760008155600101620003c3565b6121b380620003e96000396000f3fe608060405234801561001057600080fd5b50600436106101c75760003560e01c806355b6ed5c1161010057806355b6ed5c146105485780636021726714610576578063622890771461059c57806370480275146105c257806370a08231146105e8578063817b1cd21461060e5780639554381a1461061657806395d89b411461063c578063996f11ee146106445780639dc29fac14610672578063a622ee7c1461069e578063a9059cbb146106c4578063a923fc40146106f0578063c93be63614610819578063ceb68c2314610821578063cfad57a214610847578063d92fc87e1461086d578063dd62ed3e1461089b578063fb30d916146108c9576101c7565b806301e33667146101cc57806306fdde0314610204578063095ea7b31461028157806312d43a51146102c15780631785f53c146102e557806318160ddd1461030b5780631e83409a1461032557806323b872dd1461034b578063256b5a0214610381578063276eab4e146103a757806327e235e314610448578063293d69871461046e578063313ce56714610476578063363000511461049457806340c10f19146104ba578063429b62e5146104e65780634cb5bbe31461050c57806352cd38d91461052b575b600080fd5b610202600480360360608110156101e257600080fd5b506001600160a01b038135811691602081013590911690604001356108ef565b005b61020c610955565b6040805160208082528351818301528351919283929083019185019080838360005b8381101561024657818101518382015260200161022e565b50505050905090810190601f1680156102735780820380516001836020036101000a031916815260200191505b509250505060405180910390f35b6102ad6004803603604081101561029757600080fd5b506001600160a01b0381351690602001356109e3565b604080519115158252519081900360200190f35b6102c96109f9565b604080516001600160a01b039092168252519081900360200190f35b610202600480360360208110156102fb57600080fd5b50356001600160a01b0316610a08565b610313610a76565b60408051918252519081900360200190f35b6102026004803603602081101561033b57600080fd5b50356001600160a01b0316610a7c565b6102ad6004803603606081101561036157600080fd5b506001600160a01b03813581169160208101359091169060400135610b33565b6102026004803603602081101561039757600080fd5b50356001600160a01b0316610ba3565b610202600480360360208110156103bd57600080fd5b810190602081018135600160201b8111156103d757600080fd5b8201836020820111156103e957600080fd5b803590602001918460208302840111600160201b8311171561040a57600080fd5b919080806020026020016040519081016040528093929190818152602001838360200280828437600092019190915250929550610c14945050505050565b6103136004803603602081101561045e57600080fd5b50356001600160a01b0316610c74565b6102ad610c86565b61047e610c8f565b6040805160ff9092168252519081900360200190f35b6102ad600480360360208110156104aa57600080fd5b50356001600160a01b0316610c94565b610202600480360360408110156104d057600080fd5b506001600160a01b038135169060200135610ca9565b6102ad600480360360208110156104fc57600080fd5b50356001600160a01b0316610d09565b6102026004803603602081101561052257600080fd5b50351515610d1e565b6102c96004803603602081101561054157600080fd5b5035610d7e565b6103136004803603604081101561055e57600080fd5b506001600160a01b0381358116916020013516610da5565b6103136004803603602081101561058c57600080fd5b50356001600160a01b0316610dc2565b610202600480360360208110156105b257600080fd5b50356001600160a01b0316610e0b565b610202600480360360208110156105d857600080fd5b50356001600160a01b0316610efe565b610313600480360360208110156105fe57600080fd5b50356001600160a01b0316610f6f565b610313610f8a565b6102ad6004803603602081101561062c57600080fd5b50356001600160a01b0316610fa8565b61020c610fbd565b6102026004803603604081101561065a57600080fd5b506001600160a01b0381358116916020013516611017565b6102026004803603604081101561068857600080fd5b506001600160a01b03813516906020013561111e565b6102ad600480360360208110156106b457600080fd5b50356001600160a01b031661117e565b6102ad600480360360408110156106da57600080fd5b506001600160a01b038135169060200135611193565b6102026004803603604081101561070657600080fd5b810190602081018135600160201b81111561072057600080fd5b82018360208201111561073257600080fd5b803590602001918460018302840111600160201b8311171561075357600080fd5b91908080601f0160208091040260200160405190810160405280939291908181526020018383808284376000920191909152509295949360208101935035915050600160201b8111156107a557600080fd5b8201836020820111156107b757600080fd5b803590602001918460018302840111600160201b831117156107d857600080fd5b91908080601f0160208091040260200160405190810160405280939291908181526020018383808284376000920191909152509295506111a0945050505050565b610313611214565b6102026004803603602081101561083757600080fd5b50356001600160a01b031661121a565b6102026004803603602081101561085d57600080fd5b50356001600160a01b0316611288565b6102026004803603604081101561088357600080fd5b506001600160a01b03813516906020013515156112f7565b610313600480360360408110156108b157600080fd5b506001600160a01b038135811691602001351661136f565b610202600480360360208110156108df57600080fd5b50356001600160a01b031661139a565b6004546001600160a01b0316331461093c576040805162461bcd60e51b8152602060048201526015602482015260008051602061215c833981519152604482015290519081900360640190fd5b6109506001600160a01b03841683836114f1565b505050565b6000805460408051602060026001851615610100026000190190941693909304601f810184900484028201840190925281815292918301828280156109db5780601f106109b0576101008083540402835291602001916109db565b820191906000526020600020905b8154815290600101906020018083116109be57829003601f168201915b505050505081565b60006109f0338484611543565b50600192915050565b6004546001600160a01b031681565b6004546001600160a01b03163314610a55576040805162461bcd60e51b8152602060048201526015602482015260008051602061215c833981519152604482015290519081900360640190fd5b6001600160a01b03166000908152600960205260409020805460ff19169055565b60025481565b60005b600754811015610b2f57600060078281548110610a9857fe5b6000918252602080832090910154604080516310e059a160e11b81523360048201526001600160a01b038881166024830152915191909216945084936321c0b34293604480850194919392918390030190829087803b158015610afa57600080fd5b505af1158015610b0e573d6000803e3d6000fd5b505050506040513d6020811015610b2457600080fd5b505050600101610a7f565b5050565b600080610b7e836040518060600160405280602d8152602001612109602d91396001600160a01b0388166000908152600660209081526040808320338452909152902054919061162f565b9050610b8b853383611543565b610b968585856116c6565b60019150505b9392505050565b6004546001600160a01b03163314610bf0576040805162461bcd60e51b8152602060048201526015602482015260008051602061215c833981519152604482015290519081900360640190fd5b6001600160a01b03166000908152600c60205260409020805460ff19166001179055565b6004546001600160a01b03163314610c61576040805162461bcd60e51b8152602060048201526015602482015260008051602061215c833981519152604482015290519081900360640190fd5b8051610b2f906007906020840190611e4f565b60056020526000908152604090205481565b600a5460ff1681565b601281565b600b6020526000908152604090205460ff1681565b336000908152600c602052604090205460ff16610cff576040805162461bcd60e51b815260206004820152600f60248201526e2aa9a2239d103337b93134b23232b760891b604482015290519081900360640190fd5b610b2f82826118dc565b60096020526000908152604090205460ff1681565b6004546001600160a01b03163314610d6b576040805162461bcd60e51b8152602060048201526015602482015260008051602061215c833981519152604482015290519081900360640190fd5b600a805460ff1916911515919091179055565b60078181548110610d8b57fe5b6000918252602090912001546001600160a01b0316905081565b600660209081526000928352604080842090915290825290205481565b6001600160a01b03811660009081526008602052604081205460ff1615610deb57506000610e06565b506001600160a01b0381166000908152600560205260409020545b919050565b3360009081526009602052604090205460ff16610e5d576040805162461bcd60e51b8152602060048201526015602482015260008051602061215c833981519152604482015290519081900360640190fd5b6001600160a01b03811660009081526008602052604090205460ff1615610eb55760405162461bcd60e51b8152600401808060200182810382526023815260200180611f636023913960400191505060405180910390fd5b610ebe816119ce565b6001600160a01b0381166000908152600860209081526040808320805460ff191660011790556005909152902054600354610ef891611499565b60035550565b6004546001600160a01b03163314610f4b576040805162461bcd60e51b8152602060048201526015602482015260008051602061215c833981519152604482015290519081900360640190fd5b6001600160a01b03166000908152600960205260409020805460ff19166001179055565b6001600160a01b031660009081526005602052604090205490565b6000610fa3600354600254611a6490919063ffffffff16565b905090565b60086020526000908152604090205460ff1681565b60018054604080516020600284861615610100026000190190941693909304601f810184900484028201840190925281815292918301828280156109db5780601f106109b0576101008083540402835291602001916109db565b3360009081526009602052604090205460ff16611069576040805162461bcd60e51b8152602060048201526015602482015260008051602061215c833981519152604482015290519081900360640190fd5b60005b6007548110156109505760006007828154811061108557fe5b6000918252602080832090910154604080516310e059a160e11b81526001600160a01b0389811660048301528881166024830152915191909216945084936321c0b34293604480850194919392918390030190829087803b1580156110e957600080fd5b505af11580156110fd573d6000803e3d6000fd5b505050506040513d602081101561111357600080fd5b50505060010161106c565b336000908152600c602052604090205460ff16611174576040805162461bcd60e51b815260206004820152600f60248201526e2aa9a2239d103337b93134b23232b760891b604482015290519081900360640190fd5b610b2f8282611aa6565b600c6020526000908152604090205460ff1681565b60006109f03384846116c6565b6004546001600160a01b031633146111ed576040805162461bcd60e51b8152602060048201526015602482015260008051602061215c833981519152604482015290519081900360640190fd5b8151611200906000906020850190611eb4565b508051610950906001906020840190611eb4565b60035481565b6004546001600160a01b03163314611267576040805162461bcd60e51b8152602060048201526015602482015260008051602061215c833981519152604482015290519081900360640190fd5b6001600160a01b03166000908152600c60205260409020805460ff19169055565b6004546001600160a01b031633146112d5576040805162461bcd60e51b8152602060048201526015602482015260008051602061215c833981519152604482015290519081900360640190fd5b600480546001600160a01b0319166001600160a01b0392909216919091179055565b6004546001600160a01b03163314611344576040805162461bcd60e51b8152602060048201526015602482015260008051602061215c833981519152604482015290519081900360640190fd5b6001600160a01b03919091166000908152600b60205260409020805460ff1916911515919091179055565b6001600160a01b03918216600090815260066020908152604080832093909416825291909152205490565b3360009081526009602052604090205460ff166113ec576040805162461bcd60e51b8152602060048201526015602482015260008051602061215c833981519152604482015290519081900360640190fd5b6001600160a01b03811660009081526008602052604090205460ff16611459576040805162461bcd60e51b815260206004820152601f60248201527f5969656c64546f6b656e3a205f6163636f756e74206e6f74206d61726b656400604482015290519081900360640190fd5b611462816119ce565b6001600160a01b0381166000908152600860209081526040808320805460ff191690556005909152902054600354610ef891611a64565b600082820183811015610b9c576040805162461bcd60e51b815260206004820152601b60248201527a536166654d6174683a206164646974696f6e206f766572666c6f7760281b604482015290519081900360640190fd5b604080516001600160a01b038416602482015260448082018490528251808303909101815260649091019091526020810180516001600160e01b031663a9059cbb60e01b179052610950908490611bbf565b6001600160a01b0383166115885760405162461bcd60e51b81526004018080602001828103825260298152602001806120e06029913960400191505060405180910390fd5b6001600160a01b0382166115cd5760405162461bcd60e51b81526004018080602001828103825260278152602001806120246027913960400191505060405180910390fd5b6001600160a01b03808416600081815260066020908152604080832094871680845294825291829020859055815185815291517f8c5be1e5ebec7d5bd14f71427d1e84f3dd0314c0f7b2291e5b200ac8c7c3b9259281900390910190a3505050565b600081848411156116be5760405162461bcd60e51b81526004018080602001828103825283818151815260200191508051906020019080838360005b8381101561168357818101518382015260200161166b565b50505050905090810190601f1680156116b05780820380516001836020036101000a031916815260200191505b509250505060405180910390fd5b505050900390565b6001600160a01b03831661170b5760405162461bcd60e51b815260040180806020018281038252602a815260200180611fae602a913960400191505060405180910390fd5b6001600160a01b0382166117505760405162461bcd60e51b8152600401808060200182810382526028815260200180611f866028913960400191505060405180910390fd5b600a5460ff16156117a957336000908152600b602052604090205460ff166117a95760405162461bcd60e51b81526004018080602001828103825260268152602001806121366026913960400191505060405180910390fd5b6117b2836119ce565b6117bb826119ce565b6117f8816040518060600160405280602b815260200161217c602b91396001600160a01b038616600090815260056020526040902054919061162f565b6001600160a01b0380851660009081526005602052604080822093909355908416815220546118279082611499565b6001600160a01b0380841660009081526005602090815260408083209490945591861681526008909152205460ff161561186c576003546118689082611a64565b6003555b6001600160a01b03821660009081526008602052604090205460ff161561189e5760035461189a9082611499565b6003555b816001600160a01b0316836001600160a01b0316600080516020612096833981519152836040518082815260200191505060405180910390a3505050565b6001600160a01b0382166119215760405162461bcd60e51b81526004018080602001828103825260248152602001806120726024913960400191505060405180910390fd5b61192a826119ce565b6002546119379082611499565b6002556001600160a01b03821660009081526005602052604090205461195d9082611499565b6001600160a01b03831660009081526005602090815260408083209390935560089052205460ff161561199b576003546119979082611499565b6003555b6040805182815290516001600160a01b038416916000916000805160206120968339815191529181900360200190a35050565b60005b600754811015610b2f576000600782815481106119ea57fe5b600091825260208220015460408051635fd6196560e01b81526001600160a01b03878116600483015291519190921693508392635fd61965926024808201939182900301818387803b158015611a3f57600080fd5b505af1158015611a53573d6000803e3d6000fd5b5050600190930192506119d1915050565b6000610b9c83836040518060400160405280601e81526020017f536166654d6174683a207375627472616374696f6e206f766572666c6f77000081525061162f565b6001600160a01b038216611aeb5760405162461bcd60e51b8152600401808060200182810382526026815260200180611fd86026913960400191505060405180910390fd5b611af4826119ce565b611b318160405180606001604052806027815260200161204b602791396001600160a01b038516600090815260056020526040902054919061162f565b6001600160a01b038316600090815260056020526040902055600254611b579082611a64565b6002556001600160a01b03821660009081526008602052604090205460ff1615611b8c57600354611b889082611a64565b6003555b6040805182815290516000916001600160a01b038516916000805160206120968339815191529181900360200190a35050565b6060611c14826040518060400160405280602081526020017f5361666545524332303a206c6f772d6c6576656c2063616c6c206661696c6564815250856001600160a01b0316611c709092919063ffffffff16565b80519091501561095057808060200190516020811015611c3357600080fd5b50516109505760405162461bcd60e51b815260040180806020018281038252602a8152602001806120b6602a913960400191505060405180910390fd5b6060611c7f8484600085611c87565b949350505050565b606082471015611cc85760405162461bcd60e51b8152600401808060200182810382526026815260200180611ffe6026913960400191505060405180910390fd5b611cd185611de3565b611d22576040805162461bcd60e51b815260206004820152601d60248201527f416464726573733a2063616c6c20746f206e6f6e2d636f6e7472616374000000604482015290519081900360640190fd5b60006060866001600160a01b031685876040518082805190602001908083835b60208310611d615780518252601f199092019160209182019101611d42565b6001836020036101000a03801982511681845116808217855250505050505090500191505060006040518083038185875af1925050503d8060008114611dc3576040519150601f19603f3d011682016040523d82523d6000602084013e611dc8565b606091505b5091509150611dd8828286611de9565b979650505050505050565b3b151590565b60608315611df8575081610b9c565b825115611e085782518084602001fd5b60405162461bcd60e51b815260206004820181815284516024840152845185939192839260440191908501908083836000831561168357818101518382015260200161166b565b828054828255906000526020600020908101928215611ea4579160200282015b82811115611ea457825182546001600160a01b0319166001600160a01b03909116178255602090920191600190910190611e6f565b50611eb0929150611f2e565b5090565b828054600181600116156101000203166002900490600052602060002090601f016020900481019282601f10611ef557805160ff1916838001178555611f22565b82800160010185558215611f22579182015b82811115611f22578251825591602001919060010190611f07565b50611eb0929150611f4d565b5b80821115611eb05780546001600160a01b0319168155600101611f2f565b5b80821115611eb05760008155600101611f4e56fe5969656c64546f6b656e3a205f6163636f756e7420616c7265616479206d61726b65645969656c64546f6b656e3a207472616e7366657220746f20746865207a65726f20616464726573735969656c64546f6b656e3a207472616e736665722066726f6d20746865207a65726f20616464726573735969656c64546f6b656e3a206275726e2066726f6d20746865207a65726f2061646472657373416464726573733a20696e73756666696369656e742062616c616e636520666f722063616c6c5969656c64546f6b656e3a20617070726f766520746f20746865207a65726f20616464726573735969656c64546f6b656e3a206275726e20616d6f756e7420657863656564732062616c616e63655969656c64546f6b656e3a206d696e7420746f20746865207a65726f2061646472657373ddf252ad1be2c89b69c2b068fc378daa952ba7f163c4a11628f55a4df523b3ef5361666545524332303a204552433230206f7065726174696f6e20646964206e6f7420737563636565645969656c64546f6b656e3a20617070726f76652066726f6d20746865207a65726f20616464726573735969656c64546f6b656e3a207472616e7366657220616d6f756e74206578636565647320616c6c6f77616e63655969656c64546f6b656e3a206d73672e73656e646572206e6f742077686974656c69737465645969656c64546f6b656e3a20666f7262696464656e00000000000000000000005969656c64546f6b656e3a207472616e7366657220616d6f756e7420657863656564732062616c616e6365a164736f6c634300060c000a5969656c64546f6b656e3a206d696e7420746f20746865207a65726f2061646472657373",
  "devdoc": {
    "kind": "dev",
    "methods": {},
    "version": 1
  },
  "userdoc": {
    "kind": "user",
    "methods": {},
    "version": 1
  },
  "storageLayout": {
    "storage": [
      {
        "astId": 47510,
        "contract": "contracts/tokens/USDG.sol:USDG",
        "label": "name",
        "offset": 0,
        "slot": "0",
        "type": "t_string_storage"
      },
      {
        "astId": 47512,
        "contract": "contracts/tokens/USDG.sol:USDG",
        "label": "symbol",
        "offset": 0,
        "slot": "1",
        "type": "t_string_storage"
      },
      {
        "astId": 47518,
        "contract": "contracts/tokens/USDG.sol:USDG",
        "label": "totalSupply",
        "offset": 0,
        "slot": "2",
        "type": "t_uint256"
      },
      {
        "astId": 47520,
        "contract": "contracts/tokens/USDG.sol:USDG",
        "label": "nonStakingSupply",
        "offset": 0,
        "slot": "3",
        "type": "t_uint256"
      },
      {
        "astId": 47522,
        "contract": "contracts/tokens/USDG.sol:USDG",
        "label": "gov",
        "offset": 0,
        "slot": "4",
        "type": "t_address"
      },
      {
        "astId": 47526,
        "contract": "contracts/tokens/USDG.sol:USDG",
        "label": "balances",
        "offset": 0,
        "slot": "5",
        "type": "t_mapping(t_address,t_uint256)"
      },
      {
        "astId": 47532,
        "contract": "contracts/tokens/USDG.sol:USDG",
        "label": "allowances",
        "offset": 0,
        "slot": "6",
        "type": "t_mapping(t_address,t_mapping(t_address,t_uint256))"
      },
      {
        "astId": 47535,
        "contract": "contracts/tokens/USDG.sol:USDG",
        "label": "yieldTrackers",
        "offset": 0,
        "slot": "7",
        "type": "t_array(t_address)dyn_storage"
      },
      {
        "astId": 47539,
        "contract": "contracts/tokens/USDG.sol:USDG",
        "label": "nonStakingAccounts",
        "offset": 0,
        "slot": "8",
        "type": "t_mapping(t_address,t_bool)"
      },
      {
        "astId": 47543,
        "contract": "contracts/tokens/USDG.sol:USDG",
        "label": "admins",
        "offset": 0,
        "slot": "9",
        "type": "t_mapping(t_address,t_bool)"
      },
      {
        "astId": 47545,
        "contract": "contracts/tokens/USDG.sol:USDG",
        "label": "inWhitelistMode",
        "offset": 0,
        "slot": "10",
        "type": "t_bool"
      },
      {
        "astId": 47549,
        "contract": "contracts/tokens/USDG.sol:USDG",
        "label": "whitelistedHandlers",
        "offset": 0,
        "slot": "11",
        "type": "t_mapping(t_address,t_bool)"
      },
      {
        "astId": 46749,
        "contract": "contracts/tokens/USDG.sol:USDG",
        "label": "vaults",
        "offset": 0,
        "slot": "12",
        "type": "t_mapping(t_address,t_bool)"
      }
    ],
    "types": {
      "t_address": {
        "encoding": "inplace",
        "label": "address",
        "numberOfBytes": "20"
      },
      "t_array(t_address)dyn_storage": {
        "base": "t_address",
        "encoding": "dynamic_array",
        "label": "address[]",
        "numberOfBytes": "32"
      },
      "t_bool": {
        "encoding": "inplace",
        "label": "bool",
        "numberOfBytes": "1"
      },
      "t_mapping(t_address,t_bool)": {
        "encoding": "mapping",
        "key": "t_address",
        "label": "mapping(address => bool)",
        "numberOfBytes": "32",
        "value": "t_bool"
      },
      "t_mapping(t_address,t_mapping(t_address,t_uint256))": {
        "encoding": "mapping",
        "key": "t_address",
        "label": "mapping(address => mapping(address => uint256))",
        "numberOfBytes": "32",
        "value": "t_mapping(t_address,t_uint256)"
      },
      "t_mapping(t_address,t_uint256)": {
        "encoding": "mapping",
        "key": "t_address",
        "label": "mapping(address => uint256)",
        "numberOfBytes": "32",
        "value": "t_uint256"
      },
      "t_string_storage": {
        "encoding": "bytes",
        "label": "string",
        "numberOfBytes": "32"
      },
      "t_uint256": {
        "encoding": "inplace",
        "label": "uint256",
        "numberOfBytes": "32"
      }
    }
  }
}