{
  "address": "0x40bd091163A47cE5aF3AD5A098cfD4431714c2A6",
  "abi": [
    {
      "inputs": [],
      "stateMutability": "nonpayable",
      "type": "constructor"
    },
    {
      "inputs": [],
      "name": "BASIS_POINTS_DIVISOR",
      "outputs": [
        {
          "internalType": "uint256",
          "name": "",
          "type": "uint256"
        }
      ],
      "stateMutability": "view",
      "type": "function"
    },
    {
      "inputs": [],
      "name": "MAX_ADJUSTMENT_BASIS_POINTS",
      "outputs": [
        {
          "internalType": "uint256",
          "name": "",
          "type": "uint256"
        }
      ],
      "stateMutability": "view",
      "type": "function"
    },
    {
      "inputs": [],
      "name": "MAX_ADJUSTMENT_INTERVAL",
      "outputs": [
        {
          "internalType": "uint256",
          "name": "",
          "type": "uint256"
        }
      ],
      "stateMutability": "view",
      "type": "function"
    },
    {
      "inputs": [],
      "name": "MAX_SPREAD_BASIS_POINTS",
      "outputs": [
        {
          "internalType": "uint256",
          "name": "",
          "type": "uint256"
        }
      ],
      "stateMutability": "view",
      "type": "function"
    },
    {
      "inputs": [],
      "name": "ONE_USD",
      "outputs": [
        {
          "internalType": "uint256",
          "name": "",
          "type": "uint256"
        }
      ],
      "stateMutability": "view",
      "type": "function"
    },
    {
      "inputs": [],
      "name": "PRICE_PRECISION",
      "outputs": [
        {
          "internalType": "uint256",
          "name": "",
          "type": "uint256"
        }
      ],
      "stateMutability": "view",
      "type": "function"
    },
    {
      "inputs": [
        {
          "internalType": "address",
          "name": "",
          "type": "address"
        }
      ],
      "name": "adjustmentBasisPoints",
      "outputs": [
        {
          "internalType": "uint256",
          "name": "",
          "type": "uint256"
        }
      ],
      "stateMutability": "view",
      "type": "function"
    },
    {
      "inputs": [],
      "name": "bnb",
      "outputs": [
        {
          "internalType": "address",
          "name": "",
          "type": "address"
        }
      ],
      "stateMutability": "view",
      "type": "function"
    },
    {
      "inputs": [],
      "name": "bnbBusd",
      "outputs": [
        {
          "internalType": "address",
          "name": "",
          "type": "address"
        }
      ],
      "stateMutability": "view",
      "type": "function"
    },
    {
      "inputs": [],
      "name": "btc",
      "outputs": [
        {
          "internalType": "address",
          "name": "",
          "type": "address"
        }
      ],
      "stateMutability": "view",
      "type": "function"
    },
    {
      "inputs": [],
      "name": "btcBnb",
      "outputs": [
        {
          "internalType": "address",
          "name": "",
          "type": "address"
        }
      ],
      "stateMutability": "view",
      "type": "function"
    },
    {
      "inputs": [],
      "name": "chainlinkFlags",
      "outputs": [
        {
          "internalType": "address",
          "name": "",
          "type": "address"
        }
      ],
      "stateMutability": "view",
      "type": "function"
    },
    {
      "inputs": [],
      "name": "eth",
      "outputs": [
        {
          "internalType": "address",
          "name": "",
          "type": "address"
        }
      ],
      "stateMutability": "view",
      "type": "function"
    },
    {
      "inputs": [],
      "name": "ethBnb",
      "outputs": [
        {
          "internalType": "address",
          "name": "",
          "type": "address"
        }
      ],
      "stateMutability": "view",
      "type": "function"
    },
    {
      "inputs": [],
      "name": "favorPrimaryPrice",
      "outputs": [
        {
          "internalType": "bool",
          "name": "",
          "type": "bool"
        }
      ],
      "stateMutability": "view",
      "type": "function"
    },
    {
      "inputs": [
        {
          "internalType": "address",
          "name": "_token",
          "type": "address"
        }
      ],
      "name": "getAmmPrice",
      "outputs": [
        {
          "internalType": "uint256",
          "name": "",
          "type": "uint256"
        }
      ],
      "stateMutability": "view",
      "type": "function"
    },
    {
      "inputs": [
        {
          "internalType": "address",
          "name": "_token",
          "type": "address"
        },
        {
          "internalType": "bool",
          "name": "_maximise",
          "type": "bool"
        },
        {
          "internalType": "uint256",
          "name": "_primaryPrice",
          "type": "uint256"
        }
      ],
      "name": "getAmmPriceV2",
      "outputs": [
        {
          "internalType": "uint256",
          "name": "",
          "type": "uint256"
        }
      ],
      "stateMutability": "view",
      "type": "function"
    },
    {
      "inputs": [
        {
          "internalType": "address",
          "name": "_token",
          "type": "address"
        }
      ],
      "name": "getLatestPrimaryPrice",
      "outputs": [
        {
          "internalType": "uint256",
          "name": "",
          "type": "uint256"
        }
      ],
      "stateMutability": "view",
      "type": "function"
    },
    {
      "inputs": [
        {
          "internalType": "address",
          "name": "_pair",
          "type": "address"
        },
        {
          "internalType": "bool",
          "name": "_divByReserve0",
          "type": "bool"
        }
      ],
      "name": "getPairPrice",
      "outputs": [
        {
          "internalType": "uint256",
          "name": "",
          "type": "uint256"
        }
      ],
      "stateMutability": "view",
      "type": "function"
    },
    {
      "inputs": [
        {
          "internalType": "address",
          "name": "_token",
          "type": "address"
        },
        {
          "internalType": "bool",
          "name": "_maximise",
          "type": "bool"
        },
        {
          "internalType": "bool",
          "name": "_includeAmmPrice",
          "type": "bool"
        },
        {
          "internalType": "bool",
          "name": "",
          "type": "bool"
        }
      ],
      "name": "getPrice",
      "outputs": [
        {
          "internalType": "uint256",
          "name": "",
          "type": "uint256"
        }
      ],
      "stateMutability": "view",
      "type": "function"
    },
    {
      "inputs": [
        {
          "internalType": "address",
          "name": "_token",
          "type": "address"
        },
        {
          "internalType": "bool",
          "name": "_maximise",
          "type": "bool"
        },
        {
          "internalType": "bool",
          "name": "_includeAmmPrice",
          "type": "bool"
        }
      ],
      "name": "getPriceV1",
      "outputs": [
        {
          "internalType": "uint256",
          "name": "",
          "type": "uint256"
        }
      ],
      "stateMutability": "view",
      "type": "function"
    },
    {
      "inputs": [
        {
          "internalType": "address",
          "name": "_token",
          "type": "address"
        },
        {
          "internalType": "bool",
          "name": "_maximise",
          "type": "bool"
        },
        {
          "internalType": "bool",
          "name": "_includeAmmPrice",
          "type": "bool"
        }
      ],
      "name": "getPriceV2",
      "outputs": [
        {
          "internalType": "uint256",
          "name": "",
          "type": "uint256"
        }
      ],
      "stateMutability": "view",
      "type": "function"
    },
    {
      "inputs": [
        {
          "internalType": "address",
          "name": "_token",
          "type": "address"
        },
        {
          "internalType": "bool",
          "name": "_maximise",
          "type": "bool"
        }
      ],
      "name": "getPrimaryPrice",
      "outputs": [
        {
          "internalType": "uint256",
          "name": "",
          "type": "uint256"
        }
      ],
      "stateMutability": "view",
      "type": "function"
    },
    {
      "inputs": [
        {
          "internalType": "address",
          "name": "_token",
          "type": "address"
        },
        {
          "internalType": "uint256",
          "name": "_referencePrice",
          "type": "uint256"
        },
        {
          "internalType": "bool",
          "name": "_maximise",
          "type": "bool"
        }
      ],
      "name": "getSecondaryPrice",
      "outputs": [
        {
          "internalType": "uint256",
          "name": "",
          "type": "uint256"
        }
      ],
      "stateMutability": "view",
      "type": "function"
    },
    {
      "inputs": [],
      "name": "gov",
      "outputs": [
        {
          "internalType": "address",
          "name": "",
          "type": "address"
        }
      ],
      "stateMutability": "view",
      "type": "function"
    },
    {
      "inputs": [
        {
          "internalType": "address",
          "name": "",
          "type": "address"
        }
      ],
      "name": "isAdjustmentAdditive",
      "outputs": [
        {
          "internalType": "bool",
          "name": "",
          "type": "bool"
        }
      ],
      "stateMutability": "view",
      "type": "function"
    },
    {
      "inputs": [],
      "name": "isAmmEnabled",
      "outputs": [
        {
          "internalType": "bool",
          "name": "",
          "type": "bool"
        }
      ],
      "stateMutability": "view",
      "type": "function"
    },
    {
      "inputs": [],
      "name": "isSecondaryPriceEnabled",
      "outputs": [
        {
          "internalType": "bool",
          "name": "",
          "type": "bool"
        }
      ],
      "stateMutability": "view",
      "type": "function"
    },
    {
      "inputs": [
        {
          "internalType": "address",
          "name": "",
          "type": "address"
        }
      ],
      "name": "lastAdjustmentTimings",
      "outputs": [
        {
          "internalType": "uint256",
          "name": "",
          "type": "uint256"
        }
      ],
      "stateMutability": "view",
      "type": "function"
    },
    {
      "inputs": [],
      "name": "maxStrictPriceDeviation",
      "outputs": [
        {
          "internalType": "uint256",
          "name": "",
          "type": "uint256"
        }
      ],
      "stateMutability": "view",
      "type": "function"
    },
    {
      "inputs": [
        {
          "internalType": "address",
          "name": "",
          "type": "address"
        }
      ],
      "name": "priceDecimals",
      "outputs": [
        {
          "internalType": "uint256",
          "name": "",
          "type": "uint256"
        }
      ],
      "stateMutability": "view",
      "type": "function"
    },
    {
      "inputs": [
        {
          "internalType": "address",
          "name": "",
          "type": "address"
        }
      ],
      "name": "priceFeeds",
      "outputs": [
        {
          "internalType": "address",
          "name": "",
          "type": "address"
        }
      ],
      "stateMutability": "view",
      "type": "function"
    },
    {
      "inputs": [],
      "name": "priceSampleSpace",
      "outputs": [
        {
          "internalType": "uint256",
          "name": "",
          "type": "uint256"
        }
      ],
      "stateMutability": "view",
      "type": "function"
    },
    {
      "inputs": [],
      "name": "secondaryPriceFeed",
      "outputs": [
        {
          "internalType": "address",
          "name": "",
          "type": "address"
        }
      ],
      "stateMutability": "view",
      "type": "function"
    },
    {
      "inputs": [
        {
          "internalType": "address",
          "name": "_token",
          "type": "address"
        },
        {
          "internalType": "bool",
          "name": "_isAdditive",
          "type": "bool"
        },
        {
          "internalType": "uint256",
          "name": "_adjustmentBps",
          "type": "uint256"
        }
      ],
      "name": "setAdjustment",
      "outputs": [],
      "stateMutability": "nonpayable",
      "type": "function"
    },
    {
      "inputs": [
        {
          "internalType": "address",
          "name": "_chainlinkFlags",
          "type": "address"
        }
      ],
      "name": "setChainlinkFlags",
      "outputs": [],
      "stateMutability": "nonpayable",
      "type": "function"
    },
    {
      "inputs": [
        {
          "internalType": "bool",
          "name": "_favorPrimaryPrice",
          "type": "bool"
        }
      ],
      "name": "setFavorPrimaryPrice",
      "outputs": [],
      "stateMutability": "nonpayable",
      "type": "function"
    },
    {
      "inputs": [
        {
          "internalType": "address",
          "name": "_gov",
          "type": "address"
        }
      ],
      "name": "setGov",
      "outputs": [],
      "stateMutability": "nonpayable",
      "type": "function"
    },
    {
      "inputs": [
        {
          "internalType": "bool",
          "name": "_isEnabled",
          "type": "bool"
        }
      ],
      "name": "setIsAmmEnabled",
      "outputs": [],
      "stateMutability": "nonpayable",
      "type": "function"
    },
    {
      "inputs": [
        {
          "internalType": "bool",
          "name": "_isEnabled",
          "type": "bool"
        }
      ],
      "name": "setIsSecondaryPriceEnabled",
      "outputs": [],
      "stateMutability": "nonpayable",
      "type": "function"
    },
    {
      "inputs": [
        {
          "internalType": "uint256",
          "name": "_maxStrictPriceDeviation",
          "type": "uint256"
        }
      ],
      "name": "setMaxStrictPriceDeviation",
      "outputs": [],
      "stateMutability": "nonpayable",
      "type": "function"
    },
    {
      "inputs": [
        {
          "internalType": "address",
          "name": "_bnbBusd",
          "type": "address"
        },
        {
          "internalType": "address",
          "name": "_ethBnb",
          "type": "address"
        },
        {
          "internalType": "address",
          "name": "_btcBnb",
          "type": "address"
        }
      ],
      "name": "setPairs",
      "outputs": [],
      "stateMutability": "nonpayable",
      "type": "function"
    },
    {
      "inputs": [
        {
          "internalType": "uint256",
          "name": "_priceSampleSpace",
          "type": "uint256"
        }
      ],
      "name": "setPriceSampleSpace",
      "outputs": [],
      "stateMutability": "nonpayable",
      "type": "function"
    },
    {
      "inputs": [
        {
          "internalType": "address",
          "name": "_secondaryPriceFeed",
          "type": "address"
        }
      ],
      "name": "setSecondaryPriceFeed",
      "outputs": [],
      "stateMutability": "nonpayable",
      "type": "function"
    },
    {
      "inputs": [
        {
          "internalType": "address",
          "name": "_token",
          "type": "address"
        },
        {
          "internalType": "uint256",
          "name": "_spreadBasisPoints",
          "type": "uint256"
        }
      ],
      "name": "setSpreadBasisPoints",
      "outputs": [],
      "stateMutability": "nonpayable",
      "type": "function"
    },
    {
      "inputs": [
        {
          "internalType": "uint256",
          "name": "_spreadThresholdBasisPoints",
          "type": "uint256"
        }
      ],
      "name": "setSpreadThresholdBasisPoints",
      "outputs": [],
      "stateMutability": "nonpayable",
      "type": "function"
    },
    {
      "inputs": [
        {
          "internalType": "address",
          "name": "_token",
          "type": "address"
        },
        {
          "internalType": "address",
          "name": "_priceFeed",
          "type": "address"
        },
        {
          "internalType": "uint256",
          "name": "_priceDecimals",
          "type": "uint256"
        },
        {
          "internalType": "bool",
          "name": "_isStrictStable",
          "type": "bool"
        }
      ],
      "name": "setTokenConfig",
      "outputs": [],
      "stateMutability": "nonpayable",
      "type": "function"
    },
    {
      "inputs": [
        {
          "internalType": "address",
          "name": "_btc",
          "type": "address"
        },
        {
          "internalType": "address",
          "name": "_eth",
          "type": "address"
        },
        {
          "internalType": "address",
          "name": "_bnb",
          "type": "address"
        }
      ],
      "name": "setTokens",
      "outputs": [],
      "stateMutability": "nonpayable",
      "type": "function"
    },
    {
      "inputs": [
        {
          "internalType": "bool",
          "name": "_useV2Pricing",
          "type": "bool"
        }
      ],
      "name": "setUseV2Pricing",
      "outputs": [],
      "stateMutability": "nonpayable",
      "type": "function"
    },
    {
      "inputs": [
        {
          "internalType": "address",
          "name": "",
          "type": "address"
        }
      ],
      "name": "spreadBasisPoints",
      "outputs": [
        {
          "internalType": "uint256",
          "name": "",
          "type": "uint256"
        }
      ],
      "stateMutability": "view",
      "type": "function"
    },
    {
      "inputs": [],
      "name": "spreadThresholdBasisPoints",
      "outputs": [
        {
          "internalType": "uint256",
          "name": "",
          "type": "uint256"
        }
      ],
      "stateMutability": "view",
      "type": "function"
    },
    {
      "inputs": [
        {
          "internalType": "address",
          "name": "",
          "type": "address"
        }
      ],
      "name": "strictStableTokens",
      "outputs": [
        {
          "internalType": "bool",
          "name": "",
          "type": "bool"
        }
      ],
      "stateMutability": "view",
      "type": "function"
    },
    {
      "inputs": [],
      "name": "useV2Pricing",
      "outputs": [
        {
          "internalType": "bool",
          "name": "",
          "type": "bool"
        }
      ],
      "stateMutability": "view",
      "type": "function"
    }
  ],
  "transactionHash": "0x97ab34e39b55e63856b66b2f14fd63cd5aa5ae92f75afb062c17b70f678b8657",
  "args": [],
  "numDeployments": 1,
  "solcInputHash": "a5c1ec6ed734a994a4a7c4ed9bed389b",
  "bytecode": "0x60806040526001805461ffff60b01b1960ff60a81b1960ff60a01b19909216600160a01b1791909116600160a81b171690556003600281905560009055601e60055534801561004d57600080fd5b50600080546001600160a01b031916331790556120f08061006f6000396000f3fe608060405234801561001057600080fd5b50600436106102775760003560e01c8063732391b411610158578063732391b414610565578063826e055f1461059b5780638b86616c146105c15780638c7c9e0c146105c957806393f69074146105d157806395082d2514610509578063971bd3961461060957806397dfade7146106115780639917dc74146106195780639a0a6635146106385780639b18dc471461065e5780639b889380146106665780639dcb511a14610692578063a27ea386146106b8578063a28d57d8146106de578063a2ad7b93146106e6578063a39c73a314610714578063b02a2de41461071c578063b731dd8714610750578063b8f611051461076d578063c2138d8c14610793578063cefe0f21146107b9578063cfad57a2146107df578063d694376c14610805578063e4440e0214610839578063eb1c92a914610841578063fd34ec401461086057610277565b80630957aed91461027c5780631193c80914610296578063126082cf146102ba57806312d43a51146102c25780632fa03b8f146102ca5780632fbfe3d3146102e95780632fc3a70a1461030657806330536ee514610344578063378e7bf7146103605780633d949c5f146103685780633eba8d361461039e5780633ebbc601146103d25780633f0c3bb7146103da578063443be209146103e257806348cac2771461041a57806349a876e4146104405780634a4b1f4f146104485780634b9ade471461045057806356bf9de41461048e57806356c8c2c1146104b4578063593d9e80146104e2578063604f37e9146104ea57806367781c0e146105095780636ce8a44b146105115780636fc8070814610537578063717cfe7a1461053f575b600080fd5b61028461087f565b60408051918252519081900360200190f35b61029e610884565b604080516001600160a01b039092168252519081900360200190f35b610284610893565b61029e610899565b6102e7600480360360208110156102e057600080fd5b50356108a8565b005b6102e7600480360360208110156102ff57600080fd5b5035610939565b6102846004803603608081101561031c57600080fd5b506001600160a01b03813516906020810135151590604081013515159060600135151561098b565b61034c610a49565b604080519115158252519081900360200190f35b610284610a59565b6102846004803603606081101561037e57600080fd5b506001600160a01b03813516906020810135151590604001351515610a5f565b610284600480360360608110156103b457600080fd5b506001600160a01b0381351690602081013590604001351515610c33565b61034c610ce1565b61034c610cf1565b6102e7600480360360608110156103f857600080fd5b506001600160a01b038135811691602081013582169160409091013516610d01565b6102846004803603602081101561043057600080fd5b50356001600160a01b0316610d8d565b61029e610d9f565b610284610dae565b6102e76004803603608081101561046657600080fd5b506001600160a01b038135811691602081013590911690604081013590606001351515610db3565b610284600480360360208110156104a457600080fd5b50356001600160a01b0316610e55565b610284600480360360408110156104ca57600080fd5b506001600160a01b0381351690602001351515610f69565b61034c611396565b6102e76004803603602081101561050057600080fd5b503515156113a6565b610284611411565b61034c6004803603602081101561052757600080fd5b50356001600160a01b0316611421565b610284611436565b6102846004803603602081101561055557600080fd5b50356001600160a01b031661143c565b6102846004803603606081101561057b57600080fd5b506001600160a01b0381351690602081013515159060400135151561144e565b6102e7600480360360208110156105b157600080fd5b50356001600160a01b03166114a3565b61029e611512565b61029e611521565b6102e7600480360360608110156105e757600080fd5b506001600160a01b038135811691602081013582169160409091013516611530565b61029e6115bc565b61029e6115cb565b6102e76004803603602081101561062f57600080fd5b503515156115da565b6102e76004803603602081101561064e57600080fd5b50356001600160a01b0316611645565b6102846116b4565b6102e76004803603604081101561067c57600080fd5b506001600160a01b0381351690602001356116ba565b61029e600480360360208110156106a857600080fd5b50356001600160a01b0316611763565b610284600480360360208110156106ce57600080fd5b50356001600160a01b031661177e565b61029e611790565b610284600480360360408110156106fc57600080fd5b506001600160a01b038135169060200135151561179f565b61028461188c565b6102846004803603606081101561073257600080fd5b506001600160a01b0381351690602081013515159060400135611892565b6102e76004803603602081101561076657600080fd5b503561195a565b61034c6004803603602081101561078357600080fd5b50356001600160a01b03166119ac565b610284600480360360208110156107a957600080fd5b50356001600160a01b03166119c1565b610284600480360360208110156107cf57600080fd5b50356001600160a01b0316611abf565b6102e7600480360360208110156107f557600080fd5b50356001600160a01b0316611ad1565b6102e76004803603606081101561081b57600080fd5b506001600160a01b0381351690602081013515159060400135611b40565b61029e611c83565b6102e76004803603602081101561085757600080fd5b50351515611c92565b6102e76004803603602081101561087657600080fd5b50351515611cfd565b603281565b600a546001600160a01b031681565b61271081565b6000546001600160a01b031681565b6000546001600160a01b031633146108f5576040805162461bcd60e51b81526020600482015260196024820152600080516020612033833981519152604482015290519081900360640190fd5b600081116109345760405162461bcd60e51b8152600401808060200182810382526029815260200180611f976029913960400191505060405180910390fd5b600255565b6000546001600160a01b03163314610986576040805162461bcd60e51b81526020600482015260196024820152600080516020612033833981519152604482015290519081900360640190fd5b600355565b6001546000908190600160b01b900460ff166109b1576109ac868686610a5f565b6109bc565b6109bc86868661144e565b6001600160a01b0387166000908152601060205260409020549091508015610a3f576001600160a01b03871660009081526011602052604090205460ff168015610a2757610a20612710610a1a610a138286611d68565b8690611dc0565b90611e19565b9250610a3d565b610a3a612710610a1a610a138286611e58565b92505b505b5095945050505050565b600154600160b01b900460ff1681565b60035481565b600080610a6c8585610f69565b9050828015610a845750600154600160a01b900460ff165b15610ac9576000610a94866119c1565b90508015610ac757848015610aa857508181115b15610ab1578091505b84158015610abe57508181105b15610ac7578091505b505b600154600160a81b900460ff1615610ae957610ae6858286610c33565b90505b6001600160a01b0385166000908152600f602052604090205460ff1615610bd257600068327cb2734119d3b7a9601e1b8211610b3a57610b3568327cb2734119d3b7a9601e1b83611e58565b610b50565b610b508268327cb2734119d3b7a9601e1b611e58565b90506003548111610b715768327cb2734119d3b7a9601e1b92505050610c2c565b848015610b89575068327cb2734119d3b7a9601e1b82115b15610b9657509050610c2c565b84158015610baf575068327cb2734119d3b7a9601e1b82105b15610bbc57509050610c2c565b68327cb2734119d3b7a9601e1b92505050610c2c565b6001600160a01b0385166000908152600e60205260409020548415610c1457610c0b612710610a1a610c048285611d68565b8590611dc0565b92505050610c2c565b610c27612710610a1a610c048285611e58565b925050505b9392505050565b6004546000906001600160a01b0316610c4d575081610c2c565b6004805460408051630ffd9c6d60e31b81526001600160a01b038881169482019490945260248101879052851515604482015290519290911691637fece36891606480820192602092909190829003018186803b158015610cad57600080fd5b505afa158015610cc1573d6000803e3d6000fd5b505050506040513d6020811015610cd757600080fd5b5051949350505050565b600154600160a81b900460ff1681565b600154600160a01b900460ff1681565b6000546001600160a01b03163314610d4e576040805162461bcd60e51b81526020600482015260196024820152600080516020612033833981519152604482015290519081900360640190fd5b600680546001600160a01b039485166001600160a01b031991821617909155600780549385169382169390931790925560088054919093169116179055565b60106020526000908152604090205481565b6008546001600160a01b031681565b601481565b6000546001600160a01b03163314610e00576040805162461bcd60e51b81526020600482015260196024820152600080516020612033833981519152604482015290519081900360640190fd5b6001600160a01b039384166000908152600c6020908152604080832080546001600160a01b0319169690971695909517909555600d855283812092909255600f90935220805460ff1916911515919091179055565b6001600160a01b038082166000908152600c602052604081205490911680610eae5760405162461bcd60e51b81526004018080602001828103825260228152602001806120c26022913960400191505060405180910390fd5b60008190506000816001600160a01b03166350d25bcd6040518163ffffffff1660e01b815260040160206040518083038186803b158015610eee57600080fd5b505afa158015610f02573d6000803e3d6000fd5b505050506040513d6020811015610f1857600080fd5b5051905060008113610f5f576040805162461bcd60e51b815260206004820152601d60248201526000805160206120a2833981519152604482015290519081900360640190fd5b925050505b919050565b6001600160a01b038083166000908152600c602052604081205490911680610fc25760405162461bcd60e51b81526004018080602001828103825260228152602001806120c26022913960400191505060405180910390fd5b6001546001600160a01b03161561109f5760015460408051631abf23ff60e11b815273a438451d6458044c3c8cd2f6f31c91ac882a6d91600482015290516000926001600160a01b03169163357e47fe916024808301926020929190829003018186803b15801561103257600080fd5b505afa158015611046573d6000803e3d6000fd5b505050506040513d602081101561105c57600080fd5b50519050801561109d5760405162461bcd60e51b81526004018080602001828103825260258152602001806120536025913960400191505060405180910390fd5b505b6000819050600080826001600160a01b031663668a0f026040518163ffffffff1660e01b815260040160206040518083038186803b1580156110e057600080fd5b505afa1580156110f4573d6000803e3d6000fd5b505050506040513d602081101561110a57600080fd5b5051905060005b600254816001600160501b0316101561131157806001600160501b0316826001600160501b03161161114257611311565b60006001600160501b038216611205576000856001600160a01b03166350d25bcd6040518163ffffffff1660e01b815260040160206040518083038186803b15801561118d57600080fd5b505afa1580156111a1573d6000803e3d6000fd5b505050506040513d60208110156111b757600080fd5b50519050600081136111fe576040805162461bcd60e51b815260206004820152601d60248201526000805160206120a2833981519152604482015290519081900360640190fd5b90506112cd565b6000856001600160a01b0316639a6fc8f58486036040518263ffffffff1660e01b815260040180826001600160501b0316815260200191505060a06040518083038186803b15801561125657600080fd5b505afa15801561126a573d6000803e3d6000fd5b505050506040513d60a081101561128057600080fd5b50602001519050600081136112ca576040805162461bcd60e51b815260206004820152601d60248201526000805160206120a2833981519152604482015290519081900360640190fd5b90505b836112d9579250611309565b8780156112e557508381115b156112f1579250611309565b871580156112fe57508381105b15611307578093505b505b600101611111565b50600082116113515760405162461bcd60e51b8152600401808060200182810382526025815260200180611fc06025913960400191505060405180910390fd5b6001600160a01b0387166000908152600d6020526040902054611388600a82900a610a1a8568327cb2734119d3b7a9601e1b611dc0565b955050505050505b92915050565b600154600160b81b900460ff1681565b6000546001600160a01b031633146113f3576040805162461bcd60e51b81526020600482015260196024820152600080516020612033833981519152604482015290519081900360640190fd5b60018054911515600160b81b0260ff60b81b19909216919091179055565b68327cb2734119d3b7a9601e1b81565b60116020526000908152604090205460ff1681565b60025481565b60126020526000908152604090205481565b60008061145b8585610f69565b90508280156114735750600154600160a01b900460ff165b15610ac957611483858583611892565b905060015460ff600160a81b9091041615610ae957610ae6858286610c33565b6000546001600160a01b031633146114f0576040805162461bcd60e51b81526020600482015260196024820152600080516020612033833981519152604482015290519081900360640190fd5b600180546001600160a01b0319166001600160a01b0392909216919091179055565b6004546001600160a01b031681565b6007546001600160a01b031681565b6000546001600160a01b0316331461157d576040805162461bcd60e51b81526020600482015260196024820152600080516020612033833981519152604482015290519081900360640190fd5b600980546001600160a01b039485166001600160a01b031991821617909155600a805493851693821693909317909255600b8054919093169116179055565b600b546001600160a01b031681565b6009546001600160a01b031681565b6000546001600160a01b03163314611627576040805162461bcd60e51b81526020600482015260196024820152600080516020612033833981519152604482015290519081900360640190fd5b60018054911515600160a01b0260ff60a01b19909216919091179055565b6000546001600160a01b03163314611692576040805162461bcd60e51b81526020600482015260196024820152600080516020612033833981519152604482015290519081900360640190fd5b600480546001600160a01b0319166001600160a01b0392909216919091179055565b611c2081565b6000546001600160a01b03163314611707576040805162461bcd60e51b81526020600482015260196024820152600080516020612033833981519152604482015290519081900360640190fd5b60328111156117475760405162461bcd60e51b815260040180806020018281038252602a815260200180612078602a913960400191505060405180910390fd5b6001600160a01b039091166000908152600e6020526040902055565b600c602052600090815260409020546001600160a01b031681565b600e6020526000908152604090205481565b6006546001600160a01b031681565b6000806000846001600160a01b0316630902f1ac6040518163ffffffff1660e01b815260040160606040518083038186803b1580156117dd57600080fd5b505afa1580156117f1573d6000803e3d6000fd5b505050506040513d606081101561180757600080fd5b5080516020909101516001600160701b0391821693501690508315611859578161183657600092505050611390565b61185082610a1a8368327cb2734119d3b7a9601e1b611dc0565b92505050611390565b8061186957600092505050611390565b61188381610a1a8468327cb2734119d3b7a9601e1b611dc0565b95945050505050565b60055481565b60008061189e856119c1565b9050806118ae5782915050610c2c565b60008382116118c6576118c18483611e58565b6118d0565b6118d08285611e58565b90506118e760055485611dc090919063ffffffff16565b6118f382612710611dc0565b101561191d57600154600160b81b900460ff1615611915578392505050610c2c565b509050610c2c565b84801561192957508382115b1561193657509050610c2c565b8415801561194357508382105b1561195057509050610c2c565b5091949350505050565b6000546001600160a01b031633146119a7576040805162461bcd60e51b81526020600482015260196024820152600080516020612033833981519152604482015290519081900360640190fd5b600555565b600f6020526000908152604090205460ff1681565b6008546000906001600160a01b03838116911614156119f8576009546119f1906001600160a01b0316600161179f565b9050610f64565b6007546001600160a01b0383811691161415611a6a57600954600090611a28906001600160a01b0316600161179f565b600a54909150600090611a45906001600160a01b0316600161179f565b9050611a6168327cb2734119d3b7a9601e1b610a1a8484611dc0565b92505050610f64565b6006546001600160a01b0383811691161415611ab757600954600090611a9a906001600160a01b0316600161179f565b600b54909150600090611a45906001600160a01b0316600161179f565b506000919050565b600d6020526000908152604090205481565b6000546001600160a01b03163314611b1e576040805162461bcd60e51b81526020600482015260196024820152600080516020612033833981519152604482015290519081900360640190fd5b600080546001600160a01b0319166001600160a01b0392909216919091179055565b6000546001600160a01b03163314611b8d576040805162461bcd60e51b81526020600482015260196024820152600080516020612033833981519152604482015290519081900360640190fd5b6001600160a01b0383166000908152601260205260409020544290611bb490611c20611d68565b10611bf05760405162461bcd60e51b815260040180806020018281038252602d815260200180612006602d913960400191505060405180910390fd5b6014811115611c3f576040805162461bcd60e51b8152602060048201526016602482015275696e76616c6964205f61646a7573746d656e7442707360501b604482015290519081900360640190fd5b6001600160a01b03929092166000908152601160209081526040808320805460ff191694151594909417909355601081528282209390935560129092529020429055565b6001546001600160a01b031681565b6000546001600160a01b03163314611cdf576040805162461bcd60e51b81526020600482015260196024820152600080516020612033833981519152604482015290519081900360640190fd5b60018054911515600160a81b0260ff60a81b19909216919091179055565b6000546001600160a01b03163314611d4a576040805162461bcd60e51b81526020600482015260196024820152600080516020612033833981519152604482015290519081900360640190fd5b60018054911515600160b01b0260ff60b01b19909216919091179055565b600082820183811015610c2c576040805162461bcd60e51b815260206004820152601b60248201527a536166654d6174683a206164646974696f6e206f766572666c6f7760281b604482015290519081900360640190fd5b600082611dcf57506000611390565b82820282848281611ddc57fe5b0414610c2c5760405162461bcd60e51b8152600401808060200182810382526021815260200180611fe56021913960400191505060405180910390fd5b6000610c2c83836040518060400160405280601a815260200179536166654d6174683a206469766973696f6e206279207a65726f60301b815250611e9a565b6000610c2c83836040518060400160405280601e81526020017f536166654d6174683a207375627472616374696f6e206f766572666c6f770000815250611f3c565b60008183611f265760405162461bcd60e51b81526004018080602001828103825283818151815260200191508051906020019080838360005b83811015611eeb578181015183820152602001611ed3565b50505050905090810190601f168015611f185780820380516001836020036101000a031916815260200191505b509250505060405180910390fd5b506000838581611f3257fe5b0495945050505050565b60008184841115611f8e5760405162461bcd60e51b8152602060048201818152835160248401528351909283926044909101919085019080838360008315611eeb578181015183820152602001611ed3565b50505090039056fe5661756c745072696365466565643a20696e76616c6964205f707269636553616d706c6553706163655661756c745072696365466565643a20636f756c64206e6f74206665746368207072696365536166654d6174683a206d756c7469706c69636174696f6e206f766572666c6f775661756c745072696365466565643a2061646a7573746d656e74206672657175656e63792065786365656465645661756c745072696365466565643a20666f7262696464656e00000000000000436861696e6c696e6b20666565647320617265206e6f74206265696e6720757064617465645661756c745072696365466565643a20696e76616c6964205f7370726561644261736973506f696e74735661756c745072696365466565643a20696e76616c69642070726963650000005661756c745072696365466565643a20696e76616c69642070726963652066656564a164736f6c634300060c000a",
  "devdoc": {
    "kind": "dev",
    "methods": {},
    "version": 1
  },
  "userdoc": {
    "kind": "user",
    "methods": {},
    "version": 1
  },
  "storageLayout": {
    "storage": [
      {
        "astId": 15528,
        "contract": "contracts/core/VaultPriceFeed.sol:VaultPriceFeed",
        "label": "gov",
        "offset": 0,
        "slot": "0",
        "type": "t_address"
      },
      {
        "astId": 15530,
        "contract": "contracts/core/VaultPriceFeed.sol:VaultPriceFeed",
        "label": "chainlinkFlags",
        "offset": 0,
        "slot": "1",
        "type": "t_address"
      },
      {
        "astId": 15533,
        "contract": "contracts/core/VaultPriceFeed.sol:VaultPriceFeed",
        "label": "isAmmEnabled",
        "offset": 20,
        "slot": "1",
        "type": "t_bool"
      },
      {
        "astId": 15536,
        "contract": "contracts/core/VaultPriceFeed.sol:VaultPriceFeed",
        "label": "isSecondaryPriceEnabled",
        "offset": 21,
        "slot": "1",
        "type": "t_bool"
      },
      {
        "astId": 15539,
        "contract": "contracts/core/VaultPriceFeed.sol:VaultPriceFeed",
        "label": "useV2Pricing",
        "offset": 22,
        "slot": "1",
        "type": "t_bool"
      },
      {
        "astId": 15542,
        "contract": "contracts/core/VaultPriceFeed.sol:VaultPriceFeed",
        "label": "favorPrimaryPrice",
        "offset": 23,
        "slot": "1",
        "type": "t_bool"
      },
      {
        "astId": 15545,
        "contract": "contracts/core/VaultPriceFeed.sol:VaultPriceFeed",
        "label": "priceSampleSpace",
        "offset": 0,
        "slot": "2",
        "type": "t_uint256"
      },
      {
        "astId": 15548,
        "contract": "contracts/core/VaultPriceFeed.sol:VaultPriceFeed",
        "label": "maxStrictPriceDeviation",
        "offset": 0,
        "slot": "3",
        "type": "t_uint256"
      },
      {
        "astId": 15550,
        "contract": "contracts/core/VaultPriceFeed.sol:VaultPriceFeed",
        "label": "secondaryPriceFeed",
        "offset": 0,
        "slot": "4",
        "type": "t_address"
      },
      {
        "astId": 15553,
        "contract": "contracts/core/VaultPriceFeed.sol:VaultPriceFeed",
        "label": "spreadThresholdBasisPoints",
        "offset": 0,
        "slot": "5",
        "type": "t_uint256"
      },
      {
        "astId": 15555,
        "contract": "contracts/core/VaultPriceFeed.sol:VaultPriceFeed",
        "label": "btc",
        "offset": 0,
        "slot": "6",
        "type": "t_address"
      },
      {
        "astId": 15557,
        "contract": "contracts/core/VaultPriceFeed.sol:VaultPriceFeed",
        "label": "eth",
        "offset": 0,
        "slot": "7",
        "type": "t_address"
      },
      {
        "astId": 15559,
        "contract": "contracts/core/VaultPriceFeed.sol:VaultPriceFeed",
        "label": "bnb",
        "offset": 0,
        "slot": "8",
        "type": "t_address"
      },
      {
        "astId": 15561,
        "contract": "contracts/core/VaultPriceFeed.sol:VaultPriceFeed",
        "label": "bnbBusd",
        "offset": 0,
        "slot": "9",
        "type": "t_address"
      },
      {
        "astId": 15563,
        "contract": "contracts/core/VaultPriceFeed.sol:VaultPriceFeed",
        "label": "ethBnb",
        "offset": 0,
        "slot": "10",
        "type": "t_address"
      },
      {
        "astId": 15565,
        "contract": "contracts/core/VaultPriceFeed.sol:VaultPriceFeed",
        "label": "btcBnb",
        "offset": 0,
        "slot": "11",
        "type": "t_address"
      },
      {
        "astId": 15569,
        "contract": "contracts/core/VaultPriceFeed.sol:VaultPriceFeed",
        "label": "priceFeeds",
        "offset": 0,
        "slot": "12",
        "type": "t_mapping(t_address,t_address)"
      },
      {
        "astId": 15573,
        "contract": "contracts/core/VaultPriceFeed.sol:VaultPriceFeed",
        "label": "priceDecimals",
        "offset": 0,
        "slot": "13",
        "type": "t_mapping(t_address,t_uint256)"
      },
      {
        "astId": 15577,
        "contract": "contracts/core/VaultPriceFeed.sol:VaultPriceFeed",
        "label": "spreadBasisPoints",
        "offset": 0,
        "slot": "14",
        "type": "t_mapping(t_address,t_uint256)"
      },
      {
        "astId": 15581,
        "contract": "contracts/core/VaultPriceFeed.sol:VaultPriceFeed",
        "label": "strictStableTokens",
        "offset": 0,
        "slot": "15",
        "type": "t_mapping(t_address,t_bool)"
      },
      {
        "astId": 15586,
        "contract": "contracts/core/VaultPriceFeed.sol:VaultPriceFeed",
        "label": "adjustmentBasisPoints",
        "offset": 0,
        "slot": "16",
        "type": "t_mapping(t_address,t_uint256)"
      },
      {
        "astId": 15591,
        "contract": "contracts/core/VaultPriceFeed.sol:VaultPriceFeed",
        "label": "isAdjustmentAdditive",
        "offset": 0,
        "slot": "17",
        "type": "t_mapping(t_address,t_bool)"
      },
      {
        "astId": 15595,
        "contract": "contracts/core/VaultPriceFeed.sol:VaultPriceFeed",
        "label": "lastAdjustmentTimings",
        "offset": 0,
        "slot": "18",
        "type": "t_mapping(t_address,t_uint256)"
      }
    ],
    "types": {
      "t_address": {
        "encoding": "inplace",
        "label": "address",
        "numberOfBytes": "20"
      },
      "t_bool": {
        "encoding": "inplace",
        "label": "bool",
        "numberOfBytes": "1"
      },
      "t_mapping(t_address,t_address)": {
        "encoding": "mapping",
        "key": "t_address",
        "label": "mapping(address => address)",
        "numberOfBytes": "32",
        "value": "t_address"
      },
      "t_mapping(t_address,t_bool)": {
        "encoding": "mapping",
        "key": "t_address",
        "label": "mapping(address => bool)",
        "numberOfBytes": "32",
        "value": "t_bool"
      },
      "t_mapping(t_address,t_uint256)": {
        "encoding": "mapping",
        "key": "t_address",
        "label": "mapping(address => uint256)",
        "numberOfBytes": "32",
        "value": "t_uint256"
      },
      "t_uint256": {
        "encoding": "inplace",
        "label": "uint256",
        "numberOfBytes": "32"
      }
    }
  }
}