{
  "address": "0x16E0dA4A5e4B385b736Ab179E5734C091a352EE1",
  "abi": [
    {
      "inputs": [
        {
          "internalType": "address",
          "name": "_admin",
          "type": "address"
        },
        {
          "internalType": "uint256",
          "name": "_buffer",
          "type": "uint256"
        },
        {
          "internalType": "uint256",
          "name": "_longBuffer",
          "type": "uint256"
        },
        {
          "internalType": "address",
          "name": "_rewardManager",
          "type": "address"
        },
        {
          "internalType": "address",
          "name": "_tokenManager",
          "type": "address"
        },
        {
          "internalType": "address",
          "name": "_mintReceiver",
          "type": "address"
        },
        {
          "internalType": "uint256",
          "name": "_maxTokenSupply",
          "type": "uint256"
        }
      ],
      "stateMutability": "nonpayable",
      "type": "constructor"
    },
    {
      "anonymous": false,
      "inputs": [
        {
          "indexed": false,
          "internalType": "bytes32",
          "name": "action",
          "type": "bytes32"
        }
      ],
      "name": "ClearAction",
      "type": "event"
    },
    {
      "anonymous": false,
      "inputs": [
        {
          "indexed": false,
          "internalType": "address",
          "name": "router",
          "type": "address"
        },
        {
          "indexed": false,
          "internalType": "address",
          "name": "plugin",
          "type": "address"
        },
        {
          "indexed": false,
          "internalType": "bytes32",
          "name": "action",
          "type": "bytes32"
        }
      ],
      "name": "SignalAddPlugin",
      "type": "event"
    },
    {
      "anonymous": false,
      "inputs": [
        {
          "indexed": false,
          "internalType": "address",
          "name": "token",
          "type": "address"
        },
        {
          "indexed": false,
          "internalType": "address",
          "name": "spender",
          "type": "address"
        },
        {
          "indexed": false,
          "internalType": "uint256",
          "name": "amount",
          "type": "uint256"
        },
        {
          "indexed": false,
          "internalType": "bytes32",
          "name": "action",
          "type": "bytes32"
        }
      ],
      "name": "SignalApprove",
      "type": "event"
    },
    {
      "anonymous": false,
      "inputs": [
        {
          "indexed": false,
          "internalType": "address",
          "name": "token",
          "type": "address"
        },
        {
          "indexed": false,
          "internalType": "address",
          "name": "receiver",
          "type": "address"
        },
        {
          "indexed": false,
          "internalType": "uint256",
          "name": "amount",
          "type": "uint256"
        },
        {
          "indexed": false,
          "internalType": "bytes32",
          "name": "action",
          "type": "bytes32"
        }
      ],
      "name": "SignalMint",
      "type": "event"
    },
    {
      "anonymous": false,
      "inputs": [
        {
          "indexed": false,
          "internalType": "bytes32",
          "name": "action",
          "type": "bytes32"
        }
      ],
      "name": "SignalPendingAction",
      "type": "event"
    },
    {
      "anonymous": false,
      "inputs": [
        {
          "indexed": false,
          "internalType": "address",
          "name": "vaultPriceFeed",
          "type": "address"
        },
        {
          "indexed": false,
          "internalType": "address",
          "name": "token",
          "type": "address"
        },
        {
          "indexed": false,
          "internalType": "address",
          "name": "priceFeed",
          "type": "address"
        },
        {
          "indexed": false,
          "internalType": "uint256",
          "name": "priceDecimals",
          "type": "uint256"
        },
        {
          "indexed": false,
          "internalType": "bool",
          "name": "isStrictStable",
          "type": "bool"
        }
      ],
      "name": "SignalPriceFeedSetTokenConfig",
      "type": "event"
    },
    {
      "anonymous": false,
      "inputs": [
        {
          "indexed": false,
          "internalType": "address",
          "name": "vault",
          "type": "address"
        },
        {
          "indexed": false,
          "internalType": "address",
          "name": "token",
          "type": "address"
        },
        {
          "indexed": false,
          "internalType": "uint256",
          "name": "amount",
          "type": "uint256"
        }
      ],
      "name": "SignalRedeemUsdg",
      "type": "event"
    },
    {
      "anonymous": false,
      "inputs": [
        {
          "indexed": false,
          "internalType": "address",
          "name": "target",
          "type": "address"
        },
        {
          "indexed": false,
          "internalType": "address",
          "name": "gov",
          "type": "address"
        },
        {
          "indexed": false,
          "internalType": "bytes32",
          "name": "action",
          "type": "bytes32"
        }
      ],
      "name": "SignalSetGov",
      "type": "event"
    },
    {
      "anonymous": false,
      "inputs": [
        {
          "indexed": false,
          "internalType": "address",
          "name": "vault",
          "type": "address"
        },
        {
          "indexed": false,
          "internalType": "address",
          "name": "priceFeed",
          "type": "address"
        },
        {
          "indexed": false,
          "internalType": "bytes32",
          "name": "action",
          "type": "bytes32"
        }
      ],
      "name": "SignalSetPriceFeed",
      "type": "event"
    },
    {
      "anonymous": false,
      "inputs": [
        {
          "indexed": false,
          "internalType": "address",
          "name": "vault",
          "type": "address"
        },
        {
          "indexed": false,
          "internalType": "address",
          "name": "token",
          "type": "address"
        },
        {
          "indexed": false,
          "internalType": "uint256",
          "name": "tokenDecimals",
          "type": "uint256"
        },
        {
          "indexed": false,
          "internalType": "uint256",
          "name": "tokenWeight",
          "type": "uint256"
        },
        {
          "indexed": false,
          "internalType": "uint256",
          "name": "minProfitBps",
          "type": "uint256"
        },
        {
          "indexed": false,
          "internalType": "uint256",
          "name": "maxUsdgAmount",
          "type": "uint256"
        },
        {
          "indexed": false,
          "internalType": "bool",
          "name": "isStable",
          "type": "bool"
        },
        {
          "indexed": false,
          "internalType": "bool",
          "name": "isShortable",
          "type": "bool"
        }
      ],
      "name": "SignalVaultSetTokenConfig",
      "type": "event"
    },
    {
      "anonymous": false,
      "inputs": [
        {
          "indexed": false,
          "internalType": "address",
          "name": "target",
          "type": "address"
        },
        {
          "indexed": false,
          "internalType": "address",
          "name": "token",
          "type": "address"
        },
        {
          "indexed": false,
          "internalType": "address",
          "name": "receiver",
          "type": "address"
        },
        {
          "indexed": false,
          "internalType": "uint256",
          "name": "amount",
          "type": "uint256"
        },
        {
          "indexed": false,
          "internalType": "bytes32",
          "name": "action",
          "type": "bytes32"
        }
      ],
      "name": "SignalWithdrawToken",
      "type": "event"
    },
    {
      "inputs": [],
      "name": "MAX_BUFFER",
      "outputs": [
        {
          "internalType": "uint256",
          "name": "",
          "type": "uint256"
        }
      ],
      "stateMutability": "view",
      "type": "function"
    },
    {
      "inputs": [],
      "name": "MAX_FEE_BASIS_POINTS",
      "outputs": [
        {
          "internalType": "uint256",
          "name": "",
          "type": "uint256"
        }
      ],
      "stateMutability": "view",
      "type": "function"
    },
    {
      "inputs": [],
      "name": "MAX_FUNDING_RATE_FACTOR",
      "outputs": [
        {
          "internalType": "uint256",
          "name": "",
          "type": "uint256"
        }
      ],
      "stateMutability": "view",
      "type": "function"
    },
    {
      "inputs": [],
      "name": "MAX_LEVERAGE_VALIDATION",
      "outputs": [
        {
          "internalType": "uint256",
          "name": "",
          "type": "uint256"
        }
      ],
      "stateMutability": "view",
      "type": "function"
    },
    {
      "inputs": [],
      "name": "PRICE_PRECISION",
      "outputs": [
        {
          "internalType": "uint256",
          "name": "",
          "type": "uint256"
        }
      ],
      "stateMutability": "view",
      "type": "function"
    },
    {
      "inputs": [
        {
          "internalType": "address",
          "name": "_token",
          "type": "address"
        }
      ],
      "name": "addExcludedToken",
      "outputs": [],
      "stateMutability": "nonpayable",
      "type": "function"
    },
    {
      "inputs": [
        {
          "internalType": "address",
          "name": "_router",
          "type": "address"
        },
        {
          "internalType": "address",
          "name": "_plugin",
          "type": "address"
        }
      ],
      "name": "addPlugin",
      "outputs": [],
      "stateMutability": "nonpayable",
      "type": "function"
    },
    {
      "inputs": [],
      "name": "admin",
      "outputs": [
        {
          "internalType": "address",
          "name": "",
          "type": "address"
        }
      ],
      "stateMutability": "view",
      "type": "function"
    },
    {
      "inputs": [
        {
          "internalType": "address",
          "name": "_token",
          "type": "address"
        },
        {
          "internalType": "address",
          "name": "_spender",
          "type": "address"
        },
        {
          "internalType": "uint256",
          "name": "_amount",
          "type": "uint256"
        }
      ],
      "name": "approve",
      "outputs": [],
      "stateMutability": "nonpayable",
      "type": "function"
    },
    {
      "inputs": [],
      "name": "buffer",
      "outputs": [
        {
          "internalType": "uint256",
          "name": "",
          "type": "uint256"
        }
      ],
      "stateMutability": "view",
      "type": "function"
    },
    {
      "inputs": [
        {
          "internalType": "bytes32",
          "name": "_action",
          "type": "bytes32"
        }
      ],
      "name": "cancelAction",
      "outputs": [],
      "stateMutability": "nonpayable",
      "type": "function"
    },
    {
      "inputs": [
        {
          "internalType": "address",
          "name": "",
          "type": "address"
        }
      ],
      "name": "excludedTokens",
      "outputs": [
        {
          "internalType": "bool",
          "name": "",
          "type": "bool"
        }
      ],
      "stateMutability": "view",
      "type": "function"
    },
    {
      "inputs": [
        {
          "internalType": "address",
          "name": "",
          "type": "address"
        }
      ],
      "name": "isHandler",
      "outputs": [
        {
          "internalType": "bool",
          "name": "",
          "type": "bool"
        }
      ],
      "stateMutability": "view",
      "type": "function"
    },
    {
      "inputs": [],
      "name": "longBuffer",
      "outputs": [
        {
          "internalType": "uint256",
          "name": "",
          "type": "uint256"
        }
      ],
      "stateMutability": "view",
      "type": "function"
    },
    {
      "inputs": [],
      "name": "maxTokenSupply",
      "outputs": [
        {
          "internalType": "uint256",
          "name": "",
          "type": "uint256"
        }
      ],
      "stateMutability": "view",
      "type": "function"
    },
    {
      "inputs": [],
      "name": "mintReceiver",
      "outputs": [
        {
          "internalType": "address",
          "name": "",
          "type": "address"
        }
      ],
      "stateMutability": "view",
      "type": "function"
    },
    {
      "inputs": [
        {
          "internalType": "bytes32",
          "name": "",
          "type": "bytes32"
        }
      ],
      "name": "pendingActions",
      "outputs": [
        {
          "internalType": "uint256",
          "name": "",
          "type": "uint256"
        }
      ],
      "stateMutability": "view",
      "type": "function"
    },
    {
      "inputs": [
        {
          "internalType": "address",
          "name": "_vaultPriceFeed",
          "type": "address"
        },
        {
          "internalType": "address",
          "name": "_token",
          "type": "address"
        },
        {
          "internalType": "address",
          "name": "_priceFeed",
          "type": "address"
        },
        {
          "internalType": "uint256",
          "name": "_priceDecimals",
          "type": "uint256"
        },
        {
          "internalType": "bool",
          "name": "_isStrictStable",
          "type": "bool"
        }
      ],
      "name": "priceFeedSetTokenConfig",
      "outputs": [],
      "stateMutability": "nonpayable",
      "type": "function"
    },
    {
      "inputs": [
        {
          "internalType": "address",
          "name": "_token",
          "type": "address"
        },
        {
          "internalType": "address",
          "name": "_receiver",
          "type": "address"
        },
        {
          "internalType": "uint256",
          "name": "_amount",
          "type": "uint256"
        }
      ],
      "name": "processMint",
      "outputs": [],
      "stateMutability": "nonpayable",
      "type": "function"
    },
    {
      "inputs": [
        {
          "internalType": "address",
          "name": "_vault",
          "type": "address"
        },
        {
          "internalType": "address",
          "name": "_token",
          "type": "address"
        },
        {
          "internalType": "uint256",
          "name": "_amount",
          "type": "uint256"
        }
      ],
      "name": "redeemUsdg",
      "outputs": [],
      "stateMutability": "nonpayable",
      "type": "function"
    },
    {
      "inputs": [
        {
          "internalType": "address",
          "name": "_token",
          "type": "address"
        },
        {
          "internalType": "address",
          "name": "_account",
          "type": "address"
        }
      ],
      "name": "removeAdmin",
      "outputs": [],
      "stateMutability": "nonpayable",
      "type": "function"
    },
    {
      "inputs": [],
      "name": "rewardManager",
      "outputs": [
        {
          "internalType": "address",
          "name": "",
          "type": "address"
        }
      ],
      "stateMutability": "view",
      "type": "function"
    },
    {
      "inputs": [
        {
          "internalType": "address",
          "name": "_priceFeed",
          "type": "address"
        },
        {
          "internalType": "address",
          "name": "_token",
          "type": "address"
        },
        {
          "internalType": "bool",
          "name": "_isAdditive",
          "type": "bool"
        },
        {
          "internalType": "uint256",
          "name": "_adjustmentBps",
          "type": "uint256"
        }
      ],
      "name": "setAdjustment",
      "outputs": [],
      "stateMutability": "nonpayable",
      "type": "function"
    },
    {
      "inputs": [
        {
          "internalType": "address",
          "name": "_admin",
          "type": "address"
        }
      ],
      "name": "setAdmin",
      "outputs": [],
      "stateMutability": "nonpayable",
      "type": "function"
    },
    {
      "inputs": [
        {
          "internalType": "uint256",
          "name": "_buffer",
          "type": "uint256"
        }
      ],
      "name": "setBuffer",
      "outputs": [],
      "stateMutability": "nonpayable",
      "type": "function"
    },
    {
      "inputs": [
        {
          "internalType": "address",
          "name": "_handler",
          "type": "address"
        },
        {
          "internalType": "bool",
          "name": "_isActive",
          "type": "bool"
        }
      ],
      "name": "setContractHandler",
      "outputs": [],
      "stateMutability": "nonpayable",
      "type": "function"
    },
    {
      "inputs": [
        {
          "internalType": "address",
          "name": "_target",
          "type": "address"
        },
        {
          "internalType": "address",
          "name": "_admin",
          "type": "address"
        }
      ],
      "name": "setExternalAdmin",
      "outputs": [],
      "stateMutability": "nonpayable",
      "type": "function"
    },
    {
      "inputs": [
        {
          "internalType": "address",
          "name": "_priceFeed",
          "type": "address"
        },
        {
          "internalType": "bool",
          "name": "_favorPrimaryPrice",
          "type": "bool"
        }
      ],
      "name": "setFavorPrimaryPrice",
      "outputs": [],
      "stateMutability": "nonpayable",
      "type": "function"
    },
    {
      "inputs": [
        {
          "internalType": "address",
          "name": "_vault",
          "type": "address"
        },
        {
          "internalType": "uint256",
          "name": "_taxBasisPoints",
          "type": "uint256"
        },
        {
          "internalType": "uint256",
          "name": "_stableTaxBasisPoints",
          "type": "uint256"
        },
        {
          "internalType": "uint256",
          "name": "_mintBurnFeeBasisPoints",
          "type": "uint256"
        },
        {
          "internalType": "uint256",
          "name": "_swapFeeBasisPoints",
          "type": "uint256"
        },
        {
          "internalType": "uint256",
          "name": "_stableSwapFeeBasisPoints",
          "type": "uint256"
        },
        {
          "internalType": "uint256",
          "name": "_marginFeeBasisPoints",
          "type": "uint256"
        },
        {
          "internalType": "uint256",
          "name": "_liquidationFeeUsd",
          "type": "uint256"
        },
        {
          "internalType": "uint256",
          "name": "_minProfitTime",
          "type": "uint256"
        },
        {
          "internalType": "bool",
          "name": "_hasDynamicFees",
          "type": "bool"
        }
      ],
      "name": "setFees",
      "outputs": [],
      "stateMutability": "nonpayable",
      "type": "function"
    },
    {
      "inputs": [
        {
          "internalType": "address",
          "name": "_vault",
          "type": "address"
        },
        {
          "internalType": "uint256",
          "name": "_fundingInterval",
          "type": "uint256"
        },
        {
          "internalType": "uint256",
          "name": "_fundingRateFactor",
          "type": "uint256"
        },
        {
          "internalType": "uint256",
          "name": "_stableFundingRateFactor",
          "type": "uint256"
        }
      ],
      "name": "setFundingRate",
      "outputs": [],
      "stateMutability": "nonpayable",
      "type": "function"
    },
    {
      "inputs": [
        {
          "internalType": "address",
          "name": "_target",
          "type": "address"
        },
        {
          "internalType": "address",
          "name": "_gov",
          "type": "address"
        }
      ],
      "name": "setGov",
      "outputs": [],
      "stateMutability": "nonpayable",
      "type": "function"
    },
    {
      "inputs": [
        {
          "internalType": "address",
          "name": "_vault",
          "type": "address"
        },
        {
          "internalType": "bool",
          "name": "_inPrivateLiquidationMode",
          "type": "bool"
        }
      ],
      "name": "setInPrivateLiquidationMode",
      "outputs": [],
      "stateMutability": "nonpayable",
      "type": "function"
    },
    {
      "inputs": [
        {
          "internalType": "address",
          "name": "_token",
          "type": "address"
        },
        {
          "internalType": "bool",
          "name": "_inPrivateTransferMode",
          "type": "bool"
        }
      ],
      "name": "setInPrivateTransferMode",
      "outputs": [],
      "stateMutability": "nonpayable",
      "type": "function"
    },
    {
      "inputs": [
        {
          "internalType": "address",
          "name": "_priceFeed",
          "type": "address"
        },
        {
          "internalType": "bool",
          "name": "_isEnabled",
          "type": "bool"
        }
      ],
      "name": "setIsAmmEnabled",
      "outputs": [],
      "stateMutability": "nonpayable",
      "type": "function"
    },
    {
      "inputs": [
        {
          "internalType": "address",
          "name": "_vault",
          "type": "address"
        },
        {
          "internalType": "bool",
          "name": "_isLeverageEnabled",
          "type": "bool"
        }
      ],
      "name": "setIsLeverageEnabled",
      "outputs": [],
      "stateMutability": "nonpayable",
      "type": "function"
    },
    {
      "inputs": [
        {
          "internalType": "address",
          "name": "_priceFeed",
          "type": "address"
        },
        {
          "internalType": "bool",
          "name": "_isEnabled",
          "type": "bool"
        }
      ],
      "name": "setIsSecondaryPriceEnabled",
      "outputs": [],
      "stateMutability": "nonpayable",
      "type": "function"
    },
    {
      "inputs": [
        {
          "internalType": "address",
          "name": "_vault",
          "type": "address"
        },
        {
          "internalType": "bool",
          "name": "_isSwapEnabled",
          "type": "bool"
        }
      ],
      "name": "setIsSwapEnabled",
      "outputs": [],
      "stateMutability": "nonpayable",
      "type": "function"
    },
    {
      "inputs": [
        {
          "internalType": "address",
          "name": "_vault",
          "type": "address"
        },
        {
          "internalType": "address",
          "name": "_liquidator",
          "type": "address"
        },
        {
          "internalType": "bool",
          "name": "_isActive",
          "type": "bool"
        }
      ],
      "name": "setLiquidator",
      "outputs": [],
      "stateMutability": "nonpayable",
      "type": "function"
    },
    {
      "inputs": [
        {
          "internalType": "address",
          "name": "_vault",
          "type": "address"
        },
        {
          "internalType": "uint256",
          "name": "_maxGasPrice",
          "type": "uint256"
        }
      ],
      "name": "setMaxGasPrice",
      "outputs": [],
      "stateMutability": "nonpayable",
      "type": "function"
    },
    {
      "inputs": [
        {
          "internalType": "address",
          "name": "_vault",
          "type": "address"
        },
        {
          "internalType": "address",
          "name": "_token",
          "type": "address"
        },
        {
          "internalType": "uint256",
          "name": "_amount",
          "type": "uint256"
        }
      ],
      "name": "setMaxGlobalShortSize",
      "outputs": [],
      "stateMutability": "nonpayable",
      "type": "function"
    },
    {
      "inputs": [
        {
          "internalType": "address",
          "name": "_vault",
          "type": "address"
        },
        {
          "internalType": "uint256",
          "name": "_maxLeverage",
          "type": "uint256"
        }
      ],
      "name": "setMaxLeverage",
      "outputs": [],
      "stateMutability": "nonpayable",
      "type": "function"
    },
    {
      "inputs": [
        {
          "internalType": "address",
          "name": "_priceFeed",
          "type": "address"
        },
        {
          "internalType": "uint256",
          "name": "_maxStrictPriceDeviation",
          "type": "uint256"
        }
      ],
      "name": "setMaxStrictPriceDeviation",
      "outputs": [],
      "stateMutability": "nonpayable",
      "type": "function"
    },
    {
      "inputs": [
        {
          "internalType": "address",
          "name": "_vault",
          "type": "address"
        },
        {
          "internalType": "address",
          "name": "_priceFeed",
          "type": "address"
        }
      ],
      "name": "setPriceFeed",
      "outputs": [],
      "stateMutability": "nonpayable",
      "type": "function"
    },
    {
      "inputs": [
        {
          "internalType": "address",
          "name": "_priceFeed",
          "type": "address"
        },
        {
          "internalType": "uint256",
          "name": "_priceSampleSpace",
          "type": "uint256"
        }
      ],
      "name": "setPriceSampleSpace",
      "outputs": [],
      "stateMutability": "nonpayable",
      "type": "function"
    },
    {
      "inputs": [
        {
          "internalType": "address",
          "name": "_priceFeed",
          "type": "address"
        },
        {
          "internalType": "address",
          "name": "_token",
          "type": "address"
        },
        {
          "internalType": "uint256",
          "name": "_spreadBasisPoints",
          "type": "uint256"
        }
      ],
      "name": "setSpreadBasisPoints",
      "outputs": [],
      "stateMutability": "nonpayable",
      "type": "function"
    },
    {
      "inputs": [
        {
          "internalType": "address",
          "name": "_priceFeed",
          "type": "address"
        },
        {
          "internalType": "uint256",
          "name": "_spreadThresholdBasisPoints",
          "type": "uint256"
        }
      ],
      "name": "setSpreadThresholdBasisPoints",
      "outputs": [],
      "stateMutability": "nonpayable",
      "type": "function"
    },
    {
      "inputs": [
        {
          "internalType": "address",
          "name": "_vault",
          "type": "address"
        },
        {
          "internalType": "address",
          "name": "_token",
          "type": "address"
        },
        {
          "internalType": "uint256",
          "name": "_tokenWeight",
          "type": "uint256"
        },
        {
          "internalType": "uint256",
          "name": "_minProfitBps",
          "type": "uint256"
        },
        {
          "internalType": "uint256",
          "name": "_maxUsdgAmount",
          "type": "uint256"
        },
        {
          "internalType": "uint256",
          "name": "_bufferAmount",
          "type": "uint256"
        },
        {
          "internalType": "uint256",
          "name": "_usdgAmount",
          "type": "uint256"
        }
      ],
      "name": "setTokenConfig",
      "outputs": [],
      "stateMutability": "nonpayable",
      "type": "function"
    },
    {
      "inputs": [
        {
          "internalType": "address",
          "name": "_priceFeed",
          "type": "address"
        },
        {
          "internalType": "bool",
          "name": "_useV2Pricing",
          "type": "bool"
        }
      ],
      "name": "setUseV2Pricing",
      "outputs": [],
      "stateMutability": "nonpayable",
      "type": "function"
    },
    {
      "inputs": [
        {
          "internalType": "address",
          "name": "_vault",
          "type": "address"
        },
        {
          "internalType": "contract IVaultUtils",
          "name": "_vaultUtils",
          "type": "address"
        }
      ],
      "name": "setVaultUtils",
      "outputs": [],
      "stateMutability": "nonpayable",
      "type": "function"
    },
    {
      "inputs": [
        {
          "internalType": "address",
          "name": "_router",
          "type": "address"
        },
        {
          "internalType": "address",
          "name": "_plugin",
          "type": "address"
        }
      ],
      "name": "signalAddPlugin",
      "outputs": [],
      "stateMutability": "nonpayable",
      "type": "function"
    },
    {
      "inputs": [
        {
          "internalType": "address",
          "name": "_token",
          "type": "address"
        },
        {
          "internalType": "address",
          "name": "_spender",
          "type": "address"
        },
        {
          "internalType": "uint256",
          "name": "_amount",
          "type": "uint256"
        }
      ],
      "name": "signalApprove",
      "outputs": [],
      "stateMutability": "nonpayable",
      "type": "function"
    },
    {
      "inputs": [
        {
          "internalType": "address",
          "name": "_token",
          "type": "address"
        },
        {
          "internalType": "address",
          "name": "_receiver",
          "type": "address"
        },
        {
          "internalType": "uint256",
          "name": "_amount",
          "type": "uint256"
        }
      ],
      "name": "signalMint",
      "outputs": [],
      "stateMutability": "nonpayable",
      "type": "function"
    },
    {
      "inputs": [
        {
          "internalType": "address",
          "name": "_vaultPriceFeed",
          "type": "address"
        },
        {
          "internalType": "address",
          "name": "_token",
          "type": "address"
        },
        {
          "internalType": "address",
          "name": "_priceFeed",
          "type": "address"
        },
        {
          "internalType": "uint256",
          "name": "_priceDecimals",
          "type": "uint256"
        },
        {
          "internalType": "bool",
          "name": "_isStrictStable",
          "type": "bool"
        }
      ],
      "name": "signalPriceFeedSetTokenConfig",
      "outputs": [],
      "stateMutability": "nonpayable",
      "type": "function"
    },
    {
      "inputs": [
        {
          "internalType": "address",
          "name": "_vault",
          "type": "address"
        },
        {
          "internalType": "address",
          "name": "_token",
          "type": "address"
        },
        {
          "internalType": "uint256",
          "name": "_amount",
          "type": "uint256"
        }
      ],
      "name": "signalRedeemUsdg",
      "outputs": [],
      "stateMutability": "nonpayable",
      "type": "function"
    },
    {
      "inputs": [
        {
          "internalType": "address",
          "name": "_target",
          "type": "address"
        },
        {
          "internalType": "address",
          "name": "_gov",
          "type": "address"
        }
      ],
      "name": "signalSetGov",
      "outputs": [],
      "stateMutability": "nonpayable",
      "type": "function"
    },
    {
      "inputs": [
        {
          "internalType": "address",
          "name": "_vault",
          "type": "address"
        },
        {
          "internalType": "address",
          "name": "_priceFeed",
          "type": "address"
        }
      ],
      "name": "signalSetPriceFeed",
      "outputs": [],
      "stateMutability": "nonpayable",
      "type": "function"
    },
    {
      "inputs": [
        {
          "internalType": "address",
          "name": "_vault",
          "type": "address"
        },
        {
          "internalType": "address",
          "name": "_token",
          "type": "address"
        },
        {
          "internalType": "uint256",
          "name": "_tokenDecimals",
          "type": "uint256"
        },
        {
          "internalType": "uint256",
          "name": "_tokenWeight",
          "type": "uint256"
        },
        {
          "internalType": "uint256",
          "name": "_minProfitBps",
          "type": "uint256"
        },
        {
          "internalType": "uint256",
          "name": "_maxUsdgAmount",
          "type": "uint256"
        },
        {
          "internalType": "bool",
          "name": "_isStable",
          "type": "bool"
        },
        {
          "internalType": "bool",
          "name": "_isShortable",
          "type": "bool"
        }
      ],
      "name": "signalVaultSetTokenConfig",
      "outputs": [],
      "stateMutability": "nonpayable",
      "type": "function"
    },
    {
      "inputs": [
        {
          "internalType": "address",
          "name": "_target",
          "type": "address"
        },
        {
          "internalType": "address",
          "name": "_token",
          "type": "address"
        },
        {
          "internalType": "address",
          "name": "_receiver",
          "type": "address"
        },
        {
          "internalType": "uint256",
          "name": "_amount",
          "type": "uint256"
        }
      ],
      "name": "signalWithdrawToken",
      "outputs": [],
      "stateMutability": "nonpayable",
      "type": "function"
    },
    {
      "inputs": [],
      "name": "tokenManager",
      "outputs": [
        {
          "internalType": "address",
          "name": "",
          "type": "address"
        }
      ],
      "stateMutability": "view",
      "type": "function"
    },
    {
      "inputs": [
        {
          "internalType": "address",
          "name": "_sender",
          "type": "address"
        },
        {
          "internalType": "address",
          "name": "_token",
          "type": "address"
        },
        {
          "internalType": "uint256",
          "name": "_amount",
          "type": "uint256"
        }
      ],
      "name": "transferIn",
      "outputs": [],
      "stateMutability": "nonpayable",
      "type": "function"
    },
    {
      "inputs": [
        {
          "internalType": "address",
          "name": "_vault",
          "type": "address"
        },
        {
          "internalType": "address",
          "name": "_token",
          "type": "address"
        },
        {
          "internalType": "uint256",
          "name": "_tokenDecimals",
          "type": "uint256"
        },
        {
          "internalType": "uint256",
          "name": "_tokenWeight",
          "type": "uint256"
        },
        {
          "internalType": "uint256",
          "name": "_minProfitBps",
          "type": "uint256"
        },
        {
          "internalType": "uint256",
          "name": "_maxUsdgAmount",
          "type": "uint256"
        },
        {
          "internalType": "bool",
          "name": "_isStable",
          "type": "bool"
        },
        {
          "internalType": "bool",
          "name": "_isShortable",
          "type": "bool"
        }
      ],
      "name": "vaultSetTokenConfig",
      "outputs": [],
      "stateMutability": "nonpayable",
      "type": "function"
    },
    {
      "inputs": [
        {
          "internalType": "address",
          "name": "_vault",
          "type": "address"
        },
        {
          "internalType": "address",
          "name": "_token",
          "type": "address"
        },
        {
          "internalType": "address",
          "name": "_receiver",
          "type": "address"
        }
      ],
      "name": "withdrawFees",
      "outputs": [],
      "stateMutability": "nonpayable",
      "type": "function"
    },
    {
      "inputs": [
        {
          "internalType": "address",
          "name": "_target",
          "type": "address"
        },
        {
          "internalType": "address",
          "name": "_token",
          "type": "address"
        },
        {
          "internalType": "address",
          "name": "_receiver",
          "type": "address"
        },
        {
          "internalType": "uint256",
          "name": "_amount",
          "type": "uint256"
        }
      ],
      "name": "withdrawToken",
      "outputs": [],
      "stateMutability": "nonpayable",
      "type": "function"
    }
  ],
  "transactionHash": "0x4def9efd4b91b8ca4c842169e6a7c9d1949405beecd06cab795c366fcc913b15",
  "args": [
    "0xf5CA36c9873d61Bc28C117BD470981Ef6647A685",
    86400,
    604800,
    "0x0000000000000000000000000000000000000000",
    "0xF216D8e6b1Bce02C02913804d9683b6e8be188A9",
    "0x0000000000000000000000000000000000000000",
    "13250000000000000000000000"
  ],
  "numDeployments": 1,
  "solcInputHash": "a5c1ec6ed734a994a4a7c4ed9bed389b",
  "bytecode": "0x60806040523480156200001157600080fd5b506040516200478838038062004788833981810160405260e08110156200003757600080fd5b508051602082015160408301516060840151608085015160a086015160c090960151949593949293919290919062093a80861115620000bd576040805162461bcd60e51b815260206004820152601c60248201527f58647854696d656c6f636b3a20696e76616c6964205f62756666657200000000604482015290519081900360640190fd5b62093a8085111562000116576040805162461bcd60e51b815260206004820181905260248201527f58647854696d656c6f636b3a20696e76616c6964205f6c6f6e67427566666572604482015290519081900360640190fd5b600280546001600160a01b039889166001600160a01b031991821617909155600096909655600194909455600480549387169386169390931790925560038054918616918516919091179055600580549190941692169190911790915560065561460280620001866000396000f3fe608060405234801561001057600080fd5b50600436106102e55760003560e01c806361d075691161018f57806361d075691461086e57806369623ae2146108765780636e5227d4146108a4578063704b6c021461090557806370ac0a931461092b57806376e1128614610961578063781cc3d31461098f5780637b6f775a146109ac5780637b9fb227146109d857806380894d6214610a0657806386803c7214610a345780638a39735a14610a625780638bf22c4614610a6a57806395082d2514610a96578063996a7a1e14610a9e578063a0a316a214610acc578063adc7ea3714610af8578063bc476dfd14610b15578063bc8a8ab914610b43578063c7bb26a014610b79578063cd2b123014610b81578063d7c2e92f14610baf578063db1c844114610bd5578063dce6e18d14610c2e578063df3a66d914610c64578063e1f21c6714610c9a578063e30569e514610cd0578063e3cbeb0f14610ced578063e4652f4914610d46578063e7b0a3a114610d7c578063edaafe2014610db2578063f851a44014610dba576102e5565b80630191c237146102ea57806309cc9a08146103225780630e0dc426146103585780630e9587f3146103a65780630f4ef8a6146103de578063117cf2041461040257806314aea30714610430578063185051c11461045c57806321754d9e1461048a57806321bd0592146104c6578063227f03eb146104f4578063268959e51461052c5780632877f4c31461055a5780632965c8c714610586578063296b07e5146105b45780632a709b14146105f25780632ba3725a146105fa5780633335e38a14610614578063384cae7314610658578063454ffa461461069c57806346ea87af146106ca57806347de43e2146107045780634befe2ca1461073c5780634cd23f3b1461074457806350f7c2041461078057806351a6de0d1461078857806353b6bfdd146107b657806355ef1395146107e45780635843752f146108125780635dae8841146108405780635fa7955c14610866575b600080fd5b6103206004803603606081101561030057600080fd5b506001600160a01b03813581169160208101359091169060400135610dc2565b005b6103206004803603606081101561033857600080fd5b506001600160a01b03813581169160208101359091169060400135610ec0565b610320600480360360e081101561036e57600080fd5b506001600160a01b03813581169160208101359091169060408101359060608101359060808101359060a08101359060c00135610fbf565b610320600480360360608110156103bc57600080fd5b506001600160a01b0381358116916020810135821691604090910135166113ee565b6103e66114cc565b604080516001600160a01b039092168252519081900360200190f35b6103206004803603604081101561041857600080fd5b506001600160a01b03813516906020013515156114db565b6103206004803603604081101561044657600080fd5b506001600160a01b03813516906020013561158c565b6103206004803603604081101561047257600080fd5b506001600160a01b038135169060200135151561161f565b610320600480360360808110156104a057600080fd5b506001600160a01b03813581169160208101358216916040820135169060600135611697565b610320600480360360408110156104dc57600080fd5b506001600160a01b03813516906020013515156117e2565b6103206004803603608081101561050a57600080fd5b506001600160a01b038135169060208101359060408101359060600135611877565b6103206004803603604081101561054257600080fd5b506001600160a01b03813581169160200135166119b6565b6103206004803603604081101561057057600080fd5b506001600160a01b038135169060200135611a52565b6103206004803603604081101561059c57600080fd5b506001600160a01b0381351690602001351515611b37565b610320600480360360808110156105ca57600080fd5b506001600160a01b038135811691602081013590911690604081013515159060600135611bcc565b6103e6611c7a565b610602611c89565b60408051918252519081900360200190f35b610320600480360360a081101561062a57600080fd5b506001600160a01b038135811691602081013582169160408201351690606081013590608001351515611c90565b610320600480360360a081101561066e57600080fd5b506001600160a01b038135811691602081013582169160408201351690606081013590608001351515611dea565b610320600480360360408110156106b257600080fd5b506001600160a01b0381351690602001351515611f1b565b6106f0600480360360208110156106e057600080fd5b50356001600160a01b0316611fb0565b604080519115158252519081900360200190f35b6103206004803603606081101561071a57600080fd5b506001600160a01b038135811691602081013590911690604001351515611fc5565b610602612088565b6103206004803603608081101561075a57600080fd5b506001600160a01b0381358116916020810135821691604082013516906060013561208e565b6106026121a9565b6103206004803603604081101561079e57600080fd5b506001600160a01b03813581169160200135166121af565b610320600480360360408110156107cc57600080fd5b506001600160a01b03813581169160200135166122a9565b610320600480360360408110156107fa57600080fd5b506001600160a01b038135811691602001351661239d565b6103206004803603604081101561082857600080fd5b506001600160a01b0381351690602001351515612496565b6106f06004803603602081101561085657600080fd5b50356001600160a01b031661252b565b610602612540565b610602612546565b6103206004803603604081101561088c57600080fd5b506001600160a01b038135811691602001351661254d565b61032060048036036101408110156108bb57600080fd5b506001600160a01b038135169060208101359060408101359060608101359060808101359060a08101359060c08101359060e081013590610100810135906101200135151561264a565b6103206004803603602081101561091b57600080fd5b50356001600160a01b0316612908565b6103206004803603606081101561094157600080fd5b506001600160a01b03813581169160208101359091169060400135612977565b6103206004803603604081101561097757600080fd5b506001600160a01b0381358116916020013516612d75565b610320600480360360208110156109a557600080fd5b5035612e74565b610320600480360360408110156109c257600080fd5b506001600160a01b038135169060200135612ecd565b610320600480360360408110156109ee57600080fd5b506001600160a01b0381351690602001351515612fa1565b61032060048036036040811015610a1c57600080fd5b506001600160a01b0381358116916020013516613036565b61032060048036036040811015610a4a57600080fd5b506001600160a01b038135169060200135151561312c565b61060261321f565b61032060048036036040811015610a8057600080fd5b506001600160a01b038135169060200135613224565b610602613307565b61032060048036036040811015610ab457600080fd5b506001600160a01b0381358116916020013516613317565b61032060048036036040811015610ae257600080fd5b506001600160a01b038135169060200135613408565b61032060048036036020811015610b0e57600080fd5b503561349b565b61032060048036036040811015610b2b57600080fd5b506001600160a01b0381358116916020013516613584565b61032060048036036060811015610b5957600080fd5b506001600160a01b03813581169160208101359091169060400135613620565b6103e66136e2565b61032060048036036040811015610b9757600080fd5b506001600160a01b03813516906020013515156136f1565b61032060048036036020811015610bc557600080fd5b50356001600160a01b03166137a0565b6103206004803603610100811015610bec57600080fd5b506001600160a01b03813581169160208101359091169060408101359060608101359060808101359060a08101359060c081013515159060e001351515613811565b61032060048036036060811015610c4457600080fd5b506001600160a01b0381358116916020810135909116906040013561396e565b61032060048036036060811015610c7a57600080fd5b506001600160a01b03813581169160208101359091169060400135613a70565b61032060048036036060811015610cb057600080fd5b506001600160a01b03813581169160208101359091169060400135613b14565b61060260048036036020811015610ce657600080fd5b5035613c49565b6103206004803603610100811015610d0457600080fd5b506001600160a01b03813581169160208101359091169060408101359060608101359060808101359060a08101359060c081013515159060e001351515613c5b565b61032060048036036060811015610d5c57600080fd5b506001600160a01b03813581169160208101359091169060400135613de0565b61032060048036036060811015610d9257600080fd5b506001600160a01b03813581169160208101359091169060400135613e86565b610602613f2a565b6103e6613f30565b6002546001600160a01b03163314610e0f576040805162461bcd60e51b81526020600482015260166024820152600080516020614451833981519152604482015290519081900360640190fd5b604080516972656465656d5573646760b01b6020808301919091526001600160601b0319606087811b8216602a85015286901b16603e83015260528083018590528351808403909101815260729092019092528051910120610e7081613f3f565b604080516001600160a01b0380871682528516602082015280820184905290517fe6bd553b6ef21f3a22ebc877b3aaedc30fe15826b8156d4e8c8b373ebf11d78b9181900360600190a150505050565b6002546001600160a01b03163314610f0d576040805162461bcd60e51b81526020600482015260166024820152600080516020614451833981519152604482015290519081900360640190fd5b60408051631b5a5b9d60e21b6020808301919091526001600160601b0319606087811b8216602485015286901b166038830152604c80830185905283518084039091018152606c9092019092528051910120610f6881613f3f565b604080516001600160a01b038087168252851660208201528082018490526060810183905290517f23d37bec99db82564427c9bbfe48ad7434bccf413a40fd357fb838c90a0d68289181900360800190a150505050565b6002546001600160a01b0316331461100c576040805162461bcd60e51b81526020600482015260166024820152600080516020614451833981519152604482015290519081900360640190fd5b6101f484111561104d5760405162461bcd60e51b81526004018080602001828103825260228152602001806143af6022913960400191505060405180910390fd5b60408051630daf9c2160e41b81526001600160a01b0388811660048301529151899283169163daf9c210916024808301926020929190829003018186803b15801561109757600080fd5b505afa1580156110ab573d6000803e3d6000fd5b505050506040513d60208110156110c157600080fd5b50516110fe5760405162461bcd60e51b81526004018080602001828103825260268152602001806144716026913960400191505060405180910390fd5b6000816001600160a01b0316638ee573ac896040518263ffffffff1660e01b815260040180826001600160a01b0316815260200191505060206040518083038186803b15801561114d57600080fd5b505afa158015611161573d6000803e3d6000fd5b505050506040513d602081101561117757600080fd5b5051604080516342b60b0360e01b81526001600160a01b038b811660048301529151929350600092918516916342b60b0391602480820192602092909190829003018186803b1580156111c957600080fd5b505afa1580156111dd573d6000803e3d6000fd5b505050506040513d60208110156111f357600080fd5b50516040805163db3555fb60e01b81526001600160a01b038c8116600483015291519293506000929186169163db3555fb91602480820192602092909190829003018186803b15801561124557600080fd5b505afa158015611259573d6000803e3d6000fd5b505050506040513d602081101561126f57600080fd5b505160408051633c5a6e3560e01b81526001600160a01b038d8116600483015260248201879052604482018d9052606482018c9052608482018b905285151560a483015283151560c48301529151929350908d1691633c5a6e359160e48082019260009290919082900301818387803b1580156112eb57600080fd5b505af11580156112ff573d6000803e3d6000fd5b505050508a6001600160a01b0316638585f4d28b886040518363ffffffff1660e01b815260040180836001600160a01b0316815260200182815260200192505050600060405180830381600087803b15801561135a57600080fd5b505af115801561136e573d6000803e3d6000fd5b505050508a6001600160a01b031663d66b000d8b876040518363ffffffff1660e01b815260040180836001600160a01b0316815260200182815260200192505050600060405180830381600087803b1580156113c957600080fd5b505af11580156113dd573d6000803e3d6000fd5b505050505050505050505050505050565b6002546001600160a01b0316331461143b576040805162461bcd60e51b81526020600482015260166024820152600080516020614451833981519152604482015290519081900360640190fd5b826001600160a01b031663f255527883836040518363ffffffff1660e01b815260040180836001600160a01b03168152602001826001600160a01b0316815260200192505050602060405180830381600087803b15801561149b57600080fd5b505af11580156114af573d6000803e3d6000fd5b505050506040513d60208110156114c557600080fd5b5050505050565b6004546001600160a01b031681565b6002546001600160a01b03163314611528576040805162461bcd60e51b81526020600482015260166024820152600080516020614451833981519152604482015290519081900360640190fd5b816001600160a01b03166330455ede826040518263ffffffff1660e01b8152600401808215158152602001915050600060405180830381600087803b15801561157057600080fd5b505af1158015611584573d6000803e3d6000fd5b505050505050565b6002546001600160a01b031633146115d9576040805162461bcd60e51b81526020600482015260166024820152600080516020614451833981519152604482015290519081900360640190fd5b816001600160a01b031663b731dd87826040518263ffffffff1660e01b815260040180828152602001915050600060405180830381600087803b15801561157057600080fd5b6002546001600160a01b0316331461166c576040805162461bcd60e51b81526020600482015260166024820152600080516020614451833981519152604482015290519081900360640190fd5b6001600160a01b03919091166000908152600960205260409020805460ff1916911515919091179055565b6002546001600160a01b031633146116e4576040805162461bcd60e51b81526020600482015260166024820152600080516020614451833981519152604482015290519081900360640190fd5b604080516c3bb4ba34323930bbaa37b5b2b760991b6020808301919091526001600160601b0319606088811b8216602d85015287811b8216604185015286901b1660558301526069808301859052835180840390910181526089909201909252805191012061175281613f98565b61175b8161402e565b846001600160a01b03166301e336678585856040518463ffffffff1660e01b815260040180846001600160a01b03168152602001836001600160a01b031681526020018281526020019350505050600060405180830381600087803b1580156117c357600080fd5b505af11580156117d7573d6000803e3d6000fd5b505050505050505050565b6002546001600160a01b0316331461182f576040805162461bcd60e51b81526020600482015260166024820152600080516020614451833981519152604482015290519081900360640190fd5b816001600160a01b031663f07bbf77826040518263ffffffff1660e01b8152600401808215158152602001915050600060405180830381600087803b15801561157057600080fd5b6002546001600160a01b031633146118c4576040805162461bcd60e51b81526020600482015260166024820152600080516020614451833981519152604482015290519081900360640190fd5b60c882106119035760405162461bcd60e51b815260040180806020018281038252602781526020018061457d6027913960400191505060405180910390fd5b60c881106119425760405162461bcd60e51b815260040180806020018281038252602d81526020018061433a602d913960400191505060405180910390fd5b836001600160a01b0316638a27d4688484846040518463ffffffff1660e01b8152600401808481526020018381526020018281526020019350505050600060405180830381600087803b15801561199857600080fd5b505af11580156119ac573d6000803e3d6000fd5b5050505050505050565b6002546001600160a01b03163314611a03576040805162461bcd60e51b81526020600482015260166024820152600080516020614451833981519152604482015290519081900360640190fd5b816001600160a01b0316631785f53c826040518263ffffffff1660e01b815260040180826001600160a01b03168152602001915050600060405180830381600087803b15801561157057600080fd5b6002546001600160a01b03163314611a9f576040805162461bcd60e51b81526020600482015260166024820152600080516020614451833981519152604482015290519081900360640190fd5b6005811115611af1576040805162461bcd60e51b8152602060048201526019602482015278496e76616c6964205f707269636553616d706c65537061636560381b604482015290519081900360640190fd5b816001600160a01b0316632fa03b8f826040518263ffffffff1660e01b815260040180828152602001915050600060405180830381600087803b15801561157057600080fd5b6002546001600160a01b03163314611b84576040805162461bcd60e51b81526020600482015260166024820152600080516020614451833981519152604482015290519081900360640190fd5b816001600160a01b031663eb1c92a9826040518263ffffffff1660e01b8152600401808215158152602001915050600060405180830381600087803b15801561157057600080fd5b6002546001600160a01b03163314611c19576040805162461bcd60e51b81526020600482015260166024820152600080516020614451833981519152604482015290519081900360640190fd5b836001600160a01b031663d694376c8484846040518463ffffffff1660e01b815260040180846001600160a01b0316815260200183151581526020018281526020019350505050600060405180830381600087803b15801561199857600080fd5b6003546001600160a01b031681565b6207a12081565b6002546001600160a01b03163314611cdd576040805162461bcd60e51b81526020600482015260166024820152600080516020614451833981519152604482015290519081900360640190fd5b6040805176707269636546656564536574546f6b656e436f6e66696760481b6020808301919091526001600160601b0319606089811b8216603785015288811b8216604b85015287901b16605f8301526073820185905283151560f81b60938301528251607481840301815260949092019092528051910120611d5f81613f98565b611d688161402e565b60408051634b9ade4760e01b81526001600160a01b0387811660048301528681166024830152604482018690528415156064830152915191881691634b9ade479160848082019260009290919082900301818387803b158015611dca57600080fd5b505af1158015611dde573d6000803e3d6000fd5b50505050505050505050565b6002546001600160a01b03163314611e37576040805162461bcd60e51b81526020600482015260166024820152600080516020614451833981519152604482015290519081900360640190fd5b6040805176707269636546656564536574546f6b656e436f6e66696760481b6020808301919091526001600160601b0319606089811b8216603785015288811b8216604b85015287901b16605f8301526073820185905283151560f81b60938301528251607481840301815260949092019092528051910120611eb981613f3f565b604080516001600160a01b038089168252808816602083015286168183015260608101859052831515608082015290517f1b2ddf357ae016d8c127dcd3a73c34744fdeaeeb4b7ef1e04490cebf7f4816fe9181900360a00190a1505050505050565b6002546001600160a01b03163314611f68576040805162461bcd60e51b81526020600482015260166024820152600080516020614451833981519152604482015290519081900360640190fd5b816001600160a01b031663fd34ec40826040518263ffffffff1660e01b8152600401808215158152602001915050600060405180830381600087803b15801561157057600080fd5b60096020526000908152604090205460ff1681565b6002546001600160a01b03163314612012576040805162461bcd60e51b81526020600482015260166024820152600080516020614451833981519152604482015290519081900360640190fd5b826001600160a01b0316634453a37483836040518363ffffffff1660e01b815260040180836001600160a01b03168152602001821515815260200192505050600060405180830381600087803b15801561206b57600080fd5b505af115801561207f573d6000803e3d6000fd5b50505050505050565b61012c81565b6002546001600160a01b031633146120db576040805162461bcd60e51b81526020600482015260166024820152600080516020614451833981519152604482015290519081900360640190fd5b604080516c3bb4ba34323930bbaa37b5b2b760991b6020808301919091526001600160601b0319606088811b8216602d85015287811b8216604185015286901b1660558301526069808301859052835180840390910181526089909201909252805191012061214981613f3f565b604080516001600160a01b0380881682528087166020830152851681830152606081018490526080810183905290517f9ed7b0f07a9eed51079fab67f6d0f141f167f5b17fdb5a23282280e15fcafed39181900360a00190a15050505050565b60065481565b6002546001600160a01b031633146121fc576040805162461bcd60e51b81526020600482015260166024820152600080516020614451833981519152604482015290519081900360640190fd5b604080516539b2ba23b7bb60d11b6020808301919091526001600160601b0319606086811b8216602685015285901b16603a8301528251602e818403018152604e909201909252805191012061225181613f98565b61225a8161402e565b826001600160a01b031663cfad57a2836040518263ffffffff1660e01b815260040180826001600160a01b03168152602001915050600060405180830381600087803b15801561206b57600080fd5b6002546001600160a01b031633146122f6576040805162461bcd60e51b81526020600482015260166024820152600080516020614451833981519152604482015290519081900360640190fd5b604080516830b23228363ab3b4b760b91b6020808301919091526001600160601b0319606086811b8216602985015285901b16603d830152825160318184030181526051909201909252805191012061234e81613f3f565b604080516001600160a01b0380861682528416602082015280820183905290517fc0ad20f21e0e6b9c02a7ecfb229e39b214cb1914a4d6f202e7f9ec7ffb9445f69181900360600190a1505050565b6002546001600160a01b031633146123ea576040805162461bcd60e51b81526020600482015260166024820152600080516020614451833981519152604482015290519081900360640190fd5b6001600160a01b038216301415612447576040805162461bcd60e51b815260206004820152601c60248201527b16191e151a5b595b1bd8dace881a5b9d985b1a590817dd185c99d95d60221b604482015290519081900360640190fd5b816001600160a01b031663704b6c02826040518263ffffffff1660e01b815260040180826001600160a01b03168152602001915050600060405180830381600087803b15801561157057600080fd5b6002546001600160a01b031633146124e3576040805162461bcd60e51b81526020600482015260166024820152600080516020614451833981519152604482015290519081900360640190fd5b816001600160a01b0316639917dc74826040518263ffffffff1660e01b8152600401808215158152602001915050600060405180830381600087803b15801561157057600080fd5b60086020526000908152604090205460ff1681565b60015481565b62093a8081565b6002546001600160a01b0316331461259a576040805162461bcd60e51b81526020600482015260166024820152600080516020614451833981519152604482015290519081900360640190fd5b604080516830b23228363ab3b4b760b91b6020808301919091526001600160601b0319606086811b8216602985015285901b16603d83015282516031818403018152605190920190925280519101206125f281613f98565b6125fb8161402e565b826001600160a01b031663d8867fc8836040518263ffffffff1660e01b815260040180826001600160a01b03168152602001915050600060405180830381600087803b15801561206b57600080fd5b6002546001600160a01b03163314612697576040805162461bcd60e51b81526020600482015260166024820152600080516020614451833981519152604482015290519081900360640190fd5b61012c89106126d75760405162461bcd60e51b81526004018080602001828103825260248152602001806145a46024913960400191505060405180910390fd5b61012c88106127175760405162461bcd60e51b815260040180806020018281038252602a8152602001806143d1602a913960400191505060405180910390fd5b61012c87106127575760405162461bcd60e51b815260040180806020018281038252602c815260200180614425602c913960400191505060405180910390fd5b61012c86106127975760405162461bcd60e51b81526004018080602001828103825260288152602001806144df6028913960400191505060405180910390fd5b61012c85106127d75760405162461bcd60e51b815260040180806020018281038252602e8152602001806145c8602e913960400191505060405180910390fd5b61012c84106128175760405162461bcd60e51b815260040180806020018281038252602a8152602001806143fb602a913960400191505060405180910390fd5b68fc6f7c40458122964d601f1b83106128615760405162461bcd60e51b81526004018080602001828103825260278152602001806145076027913960400191505060405180910390fd5b604080516320759c0160e11b8152600481018b9052602481018a905260448101899052606481018890526084810187905260a4810186905260c4810185905260e4810184905282151561010482015290516001600160a01b038c16916340eb38029161012480830192600092919082900301818387803b1580156128e457600080fd5b505af11580156128f8573d6000803e3d6000fd5b5050505050505050505050505050565b6003546001600160a01b03163314612955576040805162461bcd60e51b81526020600482015260166024820152600080516020614451833981519152604482015290519081900360640190fd5b600280546001600160a01b0319166001600160a01b0392909216919091179055565b6002546001600160a01b031633146129c4576040805162461bcd60e51b81526020600482015260166024820152600080516020614451833981519152604482015290519081900360640190fd5b604080516972656465656d5573646760b01b6020808301919091526001600160601b0319606087811b8216602a85015286901b16603e83015260528083018590528351808403909101815260729092019092528051910120612a2581613f98565b612a2e8161402e565b6000846001600160a01b031663f5b91b7b6040518163ffffffff1660e01b815260040160206040518083038186803b158015612a6957600080fd5b505afa158015612a7d573d6000803e3d6000fd5b505050506040513d6020811015612a9357600080fd5b5051604080516352f4877760e11b81523060048201526001602482015290519192506001600160a01b0387169163a5e90eee9160448082019260009290919082900301818387803b158015612ae757600080fd5b505af1158015612afb573d6000803e3d6000fd5b5050604080516312b5ad0160e11b815230600482015290516001600160a01b038516935063256b5a029250602480830192600092919082900301818387803b158015612b4657600080fd5b505af1158015612b5a573d6000803e3d6000fd5b5050604080516340c10f1960e01b81523060048201526024810187905290516001600160a01b03851693506340c10f199250604480830192600092919082900301818387803b158015612bac57600080fd5b505af1158015612bc0573d6000803e3d6000fd5b50505050806001600160a01b031663a9059cbb86856040518363ffffffff1660e01b815260040180836001600160a01b0316815260200182815260200192505050602060405180830381600087803b158015612c1b57600080fd5b505af1158015612c2f573d6000803e3d6000fd5b505050506040513d6020811015612c4557600080fd5b505060055460408051630711e61960e41b81526001600160a01b038781166004830152928316602482015290519187169163711e6190916044808201926020929091908290030181600087803b158015612c9e57600080fd5b505af1158015612cb2573d6000803e3d6000fd5b505050506040513d6020811015612cc857600080fd5b5050604080516352f4877760e11b815230600482015260006024820181905291516001600160a01b0388169263a5e90eee926044808201939182900301818387803b158015612d1657600080fd5b505af1158015612d2a573d6000803e3d6000fd5b50506040805163ceb68c2360e01b815230600482015290516001600160a01b038516935063ceb68c239250602480830192600092919082900301818387803b1580156117c357600080fd5b6002546001600160a01b03163314612dc2576040805162461bcd60e51b81526020600482015260166024820152600080516020614451833981519152604482015290519081900360640190fd5b604080516b1cd95d141c9a58d95199595960a21b6020808301919091526001600160601b0319606086811b8216602c85015285901b16828401528251603481840301815260549092019092528051910120612e1c81613f98565b612e258161402e565b826001600160a01b031663724e78da836040518263ffffffff1660e01b815260040180826001600160a01b03168152602001915050600060405180830381600087803b15801561206b57600080fd5b6002546001600160a01b03163314612ec1576040805162461bcd60e51b81526020600482015260166024820152600080516020614451833981519152604482015290519081900360640190fd5b612eca8161402e565b50565b6002546001600160a01b03163314612f1a576040805162461bcd60e51b81526020600482015260166024820152600080516020614451833981519152604482015290519081900360640190fd5b6207a1208111612f5b5760405162461bcd60e51b81526004018080602001828103825260218152602001806144be6021913960400191505060405180910390fd5b816001600160a01b031663d3127e63826040518263ffffffff1660e01b815260040180828152602001915050600060405180830381600087803b15801561157057600080fd5b6002546001600160a01b03163314612fee576040805162461bcd60e51b81526020600482015260166024820152600080516020614451833981519152604482015290519081900360640190fd5b816001600160a01b031663604f37e9826040518263ffffffff1660e01b8152600401808215158152602001915050600060405180830381600087803b15801561157057600080fd5b6002546001600160a01b03163314613083576040805162461bcd60e51b81526020600482015260166024820152600080516020614451833981519152604482015290519081900360640190fd5b604080516b1cd95d141c9a58d95199595960a21b6020808301919091526001600160601b0319606086811b8216602c85015285901b168284015282516034818403018152605490920190925280519101206130dd81613f3f565b604080516001600160a01b0380861682528416602082015280820183905290517fb878dd4b5762f4118ad54995be907dd2bcd915d942e4ac75580fba9b4ee4727f9181900360600190a1505050565b6002546001600160a01b03163314613179576040805162461bcd60e51b81526020600482015260166024820152600080516020614451833981519152604482015290519081900360640190fd5b6001600160a01b03821660009081526008602052604090205460ff16156131d75780156131d75760405162461bcd60e51b815260040180806020018281038252602b815260200180614552602b913960400191505060405180910390fd5b816001600160a01b0316635a47a1a7826040518263ffffffff1660e01b8152600401808215158152602001915050600060405180830381600087803b15801561157057600080fd5b60c881565b6002546001600160a01b03163314613271576040805162461bcd60e51b81526020600482015260166024820152600080516020614451833981519152604482015290519081900360640190fd5b64012a05f20081116132c1576040805162461bcd60e51b8152602060048201526014602482015273496e76616c6964205f6d6178476173507269636560601b604482015290519081900360640190fd5b816001600160a01b031663d2fa635e826040518263ffffffff1660e01b815260040180828152602001915050600060405180830381600087803b15801561157057600080fd5b68327cb2734119d3b7a9601e1b81565b6003546001600160a01b03163314613364576040805162461bcd60e51b81526020600482015260166024820152600080516020614451833981519152604482015290519081900360640190fd5b604080516539b2ba23b7bb60d11b6020808301919091526001600160601b0319606086811b8216602685015285901b16603a8301528251602e818403018152604e90920190925280519101206133b9816140d6565b604080516001600160a01b0380861682528416602082015280820183905290517f2701a94fd55a560e291f3c54d36580040670d6fde558a77a75d619e38139f7139181900360600190a1505050565b6002546001600160a01b03163314613455576040805162461bcd60e51b81526020600482015260166024820152600080516020614451833981519152604482015290519081900360640190fd5b816001600160a01b0316632fbfe3d3826040518263ffffffff1660e01b815260040180828152602001915050600060405180830381600087803b15801561157057600080fd5b6002546001600160a01b031633146134e8576040805162461bcd60e51b81526020600482015260166024820152600080516020614451833981519152604482015290519081900360640190fd5b62093a8081111561353f576040805162461bcd60e51b815260206004820152601c60248201527b2c323c2a34b6b2b637b1b59d1034b73b30b634b2102fb13ab33332b960211b604482015290519081900360640190fd5b600054811161357f5760405162461bcd60e51b81526004018080602001828103825260278152602001806144976027913960400191505060405180910390fd5b600055565b6002546001600160a01b031633146135d1576040805162461bcd60e51b81526020600482015260166024820152600080516020614451833981519152604482015290519081900360640190fd5b816001600160a01b03166371089f4d826040518263ffffffff1660e01b815260040180826001600160a01b03168152602001915050600060405180830381600087803b15801561157057600080fd5b6002546001600160a01b0316331461366d576040805162461bcd60e51b81526020600482015260166024820152600080516020614451833981519152604482015290519081900360640190fd5b60408051631b5a5b9d60e21b6020808301919091526001600160601b0319606087811b8216602485015286901b166038830152604c80830185905283518084039091018152606c90920190925280519101206136c881613f98565b6136d18161402e565b6136dc8484846140e4565b50505050565b6005546001600160a01b031681565b6002546001600160a01b031633148061371957503360009081526009602052604090205460ff165b613758576040805162461bcd60e51b81526020600482015260166024820152600080516020614451833981519152604482015290519081900360640190fd5b816001600160a01b0316637c2eb9f7826040518263ffffffff1660e01b8152600401808215158152602001915050600060405180830381600087803b15801561157057600080fd5b6002546001600160a01b031633146137ed576040805162461bcd60e51b81526020600482015260166024820152600080516020614451833981519152604482015290519081900360640190fd5b6001600160a01b03166000908152600860205260409020805460ff19166001179055565b6002546001600160a01b0316331461385e576040805162461bcd60e51b81526020600482015260166024820152600080516020614451833981519152604482015290519081900360640190fd5b60408051727661756c74536574546f6b656e436f6e66696760681b6020808301919091526001600160601b031960608c811b821660338501528b901b166047830152605b8201899052607b8201889052609b820187905260bb820186905284151560f890811b60db840152841515901b60dc830152825160bd81840301815260dd90920190925280519101206138f381613f3f565b604080516001600160a01b03808c1682528a166020820152808201899052606081018890526080810187905260a0810186905284151560c082015283151560e082015290517f3510e9d8245371c6c1061c33781ce16bd0eafa03cd3d0781865036520af4c743918190036101000190a1505050505050505050565b6002546001600160a01b031633146139bb576040805162461bcd60e51b81526020600482015260166024820152600080516020614451833981519152604482015290519081900360640190fd5b6040805166617070726f766560c81b6020808301919091526001600160601b0319606087811b8216602785015286901b16603b830152604f80830185905283518084039091018152606f9092019092528051910120613a1981613f3f565b604080516001600160a01b038087168252851660208201528082018490526060810183905290517f6af9d86ba7407a934e941ed8ae5f779369a88fe8ba2cd1c204185d6f8a8287fd9181900360800190a150505050565b6002546001600160a01b03163314613abd576040805162461bcd60e51b81526020600482015260166024820152600080516020614451833981519152604482015290519081900360640190fd5b826001600160a01b031663efa10a6e83836040518363ffffffff1660e01b815260040180836001600160a01b0316815260200182815260200192505050600060405180830381600087803b15801561206b57600080fd5b6002546001600160a01b03163314613b61576040805162461bcd60e51b81526020600482015260166024820152600080516020614451833981519152604482015290519081900360640190fd5b6040805166617070726f766560c81b6020808301919091526001600160601b0319606087811b8216602785015286901b16603b830152604f80830185905283518084039091018152606f9092019092528051910120613bbf81613f98565b613bc88161402e565b836001600160a01b031663095ea7b384846040518363ffffffff1660e01b815260040180836001600160a01b0316815260200182815260200192505050602060405180830381600087803b158015613c1f57600080fd5b505af1158015613c33573d6000803e3d6000fd5b505050506040513d602081101561158457600080fd5b60076020526000908152604090205481565b6002546001600160a01b03163314613ca8576040805162461bcd60e51b81526020600482015260166024820152600080516020614451833981519152604482015290519081900360640190fd5b60408051727661756c74536574546f6b656e436f6e66696760681b6020808301919091526001600160601b031960608c811b821660338501528b901b166047830152605b8201899052607b8201889052609b820187905260bb820186905284151560f890811b60db840152841515901b60dc830152825160bd81840301815260dd9092019092528051910120613d3d81613f98565b613d468161402e565b60408051633c5a6e3560e01b81526001600160a01b038a81166004830152602482018a905260448201899052606482018890526084820187905285151560a483015284151560c48301529151918b1691633c5a6e359160e48082019260009290919082900301818387803b158015613dbd57600080fd5b505af1158015613dd1573d6000803e3d6000fd5b50505050505050505050505050565b6002546001600160a01b03163314613e2d576040805162461bcd60e51b81526020600482015260166024820152600080516020614451833981519152604482015290519081900360640190fd5b604080516323b872dd60e01b81526001600160a01b038581166004830152306024830152604482018490529151918416916323b872dd916064808201926020929091908290030181600087803b15801561149b57600080fd5b6002546001600160a01b03163314613ed3576040805162461bcd60e51b81526020600482015260166024820152600080516020614451833981519152604482015290519081900360640190fd5b826001600160a01b0316639b88938083836040518363ffffffff1660e01b815260040180836001600160a01b0316815260200182815260200192505050600060405180830381600087803b15801561206b57600080fd5b60005481565b6002546001600160a01b031681565b600054613f4d9042906142da565b60008281526007602090815260409182902092909255805183815290517f5fb9c0ecf7b4a28c4c480212e868f9da7f373a2ed4d23498b0be6aadf35242fb929181900390910190a150565b600081815260076020526040902054613fe25760405162461bcd60e51b81526004018080602001828103825260218152602001806143676021913960400191505060405180910390fd5b6000818152600760205260409020544211612eca5760405162461bcd60e51b81526004018080602001828103825260278152602001806143886027913960400191505060405180910390fd5b60008181526007602052604090205461408d576040805162461bcd60e51b815260206004820152601c60248201527b2c323c2a34b6b2b637b1b59d1034b73b30b634b2102fb0b1ba34b7b760211b604482015290519081900360640190fd5b600081815260076020908152604080832092909255815183815291517f194ed6dd5e37e2acc44a19455c3f208c4831ee695fe362d9c4ef2d316bc53aec9281900390910190a150565b600154613f4d9042906142da565b604080516355138f0d60e11b8152306004820152905184916001600160a01b0383169163aa271e1a916024808201926020929091908290030181600087803b15801561412f57600080fd5b505af1158015614143573d6000803e3d6000fd5b505050506040513d602081101561415957600080fd5b50516141c6576040805163cf456ae760e01b81523060048201526001602482015290516001600160a01b0383169163cf456ae791604480830192600092919082900301818387803b1580156141ad57600080fd5b505af11580156141c1573d6000803e3d6000fd5b505050505b806001600160a01b03166340c10f1984846040518363ffffffff1660e01b815260040180836001600160a01b0316815260200182815260200192505050600060405180830381600087803b15801561421d57600080fd5b505af1158015614231573d6000803e3d6000fd5b50505050600654846001600160a01b03166318160ddd6040518163ffffffff1660e01b815260040160206040518083038186803b15801561427157600080fd5b505afa158015614285573d6000803e3d6000fd5b505050506040513d602081101561429b57600080fd5b505111156136dc5760405162461bcd60e51b815260040180806020018281038252602481526020018061452e6024913960400191505060405180910390fd5b600082820183811015614332576040805162461bcd60e51b815260206004820152601b60248201527a536166654d6174683a206164646974696f6e206f766572666c6f7760281b604482015290519081900360640190fd5b939250505056fe58647854696d656c6f636b3a20696e76616c6964205f737461626c6546756e64696e6752617465466163746f7258647854696d656c6f636b3a20616374696f6e206e6f74207369676e616c6c656458647854696d656c6f636b3a20616374696f6e2074696d65206e6f74207965742070617373656458647854696d656c6f636b3a20696e76616c6964205f6d696e50726f66697442707358647854696d656c6f636b3a20696e76616c6964205f737461626c655461784261736973506f696e747358647854696d656c6f636b3a20696e76616c6964205f6d617267696e4665654261736973506f696e747358647854696d656c6f636b3a20696e76616c6964205f6d696e744275726e4665654261736973506f696e747358647854696d656c6f636b3a20666f7262696464656e0000000000000000000058647854696d656c6f636b3a20746f6b656e206e6f74207965742077686974656c697374656458647854696d656c6f636b3a206275666665722063616e6e6f742062652064656372656173656458647854696d656c6f636b3a20696e76616c6964205f6d61784c6576657261676558647854696d656c6f636b3a20696e76616c6964205f737761704665654261736973506f696e747358647854696d656c6f636b3a20696e76616c6964205f6c69717569646174696f6e46656555736458647854696d656c6f636b3a206d6178546f6b656e537570706c7920657863656564656458647854696d656c6f636b3a20696e76616c6964205f696e507269766174655472616e736665724d6f646558647854696d656c6f636b3a20696e76616c6964205f66756e64696e6752617465466163746f7258647854696d656c6f636b3a20696e76616c6964205f7461784261736973506f696e747358647854696d656c6f636b3a20696e76616c6964205f737461626c65537761704665654261736973506f696e7473a164736f6c634300060c000a",
  "devdoc": {
    "kind": "dev",
    "methods": {},
    "version": 1
  },
  "userdoc": {
    "kind": "user",
    "methods": {},
    "version": 1
  },
  "storageLayout": {
    "storage": [
      {
        "astId": 34406,
        "contract": "contracts/peripherals/XdxTimelock.sol:XdxTimelock",
        "label": "buffer",
        "offset": 0,
        "slot": "0",
        "type": "t_uint256"
      },
      {
        "astId": 34408,
        "contract": "contracts/peripherals/XdxTimelock.sol:XdxTimelock",
        "label": "longBuffer",
        "offset": 0,
        "slot": "1",
        "type": "t_uint256"
      },
      {
        "astId": 34410,
        "contract": "contracts/peripherals/XdxTimelock.sol:XdxTimelock",
        "label": "admin",
        "offset": 0,
        "slot": "2",
        "type": "t_address"
      },
      {
        "astId": 34412,
        "contract": "contracts/peripherals/XdxTimelock.sol:XdxTimelock",
        "label": "tokenManager",
        "offset": 0,
        "slot": "3",
        "type": "t_address"
      },
      {
        "astId": 34414,
        "contract": "contracts/peripherals/XdxTimelock.sol:XdxTimelock",
        "label": "rewardManager",
        "offset": 0,
        "slot": "4",
        "type": "t_address"
      },
      {
        "astId": 34416,
        "contract": "contracts/peripherals/XdxTimelock.sol:XdxTimelock",
        "label": "mintReceiver",
        "offset": 0,
        "slot": "5",
        "type": "t_address"
      },
      {
        "astId": 34418,
        "contract": "contracts/peripherals/XdxTimelock.sol:XdxTimelock",
        "label": "maxTokenSupply",
        "offset": 0,
        "slot": "6",
        "type": "t_uint256"
      },
      {
        "astId": 34422,
        "contract": "contracts/peripherals/XdxTimelock.sol:XdxTimelock",
        "label": "pendingActions",
        "offset": 0,
        "slot": "7",
        "type": "t_mapping(t_bytes32,t_uint256)"
      },
      {
        "astId": 34426,
        "contract": "contracts/peripherals/XdxTimelock.sol:XdxTimelock",
        "label": "excludedTokens",
        "offset": 0,
        "slot": "8",
        "type": "t_mapping(t_address,t_bool)"
      },
      {
        "astId": 34430,
        "contract": "contracts/peripherals/XdxTimelock.sol:XdxTimelock",
        "label": "isHandler",
        "offset": 0,
        "slot": "9",
        "type": "t_mapping(t_address,t_bool)"
      }
    ],
    "types": {
      "t_address": {
        "encoding": "inplace",
        "label": "address",
        "numberOfBytes": "20"
      },
      "t_bool": {
        "encoding": "inplace",
        "label": "bool",
        "numberOfBytes": "1"
      },
      "t_bytes32": {
        "encoding": "inplace",
        "label": "bytes32",
        "numberOfBytes": "32"
      },
      "t_mapping(t_address,t_bool)": {
        "encoding": "mapping",
        "key": "t_address",
        "label": "mapping(address => bool)",
        "numberOfBytes": "32",
        "value": "t_bool"
      },
      "t_mapping(t_bytes32,t_uint256)": {
        "encoding": "mapping",
        "key": "t_bytes32",
        "label": "mapping(bytes32 => uint256)",
        "numberOfBytes": "32",
        "value": "t_uint256"
      },
      "t_uint256": {
        "encoding": "inplace",
        "label": "uint256",
        "numberOfBytes": "32"
      }
    }
  }
}