{
  "address": "0x818ea01d8d2F5dF177b39607132a58Ce7c4b24F0",
  "abi": [
    {
      "inputs": [],
      "stateMutability": "nonpayable",
      "type": "constructor"
    },
    {
      "anonymous": false,
      "inputs": [
        {
          "indexed": true,
          "internalType": "address",
          "name": "owner",
          "type": "address"
        },
        {
          "indexed": true,
          "internalType": "address",
          "name": "spender",
          "type": "address"
        },
        {
          "indexed": false,
          "internalType": "uint256",
          "name": "value",
          "type": "uint256"
        }
      ],
      "name": "Approval",
      "type": "event"
    },
    {
      "anonymous": false,
      "inputs": [
        {
          "indexed": true,
          "internalType": "address",
          "name": "from",
          "type": "address"
        },
        {
          "indexed": true,
          "internalType": "address",
          "name": "to",
          "type": "address"
        },
        {
          "indexed": false,
          "internalType": "uint256",
          "name": "value",
          "type": "uint256"
        }
      ],
      "name": "Transfer",
      "type": "event"
    },
    {
      "inputs": [
        {
          "internalType": "address",
          "name": "_account",
          "type": "address"
        }
      ],
      "name": "addAdmin",
      "outputs": [],
      "stateMutability": "nonpayable",
      "type": "function"
    },
    {
      "inputs": [
        {
          "internalType": "address",
          "name": "_account",
          "type": "address"
        }
      ],
      "name": "addNonStakingAccount",
      "outputs": [],
      "stateMutability": "nonpayable",
      "type": "function"
    },
    {
      "inputs": [
        {
          "internalType": "address",
          "name": "",
          "type": "address"
        }
      ],
      "name": "admins",
      "outputs": [
        {
          "internalType": "bool",
          "name": "",
          "type": "bool"
        }
      ],
      "stateMutability": "view",
      "type": "function"
    },
    {
      "inputs": [
        {
          "internalType": "address",
          "name": "_owner",
          "type": "address"
        },
        {
          "internalType": "address",
          "name": "_spender",
          "type": "address"
        }
      ],
      "name": "allowance",
      "outputs": [
        {
          "internalType": "uint256",
          "name": "",
          "type": "uint256"
        }
      ],
      "stateMutability": "view",
      "type": "function"
    },
    {
      "inputs": [
        {
          "internalType": "address",
          "name": "",
          "type": "address"
        },
        {
          "internalType": "address",
          "name": "",
          "type": "address"
        }
      ],
      "name": "allowances",
      "outputs": [
        {
          "internalType": "uint256",
          "name": "",
          "type": "uint256"
        }
      ],
      "stateMutability": "view",
      "type": "function"
    },
    {
      "inputs": [
        {
          "internalType": "address",
          "name": "_spender",
          "type": "address"
        },
        {
          "internalType": "uint256",
          "name": "_amount",
          "type": "uint256"
        }
      ],
      "name": "approve",
      "outputs": [
        {
          "internalType": "bool",
          "name": "",
          "type": "bool"
        }
      ],
      "stateMutability": "nonpayable",
      "type": "function"
    },
    {
      "inputs": [
        {
          "internalType": "address",
          "name": "_account",
          "type": "address"
        }
      ],
      "name": "balanceOf",
      "outputs": [
        {
          "internalType": "uint256",
          "name": "",
          "type": "uint256"
        }
      ],
      "stateMutability": "view",
      "type": "function"
    },
    {
      "inputs": [
        {
          "internalType": "address",
          "name": "",
          "type": "address"
        }
      ],
      "name": "balances",
      "outputs": [
        {
          "internalType": "uint256",
          "name": "",
          "type": "uint256"
        }
      ],
      "stateMutability": "view",
      "type": "function"
    },
    {
      "inputs": [
        {
          "internalType": "address",
          "name": "_account",
          "type": "address"
        },
        {
          "internalType": "uint256",
          "name": "_amount",
          "type": "uint256"
        }
      ],
      "name": "burn",
      "outputs": [],
      "stateMutability": "nonpayable",
      "type": "function"
    },
    {
      "inputs": [
        {
          "internalType": "address",
          "name": "_receiver",
          "type": "address"
        }
      ],
      "name": "claim",
      "outputs": [],
      "stateMutability": "nonpayable",
      "type": "function"
    },
    {
      "inputs": [],
      "name": "decimals",
      "outputs": [
        {
          "internalType": "uint8",
          "name": "",
          "type": "uint8"
        }
      ],
      "stateMutability": "view",
      "type": "function"
    },
    {
      "inputs": [],
      "name": "gov",
      "outputs": [
        {
          "internalType": "address",
          "name": "",
          "type": "address"
        }
      ],
      "stateMutability": "view",
      "type": "function"
    },
    {
      "inputs": [],
      "name": "id",
      "outputs": [
        {
          "internalType": "string",
          "name": "_name",
          "type": "string"
        }
      ],
      "stateMutability": "pure",
      "type": "function"
    },
    {
      "inputs": [],
      "name": "inPrivateTransferMode",
      "outputs": [
        {
          "internalType": "bool",
          "name": "",
          "type": "bool"
        }
      ],
      "stateMutability": "view",
      "type": "function"
    },
    {
      "inputs": [
        {
          "internalType": "address",
          "name": "",
          "type": "address"
        }
      ],
      "name": "isHandler",
      "outputs": [
        {
          "internalType": "bool",
          "name": "",
          "type": "bool"
        }
      ],
      "stateMutability": "view",
      "type": "function"
    },
    {
      "inputs": [
        {
          "internalType": "address",
          "name": "",
          "type": "address"
        }
      ],
      "name": "isMinter",
      "outputs": [
        {
          "internalType": "bool",
          "name": "",
          "type": "bool"
        }
      ],
      "stateMutability": "view",
      "type": "function"
    },
    {
      "inputs": [
        {
          "internalType": "address",
          "name": "_account",
          "type": "address"
        },
        {
          "internalType": "uint256",
          "name": "_amount",
          "type": "uint256"
        }
      ],
      "name": "mint",
      "outputs": [],
      "stateMutability": "nonpayable",
      "type": "function"
    },
    {
      "inputs": [],
      "name": "name",
      "outputs": [
        {
          "internalType": "string",
          "name": "",
          "type": "string"
        }
      ],
      "stateMutability": "view",
      "type": "function"
    },
    {
      "inputs": [
        {
          "internalType": "address",
          "name": "",
          "type": "address"
        }
      ],
      "name": "nonStakingAccounts",
      "outputs": [
        {
          "internalType": "bool",
          "name": "",
          "type": "bool"
        }
      ],
      "stateMutability": "view",
      "type": "function"
    },
    {
      "inputs": [],
      "name": "nonStakingSupply",
      "outputs": [
        {
          "internalType": "uint256",
          "name": "",
          "type": "uint256"
        }
      ],
      "stateMutability": "view",
      "type": "function"
    },
    {
      "inputs": [
        {
          "internalType": "address",
          "name": "_account",
          "type": "address"
        },
        {
          "internalType": "address",
          "name": "_receiver",
          "type": "address"
        }
      ],
      "name": "recoverClaim",
      "outputs": [],
      "stateMutability": "nonpayable",
      "type": "function"
    },
    {
      "inputs": [
        {
          "internalType": "address",
          "name": "_account",
          "type": "address"
        }
      ],
      "name": "removeAdmin",
      "outputs": [],
      "stateMutability": "nonpayable",
      "type": "function"
    },
    {
      "inputs": [
        {
          "internalType": "address",
          "name": "_account",
          "type": "address"
        }
      ],
      "name": "removeNonStakingAccount",
      "outputs": [],
      "stateMutability": "nonpayable",
      "type": "function"
    },
    {
      "inputs": [
        {
          "internalType": "address",
          "name": "_gov",
          "type": "address"
        }
      ],
      "name": "setGov",
      "outputs": [],
      "stateMutability": "nonpayable",
      "type": "function"
    },
    {
      "inputs": [
        {
          "internalType": "address",
          "name": "_handler",
          "type": "address"
        },
        {
          "internalType": "bool",
          "name": "_isActive",
          "type": "bool"
        }
      ],
      "name": "setHandler",
      "outputs": [],
      "stateMutability": "nonpayable",
      "type": "function"
    },
    {
      "inputs": [
        {
          "internalType": "bool",
          "name": "_inPrivateTransferMode",
          "type": "bool"
        }
      ],
      "name": "setInPrivateTransferMode",
      "outputs": [],
      "stateMutability": "nonpayable",
      "type": "function"
    },
    {
      "inputs": [
        {
          "internalType": "string",
          "name": "_name",
          "type": "string"
        },
        {
          "internalType": "string",
          "name": "_symbol",
          "type": "string"
        }
      ],
      "name": "setInfo",
      "outputs": [],
      "stateMutability": "nonpayable",
      "type": "function"
    },
    {
      "inputs": [
        {
          "internalType": "address",
          "name": "_minter",
          "type": "address"
        },
        {
          "internalType": "bool",
          "name": "_isActive",
          "type": "bool"
        }
      ],
      "name": "setMinter",
      "outputs": [],
      "stateMutability": "nonpayable",
      "type": "function"
    },
    {
      "inputs": [
        {
          "internalType": "address[]",
          "name": "_yieldTrackers",
          "type": "address[]"
        }
      ],
      "name": "setYieldTrackers",
      "outputs": [],
      "stateMutability": "nonpayable",
      "type": "function"
    },
    {
      "inputs": [
        {
          "internalType": "address",
          "name": "_account",
          "type": "address"
        }
      ],
      "name": "stakedBalance",
      "outputs": [
        {
          "internalType": "uint256",
          "name": "",
          "type": "uint256"
        }
      ],
      "stateMutability": "view",
      "type": "function"
    },
    {
      "inputs": [],
      "name": "symbol",
      "outputs": [
        {
          "internalType": "string",
          "name": "",
          "type": "string"
        }
      ],
      "stateMutability": "view",
      "type": "function"
    },
    {
      "inputs": [],
      "name": "totalStaked",
      "outputs": [
        {
          "internalType": "uint256",
          "name": "",
          "type": "uint256"
        }
      ],
      "stateMutability": "view",
      "type": "function"
    },
    {
      "inputs": [],
      "name": "totalSupply",
      "outputs": [
        {
          "internalType": "uint256",
          "name": "",
          "type": "uint256"
        }
      ],
      "stateMutability": "view",
      "type": "function"
    },
    {
      "inputs": [
        {
          "internalType": "address",
          "name": "_recipient",
          "type": "address"
        },
        {
          "internalType": "uint256",
          "name": "_amount",
          "type": "uint256"
        }
      ],
      "name": "transfer",
      "outputs": [
        {
          "internalType": "bool",
          "name": "",
          "type": "bool"
        }
      ],
      "stateMutability": "nonpayable",
      "type": "function"
    },
    {
      "inputs": [
        {
          "internalType": "address",
          "name": "_sender",
          "type": "address"
        },
        {
          "internalType": "address",
          "name": "_recipient",
          "type": "address"
        },
        {
          "internalType": "uint256",
          "name": "_amount",
          "type": "uint256"
        }
      ],
      "name": "transferFrom",
      "outputs": [
        {
          "internalType": "bool",
          "name": "",
          "type": "bool"
        }
      ],
      "stateMutability": "nonpayable",
      "type": "function"
    },
    {
      "inputs": [
        {
          "internalType": "address",
          "name": "_token",
          "type": "address"
        },
        {
          "internalType": "address",
          "name": "_account",
          "type": "address"
        },
        {
          "internalType": "uint256",
          "name": "_amount",
          "type": "uint256"
        }
      ],
      "name": "withdrawToken",
      "outputs": [],
      "stateMutability": "nonpayable",
      "type": "function"
    },
    {
      "inputs": [
        {
          "internalType": "uint256",
          "name": "",
          "type": "uint256"
        }
      ],
      "name": "yieldTrackers",
      "outputs": [
        {
          "internalType": "address",
          "name": "",
          "type": "address"
        }
      ],
      "stateMutability": "view",
      "type": "function"
    }
  ],
  "transactionHash": "0x80f157bc633e61db006396d1e0a62102b9f182e48de623bc60a6613fc68beeae",
  "args": [],
  "numDeployments": 1,
  "solcInputHash": "a5c1ec6ed734a994a4a7c4ed9bed389b",
  "bytecode": "0x60806040523480156200001157600080fd5b50604051806040016040528060068152602001650584458204c560d41b815250604051806040016040528060038152602001620b098b60eb1b815250600082828282600090805190602001906200006a929190620002e5565b50815162000080906001906020850190620002e5565b50600480546001600160a01b03191633908117909155620000a29082620000ae565b50505050505062000381565b6001600160a01b038216620000f55760405162461bcd60e51b81526004018080602001828103825260238152602001806200251d6023913960400191505060405180910390fd5b6200010082620001e4565b6200011c816002546200028360201b6200147d1790919060201c565b6002556001600160a01b038216600090815260056020908152604090912054620001519183906200147d62000283821b17901c565b6001600160a01b03831660009081526005602090815260408083209390935560089052205460ff16156200019f576200019b816003546200028360201b6200147d1790919060201c565b6003555b6040805182815290516001600160a01b038416916000917fddf252ad1be2c89b69c2b068fc378daa952ba7f163c4a11628f55a4df523b3ef9181900360200190a35050565b60005b6007548110156200027f576000600782815481106200020257fe5b600091825260208220015460408051635fd6196560e01b81526001600160a01b03878116600483015291519190921693508392635fd61965926024808201939182900301818387803b1580156200025857600080fd5b505af11580156200026d573d6000803e3d6000fd5b505060019093019250620001e7915050565b5050565b600082820183811015620002de576040805162461bcd60e51b815260206004820152601b60248201527f536166654d6174683a206164646974696f6e206f766572666c6f770000000000604482015290519081900360640190fd5b9392505050565b828054600181600116156101000203166002900490600052602060002090601f016020900481019282601f106200032857805160ff191683800117855562000358565b8280016001018555821562000358579182015b82811115620003585782518255916020019190600101906200033b565b50620003669291506200036a565b5090565b5b808211156200036657600081556001016200036b565b61218c80620003916000396000f3fe608060405234801561001057600080fd5b50600436106101c75760003560e01c80636228907711610100578063622890771461056e578063704802751461059457806370a08231146105ba578063817b1cd2146105e05780639554381a146105e857806395d89b411461060e578063996f11ee146106165780639cb7de4b146106445780639dc29fac14610672578063a9059cbb1461069e578063a923fc40146106ca578063aa271e1a146107f3578063af640d0f14610819578063c93be63614610821578063cf456ae714610829578063cfad57a214610857578063dd62ed3e1461087d578063dfbaefb1146108ab578063fb30d916146108b3576101c7565b806301e33667146101cc57806306fdde0314610204578063095ea7b31461028157806312d43a51146102c15780631785f53c146102e557806318160ddd1461030b5780631e83409a1461032557806323b872dd1461034b578063276eab4e1461038157806327e235e314610422578063313ce5671461044857806340c10f1914610466578063429b62e51461049257806346ea87af146104b857806352cd38d9146104de57806355b6ed5c146104fb5780635a47a1a7146105295780636021726714610548575b600080fd5b610202600480360360608110156101e257600080fd5b506001600160a01b038135811691602081013590911690604001356108d9565b005b61020c61093f565b6040805160208082528351818301528351919283929083019185019080838360005b8381101561024657818101518382015260200161022e565b50505050905090810190601f1680156102735780820380516001836020036101000a031916815260200191505b509250505060405180910390f35b6102ad6004803603604081101561029757600080fd5b506001600160a01b0381351690602001356109cd565b604080519115158252519081900360200190f35b6102c96109e3565b604080516001600160a01b039092168252519081900360200190f35b610202600480360360208110156102fb57600080fd5b50356001600160a01b03166109f2565b610313610a60565b60408051918252519081900360200190f35b6102026004803603602081101561033b57600080fd5b50356001600160a01b0316610a66565b6102ad6004803603606081101561036157600080fd5b506001600160a01b03813581169160208101359091169060400135610b1d565b6102026004803603602081101561039757600080fd5b810190602081018135600160201b8111156103b157600080fd5b8201836020820111156103c357600080fd5b803590602001918460208302840111600160201b831117156103e457600080fd5b919080806020026020016040519081016040528093929190818152602001838360200280828437600092019190915250929550610bb7945050505050565b6103136004803603602081101561043857600080fd5b50356001600160a01b0316610c17565b610450610c29565b6040805160ff9092168252519081900360200190f35b6102026004803603604081101561047c57600080fd5b506001600160a01b038135169060200135610c2e565b6102ad600480360360208110156104a857600080fd5b50356001600160a01b0316610c9b565b6102ad600480360360208110156104ce57600080fd5b50356001600160a01b0316610cb0565b6102c9600480360360208110156104f457600080fd5b5035610cc5565b6103136004803603604081101561051157600080fd5b506001600160a01b0381358116916020013516610cec565b6102026004803603602081101561053f57600080fd5b50351515610d09565b6103136004803603602081101561055e57600080fd5b50356001600160a01b0316610d69565b6102026004803603602081101561058457600080fd5b50356001600160a01b0316610db2565b610202600480360360208110156105aa57600080fd5b50356001600160a01b0316610ea5565b610313600480360360208110156105d057600080fd5b50356001600160a01b0316610f16565b610313610f31565b6102ad600480360360208110156105fe57600080fd5b50356001600160a01b0316610f4f565b61020c610f64565b6102026004803603604081101561062c57600080fd5b506001600160a01b0381358116916020013516610fbe565b6102026004803603604081101561065a57600080fd5b506001600160a01b03813516906020013515156110c5565b6102026004803603604081101561068857600080fd5b506001600160a01b03813516906020013561113d565b6102ad600480360360408110156106b457600080fd5b506001600160a01b0381351690602001356111aa565b610202600480360360408110156106e057600080fd5b810190602081018135600160201b8111156106fa57600080fd5b82018360208201111561070c57600080fd5b803590602001918460018302840111600160201b8311171561072d57600080fd5b91908080601f0160208091040260200160405190810160405280939291908181526020018383808284376000920191909152509295949360208101935035915050600160201b81111561077f57600080fd5b82018360208201111561079157600080fd5b803590602001918460018302840111600160201b831117156107b257600080fd5b91908080601f0160208091040260200160405190810160405280939291908181526020018383808284376000920191909152509295506111b7945050505050565b6102ad6004803603602081101561080957600080fd5b50356001600160a01b031661122b565b61020c611240565b61031361125d565b6102026004803603604081101561083f57600080fd5b506001600160a01b0381351690602001351515611263565b6102026004803603602081101561086d57600080fd5b50356001600160a01b03166112db565b6103136004803603604081101561089357600080fd5b506001600160a01b038135811691602001351661134a565b6102ad611375565b610202600480360360208110156108c957600080fd5b50356001600160a01b031661137e565b6004546001600160a01b03163314610926576040805162461bcd60e51b8152602060048201526014602482015260008051602061202e833981519152604482015290519081900360640190fd5b61093a6001600160a01b03841683836114d5565b505050565b6000805460408051602060026001851615610100026000190190941693909304601f810184900484028201840190925281815292918301828280156109c55780601f1061099a576101008083540402835291602001916109c5565b820191906000526020600020905b8154815290600101906020018083116109a857829003601f168201915b505050505081565b60006109da338484611527565b50600192915050565b6004546001600160a01b031681565b6004546001600160a01b03163314610a3f576040805162461bcd60e51b8152602060048201526014602482015260008051602061202e833981519152604482015290519081900360640190fd5b6001600160a01b03166000908152600960205260409020805460ff19169055565b60025481565b60005b600754811015610b1957600060078281548110610a8257fe5b6000918252602080832090910154604080516310e059a160e11b81523360048201526001600160a01b038881166024830152915191909216945084936321c0b34293604480850194919392918390030190829087803b158015610ae457600080fd5b505af1158015610af8573d6000803e3d6000fd5b505050506040513d6020811015610b0e57600080fd5b505050600101610a69565b5050565b336000908152600b602052604081205460ff1615610b4857610b40848484611613565b506001610bb0565b6000610b92836040518060600160405280602c8152602001611fdc602c91396001600160a01b03881660009081526006602090815260408083203384529091529020549190611829565b9050610b9f853383611527565b610baa858585611613565b60019150505b9392505050565b6004546001600160a01b03163314610c04576040805162461bcd60e51b8152602060048201526014602482015260008051602061202e833981519152604482015290519081900360640190fd5b8051610b19906007906020840190611e33565b60056020526000908152604090205481565b601281565b336000908152600c602052604090205460ff16610c91576040805162461bcd60e51b815260206004820152601c60248201527b26b4b73a30b13632a130b9b2aa37b5b2b71d103337b93134b23232b760211b604482015290519081900360640190fd5b610b1982826118c0565b60096020526000908152604090205460ff1681565b600b6020526000908152604090205460ff1681565b60078181548110610cd257fe5b6000918252602090912001546001600160a01b0316905081565b600660209081526000928352604080842090915290825290205481565b6004546001600160a01b03163314610d56576040805162461bcd60e51b8152602060048201526014602482015260008051602061202e833981519152604482015290519081900360640190fd5b600a805460ff1916911515919091179055565b6001600160a01b03811660009081526008602052604081205460ff1615610d9257506000610dad565b506001600160a01b0381166000908152600560205260409020545b919050565b3360009081526009602052604090205460ff16610e04576040805162461bcd60e51b8152602060048201526014602482015260008051602061202e833981519152604482015290519081900360640190fd5b6001600160a01b03811660009081526008602052604090205460ff1615610e5c5760405162461bcd60e51b81526004018080602001828103825260228152602001806120c06022913960400191505060405180910390fd5b610e65816119b2565b6001600160a01b0381166000908152600860209081526040808320805460ff191660011790556005909152902054600354610e9f9161147d565b60035550565b6004546001600160a01b03163314610ef2576040805162461bcd60e51b8152602060048201526014602482015260008051602061202e833981519152604482015290519081900360640190fd5b6001600160a01b03166000908152600960205260409020805460ff19166001179055565b6001600160a01b031660009081526005602052604090205490565b6000610f4a600354600254611a4890919063ffffffff16565b905090565b60086020526000908152604090205460ff1681565b60018054604080516020600284861615610100026000190190941693909304601f810184900484028201840190925281815292918301828280156109c55780601f1061099a576101008083540402835291602001916109c5565b3360009081526009602052604090205460ff16611010576040805162461bcd60e51b8152602060048201526014602482015260008051602061202e833981519152604482015290519081900360640190fd5b60005b60075481101561093a5760006007828154811061102c57fe5b6000918252602080832090910154604080516310e059a160e11b81526001600160a01b0389811660048301528881166024830152915191909216945084936321c0b34293604480850194919392918390030190829087803b15801561109057600080fd5b505af11580156110a4573d6000803e3d6000fd5b505050506040513d60208110156110ba57600080fd5b505050600101611013565b6004546001600160a01b03163314611112576040805162461bcd60e51b8152602060048201526014602482015260008051602061202e833981519152604482015290519081900360640190fd5b6001600160a01b03919091166000908152600b60205260409020805460ff1916911515919091179055565b336000908152600c602052604090205460ff166111a0576040805162461bcd60e51b815260206004820152601c60248201527b26b4b73a30b13632a130b9b2aa37b5b2b71d103337b93134b23232b760211b604482015290519081900360640190fd5b610b198282611a8a565b60006109da338484611613565b6004546001600160a01b03163314611204576040805162461bcd60e51b8152602060048201526014602482015260008051602061202e833981519152604482015290519081900360640190fd5b8151611217906000906020850190611e98565b50805161093a906001906020840190611e98565b600c6020526000908152604090205460ff1681565b6040805180820190915260038152620b098b60eb1b602082015290565b60035481565b6004546001600160a01b031633146112b0576040805162461bcd60e51b8152602060048201526014602482015260008051602061202e833981519152604482015290519081900360640190fd5b6001600160a01b03919091166000908152600c60205260409020805460ff1916911515919091179055565b6004546001600160a01b03163314611328576040805162461bcd60e51b8152602060048201526014602482015260008051602061202e833981519152604482015290519081900360640190fd5b600480546001600160a01b0319166001600160a01b0392909216919091179055565b6001600160a01b03918216600090815260066020908152604080832093909416825291909152205490565b600a5460ff1681565b3360009081526009602052604090205460ff166113d0576040805162461bcd60e51b8152602060048201526014602482015260008051602061202e833981519152604482015290519081900360640190fd5b6001600160a01b03811660009081526008602052604090205460ff1661143d576040805162461bcd60e51b815260206004820152601e60248201527f42617365546f6b656e3a205f6163636f756e74206e6f74206d61726b65640000604482015290519081900360640190fd5b611446816119b2565b6001600160a01b0381166000908152600860209081526040808320805460ff191690556005909152902054600354610e9f91611a48565b600082820183811015610bb0576040805162461bcd60e51b815260206004820152601b60248201527a536166654d6174683a206164646974696f6e206f766572666c6f7760281b604482015290519081900360640190fd5b604080516001600160a01b038416602482015260448082018490528251808303909101815260649091019091526020810180516001600160e01b031663a9059cbb60e01b17905261093a908490611ba3565b6001600160a01b03831661156c5760405162461bcd60e51b815260040180806020018281038252602881526020018061204e6028913960400191505060405180910390fd5b6001600160a01b0382166115b15760405162461bcd60e51b8152600401808060200182810382526026815260200180611fb66026913960400191505060405180910390fd5b6001600160a01b03808416600081815260066020908152604080832094871680845294825291829020859055815185815291517f8c5be1e5ebec7d5bd14f71427d1e84f3dd0314c0f7b2291e5b200ac8c7c3b9259281900390910190a3505050565b6001600160a01b0383166116585760405162461bcd60e51b81526004018080602001828103825260298152602001806121576029913960400191505060405180910390fd5b6001600160a01b03821661169d5760405162461bcd60e51b8152600401808060200182810382526027815260200180611f6c6027913960400191505060405180910390fd5b600a5460ff16156116f657336000908152600b602052604090205460ff166116f65760405162461bcd60e51b8152600401808060200182810382526025815260200180611f476025913960400191505060405180910390fd5b6116ff836119b2565b611708826119b2565b611745816040518060600160405280602a8152602001612076602a91396001600160a01b0386166000908152600560205260409020549190611829565b6001600160a01b038085166000908152600560205260408082209390935590841681522054611774908261147d565b6001600160a01b0380841660009081526005602090815260408083209490945591861681526008909152205460ff16156117b9576003546117b59082611a48565b6003555b6001600160a01b03821660009081526008602052604090205460ff16156117eb576003546117e7908261147d565b6003555b816001600160a01b0316836001600160a01b03166000805160206120a0833981519152836040518082815260200191505060405180910390a3505050565b600081848411156118b85760405162461bcd60e51b81526004018080602001828103825283818151815260200191508051906020019080838360005b8381101561187d578181015183820152602001611865565b50505050905090810190601f1680156118aa5780820380516001836020036101000a031916815260200191505b509250505060405180910390fd5b505050900390565b6001600160a01b0382166119055760405162461bcd60e51b8152600401808060200182810382526023815260200180611f936023913960400191505060405180910390fd5b61190e826119b2565b60025461191b908261147d565b6002556001600160a01b038216600090815260056020526040902054611941908261147d565b6001600160a01b03831660009081526005602090815260408083209390935560089052205460ff161561197f5760035461197b908261147d565b6003555b6040805182815290516001600160a01b038416916000916000805160206120a08339815191529181900360200190a35050565b60005b600754811015610b19576000600782815481106119ce57fe5b600091825260208220015460408051635fd6196560e01b81526001600160a01b03878116600483015291519190921693508392635fd61965926024808201939182900301818387803b158015611a2357600080fd5b505af1158015611a37573d6000803e3d6000fd5b5050600190930192506119b5915050565b6000610bb083836040518060400160405280601e81526020017f536166654d6174683a207375627472616374696f6e206f766572666c6f770000815250611829565b6001600160a01b038216611acf5760405162461bcd60e51b81526004018080602001828103825260258152602001806121326025913960400191505060405180910390fd5b611ad8826119b2565b611b15816040518060600160405280602681526020016120e2602691396001600160a01b0385166000908152600560205260409020549190611829565b6001600160a01b038316600090815260056020526040902055600254611b3b9082611a48565b6002556001600160a01b03821660009081526008602052604090205460ff1615611b7057600354611b6c9082611a48565b6003555b6040805182815290516000916001600160a01b038516916000805160206120a08339815191529181900360200190a35050565b6060611bf8826040518060400160405280602081526020017f5361666545524332303a206c6f772d6c6576656c2063616c6c206661696c6564815250856001600160a01b0316611c549092919063ffffffff16565b80519091501561093a57808060200190516020811015611c1757600080fd5b505161093a5760405162461bcd60e51b815260040180806020018281038252602a815260200180612108602a913960400191505060405180910390fd5b6060611c638484600085611c6b565b949350505050565b606082471015611cac5760405162461bcd60e51b81526004018080602001828103825260268152602001806120086026913960400191505060405180910390fd5b611cb585611dc7565b611d06576040805162461bcd60e51b815260206004820152601d60248201527f416464726573733a2063616c6c20746f206e6f6e2d636f6e7472616374000000604482015290519081900360640190fd5b60006060866001600160a01b031685876040518082805190602001908083835b60208310611d455780518252601f199092019160209182019101611d26565b6001836020036101000a03801982511681845116808217855250505050505090500191505060006040518083038185875af1925050503d8060008114611da7576040519150601f19603f3d011682016040523d82523d6000602084013e611dac565b606091505b5091509150611dbc828286611dcd565b979650505050505050565b3b151590565b60608315611ddc575081610bb0565b825115611dec5782518084602001fd5b60405162461bcd60e51b815260206004820181815284516024840152845185939192839260440191908501908083836000831561187d578181015183820152602001611865565b828054828255906000526020600020908101928215611e88579160200282015b82811115611e8857825182546001600160a01b0319166001600160a01b03909116178255602090920191600190910190611e53565b50611e94929150611f12565b5090565b828054600181600116156101000203166002900490600052602060002090601f016020900481019282601f10611ed957805160ff1916838001178555611f06565b82800160010185558215611f06579182015b82811115611f06578251825591602001919060010190611eeb565b50611e94929150611f31565b5b80821115611e945780546001600160a01b0319168155600101611f13565b5b80821115611e945760008155600101611f3256fe42617365546f6b656e3a206d73672e73656e646572206e6f742077686974656c697374656442617365546f6b656e3a207472616e7366657220746f20746865207a65726f206164647265737342617365546f6b656e3a206d696e7420746f20746865207a65726f206164647265737342617365546f6b656e3a20617070726f766520746f20746865207a65726f206164647265737342617365546f6b656e3a207472616e7366657220616d6f756e74206578636565647320616c6c6f77616e6365416464726573733a20696e73756666696369656e742062616c616e636520666f722063616c6c42617365546f6b656e3a20666f7262696464656e00000000000000000000000042617365546f6b656e3a20617070726f76652066726f6d20746865207a65726f206164647265737342617365546f6b656e3a207472616e7366657220616d6f756e7420657863656564732062616c616e6365ddf252ad1be2c89b69c2b068fc378daa952ba7f163c4a11628f55a4df523b3ef42617365546f6b656e3a205f6163636f756e7420616c7265616479206d61726b656442617365546f6b656e3a206275726e20616d6f756e7420657863656564732062616c616e63655361666545524332303a204552433230206f7065726174696f6e20646964206e6f74207375636365656442617365546f6b656e3a206275726e2066726f6d20746865207a65726f206164647265737342617365546f6b656e3a207472616e736665722066726f6d20746865207a65726f2061646472657373a164736f6c634300060c000a42617365546f6b656e3a206d696e7420746f20746865207a65726f2061646472657373",
  "devdoc": {
    "kind": "dev",
    "methods": {},
    "version": 1
  },
  "userdoc": {
    "kind": "user",
    "methods": {},
    "version": 1
  },
  "storageLayout": {
    "storage": [
      {
        "astId": 44007,
        "contract": "contracts/xdx/XLX.sol:XLX",
        "label": "name",
        "offset": 0,
        "slot": "0",
        "type": "t_string_storage"
      },
      {
        "astId": 44009,
        "contract": "contracts/xdx/XLX.sol:XLX",
        "label": "symbol",
        "offset": 0,
        "slot": "1",
        "type": "t_string_storage"
      },
      {
        "astId": 44015,
        "contract": "contracts/xdx/XLX.sol:XLX",
        "label": "totalSupply",
        "offset": 0,
        "slot": "2",
        "type": "t_uint256"
      },
      {
        "astId": 44017,
        "contract": "contracts/xdx/XLX.sol:XLX",
        "label": "nonStakingSupply",
        "offset": 0,
        "slot": "3",
        "type": "t_uint256"
      },
      {
        "astId": 44019,
        "contract": "contracts/xdx/XLX.sol:XLX",
        "label": "gov",
        "offset": 0,
        "slot": "4",
        "type": "t_address"
      },
      {
        "astId": 44023,
        "contract": "contracts/xdx/XLX.sol:XLX",
        "label": "balances",
        "offset": 0,
        "slot": "5",
        "type": "t_mapping(t_address,t_uint256)"
      },
      {
        "astId": 44029,
        "contract": "contracts/xdx/XLX.sol:XLX",
        "label": "allowances",
        "offset": 0,
        "slot": "6",
        "type": "t_mapping(t_address,t_mapping(t_address,t_uint256))"
      },
      {
        "astId": 44032,
        "contract": "contracts/xdx/XLX.sol:XLX",
        "label": "yieldTrackers",
        "offset": 0,
        "slot": "7",
        "type": "t_array(t_address)dyn_storage"
      },
      {
        "astId": 44036,
        "contract": "contracts/xdx/XLX.sol:XLX",
        "label": "nonStakingAccounts",
        "offset": 0,
        "slot": "8",
        "type": "t_mapping(t_address,t_bool)"
      },
      {
        "astId": 44040,
        "contract": "contracts/xdx/XLX.sol:XLX",
        "label": "admins",
        "offset": 0,
        "slot": "9",
        "type": "t_mapping(t_address,t_bool)"
      },
      {
        "astId": 44042,
        "contract": "contracts/xdx/XLX.sol:XLX",
        "label": "inPrivateTransferMode",
        "offset": 0,
        "slot": "10",
        "type": "t_bool"
      },
      {
        "astId": 44046,
        "contract": "contracts/xdx/XLX.sol:XLX",
        "label": "isHandler",
        "offset": 0,
        "slot": "11",
        "type": "t_mapping(t_address,t_bool)"
      },
      {
        "astId": 45596,
        "contract": "contracts/xdx/XLX.sol:XLX",
        "label": "isMinter",
        "offset": 0,
        "slot": "12",
        "type": "t_mapping(t_address,t_bool)"
      }
    ],
    "types": {
      "t_address": {
        "encoding": "inplace",
        "label": "address",
        "numberOfBytes": "20"
      },
      "t_array(t_address)dyn_storage": {
        "base": "t_address",
        "encoding": "dynamic_array",
        "label": "address[]",
        "numberOfBytes": "32"
      },
      "t_bool": {
        "encoding": "inplace",
        "label": "bool",
        "numberOfBytes": "1"
      },
      "t_mapping(t_address,t_bool)": {
        "encoding": "mapping",
        "key": "t_address",
        "label": "mapping(address => bool)",
        "numberOfBytes": "32",
        "value": "t_bool"
      },
      "t_mapping(t_address,t_mapping(t_address,t_uint256))": {
        "encoding": "mapping",
        "key": "t_address",
        "label": "mapping(address => mapping(address => uint256))",
        "numberOfBytes": "32",
        "value": "t_mapping(t_address,t_uint256)"
      },
      "t_mapping(t_address,t_uint256)": {
        "encoding": "mapping",
        "key": "t_address",
        "label": "mapping(address => uint256)",
        "numberOfBytes": "32",
        "value": "t_uint256"
      },
      "t_string_storage": {
        "encoding": "bytes",
        "label": "string",
        "numberOfBytes": "32"
      },
      "t_uint256": {
        "encoding": "inplace",
        "label": "uint256",
        "numberOfBytes": "32"
      }
    }
  }
}